{
	"contracts/ProjetYnov/GestionDesDiplomes.sol": {
		"GestionDesDiplomes": {
			"abi": [
				{
					"inputs": [],
					"stateMutability": "nonpayable",
					"type": "constructor"
				},
				{
					"inputs": [
						{
							"internalType": "uint256",
							"name": "_ID_Diplome",
							"type": "uint256"
						},
						{
							"internalType": "uint256",
							"name": "_ID_Titulaire",
							"type": "uint256"
						},
						{
							"internalType": "string",
							"name": "_Nom_Etablissement_enseignement_superieur",
							"type": "string"
						},
						{
							"internalType": "uint256",
							"name": "_ID_EES",
							"type": "uint256"
						},
						{
							"internalType": "string",
							"name": "_Pays",
							"type": "string"
						},
						{
							"internalType": "string",
							"name": "_Type_Diplome",
							"type": "string"
						},
						{
							"internalType": "string",
							"name": "_Specialite",
							"type": "string"
						},
						{
							"internalType": "string",
							"name": "_Mention",
							"type": "string"
						},
						{
							"internalType": "uint256",
							"name": "_Date_obtention",
							"type": "uint256"
						}
					],
					"name": "ajouterDiplome",
					"outputs": [],
					"stateMutability": "nonpayable",
					"type": "function"
				},
				{
					"inputs": [
						{
							"internalType": "uint256",
							"name": "_ID_Etablissement",
							"type": "uint256"
						},
						{
							"internalType": "string",
							"name": "_Nom_Etablissement",
							"type": "string"
						},
						{
							"internalType": "string",
							"name": "_Type",
							"type": "string"
						},
						{
							"internalType": "string",
							"name": "_Adresse",
							"type": "string"
						},
						{
							"internalType": "string",
							"name": "_Site_Web",
							"type": "string"
						},
						{
							"internalType": "uint256",
							"name": "_ID_Agent",
							"type": "uint256"
						}
					],
					"name": "creerCompteEtablissement",
					"outputs": [],
					"stateMutability": "nonpayable",
					"type": "function"
				},
				{
					"inputs": [
						{
							"internalType": "uint256",
							"name": "_ID_Entreprise",
							"type": "uint256"
						},
						{
							"internalType": "string",
							"name": "_Nom",
							"type": "string"
						},
						{
							"internalType": "string",
							"name": "_Secteur",
							"type": "string"
						},
						{
							"internalType": "string",
							"name": "_Date_Creation",
							"type": "string"
						},
						{
							"internalType": "string",
							"name": "_Classification_Taille",
							"type": "string"
						},
						{
							"internalType": "string",
							"name": "_Pays",
							"type": "string"
						},
						{
							"internalType": "string",
							"name": "_Adresse",
							"type": "string"
						},
						{
							"internalType": "string",
							"name": "_Courriel",
							"type": "string"
						},
						{
							"internalType": "string",
							"name": "_Telephone",
							"type": "string"
						},
						{
							"internalType": "string",
							"name": "_Site_Web",
							"type": "string"
						}
					],
					"name": "creerEntreprise",
					"outputs": [],
					"stateMutability": "nonpayable",
					"type": "function"
				},
				{
					"inputs": [
						{
							"internalType": "uint256",
							"name": "_ID_Etudiant",
							"type": "uint256"
						},
						{
							"internalType": "string",
							"name": "_Nom",
							"type": "string"
						},
						{
							"internalType": "string",
							"name": "_Prenom",
							"type": "string"
						},
						{
							"internalType": "string",
							"name": "_Sexe",
							"type": "string"
						},
						{
							"internalType": "string",
							"name": "_Nationalite",
							"type": "string"
						},
						{
							"internalType": "string",
							"name": "_Statut_civil",
							"type": "string"
						},
						{
							"internalType": "string",
							"name": "_Adresse",
							"type": "string"
						},
						{
							"internalType": "string",
							"name": "_Courriel",
							"type": "string"
						},
						{
							"internalType": "string",
							"name": "_Sujet_PFE",
							"type": "string"
						},
						{
							"internalType": "string",
							"name": "_Entreprise_Stage_PFE",
							"type": "string"
						},
						{
							"internalType": "string",
							"name": "_Evaluation",
							"type": "string"
						}
					],
					"name": "creerProfilEtudiant",
					"outputs": [],
					"stateMutability": "nonpayable",
					"type": "function"
				},
				{
					"inputs": [],
					"name": "devenirAgent",
					"outputs": [],
					"stateMutability": "nonpayable",
					"type": "function"
				},
				{
					"inputs": [
						{
							"internalType": "address",
							"name": "",
							"type": "address"
						}
					],
					"name": "diplomes",
					"outputs": [
						{
							"internalType": "uint256",
							"name": "ID_Diplome",
							"type": "uint256"
						},
						{
							"internalType": "uint256",
							"name": "ID_Titulaire",
							"type": "uint256"
						},
						{
							"internalType": "string",
							"name": "Nom_Etablissement_enseignement_superieur",
							"type": "string"
						},
						{
							"internalType": "uint256",
							"name": "ID_EES",
							"type": "uint256"
						},
						{
							"internalType": "string",
							"name": "Pays",
							"type": "string"
						},
						{
							"internalType": "string",
							"name": "Type_Diplome",
							"type": "string"
						},
						{
							"internalType": "string",
							"name": "Specialite",
							"type": "string"
						},
						{
							"internalType": "string",
							"name": "Mention",
							"type": "string"
						},
						{
							"internalType": "uint256",
							"name": "Date_obtention",
							"type": "uint256"
						}
					],
					"stateMutability": "view",
					"type": "function"
				},
				{
					"inputs": [
						{
							"internalType": "address",
							"name": "",
							"type": "address"
						}
					],
					"name": "entreprises",
					"outputs": [
						{
							"internalType": "uint256",
							"name": "ID_Entreprise",
							"type": "uint256"
						},
						{
							"internalType": "string",
							"name": "Nom",
							"type": "string"
						},
						{
							"internalType": "string",
							"name": "Secteur",
							"type": "string"
						},
						{
							"internalType": "string",
							"name": "Date_Creation",
							"type": "string"
						},
						{
							"internalType": "string",
							"name": "Classification_Taille",
							"type": "string"
						},
						{
							"internalType": "string",
							"name": "Pays",
							"type": "string"
						},
						{
							"internalType": "string",
							"name": "Adresse",
							"type": "string"
						},
						{
							"internalType": "string",
							"name": "Courriel",
							"type": "string"
						},
						{
							"internalType": "string",
							"name": "Telephone",
							"type": "string"
						},
						{
							"internalType": "string",
							"name": "Site_Web",
							"type": "string"
						}
					],
					"stateMutability": "view",
					"type": "function"
				},
				{
					"inputs": [
						{
							"internalType": "address",
							"name": "",
							"type": "address"
						}
					],
					"name": "estAgent",
					"outputs": [
						{
							"internalType": "bool",
							"name": "",
							"type": "bool"
						}
					],
					"stateMutability": "view",
					"type": "function"
				},
				{
					"inputs": [
						{
							"internalType": "address",
							"name": "",
							"type": "address"
						}
					],
					"name": "etablissements",
					"outputs": [
						{
							"internalType": "uint256",
							"name": "ID_Etablissement",
							"type": "uint256"
						},
						{
							"internalType": "string",
							"name": "Nom_Etablissement",
							"type": "string"
						},
						{
							"internalType": "string",
							"name": "Type",
							"type": "string"
						},
						{
							"internalType": "string",
							"name": "Adresse",
							"type": "string"
						},
						{
							"internalType": "string",
							"name": "Site_Web",
							"type": "string"
						},
						{
							"internalType": "uint256",
							"name": "ID_Agent",
							"type": "uint256"
						}
					],
					"stateMutability": "view",
					"type": "function"
				},
				{
					"inputs": [
						{
							"internalType": "address",
							"name": "",
							"type": "address"
						}
					],
					"name": "etudiants",
					"outputs": [
						{
							"internalType": "uint256",
							"name": "ID_Etudiant",
							"type": "uint256"
						},
						{
							"internalType": "string",
							"name": "Nom",
							"type": "string"
						},
						{
							"internalType": "string",
							"name": "Prenom",
							"type": "string"
						},
						{
							"internalType": "string",
							"name": "Sexe",
							"type": "string"
						},
						{
							"internalType": "string",
							"name": "Nationalite",
							"type": "string"
						},
						{
							"internalType": "string",
							"name": "Statut_civil",
							"type": "string"
						},
						{
							"internalType": "string",
							"name": "Adresse",
							"type": "string"
						},
						{
							"internalType": "string",
							"name": "Courriel",
							"type": "string"
						},
						{
							"internalType": "string",
							"name": "Sujet_PFE",
							"type": "string"
						},
						{
							"internalType": "string",
							"name": "Entreprise_Stage_PFE",
							"type": "string"
						},
						{
							"internalType": "string",
							"name": "Evaluation",
							"type": "string"
						}
					],
					"stateMutability": "view",
					"type": "function"
				},
				{
					"inputs": [],
					"name": "owner",
					"outputs": [
						{
							"internalType": "address",
							"name": "",
							"type": "address"
						}
					],
					"stateMutability": "view",
					"type": "function"
				}
			],
			"devdoc": {
				"kind": "dev",
				"methods": {},
				"version": 1
			},
			"evm": {
				"assembly": "    /* \"contracts/ProjetYnov/GestionDesDiplomes.sol\":60:4680  contract GestionDesDiplomes {... */\n  mstore(0x40, 0x80)\n    /* \"contracts/ProjetYnov/GestionDesDiplomes.sol\":2342:2393  constructor() {... */\n  callvalue\n  dup1\n  iszero\n  tag_1\n  jumpi\n  0x00\n  dup1\n  revert\ntag_1:\n  pop\n    /* \"contracts/ProjetYnov/GestionDesDiplomes.sol\":2375:2385  msg.sender */\n  caller\n    /* \"contracts/ProjetYnov/GestionDesDiplomes.sol\":2367:2372  owner */\n  0x00\n  dup1\n    /* \"contracts/ProjetYnov/GestionDesDiplomes.sol\":2367:2385  owner = msg.sender */\n  0x0100\n  exp\n  dup2\n  sload\n  dup2\n  0xffffffffffffffffffffffffffffffffffffffff\n  mul\n  not\n  and\n  swap1\n  dup4\n  0xffffffffffffffffffffffffffffffffffffffff\n  and\n  mul\n  or\n  swap1\n  sstore\n  pop\n    /* \"contracts/ProjetYnov/GestionDesDiplomes.sol\":60:4680  contract GestionDesDiplomes {... */\n  dataSize(sub_0)\n  dup1\n  dataOffset(sub_0)\n  0x00\n  codecopy\n  0x00\n  return\nstop\n\nsub_0: assembly {\n        /* \"contracts/ProjetYnov/GestionDesDiplomes.sol\":60:4680  contract GestionDesDiplomes {... */\n      mstore(0x40, 0x80)\n      callvalue\n      dup1\n      iszero\n      tag_1\n      jumpi\n      0x00\n      dup1\n      revert\n    tag_1:\n      pop\n      jumpi(tag_2, lt(calldatasize, 0x04))\n      shr(0xe0, calldataload(0x00))\n      dup1\n      0x8da5cb5b\n      gt\n      tag_14\n      jumpi\n      dup1\n      0x8da5cb5b\n      eq\n      tag_8\n      jumpi\n      dup1\n      0x9c2df0d2\n      eq\n      tag_9\n      jumpi\n      dup1\n      0x9ef5c1e3\n      eq\n      tag_10\n      jumpi\n      dup1\n      0xad3062e4\n      eq\n      tag_11\n      jumpi\n      dup1\n      0xbef0bf4f\n      eq\n      tag_12\n      jumpi\n      dup1\n      0xd86c73b4\n      eq\n      tag_13\n      jumpi\n      jump(tag_2)\n    tag_14:\n      dup1\n      0x65eb3035\n      eq\n      tag_3\n      jumpi\n      dup1\n      0x6c5aea72\n      eq\n      tag_4\n      jumpi\n      dup1\n      0x77420711\n      eq\n      tag_5\n      jumpi\n      dup1\n      0x8256d51c\n      eq\n      tag_6\n      jumpi\n      dup1\n      0x8d26af78\n      eq\n      tag_7\n      jumpi\n    tag_2:\n      0x00\n      dup1\n      revert\n        /* \"contracts/ProjetYnov/GestionDesDiplomes.sol\":1916:1965  mapping(address => Entreprise) public entreprises */\n    tag_3:\n      tag_15\n      0x04\n      dup1\n      calldatasize\n      sub\n      dup2\n      add\n      swap1\n      tag_16\n      swap2\n      swap1\n      tag_17\n      jump\t// in\n    tag_16:\n      tag_18\n      jump\t// in\n    tag_15:\n      mload(0x40)\n      tag_19\n      swap11\n      swap10\n      swap9\n      swap8\n      swap7\n      swap6\n      swap5\n      swap4\n      swap3\n      swap2\n      swap1\n      tag_20\n      jump\t// in\n    tag_19:\n      mload(0x40)\n      dup1\n      swap2\n      sub\n      swap1\n      return\n        /* \"contracts/ProjetYnov/GestionDesDiplomes.sol\":2465:2542  function devenirAgent() public {... */\n    tag_4:\n      tag_21\n      tag_22\n      jump\t// in\n    tag_21:\n      stop\n        /* \"contracts/ProjetYnov/GestionDesDiplomes.sol\":1680:1725  mapping(address => Etudiant) public etudiants */\n    tag_5:\n      tag_23\n      0x04\n      dup1\n      calldatasize\n      sub\n      dup2\n      add\n      swap1\n      tag_24\n      swap2\n      swap1\n      tag_17\n      jump\t// in\n    tag_24:\n      tag_25\n      jump\t// in\n    tag_23:\n      mload(0x40)\n      tag_26\n      swap12\n      swap11\n      swap10\n      swap9\n      swap8\n      swap7\n      swap6\n      swap5\n      swap4\n      swap3\n      swap2\n      swap1\n      tag_27\n      jump\t// in\n    tag_26:\n      mload(0x40)\n      dup1\n      swap2\n      sub\n      swap1\n      return\n        /* \"contracts/ProjetYnov/GestionDesDiplomes.sol\":1554:1609  mapping(address => Etablissement) public etablissements */\n    tag_6:\n      tag_28\n      0x04\n      dup1\n      calldatasize\n      sub\n      dup2\n      add\n      swap1\n      tag_29\n      swap2\n      swap1\n      tag_17\n      jump\t// in\n    tag_29:\n      tag_30\n      jump\t// in\n    tag_28:\n      mload(0x40)\n      tag_31\n      swap7\n      swap6\n      swap5\n      swap4\n      swap3\n      swap2\n      swap1\n      tag_32\n      jump\t// in\n    tag_31:\n      mload(0x40)\n      dup1\n      swap2\n      sub\n      swap1\n      return\n        /* \"contracts/ProjetYnov/GestionDesDiplomes.sol\":4203:4677  function creerEntreprise(uint _ID_Entreprise, string memory _Nom, string memory _Secteur, string memory _Date_Creation, string memory _Classification_Taille, string memory _Pays, string memory _Adresse, string memory _Courriel, string memory _Telephone, string memory _Site_Web) public onlyAgent {... */\n    tag_7:\n      tag_33\n      0x04\n      dup1\n      calldatasize\n      sub\n      dup2\n      add\n      swap1\n      tag_34\n      swap2\n      swap1\n      tag_35\n      jump\t// in\n    tag_34:\n      tag_36\n      jump\t// in\n    tag_33:\n      stop\n        /* \"contracts/ProjetYnov/GestionDesDiplomes.sol\":95:115  address public owner */\n    tag_8:\n      tag_37\n      tag_38\n      jump\t// in\n    tag_37:\n      mload(0x40)\n      tag_39\n      swap2\n      swap1\n      tag_40\n      jump\t// in\n    tag_39:\n      mload(0x40)\n      dup1\n      swap2\n      sub\n      swap1\n      return\n        /* \"contracts/ProjetYnov/GestionDesDiplomes.sol\":2606:2941  function creerCompteEtablissement (uint _ID_Etablissement, string memory _Nom_Etablissement, string memory _Type, string memory _Adresse, string memory _Site_Web, uint _ID_Agent) public onlyAgent {... */\n    tag_9:\n      tag_41\n      0x04\n      dup1\n      calldatasize\n      sub\n      dup2\n      add\n      swap1\n      tag_42\n      swap2\n      swap1\n      tag_43\n      jump\t// in\n    tag_42:\n      tag_44\n      jump\t// in\n    tag_41:\n      stop\n        /* \"contracts/ProjetYnov/GestionDesDiplomes.sol\":2998:3609  function creerProfilEtudiant(uint _ID_Etudiant, string memory _Nom, string memory _Prenom, string memory _Sexe,string memory _Nationalite,string memory _Statut_civil,string memory _Adresse,string memory _Courriel,string memory _Sujet_PFE,string memory _Entreprise_Stage_PFE,string memory _Evaluation) public onlyAgent  {... */\n    tag_10:\n      tag_45\n      0x04\n      dup1\n      calldatasize\n      sub\n      dup2\n      add\n      swap1\n      tag_46\n      swap2\n      swap1\n      tag_47\n      jump\t// in\n    tag_46:\n      tag_48\n      jump\t// in\n    tag_45:\n      stop\n        /* \"contracts/ProjetYnov/GestionDesDiplomes.sol\":1798:1841  mapping(address => Diplome) public diplomes */\n    tag_11:\n      tag_49\n      0x04\n      dup1\n      calldatasize\n      sub\n      dup2\n      add\n      swap1\n      tag_50\n      swap2\n      swap1\n      tag_17\n      jump\t// in\n    tag_50:\n      tag_51\n      jump\t// in\n    tag_49:\n      mload(0x40)\n      tag_52\n      swap10\n      swap9\n      swap8\n      swap7\n      swap6\n      swap5\n      swap4\n      swap3\n      swap2\n      swap1\n      tag_53\n      jump\t// in\n    tag_52:\n      mload(0x40)\n      dup1\n      swap2\n      sub\n      swap1\n      return\n        /* \"contracts/ProjetYnov/GestionDesDiplomes.sol\":3687:4151  function ajouterDiplome(uint _ID_Diplome, uint _ID_Titulaire, string memory _Nom_Etablissement_enseignement_superieur, uint _ID_EES, string memory _Pays, string memory _Type_Diplome, string memory _Specialite, string memory _Mention, uint _Date_obtention) public onlyAgent {... */\n    tag_12:\n      tag_54\n      0x04\n      dup1\n      calldatasize\n      sub\n      dup2\n      add\n      swap1\n      tag_55\n      swap2\n      swap1\n      tag_56\n      jump\t// in\n    tag_55:\n      tag_57\n      jump\t// in\n    tag_54:\n      stop\n        /* \"contracts/ProjetYnov/GestionDesDiplomes.sol\":2075:2115  mapping(address => bool) public estAgent */\n    tag_13:\n      tag_58\n      0x04\n      dup1\n      calldatasize\n      sub\n      dup2\n      add\n      swap1\n      tag_59\n      swap2\n      swap1\n      tag_17\n      jump\t// in\n    tag_59:\n      tag_60\n      jump\t// in\n    tag_58:\n      mload(0x40)\n      tag_61\n      swap2\n      swap1\n      tag_62\n      jump\t// in\n    tag_61:\n      mload(0x40)\n      dup1\n      swap2\n      sub\n      swap1\n      return\n        /* \"contracts/ProjetYnov/GestionDesDiplomes.sol\":1916:1965  mapping(address => Entreprise) public entreprises */\n    tag_18:\n      mstore(0x20, 0x04)\n      dup1\n      0x00\n      mstore\n      keccak256(0x00, 0x40)\n      0x00\n      swap2\n      pop\n      swap1\n      pop\n      dup1\n      0x00\n      add\n      sload\n      swap1\n      dup1\n      0x01\n      add\n      dup1\n      sload\n      tag_63\n      swap1\n      tag_64\n      jump\t// in\n    tag_63:\n      dup1\n      0x1f\n      add\n      0x20\n      dup1\n      swap2\n      div\n      mul\n      0x20\n      add\n      mload(0x40)\n      swap1\n      dup2\n      add\n      0x40\n      mstore\n      dup1\n      swap3\n      swap2\n      swap1\n      dup2\n      dup2\n      mstore\n      0x20\n      add\n      dup3\n      dup1\n      sload\n      tag_65\n      swap1\n      tag_64\n      jump\t// in\n    tag_65:\n      dup1\n      iszero\n      tag_66\n      jumpi\n      dup1\n      0x1f\n      lt\n      tag_67\n      jumpi\n      0x0100\n      dup1\n      dup4\n      sload\n      div\n      mul\n      dup4\n      mstore\n      swap2\n      0x20\n      add\n      swap2\n      jump(tag_66)\n    tag_67:\n      dup3\n      add\n      swap2\n      swap1\n      0x00\n      mstore\n      keccak256(0x00, 0x20)\n      swap1\n    tag_68:\n      dup2\n      sload\n      dup2\n      mstore\n      swap1\n      0x01\n      add\n      swap1\n      0x20\n      add\n      dup1\n      dup4\n      gt\n      tag_68\n      jumpi\n      dup3\n      swap1\n      sub\n      0x1f\n      and\n      dup3\n      add\n      swap2\n    tag_66:\n      pop\n      pop\n      pop\n      pop\n      pop\n      swap1\n      dup1\n      0x02\n      add\n      dup1\n      sload\n      tag_69\n      swap1\n      tag_64\n      jump\t// in\n    tag_69:\n      dup1\n      0x1f\n      add\n      0x20\n      dup1\n      swap2\n      div\n      mul\n      0x20\n      add\n      mload(0x40)\n      swap1\n      dup2\n      add\n      0x40\n      mstore\n      dup1\n      swap3\n      swap2\n      swap1\n      dup2\n      dup2\n      mstore\n      0x20\n      add\n      dup3\n      dup1\n      sload\n      tag_70\n      swap1\n      tag_64\n      jump\t// in\n    tag_70:\n      dup1\n      iszero\n      tag_71\n      jumpi\n      dup1\n      0x1f\n      lt\n      tag_72\n      jumpi\n      0x0100\n      dup1\n      dup4\n      sload\n      div\n      mul\n      dup4\n      mstore\n      swap2\n      0x20\n      add\n      swap2\n      jump(tag_71)\n    tag_72:\n      dup3\n      add\n      swap2\n      swap1\n      0x00\n      mstore\n      keccak256(0x00, 0x20)\n      swap1\n    tag_73:\n      dup2\n      sload\n      dup2\n      mstore\n      swap1\n      0x01\n      add\n      swap1\n      0x20\n      add\n      dup1\n      dup4\n      gt\n      tag_73\n      jumpi\n      dup3\n      swap1\n      sub\n      0x1f\n      and\n      dup3\n      add\n      swap2\n    tag_71:\n      pop\n      pop\n      pop\n      pop\n      pop\n      swap1\n      dup1\n      0x03\n      add\n      dup1\n      sload\n      tag_74\n      swap1\n      tag_64\n      jump\t// in\n    tag_74:\n      dup1\n      0x1f\n      add\n      0x20\n      dup1\n      swap2\n      div\n      mul\n      0x20\n      add\n      mload(0x40)\n      swap1\n      dup2\n      add\n      0x40\n      mstore\n      dup1\n      swap3\n      swap2\n      swap1\n      dup2\n      dup2\n      mstore\n      0x20\n      add\n      dup3\n      dup1\n      sload\n      tag_75\n      swap1\n      tag_64\n      jump\t// in\n    tag_75:\n      dup1\n      iszero\n      tag_76\n      jumpi\n      dup1\n      0x1f\n      lt\n      tag_77\n      jumpi\n      0x0100\n      dup1\n      dup4\n      sload\n      div\n      mul\n      dup4\n      mstore\n      swap2\n      0x20\n      add\n      swap2\n      jump(tag_76)\n    tag_77:\n      dup3\n      add\n      swap2\n      swap1\n      0x00\n      mstore\n      keccak256(0x00, 0x20)\n      swap1\n    tag_78:\n      dup2\n      sload\n      dup2\n      mstore\n      swap1\n      0x01\n      add\n      swap1\n      0x20\n      add\n      dup1\n      dup4\n      gt\n      tag_78\n      jumpi\n      dup3\n      swap1\n      sub\n      0x1f\n      and\n      dup3\n      add\n      swap2\n    tag_76:\n      pop\n      pop\n      pop\n      pop\n      pop\n      swap1\n      dup1\n      0x04\n      add\n      dup1\n      sload\n      tag_79\n      swap1\n      tag_64\n      jump\t// in\n    tag_79:\n      dup1\n      0x1f\n      add\n      0x20\n      dup1\n      swap2\n      div\n      mul\n      0x20\n      add\n      mload(0x40)\n      swap1\n      dup2\n      add\n      0x40\n      mstore\n      dup1\n      swap3\n      swap2\n      swap1\n      dup2\n      dup2\n      mstore\n      0x20\n      add\n      dup3\n      dup1\n      sload\n      tag_80\n      swap1\n      tag_64\n      jump\t// in\n    tag_80:\n      dup1\n      iszero\n      tag_81\n      jumpi\n      dup1\n      0x1f\n      lt\n      tag_82\n      jumpi\n      0x0100\n      dup1\n      dup4\n      sload\n      div\n      mul\n      dup4\n      mstore\n      swap2\n      0x20\n      add\n      swap2\n      jump(tag_81)\n    tag_82:\n      dup3\n      add\n      swap2\n      swap1\n      0x00\n      mstore\n      keccak256(0x00, 0x20)\n      swap1\n    tag_83:\n      dup2\n      sload\n      dup2\n      mstore\n      swap1\n      0x01\n      add\n      swap1\n      0x20\n      add\n      dup1\n      dup4\n      gt\n      tag_83\n      jumpi\n      dup3\n      swap1\n      sub\n      0x1f\n      and\n      dup3\n      add\n      swap2\n    tag_81:\n      pop\n      pop\n      pop\n      pop\n      pop\n      swap1\n      dup1\n      0x05\n      add\n      dup1\n      sload\n      tag_84\n      swap1\n      tag_64\n      jump\t// in\n    tag_84:\n      dup1\n      0x1f\n      add\n      0x20\n      dup1\n      swap2\n      div\n      mul\n      0x20\n      add\n      mload(0x40)\n      swap1\n      dup2\n      add\n      0x40\n      mstore\n      dup1\n      swap3\n      swap2\n      swap1\n      dup2\n      dup2\n      mstore\n      0x20\n      add\n      dup3\n      dup1\n      sload\n      tag_85\n      swap1\n      tag_64\n      jump\t// in\n    tag_85:\n      dup1\n      iszero\n      tag_86\n      jumpi\n      dup1\n      0x1f\n      lt\n      tag_87\n      jumpi\n      0x0100\n      dup1\n      dup4\n      sload\n      div\n      mul\n      dup4\n      mstore\n      swap2\n      0x20\n      add\n      swap2\n      jump(tag_86)\n    tag_87:\n      dup3\n      add\n      swap2\n      swap1\n      0x00\n      mstore\n      keccak256(0x00, 0x20)\n      swap1\n    tag_88:\n      dup2\n      sload\n      dup2\n      mstore\n      swap1\n      0x01\n      add\n      swap1\n      0x20\n      add\n      dup1\n      dup4\n      gt\n      tag_88\n      jumpi\n      dup3\n      swap1\n      sub\n      0x1f\n      and\n      dup3\n      add\n      swap2\n    tag_86:\n      pop\n      pop\n      pop\n      pop\n      pop\n      swap1\n      dup1\n      0x06\n      add\n      dup1\n      sload\n      tag_89\n      swap1\n      tag_64\n      jump\t// in\n    tag_89:\n      dup1\n      0x1f\n      add\n      0x20\n      dup1\n      swap2\n      div\n      mul\n      0x20\n      add\n      mload(0x40)\n      swap1\n      dup2\n      add\n      0x40\n      mstore\n      dup1\n      swap3\n      swap2\n      swap1\n      dup2\n      dup2\n      mstore\n      0x20\n      add\n      dup3\n      dup1\n      sload\n      tag_90\n      swap1\n      tag_64\n      jump\t// in\n    tag_90:\n      dup1\n      iszero\n      tag_91\n      jumpi\n      dup1\n      0x1f\n      lt\n      tag_92\n      jumpi\n      0x0100\n      dup1\n      dup4\n      sload\n      div\n      mul\n      dup4\n      mstore\n      swap2\n      0x20\n      add\n      swap2\n      jump(tag_91)\n    tag_92:\n      dup3\n      add\n      swap2\n      swap1\n      0x00\n      mstore\n      keccak256(0x00, 0x20)\n      swap1\n    tag_93:\n      dup2\n      sload\n      dup2\n      mstore\n      swap1\n      0x01\n      add\n      swap1\n      0x20\n      add\n      dup1\n      dup4\n      gt\n      tag_93\n      jumpi\n      dup3\n      swap1\n      sub\n      0x1f\n      and\n      dup3\n      add\n      swap2\n    tag_91:\n      pop\n      pop\n      pop\n      pop\n      pop\n      swap1\n      dup1\n      0x07\n      add\n      dup1\n      sload\n      tag_94\n      swap1\n      tag_64\n      jump\t// in\n    tag_94:\n      dup1\n      0x1f\n      add\n      0x20\n      dup1\n      swap2\n      div\n      mul\n      0x20\n      add\n      mload(0x40)\n      swap1\n      dup2\n      add\n      0x40\n      mstore\n      dup1\n      swap3\n      swap2\n      swap1\n      dup2\n      dup2\n      mstore\n      0x20\n      add\n      dup3\n      dup1\n      sload\n      tag_95\n      swap1\n      tag_64\n      jump\t// in\n    tag_95:\n      dup1\n      iszero\n      tag_96\n      jumpi\n      dup1\n      0x1f\n      lt\n      tag_97\n      jumpi\n      0x0100\n      dup1\n      dup4\n      sload\n      div\n      mul\n      dup4\n      mstore\n      swap2\n      0x20\n      add\n      swap2\n      jump(tag_96)\n    tag_97:\n      dup3\n      add\n      swap2\n      swap1\n      0x00\n      mstore\n      keccak256(0x00, 0x20)\n      swap1\n    tag_98:\n      dup2\n      sload\n      dup2\n      mstore\n      swap1\n      0x01\n      add\n      swap1\n      0x20\n      add\n      dup1\n      dup4\n      gt\n      tag_98\n      jumpi\n      dup3\n      swap1\n      sub\n      0x1f\n      and\n      dup3\n      add\n      swap2\n    tag_96:\n      pop\n      pop\n      pop\n      pop\n      pop\n      swap1\n      dup1\n      0x08\n      add\n      dup1\n      sload\n      tag_99\n      swap1\n      tag_64\n      jump\t// in\n    tag_99:\n      dup1\n      0x1f\n      add\n      0x20\n      dup1\n      swap2\n      div\n      mul\n      0x20\n      add\n      mload(0x40)\n      swap1\n      dup2\n      add\n      0x40\n      mstore\n      dup1\n      swap3\n      swap2\n      swap1\n      dup2\n      dup2\n      mstore\n      0x20\n      add\n      dup3\n      dup1\n      sload\n      tag_100\n      swap1\n      tag_64\n      jump\t// in\n    tag_100:\n      dup1\n      iszero\n      tag_101\n      jumpi\n      dup1\n      0x1f\n      lt\n      tag_102\n      jumpi\n      0x0100\n      dup1\n      dup4\n      sload\n      div\n      mul\n      dup4\n      mstore\n      swap2\n      0x20\n      add\n      swap2\n      jump(tag_101)\n    tag_102:\n      dup3\n      add\n      swap2\n      swap1\n      0x00\n      mstore\n      keccak256(0x00, 0x20)\n      swap1\n    tag_103:\n      dup2\n      sload\n      dup2\n      mstore\n      swap1\n      0x01\n      add\n      swap1\n      0x20\n      add\n      dup1\n      dup4\n      gt\n      tag_103\n      jumpi\n      dup3\n      swap1\n      sub\n      0x1f\n      and\n      dup3\n      add\n      swap2\n    tag_101:\n      pop\n      pop\n      pop\n      pop\n      pop\n      swap1\n      dup1\n      0x09\n      add\n      dup1\n      sload\n      tag_104\n      swap1\n      tag_64\n      jump\t// in\n    tag_104:\n      dup1\n      0x1f\n      add\n      0x20\n      dup1\n      swap2\n      div\n      mul\n      0x20\n      add\n      mload(0x40)\n      swap1\n      dup2\n      add\n      0x40\n      mstore\n      dup1\n      swap3\n      swap2\n      swap1\n      dup2\n      dup2\n      mstore\n      0x20\n      add\n      dup3\n      dup1\n      sload\n      tag_105\n      swap1\n      tag_64\n      jump\t// in\n    tag_105:\n      dup1\n      iszero\n      tag_106\n      jumpi\n      dup1\n      0x1f\n      lt\n      tag_107\n      jumpi\n      0x0100\n      dup1\n      dup4\n      sload\n      div\n      mul\n      dup4\n      mstore\n      swap2\n      0x20\n      add\n      swap2\n      jump(tag_106)\n    tag_107:\n      dup3\n      add\n      swap2\n      swap1\n      0x00\n      mstore\n      keccak256(0x00, 0x20)\n      swap1\n    tag_108:\n      dup2\n      sload\n      dup2\n      mstore\n      swap1\n      0x01\n      add\n      swap1\n      0x20\n      add\n      dup1\n      dup4\n      gt\n      tag_108\n      jumpi\n      dup3\n      swap1\n      sub\n      0x1f\n      and\n      dup3\n      add\n      swap2\n    tag_106:\n      pop\n      pop\n      pop\n      pop\n      pop\n      swap1\n      pop\n      dup11\n      jump\t// out\n        /* \"contracts/ProjetYnov/GestionDesDiplomes.sol\":2465:2542  function devenirAgent() public {... */\n    tag_22:\n        /* \"contracts/ProjetYnov/GestionDesDiplomes.sol\":2530:2534  true */\n      0x01\n        /* \"contracts/ProjetYnov/GestionDesDiplomes.sol\":2507:2515  estAgent */\n      0x05\n        /* \"contracts/ProjetYnov/GestionDesDiplomes.sol\":2507:2527  estAgent[msg.sender] */\n      0x00\n        /* \"contracts/ProjetYnov/GestionDesDiplomes.sol\":2516:2526  msg.sender */\n      caller\n        /* \"contracts/ProjetYnov/GestionDesDiplomes.sol\":2507:2527  estAgent[msg.sender] */\n      0xffffffffffffffffffffffffffffffffffffffff\n      and\n      0xffffffffffffffffffffffffffffffffffffffff\n      and\n      dup2\n      mstore\n      0x20\n      add\n      swap1\n      dup2\n      mstore\n      0x20\n      add\n      0x00\n      keccak256\n      0x00\n        /* \"contracts/ProjetYnov/GestionDesDiplomes.sol\":2507:2534  estAgent[msg.sender] = true */\n      0x0100\n      exp\n      dup2\n      sload\n      dup2\n      0xff\n      mul\n      not\n      and\n      swap1\n      dup4\n      iszero\n      iszero\n      mul\n      or\n      swap1\n      sstore\n      pop\n        /* \"contracts/ProjetYnov/GestionDesDiplomes.sol\":2465:2542  function devenirAgent() public {... */\n      jump\t// out\n        /* \"contracts/ProjetYnov/GestionDesDiplomes.sol\":1680:1725  mapping(address => Etudiant) public etudiants */\n    tag_25:\n      mstore(0x20, 0x02)\n      dup1\n      0x00\n      mstore\n      keccak256(0x00, 0x40)\n      0x00\n      swap2\n      pop\n      swap1\n      pop\n      dup1\n      0x00\n      add\n      sload\n      swap1\n      dup1\n      0x01\n      add\n      dup1\n      sload\n      tag_110\n      swap1\n      tag_64\n      jump\t// in\n    tag_110:\n      dup1\n      0x1f\n      add\n      0x20\n      dup1\n      swap2\n      div\n      mul\n      0x20\n      add\n      mload(0x40)\n      swap1\n      dup2\n      add\n      0x40\n      mstore\n      dup1\n      swap3\n      swap2\n      swap1\n      dup2\n      dup2\n      mstore\n      0x20\n      add\n      dup3\n      dup1\n      sload\n      tag_111\n      swap1\n      tag_64\n      jump\t// in\n    tag_111:\n      dup1\n      iszero\n      tag_112\n      jumpi\n      dup1\n      0x1f\n      lt\n      tag_113\n      jumpi\n      0x0100\n      dup1\n      dup4\n      sload\n      div\n      mul\n      dup4\n      mstore\n      swap2\n      0x20\n      add\n      swap2\n      jump(tag_112)\n    tag_113:\n      dup3\n      add\n      swap2\n      swap1\n      0x00\n      mstore\n      keccak256(0x00, 0x20)\n      swap1\n    tag_114:\n      dup2\n      sload\n      dup2\n      mstore\n      swap1\n      0x01\n      add\n      swap1\n      0x20\n      add\n      dup1\n      dup4\n      gt\n      tag_114\n      jumpi\n      dup3\n      swap1\n      sub\n      0x1f\n      and\n      dup3\n      add\n      swap2\n    tag_112:\n      pop\n      pop\n      pop\n      pop\n      pop\n      swap1\n      dup1\n      0x02\n      add\n      dup1\n      sload\n      tag_115\n      swap1\n      tag_64\n      jump\t// in\n    tag_115:\n      dup1\n      0x1f\n      add\n      0x20\n      dup1\n      swap2\n      div\n      mul\n      0x20\n      add\n      mload(0x40)\n      swap1\n      dup2\n      add\n      0x40\n      mstore\n      dup1\n      swap3\n      swap2\n      swap1\n      dup2\n      dup2\n      mstore\n      0x20\n      add\n      dup3\n      dup1\n      sload\n      tag_116\n      swap1\n      tag_64\n      jump\t// in\n    tag_116:\n      dup1\n      iszero\n      tag_117\n      jumpi\n      dup1\n      0x1f\n      lt\n      tag_118\n      jumpi\n      0x0100\n      dup1\n      dup4\n      sload\n      div\n      mul\n      dup4\n      mstore\n      swap2\n      0x20\n      add\n      swap2\n      jump(tag_117)\n    tag_118:\n      dup3\n      add\n      swap2\n      swap1\n      0x00\n      mstore\n      keccak256(0x00, 0x20)\n      swap1\n    tag_119:\n      dup2\n      sload\n      dup2\n      mstore\n      swap1\n      0x01\n      add\n      swap1\n      0x20\n      add\n      dup1\n      dup4\n      gt\n      tag_119\n      jumpi\n      dup3\n      swap1\n      sub\n      0x1f\n      and\n      dup3\n      add\n      swap2\n    tag_117:\n      pop\n      pop\n      pop\n      pop\n      pop\n      swap1\n      dup1\n      0x03\n      add\n      dup1\n      sload\n      tag_120\n      swap1\n      tag_64\n      jump\t// in\n    tag_120:\n      dup1\n      0x1f\n      add\n      0x20\n      dup1\n      swap2\n      div\n      mul\n      0x20\n      add\n      mload(0x40)\n      swap1\n      dup2\n      add\n      0x40\n      mstore\n      dup1\n      swap3\n      swap2\n      swap1\n      dup2\n      dup2\n      mstore\n      0x20\n      add\n      dup3\n      dup1\n      sload\n      tag_121\n      swap1\n      tag_64\n      jump\t// in\n    tag_121:\n      dup1\n      iszero\n      tag_122\n      jumpi\n      dup1\n      0x1f\n      lt\n      tag_123\n      jumpi\n      0x0100\n      dup1\n      dup4\n      sload\n      div\n      mul\n      dup4\n      mstore\n      swap2\n      0x20\n      add\n      swap2\n      jump(tag_122)\n    tag_123:\n      dup3\n      add\n      swap2\n      swap1\n      0x00\n      mstore\n      keccak256(0x00, 0x20)\n      swap1\n    tag_124:\n      dup2\n      sload\n      dup2\n      mstore\n      swap1\n      0x01\n      add\n      swap1\n      0x20\n      add\n      dup1\n      dup4\n      gt\n      tag_124\n      jumpi\n      dup3\n      swap1\n      sub\n      0x1f\n      and\n      dup3\n      add\n      swap2\n    tag_122:\n      pop\n      pop\n      pop\n      pop\n      pop\n      swap1\n      dup1\n      0x04\n      add\n      dup1\n      sload\n      tag_125\n      swap1\n      tag_64\n      jump\t// in\n    tag_125:\n      dup1\n      0x1f\n      add\n      0x20\n      dup1\n      swap2\n      div\n      mul\n      0x20\n      add\n      mload(0x40)\n      swap1\n      dup2\n      add\n      0x40\n      mstore\n      dup1\n      swap3\n      swap2\n      swap1\n      dup2\n      dup2\n      mstore\n      0x20\n      add\n      dup3\n      dup1\n      sload\n      tag_126\n      swap1\n      tag_64\n      jump\t// in\n    tag_126:\n      dup1\n      iszero\n      tag_127\n      jumpi\n      dup1\n      0x1f\n      lt\n      tag_128\n      jumpi\n      0x0100\n      dup1\n      dup4\n      sload\n      div\n      mul\n      dup4\n      mstore\n      swap2\n      0x20\n      add\n      swap2\n      jump(tag_127)\n    tag_128:\n      dup3\n      add\n      swap2\n      swap1\n      0x00\n      mstore\n      keccak256(0x00, 0x20)\n      swap1\n    tag_129:\n      dup2\n      sload\n      dup2\n      mstore\n      swap1\n      0x01\n      add\n      swap1\n      0x20\n      add\n      dup1\n      dup4\n      gt\n      tag_129\n      jumpi\n      dup3\n      swap1\n      sub\n      0x1f\n      and\n      dup3\n      add\n      swap2\n    tag_127:\n      pop\n      pop\n      pop\n      pop\n      pop\n      swap1\n      dup1\n      0x05\n      add\n      dup1\n      sload\n      tag_130\n      swap1\n      tag_64\n      jump\t// in\n    tag_130:\n      dup1\n      0x1f\n      add\n      0x20\n      dup1\n      swap2\n      div\n      mul\n      0x20\n      add\n      mload(0x40)\n      swap1\n      dup2\n      add\n      0x40\n      mstore\n      dup1\n      swap3\n      swap2\n      swap1\n      dup2\n      dup2\n      mstore\n      0x20\n      add\n      dup3\n      dup1\n      sload\n      tag_131\n      swap1\n      tag_64\n      jump\t// in\n    tag_131:\n      dup1\n      iszero\n      tag_132\n      jumpi\n      dup1\n      0x1f\n      lt\n      tag_133\n      jumpi\n      0x0100\n      dup1\n      dup4\n      sload\n      div\n      mul\n      dup4\n      mstore\n      swap2\n      0x20\n      add\n      swap2\n      jump(tag_132)\n    tag_133:\n      dup3\n      add\n      swap2\n      swap1\n      0x00\n      mstore\n      keccak256(0x00, 0x20)\n      swap1\n    tag_134:\n      dup2\n      sload\n      dup2\n      mstore\n      swap1\n      0x01\n      add\n      swap1\n      0x20\n      add\n      dup1\n      dup4\n      gt\n      tag_134\n      jumpi\n      dup3\n      swap1\n      sub\n      0x1f\n      and\n      dup3\n      add\n      swap2\n    tag_132:\n      pop\n      pop\n      pop\n      pop\n      pop\n      swap1\n      dup1\n      0x06\n      add\n      dup1\n      sload\n      tag_135\n      swap1\n      tag_64\n      jump\t// in\n    tag_135:\n      dup1\n      0x1f\n      add\n      0x20\n      dup1\n      swap2\n      div\n      mul\n      0x20\n      add\n      mload(0x40)\n      swap1\n      dup2\n      add\n      0x40\n      mstore\n      dup1\n      swap3\n      swap2\n      swap1\n      dup2\n      dup2\n      mstore\n      0x20\n      add\n      dup3\n      dup1\n      sload\n      tag_136\n      swap1\n      tag_64\n      jump\t// in\n    tag_136:\n      dup1\n      iszero\n      tag_137\n      jumpi\n      dup1\n      0x1f\n      lt\n      tag_138\n      jumpi\n      0x0100\n      dup1\n      dup4\n      sload\n      div\n      mul\n      dup4\n      mstore\n      swap2\n      0x20\n      add\n      swap2\n      jump(tag_137)\n    tag_138:\n      dup3\n      add\n      swap2\n      swap1\n      0x00\n      mstore\n      keccak256(0x00, 0x20)\n      swap1\n    tag_139:\n      dup2\n      sload\n      dup2\n      mstore\n      swap1\n      0x01\n      add\n      swap1\n      0x20\n      add\n      dup1\n      dup4\n      gt\n      tag_139\n      jumpi\n      dup3\n      swap1\n      sub\n      0x1f\n      and\n      dup3\n      add\n      swap2\n    tag_137:\n      pop\n      pop\n      pop\n      pop\n      pop\n      swap1\n      dup1\n      0x07\n      add\n      dup1\n      sload\n      tag_140\n      swap1\n      tag_64\n      jump\t// in\n    tag_140:\n      dup1\n      0x1f\n      add\n      0x20\n      dup1\n      swap2\n      div\n      mul\n      0x20\n      add\n      mload(0x40)\n      swap1\n      dup2\n      add\n      0x40\n      mstore\n      dup1\n      swap3\n      swap2\n      swap1\n      dup2\n      dup2\n      mstore\n      0x20\n      add\n      dup3\n      dup1\n      sload\n      tag_141\n      swap1\n      tag_64\n      jump\t// in\n    tag_141:\n      dup1\n      iszero\n      tag_142\n      jumpi\n      dup1\n      0x1f\n      lt\n      tag_143\n      jumpi\n      0x0100\n      dup1\n      dup4\n      sload\n      div\n      mul\n      dup4\n      mstore\n      swap2\n      0x20\n      add\n      swap2\n      jump(tag_142)\n    tag_143:\n      dup3\n      add\n      swap2\n      swap1\n      0x00\n      mstore\n      keccak256(0x00, 0x20)\n      swap1\n    tag_144:\n      dup2\n      sload\n      dup2\n      mstore\n      swap1\n      0x01\n      add\n      swap1\n      0x20\n      add\n      dup1\n      dup4\n      gt\n      tag_144\n      jumpi\n      dup3\n      swap1\n      sub\n      0x1f\n      and\n      dup3\n      add\n      swap2\n    tag_142:\n      pop\n      pop\n      pop\n      pop\n      pop\n      swap1\n      dup1\n      0x08\n      add\n      dup1\n      sload\n      tag_145\n      swap1\n      tag_64\n      jump\t// in\n    tag_145:\n      dup1\n      0x1f\n      add\n      0x20\n      dup1\n      swap2\n      div\n      mul\n      0x20\n      add\n      mload(0x40)\n      swap1\n      dup2\n      add\n      0x40\n      mstore\n      dup1\n      swap3\n      swap2\n      swap1\n      dup2\n      dup2\n      mstore\n      0x20\n      add\n      dup3\n      dup1\n      sload\n      tag_146\n      swap1\n      tag_64\n      jump\t// in\n    tag_146:\n      dup1\n      iszero\n      tag_147\n      jumpi\n      dup1\n      0x1f\n      lt\n      tag_148\n      jumpi\n      0x0100\n      dup1\n      dup4\n      sload\n      div\n      mul\n      dup4\n      mstore\n      swap2\n      0x20\n      add\n      swap2\n      jump(tag_147)\n    tag_148:\n      dup3\n      add\n      swap2\n      swap1\n      0x00\n      mstore\n      keccak256(0x00, 0x20)\n      swap1\n    tag_149:\n      dup2\n      sload\n      dup2\n      mstore\n      swap1\n      0x01\n      add\n      swap1\n      0x20\n      add\n      dup1\n      dup4\n      gt\n      tag_149\n      jumpi\n      dup3\n      swap1\n      sub\n      0x1f\n      and\n      dup3\n      add\n      swap2\n    tag_147:\n      pop\n      pop\n      pop\n      pop\n      pop\n      swap1\n      dup1\n      0x09\n      add\n      dup1\n      sload\n      tag_150\n      swap1\n      tag_64\n      jump\t// in\n    tag_150:\n      dup1\n      0x1f\n      add\n      0x20\n      dup1\n      swap2\n      div\n      mul\n      0x20\n      add\n      mload(0x40)\n      swap1\n      dup2\n      add\n      0x40\n      mstore\n      dup1\n      swap3\n      swap2\n      swap1\n      dup2\n      dup2\n      mstore\n      0x20\n      add\n      dup3\n      dup1\n      sload\n      tag_151\n      swap1\n      tag_64\n      jump\t// in\n    tag_151:\n      dup1\n      iszero\n      tag_152\n      jumpi\n      dup1\n      0x1f\n      lt\n      tag_153\n      jumpi\n      0x0100\n      dup1\n      dup4\n      sload\n      div\n      mul\n      dup4\n      mstore\n      swap2\n      0x20\n      add\n      swap2\n      jump(tag_152)\n    tag_153:\n      dup3\n      add\n      swap2\n      swap1\n      0x00\n      mstore\n      keccak256(0x00, 0x20)\n      swap1\n    tag_154:\n      dup2\n      sload\n      dup2\n      mstore\n      swap1\n      0x01\n      add\n      swap1\n      0x20\n      add\n      dup1\n      dup4\n      gt\n      tag_154\n      jumpi\n      dup3\n      swap1\n      sub\n      0x1f\n      and\n      dup3\n      add\n      swap2\n    tag_152:\n      pop\n      pop\n      pop\n      pop\n      pop\n      swap1\n      dup1\n      0x0a\n      add\n      dup1\n      sload\n      tag_155\n      swap1\n      tag_64\n      jump\t// in\n    tag_155:\n      dup1\n      0x1f\n      add\n      0x20\n      dup1\n      swap2\n      div\n      mul\n      0x20\n      add\n      mload(0x40)\n      swap1\n      dup2\n      add\n      0x40\n      mstore\n      dup1\n      swap3\n      swap2\n      swap1\n      dup2\n      dup2\n      mstore\n      0x20\n      add\n      dup3\n      dup1\n      sload\n      tag_156\n      swap1\n      tag_64\n      jump\t// in\n    tag_156:\n      dup1\n      iszero\n      tag_157\n      jumpi\n      dup1\n      0x1f\n      lt\n      tag_158\n      jumpi\n      0x0100\n      dup1\n      dup4\n      sload\n      div\n      mul\n      dup4\n      mstore\n      swap2\n      0x20\n      add\n      swap2\n      jump(tag_157)\n    tag_158:\n      dup3\n      add\n      swap2\n      swap1\n      0x00\n      mstore\n      keccak256(0x00, 0x20)\n      swap1\n    tag_159:\n      dup2\n      sload\n      dup2\n      mstore\n      swap1\n      0x01\n      add\n      swap1\n      0x20\n      add\n      dup1\n      dup4\n      gt\n      tag_159\n      jumpi\n      dup3\n      swap1\n      sub\n      0x1f\n      and\n      dup3\n      add\n      swap2\n    tag_157:\n      pop\n      pop\n      pop\n      pop\n      pop\n      swap1\n      pop\n      dup12\n      jump\t// out\n        /* \"contracts/ProjetYnov/GestionDesDiplomes.sol\":1554:1609  mapping(address => Etablissement) public etablissements */\n    tag_30:\n      mstore(0x20, 0x01)\n      dup1\n      0x00\n      mstore\n      keccak256(0x00, 0x40)\n      0x00\n      swap2\n      pop\n      swap1\n      pop\n      dup1\n      0x00\n      add\n      sload\n      swap1\n      dup1\n      0x01\n      add\n      dup1\n      sload\n      tag_160\n      swap1\n      tag_64\n      jump\t// in\n    tag_160:\n      dup1\n      0x1f\n      add\n      0x20\n      dup1\n      swap2\n      div\n      mul\n      0x20\n      add\n      mload(0x40)\n      swap1\n      dup2\n      add\n      0x40\n      mstore\n      dup1\n      swap3\n      swap2\n      swap1\n      dup2\n      dup2\n      mstore\n      0x20\n      add\n      dup3\n      dup1\n      sload\n      tag_161\n      swap1\n      tag_64\n      jump\t// in\n    tag_161:\n      dup1\n      iszero\n      tag_162\n      jumpi\n      dup1\n      0x1f\n      lt\n      tag_163\n      jumpi\n      0x0100\n      dup1\n      dup4\n      sload\n      div\n      mul\n      dup4\n      mstore\n      swap2\n      0x20\n      add\n      swap2\n      jump(tag_162)\n    tag_163:\n      dup3\n      add\n      swap2\n      swap1\n      0x00\n      mstore\n      keccak256(0x00, 0x20)\n      swap1\n    tag_164:\n      dup2\n      sload\n      dup2\n      mstore\n      swap1\n      0x01\n      add\n      swap1\n      0x20\n      add\n      dup1\n      dup4\n      gt\n      tag_164\n      jumpi\n      dup3\n      swap1\n      sub\n      0x1f\n      and\n      dup3\n      add\n      swap2\n    tag_162:\n      pop\n      pop\n      pop\n      pop\n      pop\n      swap1\n      dup1\n      0x02\n      add\n      dup1\n      sload\n      tag_165\n      swap1\n      tag_64\n      jump\t// in\n    tag_165:\n      dup1\n      0x1f\n      add\n      0x20\n      dup1\n      swap2\n      div\n      mul\n      0x20\n      add\n      mload(0x40)\n      swap1\n      dup2\n      add\n      0x40\n      mstore\n      dup1\n      swap3\n      swap2\n      swap1\n      dup2\n      dup2\n      mstore\n      0x20\n      add\n      dup3\n      dup1\n      sload\n      tag_166\n      swap1\n      tag_64\n      jump\t// in\n    tag_166:\n      dup1\n      iszero\n      tag_167\n      jumpi\n      dup1\n      0x1f\n      lt\n      tag_168\n      jumpi\n      0x0100\n      dup1\n      dup4\n      sload\n      div\n      mul\n      dup4\n      mstore\n      swap2\n      0x20\n      add\n      swap2\n      jump(tag_167)\n    tag_168:\n      dup3\n      add\n      swap2\n      swap1\n      0x00\n      mstore\n      keccak256(0x00, 0x20)\n      swap1\n    tag_169:\n      dup2\n      sload\n      dup2\n      mstore\n      swap1\n      0x01\n      add\n      swap1\n      0x20\n      add\n      dup1\n      dup4\n      gt\n      tag_169\n      jumpi\n      dup3\n      swap1\n      sub\n      0x1f\n      and\n      dup3\n      add\n      swap2\n    tag_167:\n      pop\n      pop\n      pop\n      pop\n      pop\n      swap1\n      dup1\n      0x03\n      add\n      dup1\n      sload\n      tag_170\n      swap1\n      tag_64\n      jump\t// in\n    tag_170:\n      dup1\n      0x1f\n      add\n      0x20\n      dup1\n      swap2\n      div\n      mul\n      0x20\n      add\n      mload(0x40)\n      swap1\n      dup2\n      add\n      0x40\n      mstore\n      dup1\n      swap3\n      swap2\n      swap1\n      dup2\n      dup2\n      mstore\n      0x20\n      add\n      dup3\n      dup1\n      sload\n      tag_171\n      swap1\n      tag_64\n      jump\t// in\n    tag_171:\n      dup1\n      iszero\n      tag_172\n      jumpi\n      dup1\n      0x1f\n      lt\n      tag_173\n      jumpi\n      0x0100\n      dup1\n      dup4\n      sload\n      div\n      mul\n      dup4\n      mstore\n      swap2\n      0x20\n      add\n      swap2\n      jump(tag_172)\n    tag_173:\n      dup3\n      add\n      swap2\n      swap1\n      0x00\n      mstore\n      keccak256(0x00, 0x20)\n      swap1\n    tag_174:\n      dup2\n      sload\n      dup2\n      mstore\n      swap1\n      0x01\n      add\n      swap1\n      0x20\n      add\n      dup1\n      dup4\n      gt\n      tag_174\n      jumpi\n      dup3\n      swap1\n      sub\n      0x1f\n      and\n      dup3\n      add\n      swap2\n    tag_172:\n      pop\n      pop\n      pop\n      pop\n      pop\n      swap1\n      dup1\n      0x04\n      add\n      dup1\n      sload\n      tag_175\n      swap1\n      tag_64\n      jump\t// in\n    tag_175:\n      dup1\n      0x1f\n      add\n      0x20\n      dup1\n      swap2\n      div\n      mul\n      0x20\n      add\n      mload(0x40)\n      swap1\n      dup2\n      add\n      0x40\n      mstore\n      dup1\n      swap3\n      swap2\n      swap1\n      dup2\n      dup2\n      mstore\n      0x20\n      add\n      dup3\n      dup1\n      sload\n      tag_176\n      swap1\n      tag_64\n      jump\t// in\n    tag_176:\n      dup1\n      iszero\n      tag_177\n      jumpi\n      dup1\n      0x1f\n      lt\n      tag_178\n      jumpi\n      0x0100\n      dup1\n      dup4\n      sload\n      div\n      mul\n      dup4\n      mstore\n      swap2\n      0x20\n      add\n      swap2\n      jump(tag_177)\n    tag_178:\n      dup3\n      add\n      swap2\n      swap1\n      0x00\n      mstore\n      keccak256(0x00, 0x20)\n      swap1\n    tag_179:\n      dup2\n      sload\n      dup2\n      mstore\n      swap1\n      0x01\n      add\n      swap1\n      0x20\n      add\n      dup1\n      dup4\n      gt\n      tag_179\n      jumpi\n      dup3\n      swap1\n      sub\n      0x1f\n      and\n      dup3\n      add\n      swap2\n    tag_177:\n      pop\n      pop\n      pop\n      pop\n      pop\n      swap1\n      dup1\n      0x05\n      add\n      sload\n      swap1\n      pop\n      dup7\n      jump\t// out\n        /* \"contracts/ProjetYnov/GestionDesDiplomes.sol\":4203:4677  function creerEntreprise(uint _ID_Entreprise, string memory _Nom, string memory _Secteur, string memory _Date_Creation, string memory _Classification_Taille, string memory _Pays, string memory _Adresse, string memory _Courriel, string memory _Telephone, string memory _Site_Web) public onlyAgent {... */\n    tag_36:\n        /* \"contracts/ProjetYnov/GestionDesDiplomes.sol\":2236:2244  estAgent */\n      0x05\n        /* \"contracts/ProjetYnov/GestionDesDiplomes.sol\":2236:2256  estAgent[msg.sender] */\n      0x00\n        /* \"contracts/ProjetYnov/GestionDesDiplomes.sol\":2245:2255  msg.sender */\n      caller\n        /* \"contracts/ProjetYnov/GestionDesDiplomes.sol\":2236:2256  estAgent[msg.sender] */\n      0xffffffffffffffffffffffffffffffffffffffff\n      and\n      0xffffffffffffffffffffffffffffffffffffffff\n      and\n      dup2\n      mstore\n      0x20\n      add\n      swap1\n      dup2\n      mstore\n      0x20\n      add\n      0x00\n      keccak256\n      0x00\n      swap1\n      sload\n      swap1\n      0x0100\n      exp\n      swap1\n      div\n      0xff\n      and\n        /* \"contracts/ProjetYnov/GestionDesDiplomes.sol\":2228:2314  require(estAgent[msg.sender], \"Vous n etes pas autorise a effectuer cette operation.\") */\n      tag_181\n      jumpi\n      mload(0x40)\n      0x08c379a000000000000000000000000000000000000000000000000000000000\n      dup2\n      mstore\n      0x04\n      add\n      tag_182\n      swap1\n      tag_183\n      jump\t// in\n    tag_182:\n      mload(0x40)\n      dup1\n      swap2\n      sub\n      swap1\n      revert\n    tag_181:\n        /* \"contracts/ProjetYnov/GestionDesDiplomes.sol\":4536:4669  Entreprise(_ID_Entreprise, _Nom, _Secteur, _Date_Creation, _Classification_Taille, _Pays, _Adresse, _Courriel, _Telephone, _Site_Web) */\n      mload(0x40)\n      dup1\n      0x0140\n      add\n      0x40\n      mstore\n      dup1\n        /* \"contracts/ProjetYnov/GestionDesDiplomes.sol\":4547:4561  _ID_Entreprise */\n      dup12\n        /* \"contracts/ProjetYnov/GestionDesDiplomes.sol\":4536:4669  Entreprise(_ID_Entreprise, _Nom, _Secteur, _Date_Creation, _Classification_Taille, _Pays, _Adresse, _Courriel, _Telephone, _Site_Web) */\n      dup2\n      mstore\n      0x20\n      add\n        /* \"contracts/ProjetYnov/GestionDesDiplomes.sol\":4563:4567  _Nom */\n      dup11\n        /* \"contracts/ProjetYnov/GestionDesDiplomes.sol\":4536:4669  Entreprise(_ID_Entreprise, _Nom, _Secteur, _Date_Creation, _Classification_Taille, _Pays, _Adresse, _Courriel, _Telephone, _Site_Web) */\n      dup2\n      mstore\n      0x20\n      add\n        /* \"contracts/ProjetYnov/GestionDesDiplomes.sol\":4569:4577  _Secteur */\n      dup10\n        /* \"contracts/ProjetYnov/GestionDesDiplomes.sol\":4536:4669  Entreprise(_ID_Entreprise, _Nom, _Secteur, _Date_Creation, _Classification_Taille, _Pays, _Adresse, _Courriel, _Telephone, _Site_Web) */\n      dup2\n      mstore\n      0x20\n      add\n        /* \"contracts/ProjetYnov/GestionDesDiplomes.sol\":4579:4593  _Date_Creation */\n      dup9\n        /* \"contracts/ProjetYnov/GestionDesDiplomes.sol\":4536:4669  Entreprise(_ID_Entreprise, _Nom, _Secteur, _Date_Creation, _Classification_Taille, _Pays, _Adresse, _Courriel, _Telephone, _Site_Web) */\n      dup2\n      mstore\n      0x20\n      add\n        /* \"contracts/ProjetYnov/GestionDesDiplomes.sol\":4595:4617  _Classification_Taille */\n      dup8\n        /* \"contracts/ProjetYnov/GestionDesDiplomes.sol\":4536:4669  Entreprise(_ID_Entreprise, _Nom, _Secteur, _Date_Creation, _Classification_Taille, _Pays, _Adresse, _Courriel, _Telephone, _Site_Web) */\n      dup2\n      mstore\n      0x20\n      add\n        /* \"contracts/ProjetYnov/GestionDesDiplomes.sol\":4619:4624  _Pays */\n      dup7\n        /* \"contracts/ProjetYnov/GestionDesDiplomes.sol\":4536:4669  Entreprise(_ID_Entreprise, _Nom, _Secteur, _Date_Creation, _Classification_Taille, _Pays, _Adresse, _Courriel, _Telephone, _Site_Web) */\n      dup2\n      mstore\n      0x20\n      add\n        /* \"contracts/ProjetYnov/GestionDesDiplomes.sol\":4626:4634  _Adresse */\n      dup6\n        /* \"contracts/ProjetYnov/GestionDesDiplomes.sol\":4536:4669  Entreprise(_ID_Entreprise, _Nom, _Secteur, _Date_Creation, _Classification_Taille, _Pays, _Adresse, _Courriel, _Telephone, _Site_Web) */\n      dup2\n      mstore\n      0x20\n      add\n        /* \"contracts/ProjetYnov/GestionDesDiplomes.sol\":4636:4645  _Courriel */\n      dup5\n        /* \"contracts/ProjetYnov/GestionDesDiplomes.sol\":4536:4669  Entreprise(_ID_Entreprise, _Nom, _Secteur, _Date_Creation, _Classification_Taille, _Pays, _Adresse, _Courriel, _Telephone, _Site_Web) */\n      dup2\n      mstore\n      0x20\n      add\n        /* \"contracts/ProjetYnov/GestionDesDiplomes.sol\":4647:4657  _Telephone */\n      dup4\n        /* \"contracts/ProjetYnov/GestionDesDiplomes.sol\":4536:4669  Entreprise(_ID_Entreprise, _Nom, _Secteur, _Date_Creation, _Classification_Taille, _Pays, _Adresse, _Courriel, _Telephone, _Site_Web) */\n      dup2\n      mstore\n      0x20\n      add\n        /* \"contracts/ProjetYnov/GestionDesDiplomes.sol\":4659:4668  _Site_Web */\n      dup3\n        /* \"contracts/ProjetYnov/GestionDesDiplomes.sol\":4536:4669  Entreprise(_ID_Entreprise, _Nom, _Secteur, _Date_Creation, _Classification_Taille, _Pays, _Adresse, _Courriel, _Telephone, _Site_Web) */\n      dup2\n      mstore\n      pop\n        /* \"contracts/ProjetYnov/GestionDesDiplomes.sol\":4510:4521  entreprises */\n      0x04\n        /* \"contracts/ProjetYnov/GestionDesDiplomes.sol\":4510:4533  entreprises[msg.sender] */\n      0x00\n        /* \"contracts/ProjetYnov/GestionDesDiplomes.sol\":4522:4532  msg.sender */\n      caller\n        /* \"contracts/ProjetYnov/GestionDesDiplomes.sol\":4510:4533  entreprises[msg.sender] */\n      0xffffffffffffffffffffffffffffffffffffffff\n      and\n      0xffffffffffffffffffffffffffffffffffffffff\n      and\n      dup2\n      mstore\n      0x20\n      add\n      swap1\n      dup2\n      mstore\n      0x20\n      add\n      0x00\n      keccak256\n        /* \"contracts/ProjetYnov/GestionDesDiplomes.sol\":4510:4669  entreprises[msg.sender] = Entreprise(_ID_Entreprise, _Nom, _Secteur, _Date_Creation, _Classification_Taille, _Pays, _Adresse, _Courriel, _Telephone, _Site_Web) */\n      0x00\n      dup3\n      add\n      mload\n      dup2\n      0x00\n      add\n      sstore\n      0x20\n      dup3\n      add\n      mload\n      dup2\n      0x01\n      add\n      swap1\n      dup2\n      tag_185\n      swap2\n      swap1\n      tag_186\n      jump\t// in\n    tag_185:\n      pop\n      0x40\n      dup3\n      add\n      mload\n      dup2\n      0x02\n      add\n      swap1\n      dup2\n      tag_187\n      swap2\n      swap1\n      tag_186\n      jump\t// in\n    tag_187:\n      pop\n      0x60\n      dup3\n      add\n      mload\n      dup2\n      0x03\n      add\n      swap1\n      dup2\n      tag_188\n      swap2\n      swap1\n      tag_186\n      jump\t// in\n    tag_188:\n      pop\n      0x80\n      dup3\n      add\n      mload\n      dup2\n      0x04\n      add\n      swap1\n      dup2\n      tag_189\n      swap2\n      swap1\n      tag_186\n      jump\t// in\n    tag_189:\n      pop\n      0xa0\n      dup3\n      add\n      mload\n      dup2\n      0x05\n      add\n      swap1\n      dup2\n      tag_190\n      swap2\n      swap1\n      tag_186\n      jump\t// in\n    tag_190:\n      pop\n      0xc0\n      dup3\n      add\n      mload\n      dup2\n      0x06\n      add\n      swap1\n      dup2\n      tag_191\n      swap2\n      swap1\n      tag_186\n      jump\t// in\n    tag_191:\n      pop\n      0xe0\n      dup3\n      add\n      mload\n      dup2\n      0x07\n      add\n      swap1\n      dup2\n      tag_192\n      swap2\n      swap1\n      tag_186\n      jump\t// in\n    tag_192:\n      pop\n      0x0100\n      dup3\n      add\n      mload\n      dup2\n      0x08\n      add\n      swap1\n      dup2\n      tag_193\n      swap2\n      swap1\n      tag_186\n      jump\t// in\n    tag_193:\n      pop\n      0x0120\n      dup3\n      add\n      mload\n      dup2\n      0x09\n      add\n      swap1\n      dup2\n      tag_194\n      swap2\n      swap1\n      tag_186\n      jump\t// in\n    tag_194:\n      pop\n      swap1\n      pop\n      pop\n        /* \"contracts/ProjetYnov/GestionDesDiplomes.sol\":4203:4677  function creerEntreprise(uint _ID_Entreprise, string memory _Nom, string memory _Secteur, string memory _Date_Creation, string memory _Classification_Taille, string memory _Pays, string memory _Adresse, string memory _Courriel, string memory _Telephone, string memory _Site_Web) public onlyAgent {... */\n      pop\n      pop\n      pop\n      pop\n      pop\n      pop\n      pop\n      pop\n      pop\n      pop\n      jump\t// out\n        /* \"contracts/ProjetYnov/GestionDesDiplomes.sol\":95:115  address public owner */\n    tag_38:\n      0x00\n      dup1\n      sload\n      swap1\n      0x0100\n      exp\n      swap1\n      div\n      0xffffffffffffffffffffffffffffffffffffffff\n      and\n      dup2\n      jump\t// out\n        /* \"contracts/ProjetYnov/GestionDesDiplomes.sol\":2606:2941  function creerCompteEtablissement (uint _ID_Etablissement, string memory _Nom_Etablissement, string memory _Type, string memory _Adresse, string memory _Site_Web, uint _ID_Agent) public onlyAgent {... */\n    tag_44:\n        /* \"contracts/ProjetYnov/GestionDesDiplomes.sol\":2236:2244  estAgent */\n      0x05\n        /* \"contracts/ProjetYnov/GestionDesDiplomes.sol\":2236:2256  estAgent[msg.sender] */\n      0x00\n        /* \"contracts/ProjetYnov/GestionDesDiplomes.sol\":2245:2255  msg.sender */\n      caller\n        /* \"contracts/ProjetYnov/GestionDesDiplomes.sol\":2236:2256  estAgent[msg.sender] */\n      0xffffffffffffffffffffffffffffffffffffffff\n      and\n      0xffffffffffffffffffffffffffffffffffffffff\n      and\n      dup2\n      mstore\n      0x20\n      add\n      swap1\n      dup2\n      mstore\n      0x20\n      add\n      0x00\n      keccak256\n      0x00\n      swap1\n      sload\n      swap1\n      0x0100\n      exp\n      swap1\n      div\n      0xff\n      and\n        /* \"contracts/ProjetYnov/GestionDesDiplomes.sol\":2228:2314  require(estAgent[msg.sender], \"Vous n etes pas autorise a effectuer cette operation.\") */\n      tag_196\n      jumpi\n      mload(0x40)\n      0x08c379a000000000000000000000000000000000000000000000000000000000\n      dup2\n      mstore\n      0x04\n      add\n      tag_197\n      swap1\n      tag_183\n      jump\t// in\n    tag_197:\n      mload(0x40)\n      dup1\n      swap2\n      sub\n      swap1\n      revert\n    tag_196:\n        /* \"contracts/ProjetYnov/GestionDesDiplomes.sol\":2842:2933  Etablissement(_ID_Etablissement, _Nom_Etablissement, _Type, _Adresse, _Site_Web, _ID_Agent) */\n      mload(0x40)\n      dup1\n      0xc0\n      add\n      0x40\n      mstore\n      dup1\n        /* \"contracts/ProjetYnov/GestionDesDiplomes.sol\":2856:2873  _ID_Etablissement */\n      dup8\n        /* \"contracts/ProjetYnov/GestionDesDiplomes.sol\":2842:2933  Etablissement(_ID_Etablissement, _Nom_Etablissement, _Type, _Adresse, _Site_Web, _ID_Agent) */\n      dup2\n      mstore\n      0x20\n      add\n        /* \"contracts/ProjetYnov/GestionDesDiplomes.sol\":2875:2893  _Nom_Etablissement */\n      dup7\n        /* \"contracts/ProjetYnov/GestionDesDiplomes.sol\":2842:2933  Etablissement(_ID_Etablissement, _Nom_Etablissement, _Type, _Adresse, _Site_Web, _ID_Agent) */\n      dup2\n      mstore\n      0x20\n      add\n        /* \"contracts/ProjetYnov/GestionDesDiplomes.sol\":2895:2900  _Type */\n      dup6\n        /* \"contracts/ProjetYnov/GestionDesDiplomes.sol\":2842:2933  Etablissement(_ID_Etablissement, _Nom_Etablissement, _Type, _Adresse, _Site_Web, _ID_Agent) */\n      dup2\n      mstore\n      0x20\n      add\n        /* \"contracts/ProjetYnov/GestionDesDiplomes.sol\":2902:2910  _Adresse */\n      dup5\n        /* \"contracts/ProjetYnov/GestionDesDiplomes.sol\":2842:2933  Etablissement(_ID_Etablissement, _Nom_Etablissement, _Type, _Adresse, _Site_Web, _ID_Agent) */\n      dup2\n      mstore\n      0x20\n      add\n        /* \"contracts/ProjetYnov/GestionDesDiplomes.sol\":2912:2921  _Site_Web */\n      dup4\n        /* \"contracts/ProjetYnov/GestionDesDiplomes.sol\":2842:2933  Etablissement(_ID_Etablissement, _Nom_Etablissement, _Type, _Adresse, _Site_Web, _ID_Agent) */\n      dup2\n      mstore\n      0x20\n      add\n        /* \"contracts/ProjetYnov/GestionDesDiplomes.sol\":2923:2932  _ID_Agent */\n      dup3\n        /* \"contracts/ProjetYnov/GestionDesDiplomes.sol\":2842:2933  Etablissement(_ID_Etablissement, _Nom_Etablissement, _Type, _Adresse, _Site_Web, _ID_Agent) */\n      dup2\n      mstore\n      pop\n        /* \"contracts/ProjetYnov/GestionDesDiplomes.sol\":2813:2827  etablissements */\n      0x01\n        /* \"contracts/ProjetYnov/GestionDesDiplomes.sol\":2813:2839  etablissements[msg.sender] */\n      0x00\n        /* \"contracts/ProjetYnov/GestionDesDiplomes.sol\":2828:2838  msg.sender */\n      caller\n        /* \"contracts/ProjetYnov/GestionDesDiplomes.sol\":2813:2839  etablissements[msg.sender] */\n      0xffffffffffffffffffffffffffffffffffffffff\n      and\n      0xffffffffffffffffffffffffffffffffffffffff\n      and\n      dup2\n      mstore\n      0x20\n      add\n      swap1\n      dup2\n      mstore\n      0x20\n      add\n      0x00\n      keccak256\n        /* \"contracts/ProjetYnov/GestionDesDiplomes.sol\":2813:2933  etablissements[msg.sender] = Etablissement(_ID_Etablissement, _Nom_Etablissement, _Type, _Adresse, _Site_Web, _ID_Agent) */\n      0x00\n      dup3\n      add\n      mload\n      dup2\n      0x00\n      add\n      sstore\n      0x20\n      dup3\n      add\n      mload\n      dup2\n      0x01\n      add\n      swap1\n      dup2\n      tag_199\n      swap2\n      swap1\n      tag_186\n      jump\t// in\n    tag_199:\n      pop\n      0x40\n      dup3\n      add\n      mload\n      dup2\n      0x02\n      add\n      swap1\n      dup2\n      tag_200\n      swap2\n      swap1\n      tag_186\n      jump\t// in\n    tag_200:\n      pop\n      0x60\n      dup3\n      add\n      mload\n      dup2\n      0x03\n      add\n      swap1\n      dup2\n      tag_201\n      swap2\n      swap1\n      tag_186\n      jump\t// in\n    tag_201:\n      pop\n      0x80\n      dup3\n      add\n      mload\n      dup2\n      0x04\n      add\n      swap1\n      dup2\n      tag_202\n      swap2\n      swap1\n      tag_186\n      jump\t// in\n    tag_202:\n      pop\n      0xa0\n      dup3\n      add\n      mload\n      dup2\n      0x05\n      add\n      sstore\n      swap1\n      pop\n      pop\n        /* \"contracts/ProjetYnov/GestionDesDiplomes.sol\":2606:2941  function creerCompteEtablissement (uint _ID_Etablissement, string memory _Nom_Etablissement, string memory _Type, string memory _Adresse, string memory _Site_Web, uint _ID_Agent) public onlyAgent {... */\n      pop\n      pop\n      pop\n      pop\n      pop\n      pop\n      jump\t// out\n        /* \"contracts/ProjetYnov/GestionDesDiplomes.sol\":2998:3609  function creerProfilEtudiant(uint _ID_Etudiant, string memory _Nom, string memory _Prenom, string memory _Sexe,string memory _Nationalite,string memory _Statut_civil,string memory _Adresse,string memory _Courriel,string memory _Sujet_PFE,string memory _Entreprise_Stage_PFE,string memory _Evaluation) public onlyAgent  {... */\n    tag_48:\n        /* \"contracts/ProjetYnov/GestionDesDiplomes.sol\":2236:2244  estAgent */\n      0x05\n        /* \"contracts/ProjetYnov/GestionDesDiplomes.sol\":2236:2256  estAgent[msg.sender] */\n      0x00\n        /* \"contracts/ProjetYnov/GestionDesDiplomes.sol\":2245:2255  msg.sender */\n      caller\n        /* \"contracts/ProjetYnov/GestionDesDiplomes.sol\":2236:2256  estAgent[msg.sender] */\n      0xffffffffffffffffffffffffffffffffffffffff\n      and\n      0xffffffffffffffffffffffffffffffffffffffff\n      and\n      dup2\n      mstore\n      0x20\n      add\n      swap1\n      dup2\n      mstore\n      0x20\n      add\n      0x00\n      keccak256\n      0x00\n      swap1\n      sload\n      swap1\n      0x0100\n      exp\n      swap1\n      div\n      0xff\n      and\n        /* \"contracts/ProjetYnov/GestionDesDiplomes.sol\":2228:2314  require(estAgent[msg.sender], \"Vous n etes pas autorise a effectuer cette operation.\") */\n      tag_204\n      jumpi\n      mload(0x40)\n      0x08c379a000000000000000000000000000000000000000000000000000000000\n      dup2\n      mstore\n      0x04\n      add\n      tag_205\n      swap1\n      tag_183\n      jump\t// in\n    tag_205:\n      mload(0x40)\n      dup1\n      swap2\n      sub\n      swap1\n      revert\n    tag_204:\n        /* \"contracts/ProjetYnov/GestionDesDiplomes.sol\":3352:3601  Etudiant( ... */\n      mload(0x40)\n      dup1\n      0x0160\n      add\n      0x40\n      mstore\n      dup1\n        /* \"contracts/ProjetYnov/GestionDesDiplomes.sol\":3372:3384  _ID_Etudiant */\n      dup13\n        /* \"contracts/ProjetYnov/GestionDesDiplomes.sol\":3352:3601  Etudiant( ... */\n      dup2\n      mstore\n      0x20\n      add\n        /* \"contracts/ProjetYnov/GestionDesDiplomes.sol\":3395:3399  _Nom */\n      dup12\n        /* \"contracts/ProjetYnov/GestionDesDiplomes.sol\":3352:3601  Etudiant( ... */\n      dup2\n      mstore\n      0x20\n      add\n        /* \"contracts/ProjetYnov/GestionDesDiplomes.sol\":3410:3417  _Prenom */\n      dup11\n        /* \"contracts/ProjetYnov/GestionDesDiplomes.sol\":3352:3601  Etudiant( ... */\n      dup2\n      mstore\n      0x20\n      add\n        /* \"contracts/ProjetYnov/GestionDesDiplomes.sol\":3428:3433  _Sexe */\n      dup10\n        /* \"contracts/ProjetYnov/GestionDesDiplomes.sol\":3352:3601  Etudiant( ... */\n      dup2\n      mstore\n      0x20\n      add\n        /* \"contracts/ProjetYnov/GestionDesDiplomes.sol\":3444:3456  _Nationalite */\n      dup9\n        /* \"contracts/ProjetYnov/GestionDesDiplomes.sol\":3352:3601  Etudiant( ... */\n      dup2\n      mstore\n      0x20\n      add\n        /* \"contracts/ProjetYnov/GestionDesDiplomes.sol\":3467:3480  _Statut_civil */\n      dup8\n        /* \"contracts/ProjetYnov/GestionDesDiplomes.sol\":3352:3601  Etudiant( ... */\n      dup2\n      mstore\n      0x20\n      add\n        /* \"contracts/ProjetYnov/GestionDesDiplomes.sol\":3491:3499  _Adresse */\n      dup7\n        /* \"contracts/ProjetYnov/GestionDesDiplomes.sol\":3352:3601  Etudiant( ... */\n      dup2\n      mstore\n      0x20\n      add\n        /* \"contracts/ProjetYnov/GestionDesDiplomes.sol\":3510:3519  _Courriel */\n      dup6\n        /* \"contracts/ProjetYnov/GestionDesDiplomes.sol\":3352:3601  Etudiant( ... */\n      dup2\n      mstore\n      0x20\n      add\n        /* \"contracts/ProjetYnov/GestionDesDiplomes.sol\":3530:3540  _Sujet_PFE */\n      dup5\n        /* \"contracts/ProjetYnov/GestionDesDiplomes.sol\":3352:3601  Etudiant( ... */\n      dup2\n      mstore\n      0x20\n      add\n        /* \"contracts/ProjetYnov/GestionDesDiplomes.sol\":3551:3572  _Entreprise_Stage_PFE */\n      dup4\n        /* \"contracts/ProjetYnov/GestionDesDiplomes.sol\":3352:3601  Etudiant( ... */\n      dup2\n      mstore\n      0x20\n      add\n        /* \"contracts/ProjetYnov/GestionDesDiplomes.sol\":3583:3594  _Evaluation */\n      dup3\n        /* \"contracts/ProjetYnov/GestionDesDiplomes.sol\":3352:3601  Etudiant( ... */\n      dup2\n      mstore\n      pop\n        /* \"contracts/ProjetYnov/GestionDesDiplomes.sol\":3328:3337  etudiants */\n      0x02\n        /* \"contracts/ProjetYnov/GestionDesDiplomes.sol\":3328:3349  etudiants[msg.sender] */\n      0x00\n        /* \"contracts/ProjetYnov/GestionDesDiplomes.sol\":3338:3348  msg.sender */\n      caller\n        /* \"contracts/ProjetYnov/GestionDesDiplomes.sol\":3328:3349  etudiants[msg.sender] */\n      0xffffffffffffffffffffffffffffffffffffffff\n      and\n      0xffffffffffffffffffffffffffffffffffffffff\n      and\n      dup2\n      mstore\n      0x20\n      add\n      swap1\n      dup2\n      mstore\n      0x20\n      add\n      0x00\n      keccak256\n        /* \"contracts/ProjetYnov/GestionDesDiplomes.sol\":3328:3601  etudiants[msg.sender] = Etudiant( ... */\n      0x00\n      dup3\n      add\n      mload\n      dup2\n      0x00\n      add\n      sstore\n      0x20\n      dup3\n      add\n      mload\n      dup2\n      0x01\n      add\n      swap1\n      dup2\n      tag_207\n      swap2\n      swap1\n      tag_186\n      jump\t// in\n    tag_207:\n      pop\n      0x40\n      dup3\n      add\n      mload\n      dup2\n      0x02\n      add\n      swap1\n      dup2\n      tag_208\n      swap2\n      swap1\n      tag_186\n      jump\t// in\n    tag_208:\n      pop\n      0x60\n      dup3\n      add\n      mload\n      dup2\n      0x03\n      add\n      swap1\n      dup2\n      tag_209\n      swap2\n      swap1\n      tag_186\n      jump\t// in\n    tag_209:\n      pop\n      0x80\n      dup3\n      add\n      mload\n      dup2\n      0x04\n      add\n      swap1\n      dup2\n      tag_210\n      swap2\n      swap1\n      tag_186\n      jump\t// in\n    tag_210:\n      pop\n      0xa0\n      dup3\n      add\n      mload\n      dup2\n      0x05\n      add\n      swap1\n      dup2\n      tag_211\n      swap2\n      swap1\n      tag_186\n      jump\t// in\n    tag_211:\n      pop\n      0xc0\n      dup3\n      add\n      mload\n      dup2\n      0x06\n      add\n      swap1\n      dup2\n      tag_212\n      swap2\n      swap1\n      tag_186\n      jump\t// in\n    tag_212:\n      pop\n      0xe0\n      dup3\n      add\n      mload\n      dup2\n      0x07\n      add\n      swap1\n      dup2\n      tag_213\n      swap2\n      swap1\n      tag_186\n      jump\t// in\n    tag_213:\n      pop\n      0x0100\n      dup3\n      add\n      mload\n      dup2\n      0x08\n      add\n      swap1\n      dup2\n      tag_214\n      swap2\n      swap1\n      tag_186\n      jump\t// in\n    tag_214:\n      pop\n      0x0120\n      dup3\n      add\n      mload\n      dup2\n      0x09\n      add\n      swap1\n      dup2\n      tag_215\n      swap2\n      swap1\n      tag_186\n      jump\t// in\n    tag_215:\n      pop\n      0x0140\n      dup3\n      add\n      mload\n      dup2\n      0x0a\n      add\n      swap1\n      dup2\n      tag_216\n      swap2\n      swap1\n      tag_186\n      jump\t// in\n    tag_216:\n      pop\n      swap1\n      pop\n      pop\n        /* \"contracts/ProjetYnov/GestionDesDiplomes.sol\":2998:3609  function creerProfilEtudiant(uint _ID_Etudiant, string memory _Nom, string memory _Prenom, string memory _Sexe,string memory _Nationalite,string memory _Statut_civil,string memory _Adresse,string memory _Courriel,string memory _Sujet_PFE,string memory _Entreprise_Stage_PFE,string memory _Evaluation) public onlyAgent  {... */\n      pop\n      pop\n      pop\n      pop\n      pop\n      pop\n      pop\n      pop\n      pop\n      pop\n      pop\n      jump\t// out\n        /* \"contracts/ProjetYnov/GestionDesDiplomes.sol\":1798:1841  mapping(address => Diplome) public diplomes */\n    tag_51:\n      mstore(0x20, 0x03)\n      dup1\n      0x00\n      mstore\n      keccak256(0x00, 0x40)\n      0x00\n      swap2\n      pop\n      swap1\n      pop\n      dup1\n      0x00\n      add\n      sload\n      swap1\n      dup1\n      0x01\n      add\n      sload\n      swap1\n      dup1\n      0x02\n      add\n      dup1\n      sload\n      tag_217\n      swap1\n      tag_64\n      jump\t// in\n    tag_217:\n      dup1\n      0x1f\n      add\n      0x20\n      dup1\n      swap2\n      div\n      mul\n      0x20\n      add\n      mload(0x40)\n      swap1\n      dup2\n      add\n      0x40\n      mstore\n      dup1\n      swap3\n      swap2\n      swap1\n      dup2\n      dup2\n      mstore\n      0x20\n      add\n      dup3\n      dup1\n      sload\n      tag_218\n      swap1\n      tag_64\n      jump\t// in\n    tag_218:\n      dup1\n      iszero\n      tag_219\n      jumpi\n      dup1\n      0x1f\n      lt\n      tag_220\n      jumpi\n      0x0100\n      dup1\n      dup4\n      sload\n      div\n      mul\n      dup4\n      mstore\n      swap2\n      0x20\n      add\n      swap2\n      jump(tag_219)\n    tag_220:\n      dup3\n      add\n      swap2\n      swap1\n      0x00\n      mstore\n      keccak256(0x00, 0x20)\n      swap1\n    tag_221:\n      dup2\n      sload\n      dup2\n      mstore\n      swap1\n      0x01\n      add\n      swap1\n      0x20\n      add\n      dup1\n      dup4\n      gt\n      tag_221\n      jumpi\n      dup3\n      swap1\n      sub\n      0x1f\n      and\n      dup3\n      add\n      swap2\n    tag_219:\n      pop\n      pop\n      pop\n      pop\n      pop\n      swap1\n      dup1\n      0x03\n      add\n      sload\n      swap1\n      dup1\n      0x04\n      add\n      dup1\n      sload\n      tag_222\n      swap1\n      tag_64\n      jump\t// in\n    tag_222:\n      dup1\n      0x1f\n      add\n      0x20\n      dup1\n      swap2\n      div\n      mul\n      0x20\n      add\n      mload(0x40)\n      swap1\n      dup2\n      add\n      0x40\n      mstore\n      dup1\n      swap3\n      swap2\n      swap1\n      dup2\n      dup2\n      mstore\n      0x20\n      add\n      dup3\n      dup1\n      sload\n      tag_223\n      swap1\n      tag_64\n      jump\t// in\n    tag_223:\n      dup1\n      iszero\n      tag_224\n      jumpi\n      dup1\n      0x1f\n      lt\n      tag_225\n      jumpi\n      0x0100\n      dup1\n      dup4\n      sload\n      div\n      mul\n      dup4\n      mstore\n      swap2\n      0x20\n      add\n      swap2\n      jump(tag_224)\n    tag_225:\n      dup3\n      add\n      swap2\n      swap1\n      0x00\n      mstore\n      keccak256(0x00, 0x20)\n      swap1\n    tag_226:\n      dup2\n      sload\n      dup2\n      mstore\n      swap1\n      0x01\n      add\n      swap1\n      0x20\n      add\n      dup1\n      dup4\n      gt\n      tag_226\n      jumpi\n      dup3\n      swap1\n      sub\n      0x1f\n      and\n      dup3\n      add\n      swap2\n    tag_224:\n      pop\n      pop\n      pop\n      pop\n      pop\n      swap1\n      dup1\n      0x05\n      add\n      dup1\n      sload\n      tag_227\n      swap1\n      tag_64\n      jump\t// in\n    tag_227:\n      dup1\n      0x1f\n      add\n      0x20\n      dup1\n      swap2\n      div\n      mul\n      0x20\n      add\n      mload(0x40)\n      swap1\n      dup2\n      add\n      0x40\n      mstore\n      dup1\n      swap3\n      swap2\n      swap1\n      dup2\n      dup2\n      mstore\n      0x20\n      add\n      dup3\n      dup1\n      sload\n      tag_228\n      swap1\n      tag_64\n      jump\t// in\n    tag_228:\n      dup1\n      iszero\n      tag_229\n      jumpi\n      dup1\n      0x1f\n      lt\n      tag_230\n      jumpi\n      0x0100\n      dup1\n      dup4\n      sload\n      div\n      mul\n      dup4\n      mstore\n      swap2\n      0x20\n      add\n      swap2\n      jump(tag_229)\n    tag_230:\n      dup3\n      add\n      swap2\n      swap1\n      0x00\n      mstore\n      keccak256(0x00, 0x20)\n      swap1\n    tag_231:\n      dup2\n      sload\n      dup2\n      mstore\n      swap1\n      0x01\n      add\n      swap1\n      0x20\n      add\n      dup1\n      dup4\n      gt\n      tag_231\n      jumpi\n      dup3\n      swap1\n      sub\n      0x1f\n      and\n      dup3\n      add\n      swap2\n    tag_229:\n      pop\n      pop\n      pop\n      pop\n      pop\n      swap1\n      dup1\n      0x06\n      add\n      dup1\n      sload\n      tag_232\n      swap1\n      tag_64\n      jump\t// in\n    tag_232:\n      dup1\n      0x1f\n      add\n      0x20\n      dup1\n      swap2\n      div\n      mul\n      0x20\n      add\n      mload(0x40)\n      swap1\n      dup2\n      add\n      0x40\n      mstore\n      dup1\n      swap3\n      swap2\n      swap1\n      dup2\n      dup2\n      mstore\n      0x20\n      add\n      dup3\n      dup1\n      sload\n      tag_233\n      swap1\n      tag_64\n      jump\t// in\n    tag_233:\n      dup1\n      iszero\n      tag_234\n      jumpi\n      dup1\n      0x1f\n      lt\n      tag_235\n      jumpi\n      0x0100\n      dup1\n      dup4\n      sload\n      div\n      mul\n      dup4\n      mstore\n      swap2\n      0x20\n      add\n      swap2\n      jump(tag_234)\n    tag_235:\n      dup3\n      add\n      swap2\n      swap1\n      0x00\n      mstore\n      keccak256(0x00, 0x20)\n      swap1\n    tag_236:\n      dup2\n      sload\n      dup2\n      mstore\n      swap1\n      0x01\n      add\n      swap1\n      0x20\n      add\n      dup1\n      dup4\n      gt\n      tag_236\n      jumpi\n      dup3\n      swap1\n      sub\n      0x1f\n      and\n      dup3\n      add\n      swap2\n    tag_234:\n      pop\n      pop\n      pop\n      pop\n      pop\n      swap1\n      dup1\n      0x07\n      add\n      dup1\n      sload\n      tag_237\n      swap1\n      tag_64\n      jump\t// in\n    tag_237:\n      dup1\n      0x1f\n      add\n      0x20\n      dup1\n      swap2\n      div\n      mul\n      0x20\n      add\n      mload(0x40)\n      swap1\n      dup2\n      add\n      0x40\n      mstore\n      dup1\n      swap3\n      swap2\n      swap1\n      dup2\n      dup2\n      mstore\n      0x20\n      add\n      dup3\n      dup1\n      sload\n      tag_238\n      swap1\n      tag_64\n      jump\t// in\n    tag_238:\n      dup1\n      iszero\n      tag_239\n      jumpi\n      dup1\n      0x1f\n      lt\n      tag_240\n      jumpi\n      0x0100\n      dup1\n      dup4\n      sload\n      div\n      mul\n      dup4\n      mstore\n      swap2\n      0x20\n      add\n      swap2\n      jump(tag_239)\n    tag_240:\n      dup3\n      add\n      swap2\n      swap1\n      0x00\n      mstore\n      keccak256(0x00, 0x20)\n      swap1\n    tag_241:\n      dup2\n      sload\n      dup2\n      mstore\n      swap1\n      0x01\n      add\n      swap1\n      0x20\n      add\n      dup1\n      dup4\n      gt\n      tag_241\n      jumpi\n      dup3\n      swap1\n      sub\n      0x1f\n      and\n      dup3\n      add\n      swap2\n    tag_239:\n      pop\n      pop\n      pop\n      pop\n      pop\n      swap1\n      dup1\n      0x08\n      add\n      sload\n      swap1\n      pop\n      dup10\n      jump\t// out\n        /* \"contracts/ProjetYnov/GestionDesDiplomes.sol\":3687:4151  function ajouterDiplome(uint _ID_Diplome, uint _ID_Titulaire, string memory _Nom_Etablissement_enseignement_superieur, uint _ID_EES, string memory _Pays, string memory _Type_Diplome, string memory _Specialite, string memory _Mention, uint _Date_obtention) public onlyAgent {... */\n    tag_57:\n        /* \"contracts/ProjetYnov/GestionDesDiplomes.sol\":2236:2244  estAgent */\n      0x05\n        /* \"contracts/ProjetYnov/GestionDesDiplomes.sol\":2236:2256  estAgent[msg.sender] */\n      0x00\n        /* \"contracts/ProjetYnov/GestionDesDiplomes.sol\":2245:2255  msg.sender */\n      caller\n        /* \"contracts/ProjetYnov/GestionDesDiplomes.sol\":2236:2256  estAgent[msg.sender] */\n      0xffffffffffffffffffffffffffffffffffffffff\n      and\n      0xffffffffffffffffffffffffffffffffffffffff\n      and\n      dup2\n      mstore\n      0x20\n      add\n      swap1\n      dup2\n      mstore\n      0x20\n      add\n      0x00\n      keccak256\n      0x00\n      swap1\n      sload\n      swap1\n      0x0100\n      exp\n      swap1\n      div\n      0xff\n      and\n        /* \"contracts/ProjetYnov/GestionDesDiplomes.sol\":2228:2314  require(estAgent[msg.sender], \"Vous n etes pas autorise a effectuer cette operation.\") */\n      tag_243\n      jumpi\n      mload(0x40)\n      0x08c379a000000000000000000000000000000000000000000000000000000000\n      dup2\n      mstore\n      0x04\n      add\n      tag_244\n      swap1\n      tag_183\n      jump\t// in\n    tag_244:\n      mload(0x40)\n      dup1\n      swap2\n      sub\n      swap1\n      revert\n    tag_243:\n        /* \"contracts/ProjetYnov/GestionDesDiplomes.sol\":3994:4143  Diplome(_ID_Diplome, _ID_Titulaire, _Nom_Etablissement_enseignement_superieur, _ID_EES, _Pays, _Type_Diplome, _Specialite, _Mention, _Date_obtention) */\n      mload(0x40)\n      dup1\n      0x0120\n      add\n      0x40\n      mstore\n      dup1\n        /* \"contracts/ProjetYnov/GestionDesDiplomes.sol\":4002:4013  _ID_Diplome */\n      dup11\n        /* \"contracts/ProjetYnov/GestionDesDiplomes.sol\":3994:4143  Diplome(_ID_Diplome, _ID_Titulaire, _Nom_Etablissement_enseignement_superieur, _ID_EES, _Pays, _Type_Diplome, _Specialite, _Mention, _Date_obtention) */\n      dup2\n      mstore\n      0x20\n      add\n        /* \"contracts/ProjetYnov/GestionDesDiplomes.sol\":4015:4028  _ID_Titulaire */\n      dup10\n        /* \"contracts/ProjetYnov/GestionDesDiplomes.sol\":3994:4143  Diplome(_ID_Diplome, _ID_Titulaire, _Nom_Etablissement_enseignement_superieur, _ID_EES, _Pays, _Type_Diplome, _Specialite, _Mention, _Date_obtention) */\n      dup2\n      mstore\n      0x20\n      add\n        /* \"contracts/ProjetYnov/GestionDesDiplomes.sol\":4030:4071  _Nom_Etablissement_enseignement_superieur */\n      dup9\n        /* \"contracts/ProjetYnov/GestionDesDiplomes.sol\":3994:4143  Diplome(_ID_Diplome, _ID_Titulaire, _Nom_Etablissement_enseignement_superieur, _ID_EES, _Pays, _Type_Diplome, _Specialite, _Mention, _Date_obtention) */\n      dup2\n      mstore\n      0x20\n      add\n        /* \"contracts/ProjetYnov/GestionDesDiplomes.sol\":4073:4080  _ID_EES */\n      dup8\n        /* \"contracts/ProjetYnov/GestionDesDiplomes.sol\":3994:4143  Diplome(_ID_Diplome, _ID_Titulaire, _Nom_Etablissement_enseignement_superieur, _ID_EES, _Pays, _Type_Diplome, _Specialite, _Mention, _Date_obtention) */\n      dup2\n      mstore\n      0x20\n      add\n        /* \"contracts/ProjetYnov/GestionDesDiplomes.sol\":4082:4087  _Pays */\n      dup7\n        /* \"contracts/ProjetYnov/GestionDesDiplomes.sol\":3994:4143  Diplome(_ID_Diplome, _ID_Titulaire, _Nom_Etablissement_enseignement_superieur, _ID_EES, _Pays, _Type_Diplome, _Specialite, _Mention, _Date_obtention) */\n      dup2\n      mstore\n      0x20\n      add\n        /* \"contracts/ProjetYnov/GestionDesDiplomes.sol\":4089:4102  _Type_Diplome */\n      dup6\n        /* \"contracts/ProjetYnov/GestionDesDiplomes.sol\":3994:4143  Diplome(_ID_Diplome, _ID_Titulaire, _Nom_Etablissement_enseignement_superieur, _ID_EES, _Pays, _Type_Diplome, _Specialite, _Mention, _Date_obtention) */\n      dup2\n      mstore\n      0x20\n      add\n        /* \"contracts/ProjetYnov/GestionDesDiplomes.sol\":4104:4115  _Specialite */\n      dup5\n        /* \"contracts/ProjetYnov/GestionDesDiplomes.sol\":3994:4143  Diplome(_ID_Diplome, _ID_Titulaire, _Nom_Etablissement_enseignement_superieur, _ID_EES, _Pays, _Type_Diplome, _Specialite, _Mention, _Date_obtention) */\n      dup2\n      mstore\n      0x20\n      add\n        /* \"contracts/ProjetYnov/GestionDesDiplomes.sol\":4117:4125  _Mention */\n      dup4\n        /* \"contracts/ProjetYnov/GestionDesDiplomes.sol\":3994:4143  Diplome(_ID_Diplome, _ID_Titulaire, _Nom_Etablissement_enseignement_superieur, _ID_EES, _Pays, _Type_Diplome, _Specialite, _Mention, _Date_obtention) */\n      dup2\n      mstore\n      0x20\n      add\n        /* \"contracts/ProjetYnov/GestionDesDiplomes.sol\":4127:4142  _Date_obtention */\n      dup3\n        /* \"contracts/ProjetYnov/GestionDesDiplomes.sol\":3994:4143  Diplome(_ID_Diplome, _ID_Titulaire, _Nom_Etablissement_enseignement_superieur, _ID_EES, _Pays, _Type_Diplome, _Specialite, _Mention, _Date_obtention) */\n      dup2\n      mstore\n      pop\n        /* \"contracts/ProjetYnov/GestionDesDiplomes.sol\":3971:3979  diplomes */\n      0x03\n        /* \"contracts/ProjetYnov/GestionDesDiplomes.sol\":3971:3991  diplomes[msg.sender] */\n      0x00\n        /* \"contracts/ProjetYnov/GestionDesDiplomes.sol\":3980:3990  msg.sender */\n      caller\n        /* \"contracts/ProjetYnov/GestionDesDiplomes.sol\":3971:3991  diplomes[msg.sender] */\n      0xffffffffffffffffffffffffffffffffffffffff\n      and\n      0xffffffffffffffffffffffffffffffffffffffff\n      and\n      dup2\n      mstore\n      0x20\n      add\n      swap1\n      dup2\n      mstore\n      0x20\n      add\n      0x00\n      keccak256\n        /* \"contracts/ProjetYnov/GestionDesDiplomes.sol\":3971:4143  diplomes[msg.sender] = Diplome(_ID_Diplome, _ID_Titulaire, _Nom_Etablissement_enseignement_superieur, _ID_EES, _Pays, _Type_Diplome, _Specialite, _Mention, _Date_obtention) */\n      0x00\n      dup3\n      add\n      mload\n      dup2\n      0x00\n      add\n      sstore\n      0x20\n      dup3\n      add\n      mload\n      dup2\n      0x01\n      add\n      sstore\n      0x40\n      dup3\n      add\n      mload\n      dup2\n      0x02\n      add\n      swap1\n      dup2\n      tag_246\n      swap2\n      swap1\n      tag_186\n      jump\t// in\n    tag_246:\n      pop\n      0x60\n      dup3\n      add\n      mload\n      dup2\n      0x03\n      add\n      sstore\n      0x80\n      dup3\n      add\n      mload\n      dup2\n      0x04\n      add\n      swap1\n      dup2\n      tag_247\n      swap2\n      swap1\n      tag_186\n      jump\t// in\n    tag_247:\n      pop\n      0xa0\n      dup3\n      add\n      mload\n      dup2\n      0x05\n      add\n      swap1\n      dup2\n      tag_248\n      swap2\n      swap1\n      tag_186\n      jump\t// in\n    tag_248:\n      pop\n      0xc0\n      dup3\n      add\n      mload\n      dup2\n      0x06\n      add\n      swap1\n      dup2\n      tag_249\n      swap2\n      swap1\n      tag_186\n      jump\t// in\n    tag_249:\n      pop\n      0xe0\n      dup3\n      add\n      mload\n      dup2\n      0x07\n      add\n      swap1\n      dup2\n      tag_250\n      swap2\n      swap1\n      tag_186\n      jump\t// in\n    tag_250:\n      pop\n      0x0100\n      dup3\n      add\n      mload\n      dup2\n      0x08\n      add\n      sstore\n      swap1\n      pop\n      pop\n        /* \"contracts/ProjetYnov/GestionDesDiplomes.sol\":3687:4151  function ajouterDiplome(uint _ID_Diplome, uint _ID_Titulaire, string memory _Nom_Etablissement_enseignement_superieur, uint _ID_EES, string memory _Pays, string memory _Type_Diplome, string memory _Specialite, string memory _Mention, uint _Date_obtention) public onlyAgent {... */\n      pop\n      pop\n      pop\n      pop\n      pop\n      pop\n      pop\n      pop\n      pop\n      jump\t// out\n        /* \"contracts/ProjetYnov/GestionDesDiplomes.sol\":2075:2115  mapping(address => bool) public estAgent */\n    tag_60:\n      mstore(0x20, 0x05)\n      dup1\n      0x00\n      mstore\n      keccak256(0x00, 0x40)\n      0x00\n      swap2\n      pop\n      sload\n      swap1\n      0x0100\n      exp\n      swap1\n      div\n      0xff\n      and\n      dup2\n      jump\t// out\n        /* \"#utility.yul\":7:82   */\n    tag_251:\n        /* \"#utility.yul\":40:46   */\n      0x00\n        /* \"#utility.yul\":73:75   */\n      0x40\n        /* \"#utility.yul\":67:76   */\n      mload\n        /* \"#utility.yul\":57:76   */\n      swap1\n      pop\n        /* \"#utility.yul\":7:82   */\n      swap1\n      jump\t// out\n        /* \"#utility.yul\":88:205   */\n    tag_252:\n        /* \"#utility.yul\":197:198   */\n      0x00\n        /* \"#utility.yul\":194:195   */\n      dup1\n        /* \"#utility.yul\":187:199   */\n      revert\n        /* \"#utility.yul\":211:328   */\n    tag_253:\n        /* \"#utility.yul\":320:321   */\n      0x00\n        /* \"#utility.yul\":317:318   */\n      dup1\n        /* \"#utility.yul\":310:322   */\n      revert\n        /* \"#utility.yul\":334:460   */\n    tag_254:\n        /* \"#utility.yul\":371:378   */\n      0x00\n        /* \"#utility.yul\":411:453   */\n      0xffffffffffffffffffffffffffffffffffffffff\n        /* \"#utility.yul\":404:409   */\n      dup3\n        /* \"#utility.yul\":400:454   */\n      and\n        /* \"#utility.yul\":389:454   */\n      swap1\n      pop\n        /* \"#utility.yul\":334:460   */\n      swap2\n      swap1\n      pop\n      jump\t// out\n        /* \"#utility.yul\":466:562   */\n    tag_255:\n        /* \"#utility.yul\":503:510   */\n      0x00\n        /* \"#utility.yul\":532:556   */\n      tag_303\n        /* \"#utility.yul\":550:555   */\n      dup3\n        /* \"#utility.yul\":532:556   */\n      tag_254\n      jump\t// in\n    tag_303:\n        /* \"#utility.yul\":521:556   */\n      swap1\n      pop\n        /* \"#utility.yul\":466:562   */\n      swap2\n      swap1\n      pop\n      jump\t// out\n        /* \"#utility.yul\":568:690   */\n    tag_256:\n        /* \"#utility.yul\":641:665   */\n      tag_305\n        /* \"#utility.yul\":659:664   */\n      dup2\n        /* \"#utility.yul\":641:665   */\n      tag_255\n      jump\t// in\n    tag_305:\n        /* \"#utility.yul\":634:639   */\n      dup2\n        /* \"#utility.yul\":631:666   */\n      eq\n        /* \"#utility.yul\":621:684   */\n      tag_306\n      jumpi\n        /* \"#utility.yul\":680:681   */\n      0x00\n        /* \"#utility.yul\":677:678   */\n      dup1\n        /* \"#utility.yul\":670:682   */\n      revert\n        /* \"#utility.yul\":621:684   */\n    tag_306:\n        /* \"#utility.yul\":568:690   */\n      pop\n      jump\t// out\n        /* \"#utility.yul\":696:835   */\n    tag_257:\n        /* \"#utility.yul\":742:747   */\n      0x00\n        /* \"#utility.yul\":780:786   */\n      dup2\n        /* \"#utility.yul\":767:787   */\n      calldataload\n        /* \"#utility.yul\":758:787   */\n      swap1\n      pop\n        /* \"#utility.yul\":796:829   */\n      tag_308\n        /* \"#utility.yul\":823:828   */\n      dup2\n        /* \"#utility.yul\":796:829   */\n      tag_256\n      jump\t// in\n    tag_308:\n        /* \"#utility.yul\":696:835   */\n      swap3\n      swap2\n      pop\n      pop\n      jump\t// out\n        /* \"#utility.yul\":841:1170   */\n    tag_17:\n        /* \"#utility.yul\":900:906   */\n      0x00\n        /* \"#utility.yul\":949:951   */\n      0x20\n        /* \"#utility.yul\":937:946   */\n      dup3\n        /* \"#utility.yul\":928:935   */\n      dup5\n        /* \"#utility.yul\":924:947   */\n      sub\n        /* \"#utility.yul\":920:952   */\n      slt\n        /* \"#utility.yul\":917:1036   */\n      iszero\n      tag_310\n      jumpi\n        /* \"#utility.yul\":955:1034   */\n      tag_311\n      tag_252\n      jump\t// in\n    tag_311:\n        /* \"#utility.yul\":917:1036   */\n    tag_310:\n        /* \"#utility.yul\":1075:1076   */\n      0x00\n        /* \"#utility.yul\":1100:1153   */\n      tag_312\n        /* \"#utility.yul\":1145:1152   */\n      dup5\n        /* \"#utility.yul\":1136:1142   */\n      dup3\n        /* \"#utility.yul\":1125:1134   */\n      dup6\n        /* \"#utility.yul\":1121:1143   */\n      add\n        /* \"#utility.yul\":1100:1153   */\n      tag_257\n      jump\t// in\n    tag_312:\n        /* \"#utility.yul\":1090:1153   */\n      swap2\n      pop\n        /* \"#utility.yul\":1046:1163   */\n      pop\n        /* \"#utility.yul\":841:1170   */\n      swap3\n      swap2\n      pop\n      pop\n      jump\t// out\n        /* \"#utility.yul\":1176:1253   */\n    tag_258:\n        /* \"#utility.yul\":1213:1220   */\n      0x00\n        /* \"#utility.yul\":1242:1247   */\n      dup2\n        /* \"#utility.yul\":1231:1247   */\n      swap1\n      pop\n        /* \"#utility.yul\":1176:1253   */\n      swap2\n      swap1\n      pop\n      jump\t// out\n        /* \"#utility.yul\":1259:1377   */\n    tag_259:\n        /* \"#utility.yul\":1346:1370   */\n      tag_315\n        /* \"#utility.yul\":1364:1369   */\n      dup2\n        /* \"#utility.yul\":1346:1370   */\n      tag_258\n      jump\t// in\n    tag_315:\n        /* \"#utility.yul\":1341:1344   */\n      dup3\n        /* \"#utility.yul\":1334:1371   */\n      mstore\n        /* \"#utility.yul\":1259:1377   */\n      pop\n      pop\n      jump\t// out\n        /* \"#utility.yul\":1383:1482   */\n    tag_260:\n        /* \"#utility.yul\":1435:1441   */\n      0x00\n        /* \"#utility.yul\":1469:1474   */\n      dup2\n        /* \"#utility.yul\":1463:1475   */\n      mload\n        /* \"#utility.yul\":1453:1475   */\n      swap1\n      pop\n        /* \"#utility.yul\":1383:1482   */\n      swap2\n      swap1\n      pop\n      jump\t// out\n        /* \"#utility.yul\":1488:1657   */\n    tag_261:\n        /* \"#utility.yul\":1572:1583   */\n      0x00\n        /* \"#utility.yul\":1606:1612   */\n      dup3\n        /* \"#utility.yul\":1601:1604   */\n      dup3\n        /* \"#utility.yul\":1594:1613   */\n      mstore\n        /* \"#utility.yul\":1646:1650   */\n      0x20\n        /* \"#utility.yul\":1641:1644   */\n      dup3\n        /* \"#utility.yul\":1637:1651   */\n      add\n        /* \"#utility.yul\":1622:1651   */\n      swap1\n      pop\n        /* \"#utility.yul\":1488:1657   */\n      swap3\n      swap2\n      pop\n      pop\n      jump\t// out\n        /* \"#utility.yul\":1663:1909   */\n    tag_262:\n        /* \"#utility.yul\":1744:1745   */\n      0x00\n        /* \"#utility.yul\":1754:1867   */\n    tag_319:\n        /* \"#utility.yul\":1768:1774   */\n      dup4\n        /* \"#utility.yul\":1765:1766   */\n      dup2\n        /* \"#utility.yul\":1762:1775   */\n      lt\n        /* \"#utility.yul\":1754:1867   */\n      iszero\n      tag_321\n      jumpi\n        /* \"#utility.yul\":1853:1854   */\n      dup1\n        /* \"#utility.yul\":1848:1851   */\n      dup3\n        /* \"#utility.yul\":1844:1855   */\n      add\n        /* \"#utility.yul\":1838:1856   */\n      mload\n        /* \"#utility.yul\":1834:1835   */\n      dup2\n        /* \"#utility.yul\":1829:1832   */\n      dup5\n        /* \"#utility.yul\":1825:1836   */\n      add\n        /* \"#utility.yul\":1818:1857   */\n      mstore\n        /* \"#utility.yul\":1790:1792   */\n      0x20\n        /* \"#utility.yul\":1787:1788   */\n      dup2\n        /* \"#utility.yul\":1783:1793   */\n      add\n        /* \"#utility.yul\":1778:1793   */\n      swap1\n      pop\n        /* \"#utility.yul\":1754:1867   */\n      jump(tag_319)\n    tag_321:\n        /* \"#utility.yul\":1901:1902   */\n      0x00\n        /* \"#utility.yul\":1892:1898   */\n      dup5\n        /* \"#utility.yul\":1887:1890   */\n      dup5\n        /* \"#utility.yul\":1883:1899   */\n      add\n        /* \"#utility.yul\":1876:1903   */\n      mstore\n        /* \"#utility.yul\":1725:1909   */\n      pop\n        /* \"#utility.yul\":1663:1909   */\n      pop\n      pop\n      pop\n      jump\t// out\n        /* \"#utility.yul\":1915:2017   */\n    tag_263:\n        /* \"#utility.yul\":1956:1962   */\n      0x00\n        /* \"#utility.yul\":2007:2009   */\n      0x1f\n        /* \"#utility.yul\":2003:2010   */\n      not\n        /* \"#utility.yul\":1998:2000   */\n      0x1f\n        /* \"#utility.yul\":1991:1996   */\n      dup4\n        /* \"#utility.yul\":1987:2001   */\n      add\n        /* \"#utility.yul\":1983:2011   */\n      and\n        /* \"#utility.yul\":1973:2011   */\n      swap1\n      pop\n        /* \"#utility.yul\":1915:2017   */\n      swap2\n      swap1\n      pop\n      jump\t// out\n        /* \"#utility.yul\":2023:2400   */\n    tag_264:\n        /* \"#utility.yul\":2111:2114   */\n      0x00\n        /* \"#utility.yul\":2139:2178   */\n      tag_324\n        /* \"#utility.yul\":2172:2177   */\n      dup3\n        /* \"#utility.yul\":2139:2178   */\n      tag_260\n      jump\t// in\n    tag_324:\n        /* \"#utility.yul\":2194:2265   */\n      tag_325\n        /* \"#utility.yul\":2258:2264   */\n      dup2\n        /* \"#utility.yul\":2253:2256   */\n      dup6\n        /* \"#utility.yul\":2194:2265   */\n      tag_261\n      jump\t// in\n    tag_325:\n        /* \"#utility.yul\":2187:2265   */\n      swap4\n      pop\n        /* \"#utility.yul\":2274:2339   */\n      tag_326\n        /* \"#utility.yul\":2332:2338   */\n      dup2\n        /* \"#utility.yul\":2327:2330   */\n      dup6\n        /* \"#utility.yul\":2320:2324   */\n      0x20\n        /* \"#utility.yul\":2313:2318   */\n      dup7\n        /* \"#utility.yul\":2309:2325   */\n      add\n        /* \"#utility.yul\":2274:2339   */\n      tag_262\n      jump\t// in\n    tag_326:\n        /* \"#utility.yul\":2364:2393   */\n      tag_327\n        /* \"#utility.yul\":2386:2392   */\n      dup2\n        /* \"#utility.yul\":2364:2393   */\n      tag_263\n      jump\t// in\n    tag_327:\n        /* \"#utility.yul\":2359:2362   */\n      dup5\n        /* \"#utility.yul\":2355:2394   */\n      add\n        /* \"#utility.yul\":2348:2394   */\n      swap2\n      pop\n        /* \"#utility.yul\":2115:2400   */\n      pop\n        /* \"#utility.yul\":2023:2400   */\n      swap3\n      swap2\n      pop\n      pop\n      jump\t// out\n        /* \"#utility.yul\":2406:4444   */\n    tag_20:\n        /* \"#utility.yul\":2931:2935   */\n      0x00\n        /* \"#utility.yul\":2969:2972   */\n      0x0140\n        /* \"#utility.yul\":2958:2967   */\n      dup3\n        /* \"#utility.yul\":2954:2973   */\n      add\n        /* \"#utility.yul\":2946:2973   */\n      swap1\n      pop\n        /* \"#utility.yul\":2983:3054   */\n      tag_329\n        /* \"#utility.yul\":3051:3052   */\n      0x00\n        /* \"#utility.yul\":3040:3049   */\n      dup4\n        /* \"#utility.yul\":3036:3053   */\n      add\n        /* \"#utility.yul\":3027:3033   */\n      dup14\n        /* \"#utility.yul\":2983:3054   */\n      tag_259\n      jump\t// in\n    tag_329:\n        /* \"#utility.yul\":3101:3110   */\n      dup2\n        /* \"#utility.yul\":3095:3099   */\n      dup2\n        /* \"#utility.yul\":3091:3111   */\n      sub\n        /* \"#utility.yul\":3086:3088   */\n      0x20\n        /* \"#utility.yul\":3075:3084   */\n      dup4\n        /* \"#utility.yul\":3071:3089   */\n      add\n        /* \"#utility.yul\":3064:3112   */\n      mstore\n        /* \"#utility.yul\":3129:3207   */\n      tag_330\n        /* \"#utility.yul\":3202:3206   */\n      dup2\n        /* \"#utility.yul\":3193:3199   */\n      dup13\n        /* \"#utility.yul\":3129:3207   */\n      tag_264\n      jump\t// in\n    tag_330:\n        /* \"#utility.yul\":3121:3207   */\n      swap1\n      pop\n        /* \"#utility.yul\":3254:3263   */\n      dup2\n        /* \"#utility.yul\":3248:3252   */\n      dup2\n        /* \"#utility.yul\":3244:3264   */\n      sub\n        /* \"#utility.yul\":3239:3241   */\n      0x40\n        /* \"#utility.yul\":3228:3237   */\n      dup4\n        /* \"#utility.yul\":3224:3242   */\n      add\n        /* \"#utility.yul\":3217:3265   */\n      mstore\n        /* \"#utility.yul\":3282:3360   */\n      tag_331\n        /* \"#utility.yul\":3355:3359   */\n      dup2\n        /* \"#utility.yul\":3346:3352   */\n      dup12\n        /* \"#utility.yul\":3282:3360   */\n      tag_264\n      jump\t// in\n    tag_331:\n        /* \"#utility.yul\":3274:3360   */\n      swap1\n      pop\n        /* \"#utility.yul\":3407:3416   */\n      dup2\n        /* \"#utility.yul\":3401:3405   */\n      dup2\n        /* \"#utility.yul\":3397:3417   */\n      sub\n        /* \"#utility.yul\":3392:3394   */\n      0x60\n        /* \"#utility.yul\":3381:3390   */\n      dup4\n        /* \"#utility.yul\":3377:3395   */\n      add\n        /* \"#utility.yul\":3370:3418   */\n      mstore\n        /* \"#utility.yul\":3435:3513   */\n      tag_332\n        /* \"#utility.yul\":3508:3512   */\n      dup2\n        /* \"#utility.yul\":3499:3505   */\n      dup11\n        /* \"#utility.yul\":3435:3513   */\n      tag_264\n      jump\t// in\n    tag_332:\n        /* \"#utility.yul\":3427:3513   */\n      swap1\n      pop\n        /* \"#utility.yul\":3561:3570   */\n      dup2\n        /* \"#utility.yul\":3555:3559   */\n      dup2\n        /* \"#utility.yul\":3551:3571   */\n      sub\n        /* \"#utility.yul\":3545:3548   */\n      0x80\n        /* \"#utility.yul\":3534:3543   */\n      dup4\n        /* \"#utility.yul\":3530:3549   */\n      add\n        /* \"#utility.yul\":3523:3572   */\n      mstore\n        /* \"#utility.yul\":3589:3667   */\n      tag_333\n        /* \"#utility.yul\":3662:3666   */\n      dup2\n        /* \"#utility.yul\":3653:3659   */\n      dup10\n        /* \"#utility.yul\":3589:3667   */\n      tag_264\n      jump\t// in\n    tag_333:\n        /* \"#utility.yul\":3581:3667   */\n      swap1\n      pop\n        /* \"#utility.yul\":3715:3724   */\n      dup2\n        /* \"#utility.yul\":3709:3713   */\n      dup2\n        /* \"#utility.yul\":3705:3725   */\n      sub\n        /* \"#utility.yul\":3699:3702   */\n      0xa0\n        /* \"#utility.yul\":3688:3697   */\n      dup4\n        /* \"#utility.yul\":3684:3703   */\n      add\n        /* \"#utility.yul\":3677:3726   */\n      mstore\n        /* \"#utility.yul\":3743:3821   */\n      tag_334\n        /* \"#utility.yul\":3816:3820   */\n      dup2\n        /* \"#utility.yul\":3807:3813   */\n      dup9\n        /* \"#utility.yul\":3743:3821   */\n      tag_264\n      jump\t// in\n    tag_334:\n        /* \"#utility.yul\":3735:3821   */\n      swap1\n      pop\n        /* \"#utility.yul\":3869:3878   */\n      dup2\n        /* \"#utility.yul\":3863:3867   */\n      dup2\n        /* \"#utility.yul\":3859:3879   */\n      sub\n        /* \"#utility.yul\":3853:3856   */\n      0xc0\n        /* \"#utility.yul\":3842:3851   */\n      dup4\n        /* \"#utility.yul\":3838:3857   */\n      add\n        /* \"#utility.yul\":3831:3880   */\n      mstore\n        /* \"#utility.yul\":3897:3975   */\n      tag_335\n        /* \"#utility.yul\":3970:3974   */\n      dup2\n        /* \"#utility.yul\":3961:3967   */\n      dup8\n        /* \"#utility.yul\":3897:3975   */\n      tag_264\n      jump\t// in\n    tag_335:\n        /* \"#utility.yul\":3889:3975   */\n      swap1\n      pop\n        /* \"#utility.yul\":4023:4032   */\n      dup2\n        /* \"#utility.yul\":4017:4021   */\n      dup2\n        /* \"#utility.yul\":4013:4033   */\n      sub\n        /* \"#utility.yul\":4007:4010   */\n      0xe0\n        /* \"#utility.yul\":3996:4005   */\n      dup4\n        /* \"#utility.yul\":3992:4011   */\n      add\n        /* \"#utility.yul\":3985:4034   */\n      mstore\n        /* \"#utility.yul\":4051:4129   */\n      tag_336\n        /* \"#utility.yul\":4124:4128   */\n      dup2\n        /* \"#utility.yul\":4115:4121   */\n      dup7\n        /* \"#utility.yul\":4051:4129   */\n      tag_264\n      jump\t// in\n    tag_336:\n        /* \"#utility.yul\":4043:4129   */\n      swap1\n      pop\n        /* \"#utility.yul\":4177:4186   */\n      dup2\n        /* \"#utility.yul\":4171:4175   */\n      dup2\n        /* \"#utility.yul\":4167:4187   */\n      sub\n        /* \"#utility.yul\":4161:4164   */\n      0x0100\n        /* \"#utility.yul\":4150:4159   */\n      dup4\n        /* \"#utility.yul\":4146:4165   */\n      add\n        /* \"#utility.yul\":4139:4188   */\n      mstore\n        /* \"#utility.yul\":4205:4283   */\n      tag_337\n        /* \"#utility.yul\":4278:4282   */\n      dup2\n        /* \"#utility.yul\":4269:4275   */\n      dup6\n        /* \"#utility.yul\":4205:4283   */\n      tag_264\n      jump\t// in\n    tag_337:\n        /* \"#utility.yul\":4197:4283   */\n      swap1\n      pop\n        /* \"#utility.yul\":4331:4340   */\n      dup2\n        /* \"#utility.yul\":4325:4329   */\n      dup2\n        /* \"#utility.yul\":4321:4341   */\n      sub\n        /* \"#utility.yul\":4315:4318   */\n      0x0120\n        /* \"#utility.yul\":4304:4313   */\n      dup4\n        /* \"#utility.yul\":4300:4319   */\n      add\n        /* \"#utility.yul\":4293:4342   */\n      mstore\n        /* \"#utility.yul\":4359:4437   */\n      tag_338\n        /* \"#utility.yul\":4432:4436   */\n      dup2\n        /* \"#utility.yul\":4423:4429   */\n      dup5\n        /* \"#utility.yul\":4359:4437   */\n      tag_264\n      jump\t// in\n    tag_338:\n        /* \"#utility.yul\":4351:4437   */\n      swap1\n      pop\n        /* \"#utility.yul\":2406:4444   */\n      swap12\n      swap11\n      pop\n      pop\n      pop\n      pop\n      pop\n      pop\n      pop\n      pop\n      pop\n      pop\n      pop\n      jump\t// out\n        /* \"#utility.yul\":4450:6692   */\n    tag_27:\n        /* \"#utility.yul\":5024:5028   */\n      0x00\n        /* \"#utility.yul\":5062:5065   */\n      0x0160\n        /* \"#utility.yul\":5051:5060   */\n      dup3\n        /* \"#utility.yul\":5047:5066   */\n      add\n        /* \"#utility.yul\":5039:5066   */\n      swap1\n      pop\n        /* \"#utility.yul\":5076:5147   */\n      tag_340\n        /* \"#utility.yul\":5144:5145   */\n      0x00\n        /* \"#utility.yul\":5133:5142   */\n      dup4\n        /* \"#utility.yul\":5129:5146   */\n      add\n        /* \"#utility.yul\":5120:5126   */\n      dup15\n        /* \"#utility.yul\":5076:5147   */\n      tag_259\n      jump\t// in\n    tag_340:\n        /* \"#utility.yul\":5194:5203   */\n      dup2\n        /* \"#utility.yul\":5188:5192   */\n      dup2\n        /* \"#utility.yul\":5184:5204   */\n      sub\n        /* \"#utility.yul\":5179:5181   */\n      0x20\n        /* \"#utility.yul\":5168:5177   */\n      dup4\n        /* \"#utility.yul\":5164:5182   */\n      add\n        /* \"#utility.yul\":5157:5205   */\n      mstore\n        /* \"#utility.yul\":5222:5300   */\n      tag_341\n        /* \"#utility.yul\":5295:5299   */\n      dup2\n        /* \"#utility.yul\":5286:5292   */\n      dup14\n        /* \"#utility.yul\":5222:5300   */\n      tag_264\n      jump\t// in\n    tag_341:\n        /* \"#utility.yul\":5214:5300   */\n      swap1\n      pop\n        /* \"#utility.yul\":5347:5356   */\n      dup2\n        /* \"#utility.yul\":5341:5345   */\n      dup2\n        /* \"#utility.yul\":5337:5357   */\n      sub\n        /* \"#utility.yul\":5332:5334   */\n      0x40\n        /* \"#utility.yul\":5321:5330   */\n      dup4\n        /* \"#utility.yul\":5317:5335   */\n      add\n        /* \"#utility.yul\":5310:5358   */\n      mstore\n        /* \"#utility.yul\":5375:5453   */\n      tag_342\n        /* \"#utility.yul\":5448:5452   */\n      dup2\n        /* \"#utility.yul\":5439:5445   */\n      dup13\n        /* \"#utility.yul\":5375:5453   */\n      tag_264\n      jump\t// in\n    tag_342:\n        /* \"#utility.yul\":5367:5453   */\n      swap1\n      pop\n        /* \"#utility.yul\":5500:5509   */\n      dup2\n        /* \"#utility.yul\":5494:5498   */\n      dup2\n        /* \"#utility.yul\":5490:5510   */\n      sub\n        /* \"#utility.yul\":5485:5487   */\n      0x60\n        /* \"#utility.yul\":5474:5483   */\n      dup4\n        /* \"#utility.yul\":5470:5488   */\n      add\n        /* \"#utility.yul\":5463:5511   */\n      mstore\n        /* \"#utility.yul\":5528:5606   */\n      tag_343\n        /* \"#utility.yul\":5601:5605   */\n      dup2\n        /* \"#utility.yul\":5592:5598   */\n      dup12\n        /* \"#utility.yul\":5528:5606   */\n      tag_264\n      jump\t// in\n    tag_343:\n        /* \"#utility.yul\":5520:5606   */\n      swap1\n      pop\n        /* \"#utility.yul\":5654:5663   */\n      dup2\n        /* \"#utility.yul\":5648:5652   */\n      dup2\n        /* \"#utility.yul\":5644:5664   */\n      sub\n        /* \"#utility.yul\":5638:5641   */\n      0x80\n        /* \"#utility.yul\":5627:5636   */\n      dup4\n        /* \"#utility.yul\":5623:5642   */\n      add\n        /* \"#utility.yul\":5616:5665   */\n      mstore\n        /* \"#utility.yul\":5682:5760   */\n      tag_344\n        /* \"#utility.yul\":5755:5759   */\n      dup2\n        /* \"#utility.yul\":5746:5752   */\n      dup11\n        /* \"#utility.yul\":5682:5760   */\n      tag_264\n      jump\t// in\n    tag_344:\n        /* \"#utility.yul\":5674:5760   */\n      swap1\n      pop\n        /* \"#utility.yul\":5808:5817   */\n      dup2\n        /* \"#utility.yul\":5802:5806   */\n      dup2\n        /* \"#utility.yul\":5798:5818   */\n      sub\n        /* \"#utility.yul\":5792:5795   */\n      0xa0\n        /* \"#utility.yul\":5781:5790   */\n      dup4\n        /* \"#utility.yul\":5777:5796   */\n      add\n        /* \"#utility.yul\":5770:5819   */\n      mstore\n        /* \"#utility.yul\":5836:5914   */\n      tag_345\n        /* \"#utility.yul\":5909:5913   */\n      dup2\n        /* \"#utility.yul\":5900:5906   */\n      dup10\n        /* \"#utility.yul\":5836:5914   */\n      tag_264\n      jump\t// in\n    tag_345:\n        /* \"#utility.yul\":5828:5914   */\n      swap1\n      pop\n        /* \"#utility.yul\":5962:5971   */\n      dup2\n        /* \"#utility.yul\":5956:5960   */\n      dup2\n        /* \"#utility.yul\":5952:5972   */\n      sub\n        /* \"#utility.yul\":5946:5949   */\n      0xc0\n        /* \"#utility.yul\":5935:5944   */\n      dup4\n        /* \"#utility.yul\":5931:5950   */\n      add\n        /* \"#utility.yul\":5924:5973   */\n      mstore\n        /* \"#utility.yul\":5990:6068   */\n      tag_346\n        /* \"#utility.yul\":6063:6067   */\n      dup2\n        /* \"#utility.yul\":6054:6060   */\n      dup9\n        /* \"#utility.yul\":5990:6068   */\n      tag_264\n      jump\t// in\n    tag_346:\n        /* \"#utility.yul\":5982:6068   */\n      swap1\n      pop\n        /* \"#utility.yul\":6116:6125   */\n      dup2\n        /* \"#utility.yul\":6110:6114   */\n      dup2\n        /* \"#utility.yul\":6106:6126   */\n      sub\n        /* \"#utility.yul\":6100:6103   */\n      0xe0\n        /* \"#utility.yul\":6089:6098   */\n      dup4\n        /* \"#utility.yul\":6085:6104   */\n      add\n        /* \"#utility.yul\":6078:6127   */\n      mstore\n        /* \"#utility.yul\":6144:6222   */\n      tag_347\n        /* \"#utility.yul\":6217:6221   */\n      dup2\n        /* \"#utility.yul\":6208:6214   */\n      dup8\n        /* \"#utility.yul\":6144:6222   */\n      tag_264\n      jump\t// in\n    tag_347:\n        /* \"#utility.yul\":6136:6222   */\n      swap1\n      pop\n        /* \"#utility.yul\":6270:6279   */\n      dup2\n        /* \"#utility.yul\":6264:6268   */\n      dup2\n        /* \"#utility.yul\":6260:6280   */\n      sub\n        /* \"#utility.yul\":6254:6257   */\n      0x0100\n        /* \"#utility.yul\":6243:6252   */\n      dup4\n        /* \"#utility.yul\":6239:6258   */\n      add\n        /* \"#utility.yul\":6232:6281   */\n      mstore\n        /* \"#utility.yul\":6298:6376   */\n      tag_348\n        /* \"#utility.yul\":6371:6375   */\n      dup2\n        /* \"#utility.yul\":6362:6368   */\n      dup7\n        /* \"#utility.yul\":6298:6376   */\n      tag_264\n      jump\t// in\n    tag_348:\n        /* \"#utility.yul\":6290:6376   */\n      swap1\n      pop\n        /* \"#utility.yul\":6424:6433   */\n      dup2\n        /* \"#utility.yul\":6418:6422   */\n      dup2\n        /* \"#utility.yul\":6414:6434   */\n      sub\n        /* \"#utility.yul\":6408:6411   */\n      0x0120\n        /* \"#utility.yul\":6397:6406   */\n      dup4\n        /* \"#utility.yul\":6393:6412   */\n      add\n        /* \"#utility.yul\":6386:6435   */\n      mstore\n        /* \"#utility.yul\":6452:6530   */\n      tag_349\n        /* \"#utility.yul\":6525:6529   */\n      dup2\n        /* \"#utility.yul\":6516:6522   */\n      dup6\n        /* \"#utility.yul\":6452:6530   */\n      tag_264\n      jump\t// in\n    tag_349:\n        /* \"#utility.yul\":6444:6530   */\n      swap1\n      pop\n        /* \"#utility.yul\":6578:6587   */\n      dup2\n        /* \"#utility.yul\":6572:6576   */\n      dup2\n        /* \"#utility.yul\":6568:6588   */\n      sub\n        /* \"#utility.yul\":6562:6565   */\n      0x0140\n        /* \"#utility.yul\":6551:6560   */\n      dup4\n        /* \"#utility.yul\":6547:6566   */\n      add\n        /* \"#utility.yul\":6540:6589   */\n      mstore\n        /* \"#utility.yul\":6606:6685   */\n      tag_350\n        /* \"#utility.yul\":6680:6684   */\n      dup2\n        /* \"#utility.yul\":6670:6677   */\n      dup5\n        /* \"#utility.yul\":6606:6685   */\n      tag_264\n      jump\t// in\n    tag_350:\n        /* \"#utility.yul\":6598:6685   */\n      swap1\n      pop\n        /* \"#utility.yul\":4450:6692   */\n      swap13\n      swap12\n      pop\n      pop\n      pop\n      pop\n      pop\n      pop\n      pop\n      pop\n      pop\n      pop\n      pop\n      pop\n      jump\t// out\n        /* \"#utility.yul\":6698:7837   */\n    tag_32:\n        /* \"#utility.yul\":7011:7015   */\n      0x00\n        /* \"#utility.yul\":7049:7052   */\n      0xc0\n        /* \"#utility.yul\":7038:7047   */\n      dup3\n        /* \"#utility.yul\":7034:7053   */\n      add\n        /* \"#utility.yul\":7026:7053   */\n      swap1\n      pop\n        /* \"#utility.yul\":7063:7134   */\n      tag_352\n        /* \"#utility.yul\":7131:7132   */\n      0x00\n        /* \"#utility.yul\":7120:7129   */\n      dup4\n        /* \"#utility.yul\":7116:7133   */\n      add\n        /* \"#utility.yul\":7107:7113   */\n      dup10\n        /* \"#utility.yul\":7063:7134   */\n      tag_259\n      jump\t// in\n    tag_352:\n        /* \"#utility.yul\":7181:7190   */\n      dup2\n        /* \"#utility.yul\":7175:7179   */\n      dup2\n        /* \"#utility.yul\":7171:7191   */\n      sub\n        /* \"#utility.yul\":7166:7168   */\n      0x20\n        /* \"#utility.yul\":7155:7164   */\n      dup4\n        /* \"#utility.yul\":7151:7169   */\n      add\n        /* \"#utility.yul\":7144:7192   */\n      mstore\n        /* \"#utility.yul\":7209:7287   */\n      tag_353\n        /* \"#utility.yul\":7282:7286   */\n      dup2\n        /* \"#utility.yul\":7273:7279   */\n      dup9\n        /* \"#utility.yul\":7209:7287   */\n      tag_264\n      jump\t// in\n    tag_353:\n        /* \"#utility.yul\":7201:7287   */\n      swap1\n      pop\n        /* \"#utility.yul\":7334:7343   */\n      dup2\n        /* \"#utility.yul\":7328:7332   */\n      dup2\n        /* \"#utility.yul\":7324:7344   */\n      sub\n        /* \"#utility.yul\":7319:7321   */\n      0x40\n        /* \"#utility.yul\":7308:7317   */\n      dup4\n        /* \"#utility.yul\":7304:7322   */\n      add\n        /* \"#utility.yul\":7297:7345   */\n      mstore\n        /* \"#utility.yul\":7362:7440   */\n      tag_354\n        /* \"#utility.yul\":7435:7439   */\n      dup2\n        /* \"#utility.yul\":7426:7432   */\n      dup8\n        /* \"#utility.yul\":7362:7440   */\n      tag_264\n      jump\t// in\n    tag_354:\n        /* \"#utility.yul\":7354:7440   */\n      swap1\n      pop\n        /* \"#utility.yul\":7487:7496   */\n      dup2\n        /* \"#utility.yul\":7481:7485   */\n      dup2\n        /* \"#utility.yul\":7477:7497   */\n      sub\n        /* \"#utility.yul\":7472:7474   */\n      0x60\n        /* \"#utility.yul\":7461:7470   */\n      dup4\n        /* \"#utility.yul\":7457:7475   */\n      add\n        /* \"#utility.yul\":7450:7498   */\n      mstore\n        /* \"#utility.yul\":7515:7593   */\n      tag_355\n        /* \"#utility.yul\":7588:7592   */\n      dup2\n        /* \"#utility.yul\":7579:7585   */\n      dup7\n        /* \"#utility.yul\":7515:7593   */\n      tag_264\n      jump\t// in\n    tag_355:\n        /* \"#utility.yul\":7507:7593   */\n      swap1\n      pop\n        /* \"#utility.yul\":7641:7650   */\n      dup2\n        /* \"#utility.yul\":7635:7639   */\n      dup2\n        /* \"#utility.yul\":7631:7651   */\n      sub\n        /* \"#utility.yul\":7625:7628   */\n      0x80\n        /* \"#utility.yul\":7614:7623   */\n      dup4\n        /* \"#utility.yul\":7610:7629   */\n      add\n        /* \"#utility.yul\":7603:7652   */\n      mstore\n        /* \"#utility.yul\":7669:7747   */\n      tag_356\n        /* \"#utility.yul\":7742:7746   */\n      dup2\n        /* \"#utility.yul\":7733:7739   */\n      dup6\n        /* \"#utility.yul\":7669:7747   */\n      tag_264\n      jump\t// in\n    tag_356:\n        /* \"#utility.yul\":7661:7747   */\n      swap1\n      pop\n        /* \"#utility.yul\":7757:7830   */\n      tag_357\n        /* \"#utility.yul\":7825:7828   */\n      0xa0\n        /* \"#utility.yul\":7814:7823   */\n      dup4\n        /* \"#utility.yul\":7810:7829   */\n      add\n        /* \"#utility.yul\":7801:7807   */\n      dup5\n        /* \"#utility.yul\":7757:7830   */\n      tag_259\n      jump\t// in\n    tag_357:\n        /* \"#utility.yul\":6698:7837   */\n      swap8\n      swap7\n      pop\n      pop\n      pop\n      pop\n      pop\n      pop\n      pop\n      jump\t// out\n        /* \"#utility.yul\":7843:7965   */\n    tag_265:\n        /* \"#utility.yul\":7916:7940   */\n      tag_359\n        /* \"#utility.yul\":7934:7939   */\n      dup2\n        /* \"#utility.yul\":7916:7940   */\n      tag_258\n      jump\t// in\n    tag_359:\n        /* \"#utility.yul\":7909:7914   */\n      dup2\n        /* \"#utility.yul\":7906:7941   */\n      eq\n        /* \"#utility.yul\":7896:7959   */\n      tag_360\n      jumpi\n        /* \"#utility.yul\":7955:7956   */\n      0x00\n        /* \"#utility.yul\":7952:7953   */\n      dup1\n        /* \"#utility.yul\":7945:7957   */\n      revert\n        /* \"#utility.yul\":7896:7959   */\n    tag_360:\n        /* \"#utility.yul\":7843:7965   */\n      pop\n      jump\t// out\n        /* \"#utility.yul\":7971:8110   */\n    tag_266:\n        /* \"#utility.yul\":8017:8022   */\n      0x00\n        /* \"#utility.yul\":8055:8061   */\n      dup2\n        /* \"#utility.yul\":8042:8062   */\n      calldataload\n        /* \"#utility.yul\":8033:8062   */\n      swap1\n      pop\n        /* \"#utility.yul\":8071:8104   */\n      tag_362\n        /* \"#utility.yul\":8098:8103   */\n      dup2\n        /* \"#utility.yul\":8071:8104   */\n      tag_265\n      jump\t// in\n    tag_362:\n        /* \"#utility.yul\":7971:8110   */\n      swap3\n      swap2\n      pop\n      pop\n      jump\t// out\n        /* \"#utility.yul\":8116:8233   */\n    tag_267:\n        /* \"#utility.yul\":8225:8226   */\n      0x00\n        /* \"#utility.yul\":8222:8223   */\n      dup1\n        /* \"#utility.yul\":8215:8227   */\n      revert\n        /* \"#utility.yul\":8239:8356   */\n    tag_268:\n        /* \"#utility.yul\":8348:8349   */\n      0x00\n        /* \"#utility.yul\":8345:8346   */\n      dup1\n        /* \"#utility.yul\":8338:8350   */\n      revert\n        /* \"#utility.yul\":8362:8542   */\n    tag_269:\n        /* \"#utility.yul\":8410:8487   */\n      0x4e487b7100000000000000000000000000000000000000000000000000000000\n        /* \"#utility.yul\":8407:8408   */\n      0x00\n        /* \"#utility.yul\":8400:8488   */\n      mstore\n        /* \"#utility.yul\":8507:8511   */\n      0x41\n        /* \"#utility.yul\":8504:8505   */\n      0x04\n        /* \"#utility.yul\":8497:8512   */\n      mstore\n        /* \"#utility.yul\":8531:8535   */\n      0x24\n        /* \"#utility.yul\":8528:8529   */\n      0x00\n        /* \"#utility.yul\":8521:8536   */\n      revert\n        /* \"#utility.yul\":8548:8829   */\n    tag_270:\n        /* \"#utility.yul\":8631:8658   */\n      tag_367\n        /* \"#utility.yul\":8653:8657   */\n      dup3\n        /* \"#utility.yul\":8631:8658   */\n      tag_263\n      jump\t// in\n    tag_367:\n        /* \"#utility.yul\":8623:8629   */\n      dup2\n        /* \"#utility.yul\":8619:8659   */\n      add\n        /* \"#utility.yul\":8761:8767   */\n      dup2\n        /* \"#utility.yul\":8749:8759   */\n      dup2\n        /* \"#utility.yul\":8746:8768   */\n      lt\n        /* \"#utility.yul\":8725:8743   */\n      0xffffffffffffffff\n        /* \"#utility.yul\":8713:8723   */\n      dup3\n        /* \"#utility.yul\":8710:8744   */\n      gt\n        /* \"#utility.yul\":8707:8769   */\n      or\n        /* \"#utility.yul\":8704:8792   */\n      iszero\n      tag_368\n      jumpi\n        /* \"#utility.yul\":8772:8790   */\n      tag_369\n      tag_269\n      jump\t// in\n    tag_369:\n        /* \"#utility.yul\":8704:8792   */\n    tag_368:\n        /* \"#utility.yul\":8812:8822   */\n      dup1\n        /* \"#utility.yul\":8808:8810   */\n      0x40\n        /* \"#utility.yul\":8801:8823   */\n      mstore\n        /* \"#utility.yul\":8591:8829   */\n      pop\n        /* \"#utility.yul\":8548:8829   */\n      pop\n      pop\n      jump\t// out\n        /* \"#utility.yul\":8835:8964   */\n    tag_271:\n        /* \"#utility.yul\":8869:8875   */\n      0x00\n        /* \"#utility.yul\":8896:8916   */\n      tag_371\n      tag_251\n      jump\t// in\n    tag_371:\n        /* \"#utility.yul\":8886:8916   */\n      swap1\n      pop\n        /* \"#utility.yul\":8925:8958   */\n      tag_372\n        /* \"#utility.yul\":8953:8957   */\n      dup3\n        /* \"#utility.yul\":8945:8951   */\n      dup3\n        /* \"#utility.yul\":8925:8958   */\n      tag_270\n      jump\t// in\n    tag_372:\n        /* \"#utility.yul\":8835:8964   */\n      swap2\n      swap1\n      pop\n      jump\t// out\n        /* \"#utility.yul\":8970:9278   */\n    tag_272:\n        /* \"#utility.yul\":9032:9036   */\n      0x00\n        /* \"#utility.yul\":9122:9140   */\n      0xffffffffffffffff\n        /* \"#utility.yul\":9114:9120   */\n      dup3\n        /* \"#utility.yul\":9111:9141   */\n      gt\n        /* \"#utility.yul\":9108:9164   */\n      iszero\n      tag_374\n      jumpi\n        /* \"#utility.yul\":9144:9162   */\n      tag_375\n      tag_269\n      jump\t// in\n    tag_375:\n        /* \"#utility.yul\":9108:9164   */\n    tag_374:\n        /* \"#utility.yul\":9182:9211   */\n      tag_376\n        /* \"#utility.yul\":9204:9210   */\n      dup3\n        /* \"#utility.yul\":9182:9211   */\n      tag_263\n      jump\t// in\n    tag_376:\n        /* \"#utility.yul\":9174:9211   */\n      swap1\n      pop\n        /* \"#utility.yul\":9266:9270   */\n      0x20\n        /* \"#utility.yul\":9260:9264   */\n      dup2\n        /* \"#utility.yul\":9256:9271   */\n      add\n        /* \"#utility.yul\":9248:9271   */\n      swap1\n      pop\n        /* \"#utility.yul\":8970:9278   */\n      swap2\n      swap1\n      pop\n      jump\t// out\n        /* \"#utility.yul\":9284:9430   */\n    tag_273:\n        /* \"#utility.yul\":9381:9387   */\n      dup3\n        /* \"#utility.yul\":9376:9379   */\n      dup2\n        /* \"#utility.yul\":9371:9374   */\n      dup4\n        /* \"#utility.yul\":9358:9388   */\n      calldatacopy\n        /* \"#utility.yul\":9422:9423   */\n      0x00\n        /* \"#utility.yul\":9413:9419   */\n      dup4\n        /* \"#utility.yul\":9408:9411   */\n      dup4\n        /* \"#utility.yul\":9404:9420   */\n      add\n        /* \"#utility.yul\":9397:9424   */\n      mstore\n        /* \"#utility.yul\":9284:9430   */\n      pop\n      pop\n      pop\n      jump\t// out\n        /* \"#utility.yul\":9436:9861   */\n    tag_274:\n        /* \"#utility.yul\":9514:9519   */\n      0x00\n        /* \"#utility.yul\":9539:9605   */\n      tag_379\n        /* \"#utility.yul\":9555:9604   */\n      tag_380\n        /* \"#utility.yul\":9597:9603   */\n      dup5\n        /* \"#utility.yul\":9555:9604   */\n      tag_272\n      jump\t// in\n    tag_380:\n        /* \"#utility.yul\":9539:9605   */\n      tag_271\n      jump\t// in\n    tag_379:\n        /* \"#utility.yul\":9530:9605   */\n      swap1\n      pop\n        /* \"#utility.yul\":9628:9634   */\n      dup3\n        /* \"#utility.yul\":9621:9626   */\n      dup2\n        /* \"#utility.yul\":9614:9635   */\n      mstore\n        /* \"#utility.yul\":9666:9670   */\n      0x20\n        /* \"#utility.yul\":9659:9664   */\n      dup2\n        /* \"#utility.yul\":9655:9671   */\n      add\n        /* \"#utility.yul\":9704:9707   */\n      dup5\n        /* \"#utility.yul\":9695:9701   */\n      dup5\n        /* \"#utility.yul\":9690:9693   */\n      dup5\n        /* \"#utility.yul\":9686:9702   */\n      add\n        /* \"#utility.yul\":9683:9708   */\n      gt\n        /* \"#utility.yul\":9680:9792   */\n      iszero\n      tag_381\n      jumpi\n        /* \"#utility.yul\":9711:9790   */\n      tag_382\n      tag_268\n      jump\t// in\n    tag_382:\n        /* \"#utility.yul\":9680:9792   */\n    tag_381:\n        /* \"#utility.yul\":9801:9855   */\n      tag_383\n        /* \"#utility.yul\":9848:9854   */\n      dup5\n        /* \"#utility.yul\":9843:9846   */\n      dup3\n        /* \"#utility.yul\":9838:9841   */\n      dup6\n        /* \"#utility.yul\":9801:9855   */\n      tag_273\n      jump\t// in\n    tag_383:\n        /* \"#utility.yul\":9520:9861   */\n      pop\n        /* \"#utility.yul\":9436:9861   */\n      swap4\n      swap3\n      pop\n      pop\n      pop\n      jump\t// out\n        /* \"#utility.yul\":9881:10221   */\n    tag_275:\n        /* \"#utility.yul\":9937:9942   */\n      0x00\n        /* \"#utility.yul\":9986:9989   */\n      dup3\n        /* \"#utility.yul\":9979:9983   */\n      0x1f\n        /* \"#utility.yul\":9971:9977   */\n      dup4\n        /* \"#utility.yul\":9967:9984   */\n      add\n        /* \"#utility.yul\":9963:9990   */\n      slt\n        /* \"#utility.yul\":9953:10075   */\n      tag_385\n      jumpi\n        /* \"#utility.yul\":9994:10073   */\n      tag_386\n      tag_267\n      jump\t// in\n    tag_386:\n        /* \"#utility.yul\":9953:10075   */\n    tag_385:\n        /* \"#utility.yul\":10111:10117   */\n      dup2\n        /* \"#utility.yul\":10098:10118   */\n      calldataload\n        /* \"#utility.yul\":10136:10215   */\n      tag_387\n        /* \"#utility.yul\":10211:10214   */\n      dup5\n        /* \"#utility.yul\":10203:10209   */\n      dup3\n        /* \"#utility.yul\":10196:10200   */\n      0x20\n        /* \"#utility.yul\":10188:10194   */\n      dup7\n        /* \"#utility.yul\":10184:10201   */\n      add\n        /* \"#utility.yul\":10136:10215   */\n      tag_274\n      jump\t// in\n    tag_387:\n        /* \"#utility.yul\":10127:10215   */\n      swap2\n      pop\n        /* \"#utility.yul\":9943:10221   */\n      pop\n        /* \"#utility.yul\":9881:10221   */\n      swap3\n      swap2\n      pop\n      pop\n      jump\t// out\n        /* \"#utility.yul\":10227:13488   */\n    tag_35:\n        /* \"#utility.yul\":10457:10463   */\n      0x00\n        /* \"#utility.yul\":10465:10471   */\n      dup1\n        /* \"#utility.yul\":10473:10479   */\n      0x00\n        /* \"#utility.yul\":10481:10487   */\n      dup1\n        /* \"#utility.yul\":10489:10495   */\n      0x00\n        /* \"#utility.yul\":10497:10503   */\n      dup1\n        /* \"#utility.yul\":10505:10511   */\n      0x00\n        /* \"#utility.yul\":10513:10519   */\n      dup1\n        /* \"#utility.yul\":10521:10527   */\n      0x00\n        /* \"#utility.yul\":10529:10535   */\n      dup1\n        /* \"#utility.yul\":10578:10581   */\n      0x0140\n        /* \"#utility.yul\":10566:10575   */\n      dup12\n        /* \"#utility.yul\":10557:10564   */\n      dup14\n        /* \"#utility.yul\":10553:10576   */\n      sub\n        /* \"#utility.yul\":10549:10582   */\n      slt\n        /* \"#utility.yul\":10546:10666   */\n      iszero\n      tag_389\n      jumpi\n        /* \"#utility.yul\":10585:10664   */\n      tag_390\n      tag_252\n      jump\t// in\n    tag_390:\n        /* \"#utility.yul\":10546:10666   */\n    tag_389:\n        /* \"#utility.yul\":10705:10706   */\n      0x00\n        /* \"#utility.yul\":10730:10783   */\n      tag_391\n        /* \"#utility.yul\":10775:10782   */\n      dup14\n        /* \"#utility.yul\":10766:10772   */\n      dup3\n        /* \"#utility.yul\":10755:10764   */\n      dup15\n        /* \"#utility.yul\":10751:10773   */\n      add\n        /* \"#utility.yul\":10730:10783   */\n      tag_266\n      jump\t// in\n    tag_391:\n        /* \"#utility.yul\":10720:10783   */\n      swap11\n      pop\n        /* \"#utility.yul\":10676:10793   */\n      pop\n        /* \"#utility.yul\":10860:10862   */\n      0x20\n        /* \"#utility.yul\":10849:10858   */\n      dup12\n        /* \"#utility.yul\":10845:10863   */\n      add\n        /* \"#utility.yul\":10832:10864   */\n      calldataload\n        /* \"#utility.yul\":10891:10909   */\n      0xffffffffffffffff\n        /* \"#utility.yul\":10883:10889   */\n      dup2\n        /* \"#utility.yul\":10880:10910   */\n      gt\n        /* \"#utility.yul\":10877:10994   */\n      iszero\n      tag_392\n      jumpi\n        /* \"#utility.yul\":10913:10992   */\n      tag_393\n      tag_253\n      jump\t// in\n    tag_393:\n        /* \"#utility.yul\":10877:10994   */\n    tag_392:\n        /* \"#utility.yul\":11018:11081   */\n      tag_394\n        /* \"#utility.yul\":11073:11080   */\n      dup14\n        /* \"#utility.yul\":11064:11070   */\n      dup3\n        /* \"#utility.yul\":11053:11062   */\n      dup15\n        /* \"#utility.yul\":11049:11071   */\n      add\n        /* \"#utility.yul\":11018:11081   */\n      tag_275\n      jump\t// in\n    tag_394:\n        /* \"#utility.yul\":11008:11081   */\n      swap10\n      pop\n        /* \"#utility.yul\":10803:11091   */\n      pop\n        /* \"#utility.yul\":11158:11160   */\n      0x40\n        /* \"#utility.yul\":11147:11156   */\n      dup12\n        /* \"#utility.yul\":11143:11161   */\n      add\n        /* \"#utility.yul\":11130:11162   */\n      calldataload\n        /* \"#utility.yul\":11189:11207   */\n      0xffffffffffffffff\n        /* \"#utility.yul\":11181:11187   */\n      dup2\n        /* \"#utility.yul\":11178:11208   */\n      gt\n        /* \"#utility.yul\":11175:11292   */\n      iszero\n      tag_395\n      jumpi\n        /* \"#utility.yul\":11211:11290   */\n      tag_396\n      tag_253\n      jump\t// in\n    tag_396:\n        /* \"#utility.yul\":11175:11292   */\n    tag_395:\n        /* \"#utility.yul\":11316:11379   */\n      tag_397\n        /* \"#utility.yul\":11371:11378   */\n      dup14\n        /* \"#utility.yul\":11362:11368   */\n      dup3\n        /* \"#utility.yul\":11351:11360   */\n      dup15\n        /* \"#utility.yul\":11347:11369   */\n      add\n        /* \"#utility.yul\":11316:11379   */\n      tag_275\n      jump\t// in\n    tag_397:\n        /* \"#utility.yul\":11306:11379   */\n      swap9\n      pop\n        /* \"#utility.yul\":11101:11389   */\n      pop\n        /* \"#utility.yul\":11456:11458   */\n      0x60\n        /* \"#utility.yul\":11445:11454   */\n      dup12\n        /* \"#utility.yul\":11441:11459   */\n      add\n        /* \"#utility.yul\":11428:11460   */\n      calldataload\n        /* \"#utility.yul\":11487:11505   */\n      0xffffffffffffffff\n        /* \"#utility.yul\":11479:11485   */\n      dup2\n        /* \"#utility.yul\":11476:11506   */\n      gt\n        /* \"#utility.yul\":11473:11590   */\n      iszero\n      tag_398\n      jumpi\n        /* \"#utility.yul\":11509:11588   */\n      tag_399\n      tag_253\n      jump\t// in\n    tag_399:\n        /* \"#utility.yul\":11473:11590   */\n    tag_398:\n        /* \"#utility.yul\":11614:11677   */\n      tag_400\n        /* \"#utility.yul\":11669:11676   */\n      dup14\n        /* \"#utility.yul\":11660:11666   */\n      dup3\n        /* \"#utility.yul\":11649:11658   */\n      dup15\n        /* \"#utility.yul\":11645:11667   */\n      add\n        /* \"#utility.yul\":11614:11677   */\n      tag_275\n      jump\t// in\n    tag_400:\n        /* \"#utility.yul\":11604:11677   */\n      swap8\n      pop\n        /* \"#utility.yul\":11399:11687   */\n      pop\n        /* \"#utility.yul\":11754:11757   */\n      0x80\n        /* \"#utility.yul\":11743:11752   */\n      dup12\n        /* \"#utility.yul\":11739:11758   */\n      add\n        /* \"#utility.yul\":11726:11759   */\n      calldataload\n        /* \"#utility.yul\":11786:11804   */\n      0xffffffffffffffff\n        /* \"#utility.yul\":11778:11784   */\n      dup2\n        /* \"#utility.yul\":11775:11805   */\n      gt\n        /* \"#utility.yul\":11772:11889   */\n      iszero\n      tag_401\n      jumpi\n        /* \"#utility.yul\":11808:11887   */\n      tag_402\n      tag_253\n      jump\t// in\n    tag_402:\n        /* \"#utility.yul\":11772:11889   */\n    tag_401:\n        /* \"#utility.yul\":11913:11976   */\n      tag_403\n        /* \"#utility.yul\":11968:11975   */\n      dup14\n        /* \"#utility.yul\":11959:11965   */\n      dup3\n        /* \"#utility.yul\":11948:11957   */\n      dup15\n        /* \"#utility.yul\":11944:11966   */\n      add\n        /* \"#utility.yul\":11913:11976   */\n      tag_275\n      jump\t// in\n    tag_403:\n        /* \"#utility.yul\":11903:11976   */\n      swap7\n      pop\n        /* \"#utility.yul\":11697:11986   */\n      pop\n        /* \"#utility.yul\":12053:12056   */\n      0xa0\n        /* \"#utility.yul\":12042:12051   */\n      dup12\n        /* \"#utility.yul\":12038:12057   */\n      add\n        /* \"#utility.yul\":12025:12058   */\n      calldataload\n        /* \"#utility.yul\":12085:12103   */\n      0xffffffffffffffff\n        /* \"#utility.yul\":12077:12083   */\n      dup2\n        /* \"#utility.yul\":12074:12104   */\n      gt\n        /* \"#utility.yul\":12071:12188   */\n      iszero\n      tag_404\n      jumpi\n        /* \"#utility.yul\":12107:12186   */\n      tag_405\n      tag_253\n      jump\t// in\n    tag_405:\n        /* \"#utility.yul\":12071:12188   */\n    tag_404:\n        /* \"#utility.yul\":12212:12275   */\n      tag_406\n        /* \"#utility.yul\":12267:12274   */\n      dup14\n        /* \"#utility.yul\":12258:12264   */\n      dup3\n        /* \"#utility.yul\":12247:12256   */\n      dup15\n        /* \"#utility.yul\":12243:12265   */\n      add\n        /* \"#utility.yul\":12212:12275   */\n      tag_275\n      jump\t// in\n    tag_406:\n        /* \"#utility.yul\":12202:12275   */\n      swap6\n      pop\n        /* \"#utility.yul\":11996:12285   */\n      pop\n        /* \"#utility.yul\":12352:12355   */\n      0xc0\n        /* \"#utility.yul\":12341:12350   */\n      dup12\n        /* \"#utility.yul\":12337:12356   */\n      add\n        /* \"#utility.yul\":12324:12357   */\n      calldataload\n        /* \"#utility.yul\":12384:12402   */\n      0xffffffffffffffff\n        /* \"#utility.yul\":12376:12382   */\n      dup2\n        /* \"#utility.yul\":12373:12403   */\n      gt\n        /* \"#utility.yul\":12370:12487   */\n      iszero\n      tag_407\n      jumpi\n        /* \"#utility.yul\":12406:12485   */\n      tag_408\n      tag_253\n      jump\t// in\n    tag_408:\n        /* \"#utility.yul\":12370:12487   */\n    tag_407:\n        /* \"#utility.yul\":12511:12574   */\n      tag_409\n        /* \"#utility.yul\":12566:12573   */\n      dup14\n        /* \"#utility.yul\":12557:12563   */\n      dup3\n        /* \"#utility.yul\":12546:12555   */\n      dup15\n        /* \"#utility.yul\":12542:12564   */\n      add\n        /* \"#utility.yul\":12511:12574   */\n      tag_275\n      jump\t// in\n    tag_409:\n        /* \"#utility.yul\":12501:12574   */\n      swap5\n      pop\n        /* \"#utility.yul\":12295:12584   */\n      pop\n        /* \"#utility.yul\":12651:12654   */\n      0xe0\n        /* \"#utility.yul\":12640:12649   */\n      dup12\n        /* \"#utility.yul\":12636:12655   */\n      add\n        /* \"#utility.yul\":12623:12656   */\n      calldataload\n        /* \"#utility.yul\":12683:12701   */\n      0xffffffffffffffff\n        /* \"#utility.yul\":12675:12681   */\n      dup2\n        /* \"#utility.yul\":12672:12702   */\n      gt\n        /* \"#utility.yul\":12669:12786   */\n      iszero\n      tag_410\n      jumpi\n        /* \"#utility.yul\":12705:12784   */\n      tag_411\n      tag_253\n      jump\t// in\n    tag_411:\n        /* \"#utility.yul\":12669:12786   */\n    tag_410:\n        /* \"#utility.yul\":12810:12873   */\n      tag_412\n        /* \"#utility.yul\":12865:12872   */\n      dup14\n        /* \"#utility.yul\":12856:12862   */\n      dup3\n        /* \"#utility.yul\":12845:12854   */\n      dup15\n        /* \"#utility.yul\":12841:12863   */\n      add\n        /* \"#utility.yul\":12810:12873   */\n      tag_275\n      jump\t// in\n    tag_412:\n        /* \"#utility.yul\":12800:12873   */\n      swap4\n      pop\n        /* \"#utility.yul\":12594:12883   */\n      pop\n        /* \"#utility.yul\":12950:12953   */\n      0x0100\n        /* \"#utility.yul\":12939:12948   */\n      dup12\n        /* \"#utility.yul\":12935:12954   */\n      add\n        /* \"#utility.yul\":12922:12955   */\n      calldataload\n        /* \"#utility.yul\":12982:13000   */\n      0xffffffffffffffff\n        /* \"#utility.yul\":12974:12980   */\n      dup2\n        /* \"#utility.yul\":12971:13001   */\n      gt\n        /* \"#utility.yul\":12968:13085   */\n      iszero\n      tag_413\n      jumpi\n        /* \"#utility.yul\":13004:13083   */\n      tag_414\n      tag_253\n      jump\t// in\n    tag_414:\n        /* \"#utility.yul\":12968:13085   */\n    tag_413:\n        /* \"#utility.yul\":13109:13172   */\n      tag_415\n        /* \"#utility.yul\":13164:13171   */\n      dup14\n        /* \"#utility.yul\":13155:13161   */\n      dup3\n        /* \"#utility.yul\":13144:13153   */\n      dup15\n        /* \"#utility.yul\":13140:13162   */\n      add\n        /* \"#utility.yul\":13109:13172   */\n      tag_275\n      jump\t// in\n    tag_415:\n        /* \"#utility.yul\":13099:13172   */\n      swap3\n      pop\n        /* \"#utility.yul\":12893:13182   */\n      pop\n        /* \"#utility.yul\":13249:13252   */\n      0x0120\n        /* \"#utility.yul\":13238:13247   */\n      dup12\n        /* \"#utility.yul\":13234:13253   */\n      add\n        /* \"#utility.yul\":13221:13254   */\n      calldataload\n        /* \"#utility.yul\":13281:13299   */\n      0xffffffffffffffff\n        /* \"#utility.yul\":13273:13279   */\n      dup2\n        /* \"#utility.yul\":13270:13300   */\n      gt\n        /* \"#utility.yul\":13267:13384   */\n      iszero\n      tag_416\n      jumpi\n        /* \"#utility.yul\":13303:13382   */\n      tag_417\n      tag_253\n      jump\t// in\n    tag_417:\n        /* \"#utility.yul\":13267:13384   */\n    tag_416:\n        /* \"#utility.yul\":13408:13471   */\n      tag_418\n        /* \"#utility.yul\":13463:13470   */\n      dup14\n        /* \"#utility.yul\":13454:13460   */\n      dup3\n        /* \"#utility.yul\":13443:13452   */\n      dup15\n        /* \"#utility.yul\":13439:13461   */\n      add\n        /* \"#utility.yul\":13408:13471   */\n      tag_275\n      jump\t// in\n    tag_418:\n        /* \"#utility.yul\":13398:13471   */\n      swap2\n      pop\n        /* \"#utility.yul\":13192:13481   */\n      pop\n        /* \"#utility.yul\":10227:13488   */\n      swap3\n      swap6\n      swap9\n      swap12\n      swap2\n      swap5\n      swap8\n      swap11\n      pop\n      swap3\n      swap6\n      swap9\n      pop\n      jump\t// out\n        /* \"#utility.yul\":13494:13612   */\n    tag_276:\n        /* \"#utility.yul\":13581:13605   */\n      tag_420\n        /* \"#utility.yul\":13599:13604   */\n      dup2\n        /* \"#utility.yul\":13581:13605   */\n      tag_255\n      jump\t// in\n    tag_420:\n        /* \"#utility.yul\":13576:13579   */\n      dup3\n        /* \"#utility.yul\":13569:13606   */\n      mstore\n        /* \"#utility.yul\":13494:13612   */\n      pop\n      pop\n      jump\t// out\n        /* \"#utility.yul\":13618:13840   */\n    tag_40:\n        /* \"#utility.yul\":13711:13715   */\n      0x00\n        /* \"#utility.yul\":13749:13751   */\n      0x20\n        /* \"#utility.yul\":13738:13747   */\n      dup3\n        /* \"#utility.yul\":13734:13752   */\n      add\n        /* \"#utility.yul\":13726:13752   */\n      swap1\n      pop\n        /* \"#utility.yul\":13762:13833   */\n      tag_422\n        /* \"#utility.yul\":13830:13831   */\n      0x00\n        /* \"#utility.yul\":13819:13828   */\n      dup4\n        /* \"#utility.yul\":13815:13832   */\n      add\n        /* \"#utility.yul\":13806:13812   */\n      dup5\n        /* \"#utility.yul\":13762:13833   */\n      tag_276\n      jump\t// in\n    tag_422:\n        /* \"#utility.yul\":13618:13840   */\n      swap3\n      swap2\n      pop\n      pop\n      jump\t// out\n        /* \"#utility.yul\":13846:15623   */\n    tag_43:\n        /* \"#utility.yul\":13990:13996   */\n      0x00\n        /* \"#utility.yul\":13998:14004   */\n      dup1\n        /* \"#utility.yul\":14006:14012   */\n      0x00\n        /* \"#utility.yul\":14014:14020   */\n      dup1\n        /* \"#utility.yul\":14022:14028   */\n      0x00\n        /* \"#utility.yul\":14030:14036   */\n      dup1\n        /* \"#utility.yul\":14079:14082   */\n      0xc0\n        /* \"#utility.yul\":14067:14076   */\n      dup8\n        /* \"#utility.yul\":14058:14065   */\n      dup10\n        /* \"#utility.yul\":14054:14077   */\n      sub\n        /* \"#utility.yul\":14050:14083   */\n      slt\n        /* \"#utility.yul\":14047:14167   */\n      iszero\n      tag_424\n      jumpi\n        /* \"#utility.yul\":14086:14165   */\n      tag_425\n      tag_252\n      jump\t// in\n    tag_425:\n        /* \"#utility.yul\":14047:14167   */\n    tag_424:\n        /* \"#utility.yul\":14206:14207   */\n      0x00\n        /* \"#utility.yul\":14231:14284   */\n      tag_426\n        /* \"#utility.yul\":14276:14283   */\n      dup10\n        /* \"#utility.yul\":14267:14273   */\n      dup3\n        /* \"#utility.yul\":14256:14265   */\n      dup11\n        /* \"#utility.yul\":14252:14274   */\n      add\n        /* \"#utility.yul\":14231:14284   */\n      tag_266\n      jump\t// in\n    tag_426:\n        /* \"#utility.yul\":14221:14284   */\n      swap7\n      pop\n        /* \"#utility.yul\":14177:14294   */\n      pop\n        /* \"#utility.yul\":14361:14363   */\n      0x20\n        /* \"#utility.yul\":14350:14359   */\n      dup8\n        /* \"#utility.yul\":14346:14364   */\n      add\n        /* \"#utility.yul\":14333:14365   */\n      calldataload\n        /* \"#utility.yul\":14392:14410   */\n      0xffffffffffffffff\n        /* \"#utility.yul\":14384:14390   */\n      dup2\n        /* \"#utility.yul\":14381:14411   */\n      gt\n        /* \"#utility.yul\":14378:14495   */\n      iszero\n      tag_427\n      jumpi\n        /* \"#utility.yul\":14414:14493   */\n      tag_428\n      tag_253\n      jump\t// in\n    tag_428:\n        /* \"#utility.yul\":14378:14495   */\n    tag_427:\n        /* \"#utility.yul\":14519:14582   */\n      tag_429\n        /* \"#utility.yul\":14574:14581   */\n      dup10\n        /* \"#utility.yul\":14565:14571   */\n      dup3\n        /* \"#utility.yul\":14554:14563   */\n      dup11\n        /* \"#utility.yul\":14550:14572   */\n      add\n        /* \"#utility.yul\":14519:14582   */\n      tag_275\n      jump\t// in\n    tag_429:\n        /* \"#utility.yul\":14509:14582   */\n      swap6\n      pop\n        /* \"#utility.yul\":14304:14592   */\n      pop\n        /* \"#utility.yul\":14659:14661   */\n      0x40\n        /* \"#utility.yul\":14648:14657   */\n      dup8\n        /* \"#utility.yul\":14644:14662   */\n      add\n        /* \"#utility.yul\":14631:14663   */\n      calldataload\n        /* \"#utility.yul\":14690:14708   */\n      0xffffffffffffffff\n        /* \"#utility.yul\":14682:14688   */\n      dup2\n        /* \"#utility.yul\":14679:14709   */\n      gt\n        /* \"#utility.yul\":14676:14793   */\n      iszero\n      tag_430\n      jumpi\n        /* \"#utility.yul\":14712:14791   */\n      tag_431\n      tag_253\n      jump\t// in\n    tag_431:\n        /* \"#utility.yul\":14676:14793   */\n    tag_430:\n        /* \"#utility.yul\":14817:14880   */\n      tag_432\n        /* \"#utility.yul\":14872:14879   */\n      dup10\n        /* \"#utility.yul\":14863:14869   */\n      dup3\n        /* \"#utility.yul\":14852:14861   */\n      dup11\n        /* \"#utility.yul\":14848:14870   */\n      add\n        /* \"#utility.yul\":14817:14880   */\n      tag_275\n      jump\t// in\n    tag_432:\n        /* \"#utility.yul\":14807:14880   */\n      swap5\n      pop\n        /* \"#utility.yul\":14602:14890   */\n      pop\n        /* \"#utility.yul\":14957:14959   */\n      0x60\n        /* \"#utility.yul\":14946:14955   */\n      dup8\n        /* \"#utility.yul\":14942:14960   */\n      add\n        /* \"#utility.yul\":14929:14961   */\n      calldataload\n        /* \"#utility.yul\":14988:15006   */\n      0xffffffffffffffff\n        /* \"#utility.yul\":14980:14986   */\n      dup2\n        /* \"#utility.yul\":14977:15007   */\n      gt\n        /* \"#utility.yul\":14974:15091   */\n      iszero\n      tag_433\n      jumpi\n        /* \"#utility.yul\":15010:15089   */\n      tag_434\n      tag_253\n      jump\t// in\n    tag_434:\n        /* \"#utility.yul\":14974:15091   */\n    tag_433:\n        /* \"#utility.yul\":15115:15178   */\n      tag_435\n        /* \"#utility.yul\":15170:15177   */\n      dup10\n        /* \"#utility.yul\":15161:15167   */\n      dup3\n        /* \"#utility.yul\":15150:15159   */\n      dup11\n        /* \"#utility.yul\":15146:15168   */\n      add\n        /* \"#utility.yul\":15115:15178   */\n      tag_275\n      jump\t// in\n    tag_435:\n        /* \"#utility.yul\":15105:15178   */\n      swap4\n      pop\n        /* \"#utility.yul\":14900:15188   */\n      pop\n        /* \"#utility.yul\":15255:15258   */\n      0x80\n        /* \"#utility.yul\":15244:15253   */\n      dup8\n        /* \"#utility.yul\":15240:15259   */\n      add\n        /* \"#utility.yul\":15227:15260   */\n      calldataload\n        /* \"#utility.yul\":15287:15305   */\n      0xffffffffffffffff\n        /* \"#utility.yul\":15279:15285   */\n      dup2\n        /* \"#utility.yul\":15276:15306   */\n      gt\n        /* \"#utility.yul\":15273:15390   */\n      iszero\n      tag_436\n      jumpi\n        /* \"#utility.yul\":15309:15388   */\n      tag_437\n      tag_253\n      jump\t// in\n    tag_437:\n        /* \"#utility.yul\":15273:15390   */\n    tag_436:\n        /* \"#utility.yul\":15414:15477   */\n      tag_438\n        /* \"#utility.yul\":15469:15476   */\n      dup10\n        /* \"#utility.yul\":15460:15466   */\n      dup3\n        /* \"#utility.yul\":15449:15458   */\n      dup11\n        /* \"#utility.yul\":15445:15467   */\n      add\n        /* \"#utility.yul\":15414:15477   */\n      tag_275\n      jump\t// in\n    tag_438:\n        /* \"#utility.yul\":15404:15477   */\n      swap3\n      pop\n        /* \"#utility.yul\":15198:15487   */\n      pop\n        /* \"#utility.yul\":15526:15529   */\n      0xa0\n        /* \"#utility.yul\":15553:15606   */\n      tag_439\n        /* \"#utility.yul\":15598:15605   */\n      dup10\n        /* \"#utility.yul\":15589:15595   */\n      dup3\n        /* \"#utility.yul\":15578:15587   */\n      dup11\n        /* \"#utility.yul\":15574:15596   */\n      add\n        /* \"#utility.yul\":15553:15606   */\n      tag_266\n      jump\t// in\n    tag_439:\n        /* \"#utility.yul\":15543:15606   */\n      swap2\n      pop\n        /* \"#utility.yul\":15497:15616   */\n      pop\n        /* \"#utility.yul\":13846:15623   */\n      swap3\n      swap6\n      pop\n      swap3\n      swap6\n      pop\n      swap3\n      swap6\n      jump\t// out\n        /* \"#utility.yul\":15629:19218   */\n    tag_47:\n        /* \"#utility.yul\":15878:15884   */\n      0x00\n        /* \"#utility.yul\":15886:15892   */\n      dup1\n        /* \"#utility.yul\":15894:15900   */\n      0x00\n        /* \"#utility.yul\":15902:15908   */\n      dup1\n        /* \"#utility.yul\":15910:15916   */\n      0x00\n        /* \"#utility.yul\":15918:15924   */\n      dup1\n        /* \"#utility.yul\":15926:15932   */\n      0x00\n        /* \"#utility.yul\":15934:15940   */\n      dup1\n        /* \"#utility.yul\":15942:15948   */\n      0x00\n        /* \"#utility.yul\":15950:15956   */\n      dup1\n        /* \"#utility.yul\":15958:15965   */\n      0x00\n        /* \"#utility.yul\":16008:16011   */\n      0x0160\n        /* \"#utility.yul\":15996:16005   */\n      dup13\n        /* \"#utility.yul\":15987:15994   */\n      dup15\n        /* \"#utility.yul\":15983:16006   */\n      sub\n        /* \"#utility.yul\":15979:16012   */\n      slt\n        /* \"#utility.yul\":15976:16096   */\n      iszero\n      tag_441\n      jumpi\n        /* \"#utility.yul\":16015:16094   */\n      tag_442\n      tag_252\n      jump\t// in\n    tag_442:\n        /* \"#utility.yul\":15976:16096   */\n    tag_441:\n        /* \"#utility.yul\":16135:16136   */\n      0x00\n        /* \"#utility.yul\":16160:16213   */\n      tag_443\n        /* \"#utility.yul\":16205:16212   */\n      dup15\n        /* \"#utility.yul\":16196:16202   */\n      dup3\n        /* \"#utility.yul\":16185:16194   */\n      dup16\n        /* \"#utility.yul\":16181:16203   */\n      add\n        /* \"#utility.yul\":16160:16213   */\n      tag_266\n      jump\t// in\n    tag_443:\n        /* \"#utility.yul\":16150:16213   */\n      swap12\n      pop\n        /* \"#utility.yul\":16106:16223   */\n      pop\n        /* \"#utility.yul\":16290:16292   */\n      0x20\n        /* \"#utility.yul\":16279:16288   */\n      dup13\n        /* \"#utility.yul\":16275:16293   */\n      add\n        /* \"#utility.yul\":16262:16294   */\n      calldataload\n        /* \"#utility.yul\":16321:16339   */\n      0xffffffffffffffff\n        /* \"#utility.yul\":16313:16319   */\n      dup2\n        /* \"#utility.yul\":16310:16340   */\n      gt\n        /* \"#utility.yul\":16307:16424   */\n      iszero\n      tag_444\n      jumpi\n        /* \"#utility.yul\":16343:16422   */\n      tag_445\n      tag_253\n      jump\t// in\n    tag_445:\n        /* \"#utility.yul\":16307:16424   */\n    tag_444:\n        /* \"#utility.yul\":16448:16511   */\n      tag_446\n        /* \"#utility.yul\":16503:16510   */\n      dup15\n        /* \"#utility.yul\":16494:16500   */\n      dup3\n        /* \"#utility.yul\":16483:16492   */\n      dup16\n        /* \"#utility.yul\":16479:16501   */\n      add\n        /* \"#utility.yul\":16448:16511   */\n      tag_275\n      jump\t// in\n    tag_446:\n        /* \"#utility.yul\":16438:16511   */\n      swap11\n      pop\n        /* \"#utility.yul\":16233:16521   */\n      pop\n        /* \"#utility.yul\":16588:16590   */\n      0x40\n        /* \"#utility.yul\":16577:16586   */\n      dup13\n        /* \"#utility.yul\":16573:16591   */\n      add\n        /* \"#utility.yul\":16560:16592   */\n      calldataload\n        /* \"#utility.yul\":16619:16637   */\n      0xffffffffffffffff\n        /* \"#utility.yul\":16611:16617   */\n      dup2\n        /* \"#utility.yul\":16608:16638   */\n      gt\n        /* \"#utility.yul\":16605:16722   */\n      iszero\n      tag_447\n      jumpi\n        /* \"#utility.yul\":16641:16720   */\n      tag_448\n      tag_253\n      jump\t// in\n    tag_448:\n        /* \"#utility.yul\":16605:16722   */\n    tag_447:\n        /* \"#utility.yul\":16746:16809   */\n      tag_449\n        /* \"#utility.yul\":16801:16808   */\n      dup15\n        /* \"#utility.yul\":16792:16798   */\n      dup3\n        /* \"#utility.yul\":16781:16790   */\n      dup16\n        /* \"#utility.yul\":16777:16799   */\n      add\n        /* \"#utility.yul\":16746:16809   */\n      tag_275\n      jump\t// in\n    tag_449:\n        /* \"#utility.yul\":16736:16809   */\n      swap10\n      pop\n        /* \"#utility.yul\":16531:16819   */\n      pop\n        /* \"#utility.yul\":16886:16888   */\n      0x60\n        /* \"#utility.yul\":16875:16884   */\n      dup13\n        /* \"#utility.yul\":16871:16889   */\n      add\n        /* \"#utility.yul\":16858:16890   */\n      calldataload\n        /* \"#utility.yul\":16917:16935   */\n      0xffffffffffffffff\n        /* \"#utility.yul\":16909:16915   */\n      dup2\n        /* \"#utility.yul\":16906:16936   */\n      gt\n        /* \"#utility.yul\":16903:17020   */\n      iszero\n      tag_450\n      jumpi\n        /* \"#utility.yul\":16939:17018   */\n      tag_451\n      tag_253\n      jump\t// in\n    tag_451:\n        /* \"#utility.yul\":16903:17020   */\n    tag_450:\n        /* \"#utility.yul\":17044:17107   */\n      tag_452\n        /* \"#utility.yul\":17099:17106   */\n      dup15\n        /* \"#utility.yul\":17090:17096   */\n      dup3\n        /* \"#utility.yul\":17079:17088   */\n      dup16\n        /* \"#utility.yul\":17075:17097   */\n      add\n        /* \"#utility.yul\":17044:17107   */\n      tag_275\n      jump\t// in\n    tag_452:\n        /* \"#utility.yul\":17034:17107   */\n      swap9\n      pop\n        /* \"#utility.yul\":16829:17117   */\n      pop\n        /* \"#utility.yul\":17184:17187   */\n      0x80\n        /* \"#utility.yul\":17173:17182   */\n      dup13\n        /* \"#utility.yul\":17169:17188   */\n      add\n        /* \"#utility.yul\":17156:17189   */\n      calldataload\n        /* \"#utility.yul\":17216:17234   */\n      0xffffffffffffffff\n        /* \"#utility.yul\":17208:17214   */\n      dup2\n        /* \"#utility.yul\":17205:17235   */\n      gt\n        /* \"#utility.yul\":17202:17319   */\n      iszero\n      tag_453\n      jumpi\n        /* \"#utility.yul\":17238:17317   */\n      tag_454\n      tag_253\n      jump\t// in\n    tag_454:\n        /* \"#utility.yul\":17202:17319   */\n    tag_453:\n        /* \"#utility.yul\":17343:17406   */\n      tag_455\n        /* \"#utility.yul\":17398:17405   */\n      dup15\n        /* \"#utility.yul\":17389:17395   */\n      dup3\n        /* \"#utility.yul\":17378:17387   */\n      dup16\n        /* \"#utility.yul\":17374:17396   */\n      add\n        /* \"#utility.yul\":17343:17406   */\n      tag_275\n      jump\t// in\n    tag_455:\n        /* \"#utility.yul\":17333:17406   */\n      swap8\n      pop\n        /* \"#utility.yul\":17127:17416   */\n      pop\n        /* \"#utility.yul\":17483:17486   */\n      0xa0\n        /* \"#utility.yul\":17472:17481   */\n      dup13\n        /* \"#utility.yul\":17468:17487   */\n      add\n        /* \"#utility.yul\":17455:17488   */\n      calldataload\n        /* \"#utility.yul\":17515:17533   */\n      0xffffffffffffffff\n        /* \"#utility.yul\":17507:17513   */\n      dup2\n        /* \"#utility.yul\":17504:17534   */\n      gt\n        /* \"#utility.yul\":17501:17618   */\n      iszero\n      tag_456\n      jumpi\n        /* \"#utility.yul\":17537:17616   */\n      tag_457\n      tag_253\n      jump\t// in\n    tag_457:\n        /* \"#utility.yul\":17501:17618   */\n    tag_456:\n        /* \"#utility.yul\":17642:17705   */\n      tag_458\n        /* \"#utility.yul\":17697:17704   */\n      dup15\n        /* \"#utility.yul\":17688:17694   */\n      dup3\n        /* \"#utility.yul\":17677:17686   */\n      dup16\n        /* \"#utility.yul\":17673:17695   */\n      add\n        /* \"#utility.yul\":17642:17705   */\n      tag_275\n      jump\t// in\n    tag_458:\n        /* \"#utility.yul\":17632:17705   */\n      swap7\n      pop\n        /* \"#utility.yul\":17426:17715   */\n      pop\n        /* \"#utility.yul\":17782:17785   */\n      0xc0\n        /* \"#utility.yul\":17771:17780   */\n      dup13\n        /* \"#utility.yul\":17767:17786   */\n      add\n        /* \"#utility.yul\":17754:17787   */\n      calldataload\n        /* \"#utility.yul\":17814:17832   */\n      0xffffffffffffffff\n        /* \"#utility.yul\":17806:17812   */\n      dup2\n        /* \"#utility.yul\":17803:17833   */\n      gt\n        /* \"#utility.yul\":17800:17917   */\n      iszero\n      tag_459\n      jumpi\n        /* \"#utility.yul\":17836:17915   */\n      tag_460\n      tag_253\n      jump\t// in\n    tag_460:\n        /* \"#utility.yul\":17800:17917   */\n    tag_459:\n        /* \"#utility.yul\":17941:18004   */\n      tag_461\n        /* \"#utility.yul\":17996:18003   */\n      dup15\n        /* \"#utility.yul\":17987:17993   */\n      dup3\n        /* \"#utility.yul\":17976:17985   */\n      dup16\n        /* \"#utility.yul\":17972:17994   */\n      add\n        /* \"#utility.yul\":17941:18004   */\n      tag_275\n      jump\t// in\n    tag_461:\n        /* \"#utility.yul\":17931:18004   */\n      swap6\n      pop\n        /* \"#utility.yul\":17725:18014   */\n      pop\n        /* \"#utility.yul\":18081:18084   */\n      0xe0\n        /* \"#utility.yul\":18070:18079   */\n      dup13\n        /* \"#utility.yul\":18066:18085   */\n      add\n        /* \"#utility.yul\":18053:18086   */\n      calldataload\n        /* \"#utility.yul\":18113:18131   */\n      0xffffffffffffffff\n        /* \"#utility.yul\":18105:18111   */\n      dup2\n        /* \"#utility.yul\":18102:18132   */\n      gt\n        /* \"#utility.yul\":18099:18216   */\n      iszero\n      tag_462\n      jumpi\n        /* \"#utility.yul\":18135:18214   */\n      tag_463\n      tag_253\n      jump\t// in\n    tag_463:\n        /* \"#utility.yul\":18099:18216   */\n    tag_462:\n        /* \"#utility.yul\":18240:18303   */\n      tag_464\n        /* \"#utility.yul\":18295:18302   */\n      dup15\n        /* \"#utility.yul\":18286:18292   */\n      dup3\n        /* \"#utility.yul\":18275:18284   */\n      dup16\n        /* \"#utility.yul\":18271:18293   */\n      add\n        /* \"#utility.yul\":18240:18303   */\n      tag_275\n      jump\t// in\n    tag_464:\n        /* \"#utility.yul\":18230:18303   */\n      swap5\n      pop\n        /* \"#utility.yul\":18024:18313   */\n      pop\n        /* \"#utility.yul\":18380:18383   */\n      0x0100\n        /* \"#utility.yul\":18369:18378   */\n      dup13\n        /* \"#utility.yul\":18365:18384   */\n      add\n        /* \"#utility.yul\":18352:18385   */\n      calldataload\n        /* \"#utility.yul\":18412:18430   */\n      0xffffffffffffffff\n        /* \"#utility.yul\":18404:18410   */\n      dup2\n        /* \"#utility.yul\":18401:18431   */\n      gt\n        /* \"#utility.yul\":18398:18515   */\n      iszero\n      tag_465\n      jumpi\n        /* \"#utility.yul\":18434:18513   */\n      tag_466\n      tag_253\n      jump\t// in\n    tag_466:\n        /* \"#utility.yul\":18398:18515   */\n    tag_465:\n        /* \"#utility.yul\":18539:18602   */\n      tag_467\n        /* \"#utility.yul\":18594:18601   */\n      dup15\n        /* \"#utility.yul\":18585:18591   */\n      dup3\n        /* \"#utility.yul\":18574:18583   */\n      dup16\n        /* \"#utility.yul\":18570:18592   */\n      add\n        /* \"#utility.yul\":18539:18602   */\n      tag_275\n      jump\t// in\n    tag_467:\n        /* \"#utility.yul\":18529:18602   */\n      swap4\n      pop\n        /* \"#utility.yul\":18323:18612   */\n      pop\n        /* \"#utility.yul\":18679:18682   */\n      0x0120\n        /* \"#utility.yul\":18668:18677   */\n      dup13\n        /* \"#utility.yul\":18664:18683   */\n      add\n        /* \"#utility.yul\":18651:18684   */\n      calldataload\n        /* \"#utility.yul\":18711:18729   */\n      0xffffffffffffffff\n        /* \"#utility.yul\":18703:18709   */\n      dup2\n        /* \"#utility.yul\":18700:18730   */\n      gt\n        /* \"#utility.yul\":18697:18814   */\n      iszero\n      tag_468\n      jumpi\n        /* \"#utility.yul\":18733:18812   */\n      tag_469\n      tag_253\n      jump\t// in\n    tag_469:\n        /* \"#utility.yul\":18697:18814   */\n    tag_468:\n        /* \"#utility.yul\":18838:18901   */\n      tag_470\n        /* \"#utility.yul\":18893:18900   */\n      dup15\n        /* \"#utility.yul\":18884:18890   */\n      dup3\n        /* \"#utility.yul\":18873:18882   */\n      dup16\n        /* \"#utility.yul\":18869:18891   */\n      add\n        /* \"#utility.yul\":18838:18901   */\n      tag_275\n      jump\t// in\n    tag_470:\n        /* \"#utility.yul\":18828:18901   */\n      swap3\n      pop\n        /* \"#utility.yul\":18622:18911   */\n      pop\n        /* \"#utility.yul\":18978:18981   */\n      0x0140\n        /* \"#utility.yul\":18967:18976   */\n      dup13\n        /* \"#utility.yul\":18963:18982   */\n      add\n        /* \"#utility.yul\":18950:18983   */\n      calldataload\n        /* \"#utility.yul\":19010:19028   */\n      0xffffffffffffffff\n        /* \"#utility.yul\":19002:19008   */\n      dup2\n        /* \"#utility.yul\":18999:19029   */\n      gt\n        /* \"#utility.yul\":18996:19113   */\n      iszero\n      tag_471\n      jumpi\n        /* \"#utility.yul\":19032:19111   */\n      tag_472\n      tag_253\n      jump\t// in\n    tag_472:\n        /* \"#utility.yul\":18996:19113   */\n    tag_471:\n        /* \"#utility.yul\":19138:19201   */\n      tag_473\n        /* \"#utility.yul\":19193:19200   */\n      dup15\n        /* \"#utility.yul\":19184:19190   */\n      dup3\n        /* \"#utility.yul\":19173:19182   */\n      dup16\n        /* \"#utility.yul\":19169:19191   */\n      add\n        /* \"#utility.yul\":19138:19201   */\n      tag_275\n      jump\t// in\n    tag_473:\n        /* \"#utility.yul\":19127:19201   */\n      swap2\n      pop\n        /* \"#utility.yul\":18921:19211   */\n      pop\n        /* \"#utility.yul\":15629:19218   */\n      swap3\n      swap6\n      swap9\n      swap12\n      pop\n      swap3\n      swap6\n      swap9\n      swap12\n      swap1\n      swap4\n      swap7\n      swap10\n      pop\n      jump\t// out\n        /* \"#utility.yul\":19224:20787   */\n    tag_53:\n        /* \"#utility.yul\":19641:19645   */\n      0x00\n        /* \"#utility.yul\":19679:19682   */\n      0x0120\n        /* \"#utility.yul\":19668:19677   */\n      dup3\n        /* \"#utility.yul\":19664:19683   */\n      add\n        /* \"#utility.yul\":19656:19683   */\n      swap1\n      pop\n        /* \"#utility.yul\":19693:19764   */\n      tag_475\n        /* \"#utility.yul\":19761:19762   */\n      0x00\n        /* \"#utility.yul\":19750:19759   */\n      dup4\n        /* \"#utility.yul\":19746:19763   */\n      add\n        /* \"#utility.yul\":19737:19743   */\n      dup13\n        /* \"#utility.yul\":19693:19764   */\n      tag_259\n      jump\t// in\n    tag_475:\n        /* \"#utility.yul\":19774:19846   */\n      tag_476\n        /* \"#utility.yul\":19842:19844   */\n      0x20\n        /* \"#utility.yul\":19831:19840   */\n      dup4\n        /* \"#utility.yul\":19827:19845   */\n      add\n        /* \"#utility.yul\":19818:19824   */\n      dup12\n        /* \"#utility.yul\":19774:19846   */\n      tag_259\n      jump\t// in\n    tag_476:\n        /* \"#utility.yul\":19893:19902   */\n      dup2\n        /* \"#utility.yul\":19887:19891   */\n      dup2\n        /* \"#utility.yul\":19883:19903   */\n      sub\n        /* \"#utility.yul\":19878:19880   */\n      0x40\n        /* \"#utility.yul\":19867:19876   */\n      dup4\n        /* \"#utility.yul\":19863:19881   */\n      add\n        /* \"#utility.yul\":19856:19904   */\n      mstore\n        /* \"#utility.yul\":19921:19999   */\n      tag_477\n        /* \"#utility.yul\":19994:19998   */\n      dup2\n        /* \"#utility.yul\":19985:19991   */\n      dup11\n        /* \"#utility.yul\":19921:19999   */\n      tag_264\n      jump\t// in\n    tag_477:\n        /* \"#utility.yul\":19913:19999   */\n      swap1\n      pop\n        /* \"#utility.yul\":20009:20081   */\n      tag_478\n        /* \"#utility.yul\":20077:20079   */\n      0x60\n        /* \"#utility.yul\":20066:20075   */\n      dup4\n        /* \"#utility.yul\":20062:20080   */\n      add\n        /* \"#utility.yul\":20053:20059   */\n      dup10\n        /* \"#utility.yul\":20009:20081   */\n      tag_259\n      jump\t// in\n    tag_478:\n        /* \"#utility.yul\":20129:20138   */\n      dup2\n        /* \"#utility.yul\":20123:20127   */\n      dup2\n        /* \"#utility.yul\":20119:20139   */\n      sub\n        /* \"#utility.yul\":20113:20116   */\n      0x80\n        /* \"#utility.yul\":20102:20111   */\n      dup4\n        /* \"#utility.yul\":20098:20117   */\n      add\n        /* \"#utility.yul\":20091:20140   */\n      mstore\n        /* \"#utility.yul\":20157:20235   */\n      tag_479\n        /* \"#utility.yul\":20230:20234   */\n      dup2\n        /* \"#utility.yul\":20221:20227   */\n      dup9\n        /* \"#utility.yul\":20157:20235   */\n      tag_264\n      jump\t// in\n    tag_479:\n        /* \"#utility.yul\":20149:20235   */\n      swap1\n      pop\n        /* \"#utility.yul\":20283:20292   */\n      dup2\n        /* \"#utility.yul\":20277:20281   */\n      dup2\n        /* \"#utility.yul\":20273:20293   */\n      sub\n        /* \"#utility.yul\":20267:20270   */\n      0xa0\n        /* \"#utility.yul\":20256:20265   */\n      dup4\n        /* \"#utility.yul\":20252:20271   */\n      add\n        /* \"#utility.yul\":20245:20294   */\n      mstore\n        /* \"#utility.yul\":20311:20389   */\n      tag_480\n        /* \"#utility.yul\":20384:20388   */\n      dup2\n        /* \"#utility.yul\":20375:20381   */\n      dup8\n        /* \"#utility.yul\":20311:20389   */\n      tag_264\n      jump\t// in\n    tag_480:\n        /* \"#utility.yul\":20303:20389   */\n      swap1\n      pop\n        /* \"#utility.yul\":20437:20446   */\n      dup2\n        /* \"#utility.yul\":20431:20435   */\n      dup2\n        /* \"#utility.yul\":20427:20447   */\n      sub\n        /* \"#utility.yul\":20421:20424   */\n      0xc0\n        /* \"#utility.yul\":20410:20419   */\n      dup4\n        /* \"#utility.yul\":20406:20425   */\n      add\n        /* \"#utility.yul\":20399:20448   */\n      mstore\n        /* \"#utility.yul\":20465:20543   */\n      tag_481\n        /* \"#utility.yul\":20538:20542   */\n      dup2\n        /* \"#utility.yul\":20529:20535   */\n      dup7\n        /* \"#utility.yul\":20465:20543   */\n      tag_264\n      jump\t// in\n    tag_481:\n        /* \"#utility.yul\":20457:20543   */\n      swap1\n      pop\n        /* \"#utility.yul\":20591:20600   */\n      dup2\n        /* \"#utility.yul\":20585:20589   */\n      dup2\n        /* \"#utility.yul\":20581:20601   */\n      sub\n        /* \"#utility.yul\":20575:20578   */\n      0xe0\n        /* \"#utility.yul\":20564:20573   */\n      dup4\n        /* \"#utility.yul\":20560:20579   */\n      add\n        /* \"#utility.yul\":20553:20602   */\n      mstore\n        /* \"#utility.yul\":20619:20697   */\n      tag_482\n        /* \"#utility.yul\":20692:20696   */\n      dup2\n        /* \"#utility.yul\":20683:20689   */\n      dup6\n        /* \"#utility.yul\":20619:20697   */\n      tag_264\n      jump\t// in\n    tag_482:\n        /* \"#utility.yul\":20611:20697   */\n      swap1\n      pop\n        /* \"#utility.yul\":20707:20780   */\n      tag_483\n        /* \"#utility.yul\":20775:20778   */\n      0x0100\n        /* \"#utility.yul\":20764:20773   */\n      dup4\n        /* \"#utility.yul\":20760:20779   */\n      add\n        /* \"#utility.yul\":20751:20757   */\n      dup5\n        /* \"#utility.yul\":20707:20780   */\n      tag_259\n      jump\t// in\n    tag_483:\n        /* \"#utility.yul\":19224:20787   */\n      swap11\n      swap10\n      pop\n      pop\n      pop\n      pop\n      pop\n      pop\n      pop\n      pop\n      pop\n      pop\n      jump\t// out\n        /* \"#utility.yul\":20793:23188   */\n    tag_56:\n        /* \"#utility.yul\":20974:20980   */\n      0x00\n        /* \"#utility.yul\":20982:20988   */\n      dup1\n        /* \"#utility.yul\":20990:20996   */\n      0x00\n        /* \"#utility.yul\":20998:21004   */\n      dup1\n        /* \"#utility.yul\":21006:21012   */\n      0x00\n        /* \"#utility.yul\":21014:21020   */\n      dup1\n        /* \"#utility.yul\":21022:21028   */\n      0x00\n        /* \"#utility.yul\":21030:21036   */\n      dup1\n        /* \"#utility.yul\":21038:21044   */\n      0x00\n        /* \"#utility.yul\":21087:21090   */\n      0x0120\n        /* \"#utility.yul\":21075:21084   */\n      dup11\n        /* \"#utility.yul\":21066:21073   */\n      dup13\n        /* \"#utility.yul\":21062:21085   */\n      sub\n        /* \"#utility.yul\":21058:21091   */\n      slt\n        /* \"#utility.yul\":21055:21175   */\n      iszero\n      tag_485\n      jumpi\n        /* \"#utility.yul\":21094:21173   */\n      tag_486\n      tag_252\n      jump\t// in\n    tag_486:\n        /* \"#utility.yul\":21055:21175   */\n    tag_485:\n        /* \"#utility.yul\":21214:21215   */\n      0x00\n        /* \"#utility.yul\":21239:21292   */\n      tag_487\n        /* \"#utility.yul\":21284:21291   */\n      dup13\n        /* \"#utility.yul\":21275:21281   */\n      dup3\n        /* \"#utility.yul\":21264:21273   */\n      dup14\n        /* \"#utility.yul\":21260:21282   */\n      add\n        /* \"#utility.yul\":21239:21292   */\n      tag_266\n      jump\t// in\n    tag_487:\n        /* \"#utility.yul\":21229:21292   */\n      swap10\n      pop\n        /* \"#utility.yul\":21185:21302   */\n      pop\n        /* \"#utility.yul\":21341:21343   */\n      0x20\n        /* \"#utility.yul\":21367:21420   */\n      tag_488\n        /* \"#utility.yul\":21412:21419   */\n      dup13\n        /* \"#utility.yul\":21403:21409   */\n      dup3\n        /* \"#utility.yul\":21392:21401   */\n      dup14\n        /* \"#utility.yul\":21388:21410   */\n      add\n        /* \"#utility.yul\":21367:21420   */\n      tag_266\n      jump\t// in\n    tag_488:\n        /* \"#utility.yul\":21357:21420   */\n      swap9\n      pop\n        /* \"#utility.yul\":21312:21430   */\n      pop\n        /* \"#utility.yul\":21497:21499   */\n      0x40\n        /* \"#utility.yul\":21486:21495   */\n      dup11\n        /* \"#utility.yul\":21482:21500   */\n      add\n        /* \"#utility.yul\":21469:21501   */\n      calldataload\n        /* \"#utility.yul\":21528:21546   */\n      0xffffffffffffffff\n        /* \"#utility.yul\":21520:21526   */\n      dup2\n        /* \"#utility.yul\":21517:21547   */\n      gt\n        /* \"#utility.yul\":21514:21631   */\n      iszero\n      tag_489\n      jumpi\n        /* \"#utility.yul\":21550:21629   */\n      tag_490\n      tag_253\n      jump\t// in\n    tag_490:\n        /* \"#utility.yul\":21514:21631   */\n    tag_489:\n        /* \"#utility.yul\":21655:21718   */\n      tag_491\n        /* \"#utility.yul\":21710:21717   */\n      dup13\n        /* \"#utility.yul\":21701:21707   */\n      dup3\n        /* \"#utility.yul\":21690:21699   */\n      dup14\n        /* \"#utility.yul\":21686:21708   */\n      add\n        /* \"#utility.yul\":21655:21718   */\n      tag_275\n      jump\t// in\n    tag_491:\n        /* \"#utility.yul\":21645:21718   */\n      swap8\n      pop\n        /* \"#utility.yul\":21440:21728   */\n      pop\n        /* \"#utility.yul\":21767:21769   */\n      0x60\n        /* \"#utility.yul\":21793:21846   */\n      tag_492\n        /* \"#utility.yul\":21838:21845   */\n      dup13\n        /* \"#utility.yul\":21829:21835   */\n      dup3\n        /* \"#utility.yul\":21818:21827   */\n      dup14\n        /* \"#utility.yul\":21814:21836   */\n      add\n        /* \"#utility.yul\":21793:21846   */\n      tag_266\n      jump\t// in\n    tag_492:\n        /* \"#utility.yul\":21783:21846   */\n      swap7\n      pop\n        /* \"#utility.yul\":21738:21856   */\n      pop\n        /* \"#utility.yul\":21923:21926   */\n      0x80\n        /* \"#utility.yul\":21912:21921   */\n      dup11\n        /* \"#utility.yul\":21908:21927   */\n      add\n        /* \"#utility.yul\":21895:21928   */\n      calldataload\n        /* \"#utility.yul\":21955:21973   */\n      0xffffffffffffffff\n        /* \"#utility.yul\":21947:21953   */\n      dup2\n        /* \"#utility.yul\":21944:21974   */\n      gt\n        /* \"#utility.yul\":21941:22058   */\n      iszero\n      tag_493\n      jumpi\n        /* \"#utility.yul\":21977:22056   */\n      tag_494\n      tag_253\n      jump\t// in\n    tag_494:\n        /* \"#utility.yul\":21941:22058   */\n    tag_493:\n        /* \"#utility.yul\":22082:22145   */\n      tag_495\n        /* \"#utility.yul\":22137:22144   */\n      dup13\n        /* \"#utility.yul\":22128:22134   */\n      dup3\n        /* \"#utility.yul\":22117:22126   */\n      dup14\n        /* \"#utility.yul\":22113:22135   */\n      add\n        /* \"#utility.yul\":22082:22145   */\n      tag_275\n      jump\t// in\n    tag_495:\n        /* \"#utility.yul\":22072:22145   */\n      swap6\n      pop\n        /* \"#utility.yul\":21866:22155   */\n      pop\n        /* \"#utility.yul\":22222:22225   */\n      0xa0\n        /* \"#utility.yul\":22211:22220   */\n      dup11\n        /* \"#utility.yul\":22207:22226   */\n      add\n        /* \"#utility.yul\":22194:22227   */\n      calldataload\n        /* \"#utility.yul\":22254:22272   */\n      0xffffffffffffffff\n        /* \"#utility.yul\":22246:22252   */\n      dup2\n        /* \"#utility.yul\":22243:22273   */\n      gt\n        /* \"#utility.yul\":22240:22357   */\n      iszero\n      tag_496\n      jumpi\n        /* \"#utility.yul\":22276:22355   */\n      tag_497\n      tag_253\n      jump\t// in\n    tag_497:\n        /* \"#utility.yul\":22240:22357   */\n    tag_496:\n        /* \"#utility.yul\":22381:22444   */\n      tag_498\n        /* \"#utility.yul\":22436:22443   */\n      dup13\n        /* \"#utility.yul\":22427:22433   */\n      dup3\n        /* \"#utility.yul\":22416:22425   */\n      dup14\n        /* \"#utility.yul\":22412:22434   */\n      add\n        /* \"#utility.yul\":22381:22444   */\n      tag_275\n      jump\t// in\n    tag_498:\n        /* \"#utility.yul\":22371:22444   */\n      swap5\n      pop\n        /* \"#utility.yul\":22165:22454   */\n      pop\n        /* \"#utility.yul\":22521:22524   */\n      0xc0\n        /* \"#utility.yul\":22510:22519   */\n      dup11\n        /* \"#utility.yul\":22506:22525   */\n      add\n        /* \"#utility.yul\":22493:22526   */\n      calldataload\n        /* \"#utility.yul\":22553:22571   */\n      0xffffffffffffffff\n        /* \"#utility.yul\":22545:22551   */\n      dup2\n        /* \"#utility.yul\":22542:22572   */\n      gt\n        /* \"#utility.yul\":22539:22656   */\n      iszero\n      tag_499\n      jumpi\n        /* \"#utility.yul\":22575:22654   */\n      tag_500\n      tag_253\n      jump\t// in\n    tag_500:\n        /* \"#utility.yul\":22539:22656   */\n    tag_499:\n        /* \"#utility.yul\":22680:22743   */\n      tag_501\n        /* \"#utility.yul\":22735:22742   */\n      dup13\n        /* \"#utility.yul\":22726:22732   */\n      dup3\n        /* \"#utility.yul\":22715:22724   */\n      dup14\n        /* \"#utility.yul\":22711:22733   */\n      add\n        /* \"#utility.yul\":22680:22743   */\n      tag_275\n      jump\t// in\n    tag_501:\n        /* \"#utility.yul\":22670:22743   */\n      swap4\n      pop\n        /* \"#utility.yul\":22464:22753   */\n      pop\n        /* \"#utility.yul\":22820:22823   */\n      0xe0\n        /* \"#utility.yul\":22809:22818   */\n      dup11\n        /* \"#utility.yul\":22805:22824   */\n      add\n        /* \"#utility.yul\":22792:22825   */\n      calldataload\n        /* \"#utility.yul\":22852:22870   */\n      0xffffffffffffffff\n        /* \"#utility.yul\":22844:22850   */\n      dup2\n        /* \"#utility.yul\":22841:22871   */\n      gt\n        /* \"#utility.yul\":22838:22955   */\n      iszero\n      tag_502\n      jumpi\n        /* \"#utility.yul\":22874:22953   */\n      tag_503\n      tag_253\n      jump\t// in\n    tag_503:\n        /* \"#utility.yul\":22838:22955   */\n    tag_502:\n        /* \"#utility.yul\":22979:23042   */\n      tag_504\n        /* \"#utility.yul\":23034:23041   */\n      dup13\n        /* \"#utility.yul\":23025:23031   */\n      dup3\n        /* \"#utility.yul\":23014:23023   */\n      dup14\n        /* \"#utility.yul\":23010:23032   */\n      add\n        /* \"#utility.yul\":22979:23042   */\n      tag_275\n      jump\t// in\n    tag_504:\n        /* \"#utility.yul\":22969:23042   */\n      swap3\n      pop\n        /* \"#utility.yul\":22763:23052   */\n      pop\n        /* \"#utility.yul\":23091:23094   */\n      0x0100\n        /* \"#utility.yul\":23118:23171   */\n      tag_505\n        /* \"#utility.yul\":23163:23170   */\n      dup13\n        /* \"#utility.yul\":23154:23160   */\n      dup3\n        /* \"#utility.yul\":23143:23152   */\n      dup14\n        /* \"#utility.yul\":23139:23161   */\n      add\n        /* \"#utility.yul\":23118:23171   */\n      tag_266\n      jump\t// in\n    tag_505:\n        /* \"#utility.yul\":23108:23171   */\n      swap2\n      pop\n        /* \"#utility.yul\":23062:23181   */\n      pop\n        /* \"#utility.yul\":20793:23188   */\n      swap3\n      swap6\n      swap9\n      pop\n      swap3\n      swap6\n      swap9\n      pop\n      swap3\n      swap6\n      swap9\n      jump\t// out\n        /* \"#utility.yul\":23194:23284   */\n    tag_277:\n        /* \"#utility.yul\":23228:23235   */\n      0x00\n        /* \"#utility.yul\":23271:23276   */\n      dup2\n        /* \"#utility.yul\":23264:23277   */\n      iszero\n        /* \"#utility.yul\":23257:23278   */\n      iszero\n        /* \"#utility.yul\":23246:23278   */\n      swap1\n      pop\n        /* \"#utility.yul\":23194:23284   */\n      swap2\n      swap1\n      pop\n      jump\t// out\n        /* \"#utility.yul\":23290:23399   */\n    tag_278:\n        /* \"#utility.yul\":23371:23392   */\n      tag_508\n        /* \"#utility.yul\":23386:23391   */\n      dup2\n        /* \"#utility.yul\":23371:23392   */\n      tag_277\n      jump\t// in\n    tag_508:\n        /* \"#utility.yul\":23366:23369   */\n      dup3\n        /* \"#utility.yul\":23359:23393   */\n      mstore\n        /* \"#utility.yul\":23290:23399   */\n      pop\n      pop\n      jump\t// out\n        /* \"#utility.yul\":23405:23615   */\n    tag_62:\n        /* \"#utility.yul\":23492:23496   */\n      0x00\n        /* \"#utility.yul\":23530:23532   */\n      0x20\n        /* \"#utility.yul\":23519:23528   */\n      dup3\n        /* \"#utility.yul\":23515:23533   */\n      add\n        /* \"#utility.yul\":23507:23533   */\n      swap1\n      pop\n        /* \"#utility.yul\":23543:23608   */\n      tag_510\n        /* \"#utility.yul\":23605:23606   */\n      0x00\n        /* \"#utility.yul\":23594:23603   */\n      dup4\n        /* \"#utility.yul\":23590:23607   */\n      add\n        /* \"#utility.yul\":23581:23587   */\n      dup5\n        /* \"#utility.yul\":23543:23608   */\n      tag_278\n      jump\t// in\n    tag_510:\n        /* \"#utility.yul\":23405:23615   */\n      swap3\n      swap2\n      pop\n      pop\n      jump\t// out\n        /* \"#utility.yul\":23621:23801   */\n    tag_279:\n        /* \"#utility.yul\":23669:23746   */\n      0x4e487b7100000000000000000000000000000000000000000000000000000000\n        /* \"#utility.yul\":23666:23667   */\n      0x00\n        /* \"#utility.yul\":23659:23747   */\n      mstore\n        /* \"#utility.yul\":23766:23770   */\n      0x22\n        /* \"#utility.yul\":23763:23764   */\n      0x04\n        /* \"#utility.yul\":23756:23771   */\n      mstore\n        /* \"#utility.yul\":23790:23794   */\n      0x24\n        /* \"#utility.yul\":23787:23788   */\n      0x00\n        /* \"#utility.yul\":23780:23795   */\n      revert\n        /* \"#utility.yul\":23807:24127   */\n    tag_64:\n        /* \"#utility.yul\":23851:23857   */\n      0x00\n        /* \"#utility.yul\":23888:23889   */\n      0x02\n        /* \"#utility.yul\":23882:23886   */\n      dup3\n        /* \"#utility.yul\":23878:23890   */\n      div\n        /* \"#utility.yul\":23868:23890   */\n      swap1\n      pop\n        /* \"#utility.yul\":23935:23936   */\n      0x01\n        /* \"#utility.yul\":23929:23933   */\n      dup3\n        /* \"#utility.yul\":23925:23937   */\n      and\n        /* \"#utility.yul\":23956:23974   */\n      dup1\n        /* \"#utility.yul\":23946:24027   */\n      tag_513\n      jumpi\n        /* \"#utility.yul\":24012:24016   */\n      0x7f\n        /* \"#utility.yul\":24004:24010   */\n      dup3\n        /* \"#utility.yul\":24000:24017   */\n      and\n        /* \"#utility.yul\":23990:24017   */\n      swap2\n      pop\n        /* \"#utility.yul\":23946:24027   */\n    tag_513:\n        /* \"#utility.yul\":24074:24076   */\n      0x20\n        /* \"#utility.yul\":24066:24072   */\n      dup3\n        /* \"#utility.yul\":24063:24077   */\n      lt\n        /* \"#utility.yul\":24043:24061   */\n      dup2\n        /* \"#utility.yul\":24040:24078   */\n      sub\n        /* \"#utility.yul\":24037:24121   */\n      tag_514\n      jumpi\n        /* \"#utility.yul\":24093:24111   */\n      tag_515\n      tag_279\n      jump\t// in\n    tag_515:\n        /* \"#utility.yul\":24037:24121   */\n    tag_514:\n        /* \"#utility.yul\":23858:24127   */\n      pop\n        /* \"#utility.yul\":23807:24127   */\n      swap2\n      swap1\n      pop\n      jump\t// out\n        /* \"#utility.yul\":24133:24373   */\n    tag_280:\n        /* \"#utility.yul\":24273:24307   */\n      0x566f7573206e206574657320706173206175746f726973652061206566666563\n        /* \"#utility.yul\":24269:24270   */\n      0x00\n        /* \"#utility.yul\":24261:24267   */\n      dup3\n        /* \"#utility.yul\":24257:24271   */\n      add\n        /* \"#utility.yul\":24250:24308   */\n      mstore\n        /* \"#utility.yul\":24342:24365   */\n      0x74756572206365747465206f7065726174696f6e2e0000000000000000000000\n        /* \"#utility.yul\":24337:24339   */\n      0x20\n        /* \"#utility.yul\":24329:24335   */\n      dup3\n        /* \"#utility.yul\":24325:24340   */\n      add\n        /* \"#utility.yul\":24318:24366   */\n      mstore\n        /* \"#utility.yul\":24133:24373   */\n      pop\n      jump\t// out\n        /* \"#utility.yul\":24379:24745   */\n    tag_281:\n        /* \"#utility.yul\":24521:24524   */\n      0x00\n        /* \"#utility.yul\":24542:24609   */\n      tag_518\n        /* \"#utility.yul\":24606:24608   */\n      0x35\n        /* \"#utility.yul\":24601:24604   */\n      dup4\n        /* \"#utility.yul\":24542:24609   */\n      tag_261\n      jump\t// in\n    tag_518:\n        /* \"#utility.yul\":24535:24609   */\n      swap2\n      pop\n        /* \"#utility.yul\":24618:24711   */\n      tag_519\n        /* \"#utility.yul\":24707:24710   */\n      dup3\n        /* \"#utility.yul\":24618:24711   */\n      tag_280\n      jump\t// in\n    tag_519:\n        /* \"#utility.yul\":24736:24738   */\n      0x40\n        /* \"#utility.yul\":24731:24734   */\n      dup3\n        /* \"#utility.yul\":24727:24739   */\n      add\n        /* \"#utility.yul\":24720:24739   */\n      swap1\n      pop\n        /* \"#utility.yul\":24379:24745   */\n      swap2\n      swap1\n      pop\n      jump\t// out\n        /* \"#utility.yul\":24751:25170   */\n    tag_183:\n        /* \"#utility.yul\":24917:24921   */\n      0x00\n        /* \"#utility.yul\":24955:24957   */\n      0x20\n        /* \"#utility.yul\":24944:24953   */\n      dup3\n        /* \"#utility.yul\":24940:24958   */\n      add\n        /* \"#utility.yul\":24932:24958   */\n      swap1\n      pop\n        /* \"#utility.yul\":25004:25013   */\n      dup2\n        /* \"#utility.yul\":24998:25002   */\n      dup2\n        /* \"#utility.yul\":24994:25014   */\n      sub\n        /* \"#utility.yul\":24990:24991   */\n      0x00\n        /* \"#utility.yul\":24979:24988   */\n      dup4\n        /* \"#utility.yul\":24975:24992   */\n      add\n        /* \"#utility.yul\":24968:25015   */\n      mstore\n        /* \"#utility.yul\":25032:25163   */\n      tag_521\n        /* \"#utility.yul\":25158:25162   */\n      dup2\n        /* \"#utility.yul\":25032:25163   */\n      tag_281\n      jump\t// in\n    tag_521:\n        /* \"#utility.yul\":25024:25163   */\n      swap1\n      pop\n        /* \"#utility.yul\":24751:25170   */\n      swap2\n      swap1\n      pop\n      jump\t// out\n        /* \"#utility.yul\":25176:25317   */\n    tag_282:\n        /* \"#utility.yul\":25225:25229   */\n      0x00\n        /* \"#utility.yul\":25248:25251   */\n      dup2\n        /* \"#utility.yul\":25240:25251   */\n      swap1\n      pop\n        /* \"#utility.yul\":25271:25274   */\n      dup2\n        /* \"#utility.yul\":25268:25269   */\n      0x00\n        /* \"#utility.yul\":25261:25275   */\n      mstore\n        /* \"#utility.yul\":25305:25309   */\n      0x20\n        /* \"#utility.yul\":25302:25303   */\n      0x00\n        /* \"#utility.yul\":25292:25310   */\n      keccak256\n        /* \"#utility.yul\":25284:25310   */\n      swap1\n      pop\n        /* \"#utility.yul\":25176:25317   */\n      swap2\n      swap1\n      pop\n      jump\t// out\n        /* \"#utility.yul\":25323:25416   */\n    tag_283:\n        /* \"#utility.yul\":25360:25366   */\n      0x00\n        /* \"#utility.yul\":25407:25409   */\n      0x20\n        /* \"#utility.yul\":25402:25404   */\n      0x1f\n        /* \"#utility.yul\":25395:25400   */\n      dup4\n        /* \"#utility.yul\":25391:25405   */\n      add\n        /* \"#utility.yul\":25387:25410   */\n      div\n        /* \"#utility.yul\":25377:25410   */\n      swap1\n      pop\n        /* \"#utility.yul\":25323:25416   */\n      swap2\n      swap1\n      pop\n      jump\t// out\n        /* \"#utility.yul\":25422:25529   */\n    tag_284:\n        /* \"#utility.yul\":25466:25474   */\n      0x00\n        /* \"#utility.yul\":25516:25521   */\n      dup3\n        /* \"#utility.yul\":25510:25514   */\n      dup3\n        /* \"#utility.yul\":25506:25522   */\n      shl\n        /* \"#utility.yul\":25485:25522   */\n      swap1\n      pop\n        /* \"#utility.yul\":25422:25529   */\n      swap3\n      swap2\n      pop\n      pop\n      jump\t// out\n        /* \"#utility.yul\":25535:25928   */\n    tag_285:\n        /* \"#utility.yul\":25604:25610   */\n      0x00\n        /* \"#utility.yul\":25654:25655   */\n      0x08\n        /* \"#utility.yul\":25642:25652   */\n      dup4\n        /* \"#utility.yul\":25638:25656   */\n      mul\n        /* \"#utility.yul\":25677:25774   */\n      tag_526\n        /* \"#utility.yul\":25707:25773   */\n      0xffffffffffffffffffffffffffffffffffffffffffffffffffffffffffffffff\n        /* \"#utility.yul\":25696:25705   */\n      dup3\n        /* \"#utility.yul\":25677:25774   */\n      tag_284\n      jump\t// in\n    tag_526:\n        /* \"#utility.yul\":25795:25834   */\n      tag_527\n        /* \"#utility.yul\":25825:25833   */\n      dup7\n        /* \"#utility.yul\":25814:25823   */\n      dup4\n        /* \"#utility.yul\":25795:25834   */\n      tag_284\n      jump\t// in\n    tag_527:\n        /* \"#utility.yul\":25783:25834   */\n      swap6\n      pop\n        /* \"#utility.yul\":25867:25871   */\n      dup1\n        /* \"#utility.yul\":25863:25872   */\n      not\n        /* \"#utility.yul\":25856:25861   */\n      dup5\n        /* \"#utility.yul\":25852:25873   */\n      and\n        /* \"#utility.yul\":25843:25873   */\n      swap4\n      pop\n        /* \"#utility.yul\":25916:25920   */\n      dup1\n        /* \"#utility.yul\":25906:25914   */\n      dup7\n        /* \"#utility.yul\":25902:25921   */\n      and\n        /* \"#utility.yul\":25895:25900   */\n      dup5\n        /* \"#utility.yul\":25892:25922   */\n      or\n        /* \"#utility.yul\":25882:25922   */\n      swap3\n      pop\n        /* \"#utility.yul\":25611:25928   */\n      pop\n      pop\n        /* \"#utility.yul\":25535:25928   */\n      swap4\n      swap3\n      pop\n      pop\n      pop\n      jump\t// out\n        /* \"#utility.yul\":25934:25994   */\n    tag_286:\n        /* \"#utility.yul\":25962:25965   */\n      0x00\n        /* \"#utility.yul\":25983:25988   */\n      dup2\n        /* \"#utility.yul\":25976:25988   */\n      swap1\n      pop\n        /* \"#utility.yul\":25934:25994   */\n      swap2\n      swap1\n      pop\n      jump\t// out\n        /* \"#utility.yul\":26000:26142   */\n    tag_287:\n        /* \"#utility.yul\":26050:26059   */\n      0x00\n        /* \"#utility.yul\":26083:26136   */\n      tag_530\n        /* \"#utility.yul\":26101:26135   */\n      tag_531\n        /* \"#utility.yul\":26110:26134   */\n      tag_532\n        /* \"#utility.yul\":26128:26133   */\n      dup5\n        /* \"#utility.yul\":26110:26134   */\n      tag_258\n      jump\t// in\n    tag_532:\n        /* \"#utility.yul\":26101:26135   */\n      tag_286\n      jump\t// in\n    tag_531:\n        /* \"#utility.yul\":26083:26136   */\n      tag_258\n      jump\t// in\n    tag_530:\n        /* \"#utility.yul\":26070:26136   */\n      swap1\n      pop\n        /* \"#utility.yul\":26000:26142   */\n      swap2\n      swap1\n      pop\n      jump\t// out\n        /* \"#utility.yul\":26148:26223   */\n    tag_288:\n        /* \"#utility.yul\":26191:26194   */\n      0x00\n        /* \"#utility.yul\":26212:26217   */\n      dup2\n        /* \"#utility.yul\":26205:26217   */\n      swap1\n      pop\n        /* \"#utility.yul\":26148:26223   */\n      swap2\n      swap1\n      pop\n      jump\t// out\n        /* \"#utility.yul\":26229:26498   */\n    tag_289:\n        /* \"#utility.yul\":26339:26378   */\n      tag_535\n        /* \"#utility.yul\":26370:26377   */\n      dup4\n        /* \"#utility.yul\":26339:26378   */\n      tag_287\n      jump\t// in\n    tag_535:\n        /* \"#utility.yul\":26400:26491   */\n      tag_536\n        /* \"#utility.yul\":26449:26490   */\n      tag_537\n        /* \"#utility.yul\":26473:26489   */\n      dup3\n        /* \"#utility.yul\":26449:26490   */\n      tag_288\n      jump\t// in\n    tag_537:\n        /* \"#utility.yul\":26441:26447   */\n      dup5\n        /* \"#utility.yul\":26434:26438   */\n      dup5\n        /* \"#utility.yul\":26428:26439   */\n      sload\n        /* \"#utility.yul\":26400:26491   */\n      tag_285\n      jump\t// in\n    tag_536:\n        /* \"#utility.yul\":26394:26398   */\n      dup3\n        /* \"#utility.yul\":26387:26492   */\n      sstore\n        /* \"#utility.yul\":26305:26498   */\n      pop\n        /* \"#utility.yul\":26229:26498   */\n      pop\n      pop\n      pop\n      jump\t// out\n        /* \"#utility.yul\":26504:26577   */\n    tag_290:\n        /* \"#utility.yul\":26549:26552   */\n      0x00\n        /* \"#utility.yul\":26504:26577   */\n      swap1\n      jump\t// out\n        /* \"#utility.yul\":26583:26772   */\n    tag_291:\n        /* \"#utility.yul\":26660:26692   */\n      tag_540\n      tag_290\n      jump\t// in\n    tag_540:\n        /* \"#utility.yul\":26701:26766   */\n      tag_541\n        /* \"#utility.yul\":26759:26765   */\n      dup2\n        /* \"#utility.yul\":26751:26757   */\n      dup5\n        /* \"#utility.yul\":26745:26749   */\n      dup5\n        /* \"#utility.yul\":26701:26766   */\n      tag_289\n      jump\t// in\n    tag_541:\n        /* \"#utility.yul\":26636:26772   */\n      pop\n        /* \"#utility.yul\":26583:26772   */\n      pop\n      pop\n      jump\t// out\n        /* \"#utility.yul\":26778:26964   */\n    tag_292:\n        /* \"#utility.yul\":26838:26958   */\n    tag_543:\n        /* \"#utility.yul\":26855:26858   */\n      dup2\n        /* \"#utility.yul\":26848:26853   */\n      dup2\n        /* \"#utility.yul\":26845:26859   */\n      lt\n        /* \"#utility.yul\":26838:26958   */\n      iszero\n      tag_545\n      jumpi\n        /* \"#utility.yul\":26909:26948   */\n      tag_546\n        /* \"#utility.yul\":26946:26947   */\n      0x00\n        /* \"#utility.yul\":26939:26944   */\n      dup3\n        /* \"#utility.yul\":26909:26948   */\n      tag_291\n      jump\t// in\n    tag_546:\n        /* \"#utility.yul\":26882:26883   */\n      0x01\n        /* \"#utility.yul\":26875:26880   */\n      dup2\n        /* \"#utility.yul\":26871:26884   */\n      add\n        /* \"#utility.yul\":26862:26884   */\n      swap1\n      pop\n        /* \"#utility.yul\":26838:26958   */\n      jump(tag_543)\n    tag_545:\n        /* \"#utility.yul\":26778:26964   */\n      pop\n      pop\n      jump\t// out\n        /* \"#utility.yul\":26970:27513   */\n    tag_293:\n        /* \"#utility.yul\":27071:27073   */\n      0x1f\n        /* \"#utility.yul\":27066:27069   */\n      dup3\n        /* \"#utility.yul\":27063:27074   */\n      gt\n        /* \"#utility.yul\":27060:27506   */\n      iszero\n      tag_548\n      jumpi\n        /* \"#utility.yul\":27105:27143   */\n      tag_549\n        /* \"#utility.yul\":27137:27142   */\n      dup2\n        /* \"#utility.yul\":27105:27143   */\n      tag_282\n      jump\t// in\n    tag_549:\n        /* \"#utility.yul\":27189:27218   */\n      tag_550\n        /* \"#utility.yul\":27207:27217   */\n      dup5\n        /* \"#utility.yul\":27189:27218   */\n      tag_283\n      jump\t// in\n    tag_550:\n        /* \"#utility.yul\":27179:27187   */\n      dup2\n        /* \"#utility.yul\":27175:27219   */\n      add\n        /* \"#utility.yul\":27372:27374   */\n      0x20\n        /* \"#utility.yul\":27360:27370   */\n      dup6\n        /* \"#utility.yul\":27357:27375   */\n      lt\n        /* \"#utility.yul\":27354:27403   */\n      iszero\n      tag_551\n      jumpi\n        /* \"#utility.yul\":27393:27401   */\n      dup2\n        /* \"#utility.yul\":27378:27401   */\n      swap1\n      pop\n        /* \"#utility.yul\":27354:27403   */\n    tag_551:\n        /* \"#utility.yul\":27416:27496   */\n      tag_552\n        /* \"#utility.yul\":27472:27494   */\n      tag_553\n        /* \"#utility.yul\":27490:27493   */\n      dup6\n        /* \"#utility.yul\":27472:27494   */\n      tag_283\n      jump\t// in\n    tag_553:\n        /* \"#utility.yul\":27462:27470   */\n      dup4\n        /* \"#utility.yul\":27458:27495   */\n      add\n        /* \"#utility.yul\":27445:27456   */\n      dup3\n        /* \"#utility.yul\":27416:27496   */\n      tag_292\n      jump\t// in\n    tag_552:\n        /* \"#utility.yul\":27075:27506   */\n      pop\n      pop\n        /* \"#utility.yul\":27060:27506   */\n    tag_548:\n        /* \"#utility.yul\":26970:27513   */\n      pop\n      pop\n      pop\n      jump\t// out\n        /* \"#utility.yul\":27519:27636   */\n    tag_294:\n        /* \"#utility.yul\":27573:27581   */\n      0x00\n        /* \"#utility.yul\":27623:27628   */\n      dup3\n        /* \"#utility.yul\":27617:27621   */\n      dup3\n        /* \"#utility.yul\":27613:27629   */\n      shr\n        /* \"#utility.yul\":27592:27629   */\n      swap1\n      pop\n        /* \"#utility.yul\":27519:27636   */\n      swap3\n      swap2\n      pop\n      pop\n      jump\t// out\n        /* \"#utility.yul\":27642:27811   */\n    tag_295:\n        /* \"#utility.yul\":27686:27692   */\n      0x00\n        /* \"#utility.yul\":27719:27770   */\n      tag_556\n        /* \"#utility.yul\":27767:27768   */\n      0x00\n        /* \"#utility.yul\":27763:27769   */\n      not\n        /* \"#utility.yul\":27755:27760   */\n      dup5\n        /* \"#utility.yul\":27752:27753   */\n      0x08\n        /* \"#utility.yul\":27748:27761   */\n      mul\n        /* \"#utility.yul\":27719:27770   */\n      tag_294\n      jump\t// in\n    tag_556:\n        /* \"#utility.yul\":27715:27771   */\n      not\n        /* \"#utility.yul\":27800:27804   */\n      dup1\n        /* \"#utility.yul\":27794:27798   */\n      dup4\n        /* \"#utility.yul\":27790:27805   */\n      and\n        /* \"#utility.yul\":27780:27805   */\n      swap2\n      pop\n        /* \"#utility.yul\":27693:27811   */\n      pop\n        /* \"#utility.yul\":27642:27811   */\n      swap3\n      swap2\n      pop\n      pop\n      jump\t// out\n        /* \"#utility.yul\":27816:28111   */\n    tag_296:\n        /* \"#utility.yul\":27892:27896   */\n      0x00\n        /* \"#utility.yul\":28038:28067   */\n      tag_558\n        /* \"#utility.yul\":28063:28066   */\n      dup4\n        /* \"#utility.yul\":28057:28061   */\n      dup4\n        /* \"#utility.yul\":28038:28067   */\n      tag_295\n      jump\t// in\n    tag_558:\n        /* \"#utility.yul\":28030:28067   */\n      swap2\n      pop\n        /* \"#utility.yul\":28100:28103   */\n      dup3\n        /* \"#utility.yul\":28097:28098   */\n      0x02\n        /* \"#utility.yul\":28093:28104   */\n      mul\n        /* \"#utility.yul\":28087:28091   */\n      dup3\n        /* \"#utility.yul\":28084:28105   */\n      or\n        /* \"#utility.yul\":28076:28105   */\n      swap1\n      pop\n        /* \"#utility.yul\":27816:28111   */\n      swap3\n      swap2\n      pop\n      pop\n      jump\t// out\n        /* \"#utility.yul\":28116:29511   */\n    tag_186:\n        /* \"#utility.yul\":28233:28270   */\n      tag_560\n        /* \"#utility.yul\":28266:28269   */\n      dup3\n        /* \"#utility.yul\":28233:28270   */\n      tag_260\n      jump\t// in\n    tag_560:\n        /* \"#utility.yul\":28335:28353   */\n      0xffffffffffffffff\n        /* \"#utility.yul\":28327:28333   */\n      dup2\n        /* \"#utility.yul\":28324:28354   */\n      gt\n        /* \"#utility.yul\":28321:28377   */\n      iszero\n      tag_561\n      jumpi\n        /* \"#utility.yul\":28357:28375   */\n      tag_562\n      tag_269\n      jump\t// in\n    tag_562:\n        /* \"#utility.yul\":28321:28377   */\n    tag_561:\n        /* \"#utility.yul\":28401:28439   */\n      tag_563\n        /* \"#utility.yul\":28433:28437   */\n      dup3\n        /* \"#utility.yul\":28427:28438   */\n      sload\n        /* \"#utility.yul\":28401:28439   */\n      tag_64\n      jump\t// in\n    tag_563:\n        /* \"#utility.yul\":28486:28553   */\n      tag_564\n        /* \"#utility.yul\":28546:28552   */\n      dup3\n        /* \"#utility.yul\":28538:28544   */\n      dup3\n        /* \"#utility.yul\":28532:28536   */\n      dup6\n        /* \"#utility.yul\":28486:28553   */\n      tag_293\n      jump\t// in\n    tag_564:\n        /* \"#utility.yul\":28580:28581   */\n      0x00\n        /* \"#utility.yul\":28604:28608   */\n      0x20\n        /* \"#utility.yul\":28591:28608   */\n      swap1\n      pop\n        /* \"#utility.yul\":28636:28638   */\n      0x1f\n        /* \"#utility.yul\":28628:28634   */\n      dup4\n        /* \"#utility.yul\":28625:28639   */\n      gt\n        /* \"#utility.yul\":28653:28654   */\n      0x01\n        /* \"#utility.yul\":28648:29266   */\n      dup2\n      eq\n      tag_566\n      jumpi\n        /* \"#utility.yul\":29310:29311   */\n      0x00\n        /* \"#utility.yul\":29327:29333   */\n      dup5\n        /* \"#utility.yul\":29324:29401   */\n      iszero\n      tag_567\n      jumpi\n        /* \"#utility.yul\":29376:29385   */\n      dup3\n        /* \"#utility.yul\":29371:29374   */\n      dup8\n        /* \"#utility.yul\":29367:29386   */\n      add\n        /* \"#utility.yul\":29361:29387   */\n      mload\n        /* \"#utility.yul\":29352:29387   */\n      swap1\n      pop\n        /* \"#utility.yul\":29324:29401   */\n    tag_567:\n        /* \"#utility.yul\":29427:29494   */\n      tag_568\n        /* \"#utility.yul\":29487:29493   */\n      dup6\n        /* \"#utility.yul\":29480:29485   */\n      dup3\n        /* \"#utility.yul\":29427:29494   */\n      tag_296\n      jump\t// in\n    tag_568:\n        /* \"#utility.yul\":29421:29425   */\n      dup7\n        /* \"#utility.yul\":29414:29495   */\n      sstore\n        /* \"#utility.yul\":29283:29505   */\n      pop\n        /* \"#utility.yul\":28618:29505   */\n      jump(tag_565)\n        /* \"#utility.yul\":28648:29266   */\n    tag_566:\n        /* \"#utility.yul\":28700:28704   */\n      0x1f\n        /* \"#utility.yul\":28696:28705   */\n      not\n        /* \"#utility.yul\":28688:28694   */\n      dup5\n        /* \"#utility.yul\":28684:28706   */\n      and\n        /* \"#utility.yul\":28734:28771   */\n      tag_569\n        /* \"#utility.yul\":28766:28770   */\n      dup7\n        /* \"#utility.yul\":28734:28771   */\n      tag_282\n      jump\t// in\n    tag_569:\n        /* \"#utility.yul\":28793:28794   */\n      0x00\n        /* \"#utility.yul\":28807:29015   */\n    tag_570:\n        /* \"#utility.yul\":28821:28828   */\n      dup3\n        /* \"#utility.yul\":28818:28819   */\n      dup2\n        /* \"#utility.yul\":28815:28829   */\n      lt\n        /* \"#utility.yul\":28807:29015   */\n      iszero\n      tag_572\n      jumpi\n        /* \"#utility.yul\":28900:28909   */\n      dup5\n        /* \"#utility.yul\":28895:28898   */\n      dup10\n        /* \"#utility.yul\":28891:28910   */\n      add\n        /* \"#utility.yul\":28885:28911   */\n      mload\n        /* \"#utility.yul\":28877:28883   */\n      dup3\n        /* \"#utility.yul\":28870:28912   */\n      sstore\n        /* \"#utility.yul\":28951:28952   */\n      0x01\n        /* \"#utility.yul\":28943:28949   */\n      dup3\n        /* \"#utility.yul\":28939:28953   */\n      add\n        /* \"#utility.yul\":28929:28953   */\n      swap2\n      pop\n        /* \"#utility.yul\":28998:29000   */\n      0x20\n        /* \"#utility.yul\":28987:28996   */\n      dup6\n        /* \"#utility.yul\":28983:29001   */\n      add\n        /* \"#utility.yul\":28970:29001   */\n      swap5\n      pop\n        /* \"#utility.yul\":28844:28848   */\n      0x20\n        /* \"#utility.yul\":28841:28842   */\n      dup2\n        /* \"#utility.yul\":28837:28849   */\n      add\n        /* \"#utility.yul\":28832:28849   */\n      swap1\n      pop\n        /* \"#utility.yul\":28807:29015   */\n      jump(tag_570)\n    tag_572:\n        /* \"#utility.yul\":29043:29049   */\n      dup7\n        /* \"#utility.yul\":29034:29041   */\n      dup4\n        /* \"#utility.yul\":29031:29050   */\n      lt\n        /* \"#utility.yul\":29028:29207   */\n      iszero\n      tag_573\n      jumpi\n        /* \"#utility.yul\":29101:29110   */\n      dup5\n        /* \"#utility.yul\":29096:29099   */\n      dup10\n        /* \"#utility.yul\":29092:29111   */\n      add\n        /* \"#utility.yul\":29086:29112   */\n      mload\n        /* \"#utility.yul\":29144:29192   */\n      tag_574\n        /* \"#utility.yul\":29186:29190   */\n      0x1f\n        /* \"#utility.yul\":29178:29184   */\n      dup10\n        /* \"#utility.yul\":29174:29191   */\n      and\n        /* \"#utility.yul\":29163:29172   */\n      dup3\n        /* \"#utility.yul\":29144:29192   */\n      tag_295\n      jump\t// in\n    tag_574:\n        /* \"#utility.yul\":29136:29142   */\n      dup4\n        /* \"#utility.yul\":29129:29193   */\n      sstore\n        /* \"#utility.yul\":29051:29207   */\n      pop\n        /* \"#utility.yul\":29028:29207   */\n    tag_573:\n        /* \"#utility.yul\":29253:29254   */\n      0x01\n        /* \"#utility.yul\":29249:29250   */\n      0x02\n        /* \"#utility.yul\":29241:29247   */\n      dup9\n        /* \"#utility.yul\":29237:29251   */\n      mul\n        /* \"#utility.yul\":29233:29255   */\n      add\n        /* \"#utility.yul\":29227:29231   */\n      dup9\n        /* \"#utility.yul\":29220:29256   */\n      sstore\n        /* \"#utility.yul\":28655:29266   */\n      pop\n      pop\n      pop\n        /* \"#utility.yul\":28618:29505   */\n    tag_565:\n      pop\n        /* \"#utility.yul\":28208:29511   */\n      pop\n      pop\n      pop\n        /* \"#utility.yul\":28116:29511   */\n      pop\n      pop\n      jump\t// out\n\n    auxdata: 0xa26469706673582212208289b4a8cc936c6be66dd84055b591f337a1163424f91cb60e82489ed696ee4d64736f6c63430008160033\n}\n",
				"bytecode": {
					"linkReferences": {},
					"object": "608060405234801561000f575f80fd5b50335f806101000a81548173ffffffffffffffffffffffffffffffffffffffff021916908373ffffffffffffffffffffffffffffffffffffffff1602179055506129498061005c5f395ff3fe608060405234801561000f575f80fd5b50600436106100a7575f3560e01c80638da5cb5b1161006f5780638da5cb5b146101795780639c2df0d2146101975780639ef5c1e3146101b3578063ad3062e4146101cf578063bef0bf4f14610207578063d86c73b414610223576100a7565b806365eb3035146100ab5780636c5aea72146100e457806377420711146100ee5780638256d51c146101285780638d26af781461015d575b5f80fd5b6100c560048036038101906100c09190611a2a565b610253565b6040516100db9a99989796959493929190611af7565b60405180910390f35b6100ec610759565b005b61010860048036038101906101039190611a2a565b6107b0565b60405161011f9b9a99989796959493929190611bd0565b60405180910390f35b610142600480360381019061013d9190611a2a565b610d42565b60405161015496959493929190611cbf565b60405180910390f35b61017760048036038101906101729190611e90565b610f92565b005b61018161117d565b60405161018e9190612074565b60405180910390f35b6101b160048036038101906101ac919061208d565b6111a0565b005b6101cd60048036038101906101c89190612186565b611308565b005b6101e960048036038101906101e49190611a2a565b611511565b6040516101fe9998979695949392919061238b565b60405180910390f35b610221600480360381019061021c9190612439565b6117f9565b005b61023d60048036038101906102389190611a2a565b6119a2565b60405161024a91906125a3565b60405180910390f35b6004602052805f5260405f205f91509050805f015490806001018054610278906125e9565b80601f01602080910402602001604051908101604052809291908181526020018280546102a4906125e9565b80156102ef5780601f106102c6576101008083540402835291602001916102ef565b820191905f5260205f20905b8154815290600101906020018083116102d257829003601f168201915b505050505090806002018054610304906125e9565b80601f0160208091040260200160405190810160405280929190818152602001828054610330906125e9565b801561037b5780601f106103525761010080835404028352916020019161037b565b820191905f5260205f20905b81548152906001019060200180831161035e57829003601f168201915b505050505090806003018054610390906125e9565b80601f01602080910402602001604051908101604052809291908181526020018280546103bc906125e9565b80156104075780601f106103de57610100808354040283529160200191610407565b820191905f5260205f20905b8154815290600101906020018083116103ea57829003601f168201915b50505050509080600401805461041c906125e9565b80601f0160208091040260200160405190810160405280929190818152602001828054610448906125e9565b80156104935780601f1061046a57610100808354040283529160200191610493565b820191905f5260205f20905b81548152906001019060200180831161047657829003601f168201915b5050505050908060050180546104a8906125e9565b80601f01602080910402602001604051908101604052809291908181526020018280546104d4906125e9565b801561051f5780601f106104f65761010080835404028352916020019161051f565b820191905f5260205f20905b81548152906001019060200180831161050257829003601f168201915b505050505090806006018054610534906125e9565b80601f0160208091040260200160405190810160405280929190818152602001828054610560906125e9565b80156105ab5780601f10610582576101008083540402835291602001916105ab565b820191905f5260205f20905b81548152906001019060200180831161058e57829003601f168201915b5050505050908060070180546105c0906125e9565b80601f01602080910402602001604051908101604052809291908181526020018280546105ec906125e9565b80156106375780601f1061060e57610100808354040283529160200191610637565b820191905f5260205f20905b81548152906001019060200180831161061a57829003601f168201915b50505050509080600801805461064c906125e9565b80601f0160208091040260200160405190810160405280929190818152602001828054610678906125e9565b80156106c35780601f1061069a576101008083540402835291602001916106c3565b820191905f5260205f20905b8154815290600101906020018083116106a657829003601f168201915b5050505050908060090180546106d8906125e9565b80601f0160208091040260200160405190810160405280929190818152602001828054610704906125e9565b801561074f5780601f106107265761010080835404028352916020019161074f565b820191905f5260205f20905b81548152906001019060200180831161073257829003601f168201915b505050505090508a565b600160055f3373ffffffffffffffffffffffffffffffffffffffff1673ffffffffffffffffffffffffffffffffffffffff1681526020019081526020015f205f6101000a81548160ff021916908315150217905550565b6002602052805f5260405f205f91509050805f0154908060010180546107d5906125e9565b80601f0160208091040260200160405190810160405280929190818152602001828054610801906125e9565b801561084c5780601f106108235761010080835404028352916020019161084c565b820191905f5260205f20905b81548152906001019060200180831161082f57829003601f168201915b505050505090806002018054610861906125e9565b80601f016020809104026020016040519081016040528092919081815260200182805461088d906125e9565b80156108d85780601f106108af576101008083540402835291602001916108d8565b820191905f5260205f20905b8154815290600101906020018083116108bb57829003601f168201915b5050505050908060030180546108ed906125e9565b80601f0160208091040260200160405190810160405280929190818152602001828054610919906125e9565b80156109645780601f1061093b57610100808354040283529160200191610964565b820191905f5260205f20905b81548152906001019060200180831161094757829003601f168201915b505050505090806004018054610979906125e9565b80601f01602080910402602001604051908101604052809291908181526020018280546109a5906125e9565b80156109f05780601f106109c7576101008083540402835291602001916109f0565b820191905f5260205f20905b8154815290600101906020018083116109d357829003601f168201915b505050505090806005018054610a05906125e9565b80601f0160208091040260200160405190810160405280929190818152602001828054610a31906125e9565b8015610a7c5780601f10610a5357610100808354040283529160200191610a7c565b820191905f5260205f20905b815481529060010190602001808311610a5f57829003601f168201915b505050505090806006018054610a91906125e9565b80601f0160208091040260200160405190810160405280929190818152602001828054610abd906125e9565b8015610b085780601f10610adf57610100808354040283529160200191610b08565b820191905f5260205f20905b815481529060010190602001808311610aeb57829003601f168201915b505050505090806007018054610b1d906125e9565b80601f0160208091040260200160405190810160405280929190818152602001828054610b49906125e9565b8015610b945780601f10610b6b57610100808354040283529160200191610b94565b820191905f5260205f20905b815481529060010190602001808311610b7757829003601f168201915b505050505090806008018054610ba9906125e9565b80601f0160208091040260200160405190810160405280929190818152602001828054610bd5906125e9565b8015610c205780601f10610bf757610100808354040283529160200191610c20565b820191905f5260205f20905b815481529060010190602001808311610c0357829003601f168201915b505050505090806009018054610c35906125e9565b80601f0160208091040260200160405190810160405280929190818152602001828054610c61906125e9565b8015610cac5780601f10610c8357610100808354040283529160200191610cac565b820191905f5260205f20905b815481529060010190602001808311610c8f57829003601f168201915b50505050509080600a018054610cc1906125e9565b80601f0160208091040260200160405190810160405280929190818152602001828054610ced906125e9565b8015610d385780601f10610d0f57610100808354040283529160200191610d38565b820191905f5260205f20905b815481529060010190602001808311610d1b57829003601f168201915b505050505090508b565b6001602052805f5260405f205f91509050805f015490806001018054610d67906125e9565b80601f0160208091040260200160405190810160405280929190818152602001828054610d93906125e9565b8015610dde5780601f10610db557610100808354040283529160200191610dde565b820191905f5260205f20905b815481529060010190602001808311610dc157829003601f168201915b505050505090806002018054610df3906125e9565b80601f0160208091040260200160405190810160405280929190818152602001828054610e1f906125e9565b8015610e6a5780601f10610e4157610100808354040283529160200191610e6a565b820191905f5260205f20905b815481529060010190602001808311610e4d57829003601f168201915b505050505090806003018054610e7f906125e9565b80601f0160208091040260200160405190810160405280929190818152602001828054610eab906125e9565b8015610ef65780601f10610ecd57610100808354040283529160200191610ef6565b820191905f5260205f20905b815481529060010190602001808311610ed957829003601f168201915b505050505090806004018054610f0b906125e9565b80601f0160208091040260200160405190810160405280929190818152602001828054610f37906125e9565b8015610f825780601f10610f5957610100808354040283529160200191610f82565b820191905f5260205f20905b815481529060010190602001808311610f6557829003601f168201915b5050505050908060050154905086565b60055f3373ffffffffffffffffffffffffffffffffffffffff1673ffffffffffffffffffffffffffffffffffffffff1681526020019081526020015f205f9054906101000a900460ff1661101b576040517f08c379a000000000000000000000000000000000000000000000000000000000815260040161101290612689565b60405180910390fd5b6040518061014001604052808b81526020018a81526020018981526020018881526020018781526020018681526020018581526020018481526020018381526020018281525060045f3373ffffffffffffffffffffffffffffffffffffffff1673ffffffffffffffffffffffffffffffffffffffff1681526020019081526020015f205f820151815f015560208201518160010190816110bb9190612844565b5060408201518160020190816110d19190612844565b5060608201518160030190816110e79190612844565b5060808201518160040190816110fd9190612844565b5060a08201518160050190816111139190612844565b5060c08201518160060190816111299190612844565b5060e082015181600701908161113f9190612844565b506101008201518160080190816111569190612844565b5061012082015181600901908161116d9190612844565b5090505050505050505050505050565b5f8054906101000a900473ffffffffffffffffffffffffffffffffffffffff1681565b60055f3373ffffffffffffffffffffffffffffffffffffffff1673ffffffffffffffffffffffffffffffffffffffff1681526020019081526020015f205f9054906101000a900460ff16611229576040517f08c379a000000000000000000000000000000000000000000000000000000000815260040161122090612689565b60405180910390fd5b6040518060c001604052808781526020018681526020018581526020018481526020018381526020018281525060015f3373ffffffffffffffffffffffffffffffffffffffff1673ffffffffffffffffffffffffffffffffffffffff1681526020019081526020015f205f820151815f015560208201518160010190816112b09190612844565b5060408201518160020190816112c69190612844565b5060608201518160030190816112dc9190612844565b5060808201518160040190816112f29190612844565b5060a08201518160050155905050505050505050565b60055f3373ffffffffffffffffffffffffffffffffffffffff1673ffffffffffffffffffffffffffffffffffffffff1681526020019081526020015f205f9054906101000a900460ff16611391576040517f08c379a000000000000000000000000000000000000000000000000000000000815260040161138890612689565b60405180910390fd5b6040518061016001604052808c81526020018b81526020018a81526020018981526020018881526020018781526020018681526020018581526020018481526020018381526020018281525060025f3373ffffffffffffffffffffffffffffffffffffffff1673ffffffffffffffffffffffffffffffffffffffff1681526020019081526020015f205f820151815f015560208201518160010190816114379190612844565b50604082015181600201908161144d9190612844565b5060608201518160030190816114639190612844565b5060808201518160040190816114799190612844565b5060a082015181600501908161148f9190612844565b5060c08201518160060190816114a59190612844565b5060e08201518160070190816114bb9190612844565b506101008201518160080190816114d29190612844565b506101208201518160090190816114e99190612844565b5061014082015181600a0190816115009190612844565b509050505050505050505050505050565b6003602052805f5260405f205f91509050805f01549080600101549080600201805461153c906125e9565b80601f0160208091040260200160405190810160405280929190818152602001828054611568906125e9565b80156115b35780601f1061158a576101008083540402835291602001916115b3565b820191905f5260205f20905b81548152906001019060200180831161159657829003601f168201915b5050505050908060030154908060040180546115ce906125e9565b80601f01602080910402602001604051908101604052809291908181526020018280546115fa906125e9565b80156116455780601f1061161c57610100808354040283529160200191611645565b820191905f5260205f20905b81548152906001019060200180831161162857829003601f168201915b50505050509080600501805461165a906125e9565b80601f0160208091040260200160405190810160405280929190818152602001828054611686906125e9565b80156116d15780601f106116a8576101008083540402835291602001916116d1565b820191905f5260205f20905b8154815290600101906020018083116116b457829003601f168201915b5050505050908060060180546116e6906125e9565b80601f0160208091040260200160405190810160405280929190818152602001828054611712906125e9565b801561175d5780601f106117345761010080835404028352916020019161175d565b820191905f5260205f20905b81548152906001019060200180831161174057829003601f168201915b505050505090806007018054611772906125e9565b80601f016020809104026020016040519081016040528092919081815260200182805461179e906125e9565b80156117e95780601f106117c0576101008083540402835291602001916117e9565b820191905f5260205f20905b8154815290600101906020018083116117cc57829003601f168201915b5050505050908060080154905089565b60055f3373ffffffffffffffffffffffffffffffffffffffff1673ffffffffffffffffffffffffffffffffffffffff1681526020019081526020015f205f9054906101000a900460ff16611882576040517f08c379a000000000000000000000000000000000000000000000000000000000815260040161187990612689565b60405180910390fd5b6040518061012001604052808a81526020018981526020018881526020018781526020018681526020018581526020018481526020018381526020018281525060035f3373ffffffffffffffffffffffffffffffffffffffff1673ffffffffffffffffffffffffffffffffffffffff1681526020019081526020015f205f820151815f01556020820151816001015560408201518160020190816119269190612844565b506060820151816003015560808201518160040190816119469190612844565b5060a082015181600501908161195c9190612844565b5060c08201518160060190816119729190612844565b5060e08201518160070190816119889190612844565b506101008201518160080155905050505050505050505050565b6005602052805f5260405f205f915054906101000a900460ff1681565b5f604051905090565b5f80fd5b5f80fd5b5f73ffffffffffffffffffffffffffffffffffffffff82169050919050565b5f6119f9826119d0565b9050919050565b611a09816119ef565b8114611a13575f80fd5b50565b5f81359050611a2481611a00565b92915050565b5f60208284031215611a3f57611a3e6119c8565b5b5f611a4c84828501611a16565b91505092915050565b5f819050919050565b611a6781611a55565b82525050565b5f81519050919050565b5f82825260208201905092915050565b5f5b83811015611aa4578082015181840152602081019050611a89565b5f8484015250505050565b5f601f19601f8301169050919050565b5f611ac982611a6d565b611ad38185611a77565b9350611ae3818560208601611a87565b611aec81611aaf565b840191505092915050565b5f61014082019050611b0b5f83018d611a5e565b8181036020830152611b1d818c611abf565b90508181036040830152611b31818b611abf565b90508181036060830152611b45818a611abf565b90508181036080830152611b598189611abf565b905081810360a0830152611b6d8188611abf565b905081810360c0830152611b818187611abf565b905081810360e0830152611b958186611abf565b9050818103610100830152611baa8185611abf565b9050818103610120830152611bbf8184611abf565b90509b9a5050505050505050505050565b5f61016082019050611be45f83018e611a5e565b8181036020830152611bf6818d611abf565b90508181036040830152611c0a818c611abf565b90508181036060830152611c1e818b611abf565b90508181036080830152611c32818a611abf565b905081810360a0830152611c468189611abf565b905081810360c0830152611c5a8188611abf565b905081810360e0830152611c6e8187611abf565b9050818103610100830152611c838186611abf565b9050818103610120830152611c988185611abf565b9050818103610140830152611cad8184611abf565b90509c9b505050505050505050505050565b5f60c082019050611cd25f830189611a5e565b8181036020830152611ce48188611abf565b90508181036040830152611cf88187611abf565b90508181036060830152611d0c8186611abf565b90508181036080830152611d208185611abf565b9050611d2f60a0830184611a5e565b979650505050505050565b611d4381611a55565b8114611d4d575f80fd5b50565b5f81359050611d5e81611d3a565b92915050565b5f80fd5b5f80fd5b7f4e487b71000000000000000000000000000000000000000000000000000000005f52604160045260245ffd5b611da282611aaf565b810181811067ffffffffffffffff82111715611dc157611dc0611d6c565b5b80604052505050565b5f611dd36119bf565b9050611ddf8282611d99565b919050565b5f67ffffffffffffffff821115611dfe57611dfd611d6c565b5b611e0782611aaf565b9050602081019050919050565b828183375f83830152505050565b5f611e34611e2f84611de4565b611dca565b905082815260208101848484011115611e5057611e4f611d68565b5b611e5b848285611e14565b509392505050565b5f82601f830112611e7757611e76611d64565b5b8135611e87848260208601611e22565b91505092915050565b5f805f805f805f805f806101408b8d031215611eaf57611eae6119c8565b5b5f611ebc8d828e01611d50565b9a505060208b013567ffffffffffffffff811115611edd57611edc6119cc565b5b611ee98d828e01611e63565b99505060408b013567ffffffffffffffff811115611f0a57611f096119cc565b5b611f168d828e01611e63565b98505060608b013567ffffffffffffffff811115611f3757611f366119cc565b5b611f438d828e01611e63565b97505060808b013567ffffffffffffffff811115611f6457611f636119cc565b5b611f708d828e01611e63565b96505060a08b013567ffffffffffffffff811115611f9157611f906119cc565b5b611f9d8d828e01611e63565b95505060c08b013567ffffffffffffffff811115611fbe57611fbd6119cc565b5b611fca8d828e01611e63565b94505060e08b013567ffffffffffffffff811115611feb57611fea6119cc565b5b611ff78d828e01611e63565b9350506101008b013567ffffffffffffffff811115612019576120186119cc565b5b6120258d828e01611e63565b9250506101208b013567ffffffffffffffff811115612047576120466119cc565b5b6120538d828e01611e63565b9150509295989b9194979a5092959850565b61206e816119ef565b82525050565b5f6020820190506120875f830184612065565b92915050565b5f805f805f8060c087890312156120a7576120a66119c8565b5b5f6120b489828a01611d50565b965050602087013567ffffffffffffffff8111156120d5576120d46119cc565b5b6120e189828a01611e63565b955050604087013567ffffffffffffffff811115612102576121016119cc565b5b61210e89828a01611e63565b945050606087013567ffffffffffffffff81111561212f5761212e6119cc565b5b61213b89828a01611e63565b935050608087013567ffffffffffffffff81111561215c5761215b6119cc565b5b61216889828a01611e63565b92505060a061217989828a01611d50565b9150509295509295509295565b5f805f805f805f805f805f6101608c8e0312156121a6576121a56119c8565b5b5f6121b38e828f01611d50565b9b505060208c013567ffffffffffffffff8111156121d4576121d36119cc565b5b6121e08e828f01611e63565b9a505060408c013567ffffffffffffffff811115612201576122006119cc565b5b61220d8e828f01611e63565b99505060608c013567ffffffffffffffff81111561222e5761222d6119cc565b5b61223a8e828f01611e63565b98505060808c013567ffffffffffffffff81111561225b5761225a6119cc565b5b6122678e828f01611e63565b97505060a08c013567ffffffffffffffff811115612288576122876119cc565b5b6122948e828f01611e63565b96505060c08c013567ffffffffffffffff8111156122b5576122b46119cc565b5b6122c18e828f01611e63565b95505060e08c013567ffffffffffffffff8111156122e2576122e16119cc565b5b6122ee8e828f01611e63565b9450506101008c013567ffffffffffffffff8111156123105761230f6119cc565b5b61231c8e828f01611e63565b9350506101208c013567ffffffffffffffff81111561233e5761233d6119cc565b5b61234a8e828f01611e63565b9250506101408c013567ffffffffffffffff81111561236c5761236b6119cc565b5b6123788e828f01611e63565b9150509295989b509295989b9093969950565b5f6101208201905061239f5f83018c611a5e565b6123ac602083018b611a5e565b81810360408301526123be818a611abf565b90506123cd6060830189611a5e565b81810360808301526123df8188611abf565b905081810360a08301526123f38187611abf565b905081810360c08301526124078186611abf565b905081810360e083015261241b8185611abf565b905061242b610100830184611a5e565b9a9950505050505050505050565b5f805f805f805f805f6101208a8c031215612457576124566119c8565b5b5f6124648c828d01611d50565b99505060206124758c828d01611d50565b98505060408a013567ffffffffffffffff811115612496576124956119cc565b5b6124a28c828d01611e63565b97505060606124b38c828d01611d50565b96505060808a013567ffffffffffffffff8111156124d4576124d36119cc565b5b6124e08c828d01611e63565b95505060a08a013567ffffffffffffffff811115612501576125006119cc565b5b61250d8c828d01611e63565b94505060c08a013567ffffffffffffffff81111561252e5761252d6119cc565b5b61253a8c828d01611e63565b93505060e08a013567ffffffffffffffff81111561255b5761255a6119cc565b5b6125678c828d01611e63565b9250506101006125798c828d01611d50565b9150509295985092959850929598565b5f8115159050919050565b61259d81612589565b82525050565b5f6020820190506125b65f830184612594565b92915050565b7f4e487b71000000000000000000000000000000000000000000000000000000005f52602260045260245ffd5b5f600282049050600182168061260057607f821691505b602082108103612613576126126125bc565b5b50919050565b7f566f7573206e206574657320706173206175746f7269736520612065666665635f8201527f74756572206365747465206f7065726174696f6e2e0000000000000000000000602082015250565b5f612673603583611a77565b915061267e82612619565b604082019050919050565b5f6020820190508181035f8301526126a081612667565b9050919050565b5f819050815f5260205f209050919050565b5f6020601f8301049050919050565b5f82821b905092915050565b5f600883026127037fffffffffffffffffffffffffffffffffffffffffffffffffffffffffffffffff826126c8565b61270d86836126c8565b95508019841693508086168417925050509392505050565b5f819050919050565b5f61274861274361273e84611a55565b612725565b611a55565b9050919050565b5f819050919050565b6127618361272e565b61277561276d8261274f565b8484546126d4565b825550505050565b5f90565b61278961277d565b612794818484612758565b505050565b5b818110156127b7576127ac5f82612781565b60018101905061279a565b5050565b601f8211156127fc576127cd816126a7565b6127d6846126b9565b810160208510156127e5578190505b6127f96127f1856126b9565b830182612799565b50505b505050565b5f82821c905092915050565b5f61281c5f1984600802612801565b1980831691505092915050565b5f612834838361280d565b9150826002028217905092915050565b61284d82611a6d565b67ffffffffffffffff81111561286657612865611d6c565b5b61287082546125e9565b61287b8282856127bb565b5f60209050601f8311600181146128ac575f841561289a578287015190505b6128a48582612829565b86555061290b565b601f1984166128ba866126a7565b5f5b828110156128e1578489015182556001820191506020850194506020810190506128bc565b868310156128fe57848901516128fa601f89168261280d565b8355505b6001600288020188555050505b50505050505056fea26469706673582212208289b4a8cc936c6be66dd84055b591f337a1163424f91cb60e82489ed696ee4d64736f6c63430008160033",
					"opcodes": "PUSH1 0x80 PUSH1 0x40 MSTORE CALLVALUE DUP1 ISZERO PUSH2 0xF JUMPI PUSH0 DUP1 REVERT JUMPDEST POP CALLER PUSH0 DUP1 PUSH2 0x100 EXP DUP2 SLOAD DUP2 PUSH20 0xFFFFFFFFFFFFFFFFFFFFFFFFFFFFFFFFFFFFFFFF MUL NOT AND SWAP1 DUP4 PUSH20 0xFFFFFFFFFFFFFFFFFFFFFFFFFFFFFFFFFFFFFFFF AND MUL OR SWAP1 SSTORE POP PUSH2 0x2949 DUP1 PUSH2 0x5C PUSH0 CODECOPY PUSH0 RETURN INVALID PUSH1 0x80 PUSH1 0x40 MSTORE CALLVALUE DUP1 ISZERO PUSH2 0xF JUMPI PUSH0 DUP1 REVERT JUMPDEST POP PUSH1 0x4 CALLDATASIZE LT PUSH2 0xA7 JUMPI PUSH0 CALLDATALOAD PUSH1 0xE0 SHR DUP1 PUSH4 0x8DA5CB5B GT PUSH2 0x6F JUMPI DUP1 PUSH4 0x8DA5CB5B EQ PUSH2 0x179 JUMPI DUP1 PUSH4 0x9C2DF0D2 EQ PUSH2 0x197 JUMPI DUP1 PUSH4 0x9EF5C1E3 EQ PUSH2 0x1B3 JUMPI DUP1 PUSH4 0xAD3062E4 EQ PUSH2 0x1CF JUMPI DUP1 PUSH4 0xBEF0BF4F EQ PUSH2 0x207 JUMPI DUP1 PUSH4 0xD86C73B4 EQ PUSH2 0x223 JUMPI PUSH2 0xA7 JUMP JUMPDEST DUP1 PUSH4 0x65EB3035 EQ PUSH2 0xAB JUMPI DUP1 PUSH4 0x6C5AEA72 EQ PUSH2 0xE4 JUMPI DUP1 PUSH4 0x77420711 EQ PUSH2 0xEE JUMPI DUP1 PUSH4 0x8256D51C EQ PUSH2 0x128 JUMPI DUP1 PUSH4 0x8D26AF78 EQ PUSH2 0x15D JUMPI JUMPDEST PUSH0 DUP1 REVERT JUMPDEST PUSH2 0xC5 PUSH1 0x4 DUP1 CALLDATASIZE SUB DUP2 ADD SWAP1 PUSH2 0xC0 SWAP2 SWAP1 PUSH2 0x1A2A JUMP JUMPDEST PUSH2 0x253 JUMP JUMPDEST PUSH1 0x40 MLOAD PUSH2 0xDB SWAP11 SWAP10 SWAP9 SWAP8 SWAP7 SWAP6 SWAP5 SWAP4 SWAP3 SWAP2 SWAP1 PUSH2 0x1AF7 JUMP JUMPDEST PUSH1 0x40 MLOAD DUP1 SWAP2 SUB SWAP1 RETURN JUMPDEST PUSH2 0xEC PUSH2 0x759 JUMP JUMPDEST STOP JUMPDEST PUSH2 0x108 PUSH1 0x4 DUP1 CALLDATASIZE SUB DUP2 ADD SWAP1 PUSH2 0x103 SWAP2 SWAP1 PUSH2 0x1A2A JUMP JUMPDEST PUSH2 0x7B0 JUMP JUMPDEST PUSH1 0x40 MLOAD PUSH2 0x11F SWAP12 SWAP11 SWAP10 SWAP9 SWAP8 SWAP7 SWAP6 SWAP5 SWAP4 SWAP3 SWAP2 SWAP1 PUSH2 0x1BD0 JUMP JUMPDEST PUSH1 0x40 MLOAD DUP1 SWAP2 SUB SWAP1 RETURN JUMPDEST PUSH2 0x142 PUSH1 0x4 DUP1 CALLDATASIZE SUB DUP2 ADD SWAP1 PUSH2 0x13D SWAP2 SWAP1 PUSH2 0x1A2A JUMP JUMPDEST PUSH2 0xD42 JUMP JUMPDEST PUSH1 0x40 MLOAD PUSH2 0x154 SWAP7 SWAP6 SWAP5 SWAP4 SWAP3 SWAP2 SWAP1 PUSH2 0x1CBF JUMP JUMPDEST PUSH1 0x40 MLOAD DUP1 SWAP2 SUB SWAP1 RETURN JUMPDEST PUSH2 0x177 PUSH1 0x4 DUP1 CALLDATASIZE SUB DUP2 ADD SWAP1 PUSH2 0x172 SWAP2 SWAP1 PUSH2 0x1E90 JUMP JUMPDEST PUSH2 0xF92 JUMP JUMPDEST STOP JUMPDEST PUSH2 0x181 PUSH2 0x117D JUMP JUMPDEST PUSH1 0x40 MLOAD PUSH2 0x18E SWAP2 SWAP1 PUSH2 0x2074 JUMP JUMPDEST PUSH1 0x40 MLOAD DUP1 SWAP2 SUB SWAP1 RETURN JUMPDEST PUSH2 0x1B1 PUSH1 0x4 DUP1 CALLDATASIZE SUB DUP2 ADD SWAP1 PUSH2 0x1AC SWAP2 SWAP1 PUSH2 0x208D JUMP JUMPDEST PUSH2 0x11A0 JUMP JUMPDEST STOP JUMPDEST PUSH2 0x1CD PUSH1 0x4 DUP1 CALLDATASIZE SUB DUP2 ADD SWAP1 PUSH2 0x1C8 SWAP2 SWAP1 PUSH2 0x2186 JUMP JUMPDEST PUSH2 0x1308 JUMP JUMPDEST STOP JUMPDEST PUSH2 0x1E9 PUSH1 0x4 DUP1 CALLDATASIZE SUB DUP2 ADD SWAP1 PUSH2 0x1E4 SWAP2 SWAP1 PUSH2 0x1A2A JUMP JUMPDEST PUSH2 0x1511 JUMP JUMPDEST PUSH1 0x40 MLOAD PUSH2 0x1FE SWAP10 SWAP9 SWAP8 SWAP7 SWAP6 SWAP5 SWAP4 SWAP3 SWAP2 SWAP1 PUSH2 0x238B JUMP JUMPDEST PUSH1 0x40 MLOAD DUP1 SWAP2 SUB SWAP1 RETURN JUMPDEST PUSH2 0x221 PUSH1 0x4 DUP1 CALLDATASIZE SUB DUP2 ADD SWAP1 PUSH2 0x21C SWAP2 SWAP1 PUSH2 0x2439 JUMP JUMPDEST PUSH2 0x17F9 JUMP JUMPDEST STOP JUMPDEST PUSH2 0x23D PUSH1 0x4 DUP1 CALLDATASIZE SUB DUP2 ADD SWAP1 PUSH2 0x238 SWAP2 SWAP1 PUSH2 0x1A2A JUMP JUMPDEST PUSH2 0x19A2 JUMP JUMPDEST PUSH1 0x40 MLOAD PUSH2 0x24A SWAP2 SWAP1 PUSH2 0x25A3 JUMP JUMPDEST PUSH1 0x40 MLOAD DUP1 SWAP2 SUB SWAP1 RETURN JUMPDEST PUSH1 0x4 PUSH1 0x20 MSTORE DUP1 PUSH0 MSTORE PUSH1 0x40 PUSH0 KECCAK256 PUSH0 SWAP2 POP SWAP1 POP DUP1 PUSH0 ADD SLOAD SWAP1 DUP1 PUSH1 0x1 ADD DUP1 SLOAD PUSH2 0x278 SWAP1 PUSH2 0x25E9 JUMP JUMPDEST DUP1 PUSH1 0x1F ADD PUSH1 0x20 DUP1 SWAP2 DIV MUL PUSH1 0x20 ADD PUSH1 0x40 MLOAD SWAP1 DUP2 ADD PUSH1 0x40 MSTORE DUP1 SWAP3 SWAP2 SWAP1 DUP2 DUP2 MSTORE PUSH1 0x20 ADD DUP3 DUP1 SLOAD PUSH2 0x2A4 SWAP1 PUSH2 0x25E9 JUMP JUMPDEST DUP1 ISZERO PUSH2 0x2EF JUMPI DUP1 PUSH1 0x1F LT PUSH2 0x2C6 JUMPI PUSH2 0x100 DUP1 DUP4 SLOAD DIV MUL DUP4 MSTORE SWAP2 PUSH1 0x20 ADD SWAP2 PUSH2 0x2EF JUMP JUMPDEST DUP3 ADD SWAP2 SWAP1 PUSH0 MSTORE PUSH1 0x20 PUSH0 KECCAK256 SWAP1 JUMPDEST DUP2 SLOAD DUP2 MSTORE SWAP1 PUSH1 0x1 ADD SWAP1 PUSH1 0x20 ADD DUP1 DUP4 GT PUSH2 0x2D2 JUMPI DUP3 SWAP1 SUB PUSH1 0x1F AND DUP3 ADD SWAP2 JUMPDEST POP POP POP POP POP SWAP1 DUP1 PUSH1 0x2 ADD DUP1 SLOAD PUSH2 0x304 SWAP1 PUSH2 0x25E9 JUMP JUMPDEST DUP1 PUSH1 0x1F ADD PUSH1 0x20 DUP1 SWAP2 DIV MUL PUSH1 0x20 ADD PUSH1 0x40 MLOAD SWAP1 DUP2 ADD PUSH1 0x40 MSTORE DUP1 SWAP3 SWAP2 SWAP1 DUP2 DUP2 MSTORE PUSH1 0x20 ADD DUP3 DUP1 SLOAD PUSH2 0x330 SWAP1 PUSH2 0x25E9 JUMP JUMPDEST DUP1 ISZERO PUSH2 0x37B JUMPI DUP1 PUSH1 0x1F LT PUSH2 0x352 JUMPI PUSH2 0x100 DUP1 DUP4 SLOAD DIV MUL DUP4 MSTORE SWAP2 PUSH1 0x20 ADD SWAP2 PUSH2 0x37B JUMP JUMPDEST DUP3 ADD SWAP2 SWAP1 PUSH0 MSTORE PUSH1 0x20 PUSH0 KECCAK256 SWAP1 JUMPDEST DUP2 SLOAD DUP2 MSTORE SWAP1 PUSH1 0x1 ADD SWAP1 PUSH1 0x20 ADD DUP1 DUP4 GT PUSH2 0x35E JUMPI DUP3 SWAP1 SUB PUSH1 0x1F AND DUP3 ADD SWAP2 JUMPDEST POP POP POP POP POP SWAP1 DUP1 PUSH1 0x3 ADD DUP1 SLOAD PUSH2 0x390 SWAP1 PUSH2 0x25E9 JUMP JUMPDEST DUP1 PUSH1 0x1F ADD PUSH1 0x20 DUP1 SWAP2 DIV MUL PUSH1 0x20 ADD PUSH1 0x40 MLOAD SWAP1 DUP2 ADD PUSH1 0x40 MSTORE DUP1 SWAP3 SWAP2 SWAP1 DUP2 DUP2 MSTORE PUSH1 0x20 ADD DUP3 DUP1 SLOAD PUSH2 0x3BC SWAP1 PUSH2 0x25E9 JUMP JUMPDEST DUP1 ISZERO PUSH2 0x407 JUMPI DUP1 PUSH1 0x1F LT PUSH2 0x3DE JUMPI PUSH2 0x100 DUP1 DUP4 SLOAD DIV MUL DUP4 MSTORE SWAP2 PUSH1 0x20 ADD SWAP2 PUSH2 0x407 JUMP JUMPDEST DUP3 ADD SWAP2 SWAP1 PUSH0 MSTORE PUSH1 0x20 PUSH0 KECCAK256 SWAP1 JUMPDEST DUP2 SLOAD DUP2 MSTORE SWAP1 PUSH1 0x1 ADD SWAP1 PUSH1 0x20 ADD DUP1 DUP4 GT PUSH2 0x3EA JUMPI DUP3 SWAP1 SUB PUSH1 0x1F AND DUP3 ADD SWAP2 JUMPDEST POP POP POP POP POP SWAP1 DUP1 PUSH1 0x4 ADD DUP1 SLOAD PUSH2 0x41C SWAP1 PUSH2 0x25E9 JUMP JUMPDEST DUP1 PUSH1 0x1F ADD PUSH1 0x20 DUP1 SWAP2 DIV MUL PUSH1 0x20 ADD PUSH1 0x40 MLOAD SWAP1 DUP2 ADD PUSH1 0x40 MSTORE DUP1 SWAP3 SWAP2 SWAP1 DUP2 DUP2 MSTORE PUSH1 0x20 ADD DUP3 DUP1 SLOAD PUSH2 0x448 SWAP1 PUSH2 0x25E9 JUMP JUMPDEST DUP1 ISZERO PUSH2 0x493 JUMPI DUP1 PUSH1 0x1F LT PUSH2 0x46A JUMPI PUSH2 0x100 DUP1 DUP4 SLOAD DIV MUL DUP4 MSTORE SWAP2 PUSH1 0x20 ADD SWAP2 PUSH2 0x493 JUMP JUMPDEST DUP3 ADD SWAP2 SWAP1 PUSH0 MSTORE PUSH1 0x20 PUSH0 KECCAK256 SWAP1 JUMPDEST DUP2 SLOAD DUP2 MSTORE SWAP1 PUSH1 0x1 ADD SWAP1 PUSH1 0x20 ADD DUP1 DUP4 GT PUSH2 0x476 JUMPI DUP3 SWAP1 SUB PUSH1 0x1F AND DUP3 ADD SWAP2 JUMPDEST POP POP POP POP POP SWAP1 DUP1 PUSH1 0x5 ADD DUP1 SLOAD PUSH2 0x4A8 SWAP1 PUSH2 0x25E9 JUMP JUMPDEST DUP1 PUSH1 0x1F ADD PUSH1 0x20 DUP1 SWAP2 DIV MUL PUSH1 0x20 ADD PUSH1 0x40 MLOAD SWAP1 DUP2 ADD PUSH1 0x40 MSTORE DUP1 SWAP3 SWAP2 SWAP1 DUP2 DUP2 MSTORE PUSH1 0x20 ADD DUP3 DUP1 SLOAD PUSH2 0x4D4 SWAP1 PUSH2 0x25E9 JUMP JUMPDEST DUP1 ISZERO PUSH2 0x51F JUMPI DUP1 PUSH1 0x1F LT PUSH2 0x4F6 JUMPI PUSH2 0x100 DUP1 DUP4 SLOAD DIV MUL DUP4 MSTORE SWAP2 PUSH1 0x20 ADD SWAP2 PUSH2 0x51F JUMP JUMPDEST DUP3 ADD SWAP2 SWAP1 PUSH0 MSTORE PUSH1 0x20 PUSH0 KECCAK256 SWAP1 JUMPDEST DUP2 SLOAD DUP2 MSTORE SWAP1 PUSH1 0x1 ADD SWAP1 PUSH1 0x20 ADD DUP1 DUP4 GT PUSH2 0x502 JUMPI DUP3 SWAP1 SUB PUSH1 0x1F AND DUP3 ADD SWAP2 JUMPDEST POP POP POP POP POP SWAP1 DUP1 PUSH1 0x6 ADD DUP1 SLOAD PUSH2 0x534 SWAP1 PUSH2 0x25E9 JUMP JUMPDEST DUP1 PUSH1 0x1F ADD PUSH1 0x20 DUP1 SWAP2 DIV MUL PUSH1 0x20 ADD PUSH1 0x40 MLOAD SWAP1 DUP2 ADD PUSH1 0x40 MSTORE DUP1 SWAP3 SWAP2 SWAP1 DUP2 DUP2 MSTORE PUSH1 0x20 ADD DUP3 DUP1 SLOAD PUSH2 0x560 SWAP1 PUSH2 0x25E9 JUMP JUMPDEST DUP1 ISZERO PUSH2 0x5AB JUMPI DUP1 PUSH1 0x1F LT PUSH2 0x582 JUMPI PUSH2 0x100 DUP1 DUP4 SLOAD DIV MUL DUP4 MSTORE SWAP2 PUSH1 0x20 ADD SWAP2 PUSH2 0x5AB JUMP JUMPDEST DUP3 ADD SWAP2 SWAP1 PUSH0 MSTORE PUSH1 0x20 PUSH0 KECCAK256 SWAP1 JUMPDEST DUP2 SLOAD DUP2 MSTORE SWAP1 PUSH1 0x1 ADD SWAP1 PUSH1 0x20 ADD DUP1 DUP4 GT PUSH2 0x58E JUMPI DUP3 SWAP1 SUB PUSH1 0x1F AND DUP3 ADD SWAP2 JUMPDEST POP POP POP POP POP SWAP1 DUP1 PUSH1 0x7 ADD DUP1 SLOAD PUSH2 0x5C0 SWAP1 PUSH2 0x25E9 JUMP JUMPDEST DUP1 PUSH1 0x1F ADD PUSH1 0x20 DUP1 SWAP2 DIV MUL PUSH1 0x20 ADD PUSH1 0x40 MLOAD SWAP1 DUP2 ADD PUSH1 0x40 MSTORE DUP1 SWAP3 SWAP2 SWAP1 DUP2 DUP2 MSTORE PUSH1 0x20 ADD DUP3 DUP1 SLOAD PUSH2 0x5EC SWAP1 PUSH2 0x25E9 JUMP JUMPDEST DUP1 ISZERO PUSH2 0x637 JUMPI DUP1 PUSH1 0x1F LT PUSH2 0x60E JUMPI PUSH2 0x100 DUP1 DUP4 SLOAD DIV MUL DUP4 MSTORE SWAP2 PUSH1 0x20 ADD SWAP2 PUSH2 0x637 JUMP JUMPDEST DUP3 ADD SWAP2 SWAP1 PUSH0 MSTORE PUSH1 0x20 PUSH0 KECCAK256 SWAP1 JUMPDEST DUP2 SLOAD DUP2 MSTORE SWAP1 PUSH1 0x1 ADD SWAP1 PUSH1 0x20 ADD DUP1 DUP4 GT PUSH2 0x61A JUMPI DUP3 SWAP1 SUB PUSH1 0x1F AND DUP3 ADD SWAP2 JUMPDEST POP POP POP POP POP SWAP1 DUP1 PUSH1 0x8 ADD DUP1 SLOAD PUSH2 0x64C SWAP1 PUSH2 0x25E9 JUMP JUMPDEST DUP1 PUSH1 0x1F ADD PUSH1 0x20 DUP1 SWAP2 DIV MUL PUSH1 0x20 ADD PUSH1 0x40 MLOAD SWAP1 DUP2 ADD PUSH1 0x40 MSTORE DUP1 SWAP3 SWAP2 SWAP1 DUP2 DUP2 MSTORE PUSH1 0x20 ADD DUP3 DUP1 SLOAD PUSH2 0x678 SWAP1 PUSH2 0x25E9 JUMP JUMPDEST DUP1 ISZERO PUSH2 0x6C3 JUMPI DUP1 PUSH1 0x1F LT PUSH2 0x69A JUMPI PUSH2 0x100 DUP1 DUP4 SLOAD DIV MUL DUP4 MSTORE SWAP2 PUSH1 0x20 ADD SWAP2 PUSH2 0x6C3 JUMP JUMPDEST DUP3 ADD SWAP2 SWAP1 PUSH0 MSTORE PUSH1 0x20 PUSH0 KECCAK256 SWAP1 JUMPDEST DUP2 SLOAD DUP2 MSTORE SWAP1 PUSH1 0x1 ADD SWAP1 PUSH1 0x20 ADD DUP1 DUP4 GT PUSH2 0x6A6 JUMPI DUP3 SWAP1 SUB PUSH1 0x1F AND DUP3 ADD SWAP2 JUMPDEST POP POP POP POP POP SWAP1 DUP1 PUSH1 0x9 ADD DUP1 SLOAD PUSH2 0x6D8 SWAP1 PUSH2 0x25E9 JUMP JUMPDEST DUP1 PUSH1 0x1F ADD PUSH1 0x20 DUP1 SWAP2 DIV MUL PUSH1 0x20 ADD PUSH1 0x40 MLOAD SWAP1 DUP2 ADD PUSH1 0x40 MSTORE DUP1 SWAP3 SWAP2 SWAP1 DUP2 DUP2 MSTORE PUSH1 0x20 ADD DUP3 DUP1 SLOAD PUSH2 0x704 SWAP1 PUSH2 0x25E9 JUMP JUMPDEST DUP1 ISZERO PUSH2 0x74F JUMPI DUP1 PUSH1 0x1F LT PUSH2 0x726 JUMPI PUSH2 0x100 DUP1 DUP4 SLOAD DIV MUL DUP4 MSTORE SWAP2 PUSH1 0x20 ADD SWAP2 PUSH2 0x74F JUMP JUMPDEST DUP3 ADD SWAP2 SWAP1 PUSH0 MSTORE PUSH1 0x20 PUSH0 KECCAK256 SWAP1 JUMPDEST DUP2 SLOAD DUP2 MSTORE SWAP1 PUSH1 0x1 ADD SWAP1 PUSH1 0x20 ADD DUP1 DUP4 GT PUSH2 0x732 JUMPI DUP3 SWAP1 SUB PUSH1 0x1F AND DUP3 ADD SWAP2 JUMPDEST POP POP POP POP POP SWAP1 POP DUP11 JUMP JUMPDEST PUSH1 0x1 PUSH1 0x5 PUSH0 CALLER PUSH20 0xFFFFFFFFFFFFFFFFFFFFFFFFFFFFFFFFFFFFFFFF AND PUSH20 0xFFFFFFFFFFFFFFFFFFFFFFFFFFFFFFFFFFFFFFFF AND DUP2 MSTORE PUSH1 0x20 ADD SWAP1 DUP2 MSTORE PUSH1 0x20 ADD PUSH0 KECCAK256 PUSH0 PUSH2 0x100 EXP DUP2 SLOAD DUP2 PUSH1 0xFF MUL NOT AND SWAP1 DUP4 ISZERO ISZERO MUL OR SWAP1 SSTORE POP JUMP JUMPDEST PUSH1 0x2 PUSH1 0x20 MSTORE DUP1 PUSH0 MSTORE PUSH1 0x40 PUSH0 KECCAK256 PUSH0 SWAP2 POP SWAP1 POP DUP1 PUSH0 ADD SLOAD SWAP1 DUP1 PUSH1 0x1 ADD DUP1 SLOAD PUSH2 0x7D5 SWAP1 PUSH2 0x25E9 JUMP JUMPDEST DUP1 PUSH1 0x1F ADD PUSH1 0x20 DUP1 SWAP2 DIV MUL PUSH1 0x20 ADD PUSH1 0x40 MLOAD SWAP1 DUP2 ADD PUSH1 0x40 MSTORE DUP1 SWAP3 SWAP2 SWAP1 DUP2 DUP2 MSTORE PUSH1 0x20 ADD DUP3 DUP1 SLOAD PUSH2 0x801 SWAP1 PUSH2 0x25E9 JUMP JUMPDEST DUP1 ISZERO PUSH2 0x84C JUMPI DUP1 PUSH1 0x1F LT PUSH2 0x823 JUMPI PUSH2 0x100 DUP1 DUP4 SLOAD DIV MUL DUP4 MSTORE SWAP2 PUSH1 0x20 ADD SWAP2 PUSH2 0x84C JUMP JUMPDEST DUP3 ADD SWAP2 SWAP1 PUSH0 MSTORE PUSH1 0x20 PUSH0 KECCAK256 SWAP1 JUMPDEST DUP2 SLOAD DUP2 MSTORE SWAP1 PUSH1 0x1 ADD SWAP1 PUSH1 0x20 ADD DUP1 DUP4 GT PUSH2 0x82F JUMPI DUP3 SWAP1 SUB PUSH1 0x1F AND DUP3 ADD SWAP2 JUMPDEST POP POP POP POP POP SWAP1 DUP1 PUSH1 0x2 ADD DUP1 SLOAD PUSH2 0x861 SWAP1 PUSH2 0x25E9 JUMP JUMPDEST DUP1 PUSH1 0x1F ADD PUSH1 0x20 DUP1 SWAP2 DIV MUL PUSH1 0x20 ADD PUSH1 0x40 MLOAD SWAP1 DUP2 ADD PUSH1 0x40 MSTORE DUP1 SWAP3 SWAP2 SWAP1 DUP2 DUP2 MSTORE PUSH1 0x20 ADD DUP3 DUP1 SLOAD PUSH2 0x88D SWAP1 PUSH2 0x25E9 JUMP JUMPDEST DUP1 ISZERO PUSH2 0x8D8 JUMPI DUP1 PUSH1 0x1F LT PUSH2 0x8AF JUMPI PUSH2 0x100 DUP1 DUP4 SLOAD DIV MUL DUP4 MSTORE SWAP2 PUSH1 0x20 ADD SWAP2 PUSH2 0x8D8 JUMP JUMPDEST DUP3 ADD SWAP2 SWAP1 PUSH0 MSTORE PUSH1 0x20 PUSH0 KECCAK256 SWAP1 JUMPDEST DUP2 SLOAD DUP2 MSTORE SWAP1 PUSH1 0x1 ADD SWAP1 PUSH1 0x20 ADD DUP1 DUP4 GT PUSH2 0x8BB JUMPI DUP3 SWAP1 SUB PUSH1 0x1F AND DUP3 ADD SWAP2 JUMPDEST POP POP POP POP POP SWAP1 DUP1 PUSH1 0x3 ADD DUP1 SLOAD PUSH2 0x8ED SWAP1 PUSH2 0x25E9 JUMP JUMPDEST DUP1 PUSH1 0x1F ADD PUSH1 0x20 DUP1 SWAP2 DIV MUL PUSH1 0x20 ADD PUSH1 0x40 MLOAD SWAP1 DUP2 ADD PUSH1 0x40 MSTORE DUP1 SWAP3 SWAP2 SWAP1 DUP2 DUP2 MSTORE PUSH1 0x20 ADD DUP3 DUP1 SLOAD PUSH2 0x919 SWAP1 PUSH2 0x25E9 JUMP JUMPDEST DUP1 ISZERO PUSH2 0x964 JUMPI DUP1 PUSH1 0x1F LT PUSH2 0x93B JUMPI PUSH2 0x100 DUP1 DUP4 SLOAD DIV MUL DUP4 MSTORE SWAP2 PUSH1 0x20 ADD SWAP2 PUSH2 0x964 JUMP JUMPDEST DUP3 ADD SWAP2 SWAP1 PUSH0 MSTORE PUSH1 0x20 PUSH0 KECCAK256 SWAP1 JUMPDEST DUP2 SLOAD DUP2 MSTORE SWAP1 PUSH1 0x1 ADD SWAP1 PUSH1 0x20 ADD DUP1 DUP4 GT PUSH2 0x947 JUMPI DUP3 SWAP1 SUB PUSH1 0x1F AND DUP3 ADD SWAP2 JUMPDEST POP POP POP POP POP SWAP1 DUP1 PUSH1 0x4 ADD DUP1 SLOAD PUSH2 0x979 SWAP1 PUSH2 0x25E9 JUMP JUMPDEST DUP1 PUSH1 0x1F ADD PUSH1 0x20 DUP1 SWAP2 DIV MUL PUSH1 0x20 ADD PUSH1 0x40 MLOAD SWAP1 DUP2 ADD PUSH1 0x40 MSTORE DUP1 SWAP3 SWAP2 SWAP1 DUP2 DUP2 MSTORE PUSH1 0x20 ADD DUP3 DUP1 SLOAD PUSH2 0x9A5 SWAP1 PUSH2 0x25E9 JUMP JUMPDEST DUP1 ISZERO PUSH2 0x9F0 JUMPI DUP1 PUSH1 0x1F LT PUSH2 0x9C7 JUMPI PUSH2 0x100 DUP1 DUP4 SLOAD DIV MUL DUP4 MSTORE SWAP2 PUSH1 0x20 ADD SWAP2 PUSH2 0x9F0 JUMP JUMPDEST DUP3 ADD SWAP2 SWAP1 PUSH0 MSTORE PUSH1 0x20 PUSH0 KECCAK256 SWAP1 JUMPDEST DUP2 SLOAD DUP2 MSTORE SWAP1 PUSH1 0x1 ADD SWAP1 PUSH1 0x20 ADD DUP1 DUP4 GT PUSH2 0x9D3 JUMPI DUP3 SWAP1 SUB PUSH1 0x1F AND DUP3 ADD SWAP2 JUMPDEST POP POP POP POP POP SWAP1 DUP1 PUSH1 0x5 ADD DUP1 SLOAD PUSH2 0xA05 SWAP1 PUSH2 0x25E9 JUMP JUMPDEST DUP1 PUSH1 0x1F ADD PUSH1 0x20 DUP1 SWAP2 DIV MUL PUSH1 0x20 ADD PUSH1 0x40 MLOAD SWAP1 DUP2 ADD PUSH1 0x40 MSTORE DUP1 SWAP3 SWAP2 SWAP1 DUP2 DUP2 MSTORE PUSH1 0x20 ADD DUP3 DUP1 SLOAD PUSH2 0xA31 SWAP1 PUSH2 0x25E9 JUMP JUMPDEST DUP1 ISZERO PUSH2 0xA7C JUMPI DUP1 PUSH1 0x1F LT PUSH2 0xA53 JUMPI PUSH2 0x100 DUP1 DUP4 SLOAD DIV MUL DUP4 MSTORE SWAP2 PUSH1 0x20 ADD SWAP2 PUSH2 0xA7C JUMP JUMPDEST DUP3 ADD SWAP2 SWAP1 PUSH0 MSTORE PUSH1 0x20 PUSH0 KECCAK256 SWAP1 JUMPDEST DUP2 SLOAD DUP2 MSTORE SWAP1 PUSH1 0x1 ADD SWAP1 PUSH1 0x20 ADD DUP1 DUP4 GT PUSH2 0xA5F JUMPI DUP3 SWAP1 SUB PUSH1 0x1F AND DUP3 ADD SWAP2 JUMPDEST POP POP POP POP POP SWAP1 DUP1 PUSH1 0x6 ADD DUP1 SLOAD PUSH2 0xA91 SWAP1 PUSH2 0x25E9 JUMP JUMPDEST DUP1 PUSH1 0x1F ADD PUSH1 0x20 DUP1 SWAP2 DIV MUL PUSH1 0x20 ADD PUSH1 0x40 MLOAD SWAP1 DUP2 ADD PUSH1 0x40 MSTORE DUP1 SWAP3 SWAP2 SWAP1 DUP2 DUP2 MSTORE PUSH1 0x20 ADD DUP3 DUP1 SLOAD PUSH2 0xABD SWAP1 PUSH2 0x25E9 JUMP JUMPDEST DUP1 ISZERO PUSH2 0xB08 JUMPI DUP1 PUSH1 0x1F LT PUSH2 0xADF JUMPI PUSH2 0x100 DUP1 DUP4 SLOAD DIV MUL DUP4 MSTORE SWAP2 PUSH1 0x20 ADD SWAP2 PUSH2 0xB08 JUMP JUMPDEST DUP3 ADD SWAP2 SWAP1 PUSH0 MSTORE PUSH1 0x20 PUSH0 KECCAK256 SWAP1 JUMPDEST DUP2 SLOAD DUP2 MSTORE SWAP1 PUSH1 0x1 ADD SWAP1 PUSH1 0x20 ADD DUP1 DUP4 GT PUSH2 0xAEB JUMPI DUP3 SWAP1 SUB PUSH1 0x1F AND DUP3 ADD SWAP2 JUMPDEST POP POP POP POP POP SWAP1 DUP1 PUSH1 0x7 ADD DUP1 SLOAD PUSH2 0xB1D SWAP1 PUSH2 0x25E9 JUMP JUMPDEST DUP1 PUSH1 0x1F ADD PUSH1 0x20 DUP1 SWAP2 DIV MUL PUSH1 0x20 ADD PUSH1 0x40 MLOAD SWAP1 DUP2 ADD PUSH1 0x40 MSTORE DUP1 SWAP3 SWAP2 SWAP1 DUP2 DUP2 MSTORE PUSH1 0x20 ADD DUP3 DUP1 SLOAD PUSH2 0xB49 SWAP1 PUSH2 0x25E9 JUMP JUMPDEST DUP1 ISZERO PUSH2 0xB94 JUMPI DUP1 PUSH1 0x1F LT PUSH2 0xB6B JUMPI PUSH2 0x100 DUP1 DUP4 SLOAD DIV MUL DUP4 MSTORE SWAP2 PUSH1 0x20 ADD SWAP2 PUSH2 0xB94 JUMP JUMPDEST DUP3 ADD SWAP2 SWAP1 PUSH0 MSTORE PUSH1 0x20 PUSH0 KECCAK256 SWAP1 JUMPDEST DUP2 SLOAD DUP2 MSTORE SWAP1 PUSH1 0x1 ADD SWAP1 PUSH1 0x20 ADD DUP1 DUP4 GT PUSH2 0xB77 JUMPI DUP3 SWAP1 SUB PUSH1 0x1F AND DUP3 ADD SWAP2 JUMPDEST POP POP POP POP POP SWAP1 DUP1 PUSH1 0x8 ADD DUP1 SLOAD PUSH2 0xBA9 SWAP1 PUSH2 0x25E9 JUMP JUMPDEST DUP1 PUSH1 0x1F ADD PUSH1 0x20 DUP1 SWAP2 DIV MUL PUSH1 0x20 ADD PUSH1 0x40 MLOAD SWAP1 DUP2 ADD PUSH1 0x40 MSTORE DUP1 SWAP3 SWAP2 SWAP1 DUP2 DUP2 MSTORE PUSH1 0x20 ADD DUP3 DUP1 SLOAD PUSH2 0xBD5 SWAP1 PUSH2 0x25E9 JUMP JUMPDEST DUP1 ISZERO PUSH2 0xC20 JUMPI DUP1 PUSH1 0x1F LT PUSH2 0xBF7 JUMPI PUSH2 0x100 DUP1 DUP4 SLOAD DIV MUL DUP4 MSTORE SWAP2 PUSH1 0x20 ADD SWAP2 PUSH2 0xC20 JUMP JUMPDEST DUP3 ADD SWAP2 SWAP1 PUSH0 MSTORE PUSH1 0x20 PUSH0 KECCAK256 SWAP1 JUMPDEST DUP2 SLOAD DUP2 MSTORE SWAP1 PUSH1 0x1 ADD SWAP1 PUSH1 0x20 ADD DUP1 DUP4 GT PUSH2 0xC03 JUMPI DUP3 SWAP1 SUB PUSH1 0x1F AND DUP3 ADD SWAP2 JUMPDEST POP POP POP POP POP SWAP1 DUP1 PUSH1 0x9 ADD DUP1 SLOAD PUSH2 0xC35 SWAP1 PUSH2 0x25E9 JUMP JUMPDEST DUP1 PUSH1 0x1F ADD PUSH1 0x20 DUP1 SWAP2 DIV MUL PUSH1 0x20 ADD PUSH1 0x40 MLOAD SWAP1 DUP2 ADD PUSH1 0x40 MSTORE DUP1 SWAP3 SWAP2 SWAP1 DUP2 DUP2 MSTORE PUSH1 0x20 ADD DUP3 DUP1 SLOAD PUSH2 0xC61 SWAP1 PUSH2 0x25E9 JUMP JUMPDEST DUP1 ISZERO PUSH2 0xCAC JUMPI DUP1 PUSH1 0x1F LT PUSH2 0xC83 JUMPI PUSH2 0x100 DUP1 DUP4 SLOAD DIV MUL DUP4 MSTORE SWAP2 PUSH1 0x20 ADD SWAP2 PUSH2 0xCAC JUMP JUMPDEST DUP3 ADD SWAP2 SWAP1 PUSH0 MSTORE PUSH1 0x20 PUSH0 KECCAK256 SWAP1 JUMPDEST DUP2 SLOAD DUP2 MSTORE SWAP1 PUSH1 0x1 ADD SWAP1 PUSH1 0x20 ADD DUP1 DUP4 GT PUSH2 0xC8F JUMPI DUP3 SWAP1 SUB PUSH1 0x1F AND DUP3 ADD SWAP2 JUMPDEST POP POP POP POP POP SWAP1 DUP1 PUSH1 0xA ADD DUP1 SLOAD PUSH2 0xCC1 SWAP1 PUSH2 0x25E9 JUMP JUMPDEST DUP1 PUSH1 0x1F ADD PUSH1 0x20 DUP1 SWAP2 DIV MUL PUSH1 0x20 ADD PUSH1 0x40 MLOAD SWAP1 DUP2 ADD PUSH1 0x40 MSTORE DUP1 SWAP3 SWAP2 SWAP1 DUP2 DUP2 MSTORE PUSH1 0x20 ADD DUP3 DUP1 SLOAD PUSH2 0xCED SWAP1 PUSH2 0x25E9 JUMP JUMPDEST DUP1 ISZERO PUSH2 0xD38 JUMPI DUP1 PUSH1 0x1F LT PUSH2 0xD0F JUMPI PUSH2 0x100 DUP1 DUP4 SLOAD DIV MUL DUP4 MSTORE SWAP2 PUSH1 0x20 ADD SWAP2 PUSH2 0xD38 JUMP JUMPDEST DUP3 ADD SWAP2 SWAP1 PUSH0 MSTORE PUSH1 0x20 PUSH0 KECCAK256 SWAP1 JUMPDEST DUP2 SLOAD DUP2 MSTORE SWAP1 PUSH1 0x1 ADD SWAP1 PUSH1 0x20 ADD DUP1 DUP4 GT PUSH2 0xD1B JUMPI DUP3 SWAP1 SUB PUSH1 0x1F AND DUP3 ADD SWAP2 JUMPDEST POP POP POP POP POP SWAP1 POP DUP12 JUMP JUMPDEST PUSH1 0x1 PUSH1 0x20 MSTORE DUP1 PUSH0 MSTORE PUSH1 0x40 PUSH0 KECCAK256 PUSH0 SWAP2 POP SWAP1 POP DUP1 PUSH0 ADD SLOAD SWAP1 DUP1 PUSH1 0x1 ADD DUP1 SLOAD PUSH2 0xD67 SWAP1 PUSH2 0x25E9 JUMP JUMPDEST DUP1 PUSH1 0x1F ADD PUSH1 0x20 DUP1 SWAP2 DIV MUL PUSH1 0x20 ADD PUSH1 0x40 MLOAD SWAP1 DUP2 ADD PUSH1 0x40 MSTORE DUP1 SWAP3 SWAP2 SWAP1 DUP2 DUP2 MSTORE PUSH1 0x20 ADD DUP3 DUP1 SLOAD PUSH2 0xD93 SWAP1 PUSH2 0x25E9 JUMP JUMPDEST DUP1 ISZERO PUSH2 0xDDE JUMPI DUP1 PUSH1 0x1F LT PUSH2 0xDB5 JUMPI PUSH2 0x100 DUP1 DUP4 SLOAD DIV MUL DUP4 MSTORE SWAP2 PUSH1 0x20 ADD SWAP2 PUSH2 0xDDE JUMP JUMPDEST DUP3 ADD SWAP2 SWAP1 PUSH0 MSTORE PUSH1 0x20 PUSH0 KECCAK256 SWAP1 JUMPDEST DUP2 SLOAD DUP2 MSTORE SWAP1 PUSH1 0x1 ADD SWAP1 PUSH1 0x20 ADD DUP1 DUP4 GT PUSH2 0xDC1 JUMPI DUP3 SWAP1 SUB PUSH1 0x1F AND DUP3 ADD SWAP2 JUMPDEST POP POP POP POP POP SWAP1 DUP1 PUSH1 0x2 ADD DUP1 SLOAD PUSH2 0xDF3 SWAP1 PUSH2 0x25E9 JUMP JUMPDEST DUP1 PUSH1 0x1F ADD PUSH1 0x20 DUP1 SWAP2 DIV MUL PUSH1 0x20 ADD PUSH1 0x40 MLOAD SWAP1 DUP2 ADD PUSH1 0x40 MSTORE DUP1 SWAP3 SWAP2 SWAP1 DUP2 DUP2 MSTORE PUSH1 0x20 ADD DUP3 DUP1 SLOAD PUSH2 0xE1F SWAP1 PUSH2 0x25E9 JUMP JUMPDEST DUP1 ISZERO PUSH2 0xE6A JUMPI DUP1 PUSH1 0x1F LT PUSH2 0xE41 JUMPI PUSH2 0x100 DUP1 DUP4 SLOAD DIV MUL DUP4 MSTORE SWAP2 PUSH1 0x20 ADD SWAP2 PUSH2 0xE6A JUMP JUMPDEST DUP3 ADD SWAP2 SWAP1 PUSH0 MSTORE PUSH1 0x20 PUSH0 KECCAK256 SWAP1 JUMPDEST DUP2 SLOAD DUP2 MSTORE SWAP1 PUSH1 0x1 ADD SWAP1 PUSH1 0x20 ADD DUP1 DUP4 GT PUSH2 0xE4D JUMPI DUP3 SWAP1 SUB PUSH1 0x1F AND DUP3 ADD SWAP2 JUMPDEST POP POP POP POP POP SWAP1 DUP1 PUSH1 0x3 ADD DUP1 SLOAD PUSH2 0xE7F SWAP1 PUSH2 0x25E9 JUMP JUMPDEST DUP1 PUSH1 0x1F ADD PUSH1 0x20 DUP1 SWAP2 DIV MUL PUSH1 0x20 ADD PUSH1 0x40 MLOAD SWAP1 DUP2 ADD PUSH1 0x40 MSTORE DUP1 SWAP3 SWAP2 SWAP1 DUP2 DUP2 MSTORE PUSH1 0x20 ADD DUP3 DUP1 SLOAD PUSH2 0xEAB SWAP1 PUSH2 0x25E9 JUMP JUMPDEST DUP1 ISZERO PUSH2 0xEF6 JUMPI DUP1 PUSH1 0x1F LT PUSH2 0xECD JUMPI PUSH2 0x100 DUP1 DUP4 SLOAD DIV MUL DUP4 MSTORE SWAP2 PUSH1 0x20 ADD SWAP2 PUSH2 0xEF6 JUMP JUMPDEST DUP3 ADD SWAP2 SWAP1 PUSH0 MSTORE PUSH1 0x20 PUSH0 KECCAK256 SWAP1 JUMPDEST DUP2 SLOAD DUP2 MSTORE SWAP1 PUSH1 0x1 ADD SWAP1 PUSH1 0x20 ADD DUP1 DUP4 GT PUSH2 0xED9 JUMPI DUP3 SWAP1 SUB PUSH1 0x1F AND DUP3 ADD SWAP2 JUMPDEST POP POP POP POP POP SWAP1 DUP1 PUSH1 0x4 ADD DUP1 SLOAD PUSH2 0xF0B SWAP1 PUSH2 0x25E9 JUMP JUMPDEST DUP1 PUSH1 0x1F ADD PUSH1 0x20 DUP1 SWAP2 DIV MUL PUSH1 0x20 ADD PUSH1 0x40 MLOAD SWAP1 DUP2 ADD PUSH1 0x40 MSTORE DUP1 SWAP3 SWAP2 SWAP1 DUP2 DUP2 MSTORE PUSH1 0x20 ADD DUP3 DUP1 SLOAD PUSH2 0xF37 SWAP1 PUSH2 0x25E9 JUMP JUMPDEST DUP1 ISZERO PUSH2 0xF82 JUMPI DUP1 PUSH1 0x1F LT PUSH2 0xF59 JUMPI PUSH2 0x100 DUP1 DUP4 SLOAD DIV MUL DUP4 MSTORE SWAP2 PUSH1 0x20 ADD SWAP2 PUSH2 0xF82 JUMP JUMPDEST DUP3 ADD SWAP2 SWAP1 PUSH0 MSTORE PUSH1 0x20 PUSH0 KECCAK256 SWAP1 JUMPDEST DUP2 SLOAD DUP2 MSTORE SWAP1 PUSH1 0x1 ADD SWAP1 PUSH1 0x20 ADD DUP1 DUP4 GT PUSH2 0xF65 JUMPI DUP3 SWAP1 SUB PUSH1 0x1F AND DUP3 ADD SWAP2 JUMPDEST POP POP POP POP POP SWAP1 DUP1 PUSH1 0x5 ADD SLOAD SWAP1 POP DUP7 JUMP JUMPDEST PUSH1 0x5 PUSH0 CALLER PUSH20 0xFFFFFFFFFFFFFFFFFFFFFFFFFFFFFFFFFFFFFFFF AND PUSH20 0xFFFFFFFFFFFFFFFFFFFFFFFFFFFFFFFFFFFFFFFF AND DUP2 MSTORE PUSH1 0x20 ADD SWAP1 DUP2 MSTORE PUSH1 0x20 ADD PUSH0 KECCAK256 PUSH0 SWAP1 SLOAD SWAP1 PUSH2 0x100 EXP SWAP1 DIV PUSH1 0xFF AND PUSH2 0x101B JUMPI PUSH1 0x40 MLOAD PUSH32 0x8C379A000000000000000000000000000000000000000000000000000000000 DUP2 MSTORE PUSH1 0x4 ADD PUSH2 0x1012 SWAP1 PUSH2 0x2689 JUMP JUMPDEST PUSH1 0x40 MLOAD DUP1 SWAP2 SUB SWAP1 REVERT JUMPDEST PUSH1 0x40 MLOAD DUP1 PUSH2 0x140 ADD PUSH1 0x40 MSTORE DUP1 DUP12 DUP2 MSTORE PUSH1 0x20 ADD DUP11 DUP2 MSTORE PUSH1 0x20 ADD DUP10 DUP2 MSTORE PUSH1 0x20 ADD DUP9 DUP2 MSTORE PUSH1 0x20 ADD DUP8 DUP2 MSTORE PUSH1 0x20 ADD DUP7 DUP2 MSTORE PUSH1 0x20 ADD DUP6 DUP2 MSTORE PUSH1 0x20 ADD DUP5 DUP2 MSTORE PUSH1 0x20 ADD DUP4 DUP2 MSTORE PUSH1 0x20 ADD DUP3 DUP2 MSTORE POP PUSH1 0x4 PUSH0 CALLER PUSH20 0xFFFFFFFFFFFFFFFFFFFFFFFFFFFFFFFFFFFFFFFF AND PUSH20 0xFFFFFFFFFFFFFFFFFFFFFFFFFFFFFFFFFFFFFFFF AND DUP2 MSTORE PUSH1 0x20 ADD SWAP1 DUP2 MSTORE PUSH1 0x20 ADD PUSH0 KECCAK256 PUSH0 DUP3 ADD MLOAD DUP2 PUSH0 ADD SSTORE PUSH1 0x20 DUP3 ADD MLOAD DUP2 PUSH1 0x1 ADD SWAP1 DUP2 PUSH2 0x10BB SWAP2 SWAP1 PUSH2 0x2844 JUMP JUMPDEST POP PUSH1 0x40 DUP3 ADD MLOAD DUP2 PUSH1 0x2 ADD SWAP1 DUP2 PUSH2 0x10D1 SWAP2 SWAP1 PUSH2 0x2844 JUMP JUMPDEST POP PUSH1 0x60 DUP3 ADD MLOAD DUP2 PUSH1 0x3 ADD SWAP1 DUP2 PUSH2 0x10E7 SWAP2 SWAP1 PUSH2 0x2844 JUMP JUMPDEST POP PUSH1 0x80 DUP3 ADD MLOAD DUP2 PUSH1 0x4 ADD SWAP1 DUP2 PUSH2 0x10FD SWAP2 SWAP1 PUSH2 0x2844 JUMP JUMPDEST POP PUSH1 0xA0 DUP3 ADD MLOAD DUP2 PUSH1 0x5 ADD SWAP1 DUP2 PUSH2 0x1113 SWAP2 SWAP1 PUSH2 0x2844 JUMP JUMPDEST POP PUSH1 0xC0 DUP3 ADD MLOAD DUP2 PUSH1 0x6 ADD SWAP1 DUP2 PUSH2 0x1129 SWAP2 SWAP1 PUSH2 0x2844 JUMP JUMPDEST POP PUSH1 0xE0 DUP3 ADD MLOAD DUP2 PUSH1 0x7 ADD SWAP1 DUP2 PUSH2 0x113F SWAP2 SWAP1 PUSH2 0x2844 JUMP JUMPDEST POP PUSH2 0x100 DUP3 ADD MLOAD DUP2 PUSH1 0x8 ADD SWAP1 DUP2 PUSH2 0x1156 SWAP2 SWAP1 PUSH2 0x2844 JUMP JUMPDEST POP PUSH2 0x120 DUP3 ADD MLOAD DUP2 PUSH1 0x9 ADD SWAP1 DUP2 PUSH2 0x116D SWAP2 SWAP1 PUSH2 0x2844 JUMP JUMPDEST POP SWAP1 POP POP POP POP POP POP POP POP POP POP POP POP JUMP JUMPDEST PUSH0 DUP1 SLOAD SWAP1 PUSH2 0x100 EXP SWAP1 DIV PUSH20 0xFFFFFFFFFFFFFFFFFFFFFFFFFFFFFFFFFFFFFFFF AND DUP2 JUMP JUMPDEST PUSH1 0x5 PUSH0 CALLER PUSH20 0xFFFFFFFFFFFFFFFFFFFFFFFFFFFFFFFFFFFFFFFF AND PUSH20 0xFFFFFFFFFFFFFFFFFFFFFFFFFFFFFFFFFFFFFFFF AND DUP2 MSTORE PUSH1 0x20 ADD SWAP1 DUP2 MSTORE PUSH1 0x20 ADD PUSH0 KECCAK256 PUSH0 SWAP1 SLOAD SWAP1 PUSH2 0x100 EXP SWAP1 DIV PUSH1 0xFF AND PUSH2 0x1229 JUMPI PUSH1 0x40 MLOAD PUSH32 0x8C379A000000000000000000000000000000000000000000000000000000000 DUP2 MSTORE PUSH1 0x4 ADD PUSH2 0x1220 SWAP1 PUSH2 0x2689 JUMP JUMPDEST PUSH1 0x40 MLOAD DUP1 SWAP2 SUB SWAP1 REVERT JUMPDEST PUSH1 0x40 MLOAD DUP1 PUSH1 0xC0 ADD PUSH1 0x40 MSTORE DUP1 DUP8 DUP2 MSTORE PUSH1 0x20 ADD DUP7 DUP2 MSTORE PUSH1 0x20 ADD DUP6 DUP2 MSTORE PUSH1 0x20 ADD DUP5 DUP2 MSTORE PUSH1 0x20 ADD DUP4 DUP2 MSTORE PUSH1 0x20 ADD DUP3 DUP2 MSTORE POP PUSH1 0x1 PUSH0 CALLER PUSH20 0xFFFFFFFFFFFFFFFFFFFFFFFFFFFFFFFFFFFFFFFF AND PUSH20 0xFFFFFFFFFFFFFFFFFFFFFFFFFFFFFFFFFFFFFFFF AND DUP2 MSTORE PUSH1 0x20 ADD SWAP1 DUP2 MSTORE PUSH1 0x20 ADD PUSH0 KECCAK256 PUSH0 DUP3 ADD MLOAD DUP2 PUSH0 ADD SSTORE PUSH1 0x20 DUP3 ADD MLOAD DUP2 PUSH1 0x1 ADD SWAP1 DUP2 PUSH2 0x12B0 SWAP2 SWAP1 PUSH2 0x2844 JUMP JUMPDEST POP PUSH1 0x40 DUP3 ADD MLOAD DUP2 PUSH1 0x2 ADD SWAP1 DUP2 PUSH2 0x12C6 SWAP2 SWAP1 PUSH2 0x2844 JUMP JUMPDEST POP PUSH1 0x60 DUP3 ADD MLOAD DUP2 PUSH1 0x3 ADD SWAP1 DUP2 PUSH2 0x12DC SWAP2 SWAP1 PUSH2 0x2844 JUMP JUMPDEST POP PUSH1 0x80 DUP3 ADD MLOAD DUP2 PUSH1 0x4 ADD SWAP1 DUP2 PUSH2 0x12F2 SWAP2 SWAP1 PUSH2 0x2844 JUMP JUMPDEST POP PUSH1 0xA0 DUP3 ADD MLOAD DUP2 PUSH1 0x5 ADD SSTORE SWAP1 POP POP POP POP POP POP POP POP JUMP JUMPDEST PUSH1 0x5 PUSH0 CALLER PUSH20 0xFFFFFFFFFFFFFFFFFFFFFFFFFFFFFFFFFFFFFFFF AND PUSH20 0xFFFFFFFFFFFFFFFFFFFFFFFFFFFFFFFFFFFFFFFF AND DUP2 MSTORE PUSH1 0x20 ADD SWAP1 DUP2 MSTORE PUSH1 0x20 ADD PUSH0 KECCAK256 PUSH0 SWAP1 SLOAD SWAP1 PUSH2 0x100 EXP SWAP1 DIV PUSH1 0xFF AND PUSH2 0x1391 JUMPI PUSH1 0x40 MLOAD PUSH32 0x8C379A000000000000000000000000000000000000000000000000000000000 DUP2 MSTORE PUSH1 0x4 ADD PUSH2 0x1388 SWAP1 PUSH2 0x2689 JUMP JUMPDEST PUSH1 0x40 MLOAD DUP1 SWAP2 SUB SWAP1 REVERT JUMPDEST PUSH1 0x40 MLOAD DUP1 PUSH2 0x160 ADD PUSH1 0x40 MSTORE DUP1 DUP13 DUP2 MSTORE PUSH1 0x20 ADD DUP12 DUP2 MSTORE PUSH1 0x20 ADD DUP11 DUP2 MSTORE PUSH1 0x20 ADD DUP10 DUP2 MSTORE PUSH1 0x20 ADD DUP9 DUP2 MSTORE PUSH1 0x20 ADD DUP8 DUP2 MSTORE PUSH1 0x20 ADD DUP7 DUP2 MSTORE PUSH1 0x20 ADD DUP6 DUP2 MSTORE PUSH1 0x20 ADD DUP5 DUP2 MSTORE PUSH1 0x20 ADD DUP4 DUP2 MSTORE PUSH1 0x20 ADD DUP3 DUP2 MSTORE POP PUSH1 0x2 PUSH0 CALLER PUSH20 0xFFFFFFFFFFFFFFFFFFFFFFFFFFFFFFFFFFFFFFFF AND PUSH20 0xFFFFFFFFFFFFFFFFFFFFFFFFFFFFFFFFFFFFFFFF AND DUP2 MSTORE PUSH1 0x20 ADD SWAP1 DUP2 MSTORE PUSH1 0x20 ADD PUSH0 KECCAK256 PUSH0 DUP3 ADD MLOAD DUP2 PUSH0 ADD SSTORE PUSH1 0x20 DUP3 ADD MLOAD DUP2 PUSH1 0x1 ADD SWAP1 DUP2 PUSH2 0x1437 SWAP2 SWAP1 PUSH2 0x2844 JUMP JUMPDEST POP PUSH1 0x40 DUP3 ADD MLOAD DUP2 PUSH1 0x2 ADD SWAP1 DUP2 PUSH2 0x144D SWAP2 SWAP1 PUSH2 0x2844 JUMP JUMPDEST POP PUSH1 0x60 DUP3 ADD MLOAD DUP2 PUSH1 0x3 ADD SWAP1 DUP2 PUSH2 0x1463 SWAP2 SWAP1 PUSH2 0x2844 JUMP JUMPDEST POP PUSH1 0x80 DUP3 ADD MLOAD DUP2 PUSH1 0x4 ADD SWAP1 DUP2 PUSH2 0x1479 SWAP2 SWAP1 PUSH2 0x2844 JUMP JUMPDEST POP PUSH1 0xA0 DUP3 ADD MLOAD DUP2 PUSH1 0x5 ADD SWAP1 DUP2 PUSH2 0x148F SWAP2 SWAP1 PUSH2 0x2844 JUMP JUMPDEST POP PUSH1 0xC0 DUP3 ADD MLOAD DUP2 PUSH1 0x6 ADD SWAP1 DUP2 PUSH2 0x14A5 SWAP2 SWAP1 PUSH2 0x2844 JUMP JUMPDEST POP PUSH1 0xE0 DUP3 ADD MLOAD DUP2 PUSH1 0x7 ADD SWAP1 DUP2 PUSH2 0x14BB SWAP2 SWAP1 PUSH2 0x2844 JUMP JUMPDEST POP PUSH2 0x100 DUP3 ADD MLOAD DUP2 PUSH1 0x8 ADD SWAP1 DUP2 PUSH2 0x14D2 SWAP2 SWAP1 PUSH2 0x2844 JUMP JUMPDEST POP PUSH2 0x120 DUP3 ADD MLOAD DUP2 PUSH1 0x9 ADD SWAP1 DUP2 PUSH2 0x14E9 SWAP2 SWAP1 PUSH2 0x2844 JUMP JUMPDEST POP PUSH2 0x140 DUP3 ADD MLOAD DUP2 PUSH1 0xA ADD SWAP1 DUP2 PUSH2 0x1500 SWAP2 SWAP1 PUSH2 0x2844 JUMP JUMPDEST POP SWAP1 POP POP POP POP POP POP POP POP POP POP POP POP POP JUMP JUMPDEST PUSH1 0x3 PUSH1 0x20 MSTORE DUP1 PUSH0 MSTORE PUSH1 0x40 PUSH0 KECCAK256 PUSH0 SWAP2 POP SWAP1 POP DUP1 PUSH0 ADD SLOAD SWAP1 DUP1 PUSH1 0x1 ADD SLOAD SWAP1 DUP1 PUSH1 0x2 ADD DUP1 SLOAD PUSH2 0x153C SWAP1 PUSH2 0x25E9 JUMP JUMPDEST DUP1 PUSH1 0x1F ADD PUSH1 0x20 DUP1 SWAP2 DIV MUL PUSH1 0x20 ADD PUSH1 0x40 MLOAD SWAP1 DUP2 ADD PUSH1 0x40 MSTORE DUP1 SWAP3 SWAP2 SWAP1 DUP2 DUP2 MSTORE PUSH1 0x20 ADD DUP3 DUP1 SLOAD PUSH2 0x1568 SWAP1 PUSH2 0x25E9 JUMP JUMPDEST DUP1 ISZERO PUSH2 0x15B3 JUMPI DUP1 PUSH1 0x1F LT PUSH2 0x158A JUMPI PUSH2 0x100 DUP1 DUP4 SLOAD DIV MUL DUP4 MSTORE SWAP2 PUSH1 0x20 ADD SWAP2 PUSH2 0x15B3 JUMP JUMPDEST DUP3 ADD SWAP2 SWAP1 PUSH0 MSTORE PUSH1 0x20 PUSH0 KECCAK256 SWAP1 JUMPDEST DUP2 SLOAD DUP2 MSTORE SWAP1 PUSH1 0x1 ADD SWAP1 PUSH1 0x20 ADD DUP1 DUP4 GT PUSH2 0x1596 JUMPI DUP3 SWAP1 SUB PUSH1 0x1F AND DUP3 ADD SWAP2 JUMPDEST POP POP POP POP POP SWAP1 DUP1 PUSH1 0x3 ADD SLOAD SWAP1 DUP1 PUSH1 0x4 ADD DUP1 SLOAD PUSH2 0x15CE SWAP1 PUSH2 0x25E9 JUMP JUMPDEST DUP1 PUSH1 0x1F ADD PUSH1 0x20 DUP1 SWAP2 DIV MUL PUSH1 0x20 ADD PUSH1 0x40 MLOAD SWAP1 DUP2 ADD PUSH1 0x40 MSTORE DUP1 SWAP3 SWAP2 SWAP1 DUP2 DUP2 MSTORE PUSH1 0x20 ADD DUP3 DUP1 SLOAD PUSH2 0x15FA SWAP1 PUSH2 0x25E9 JUMP JUMPDEST DUP1 ISZERO PUSH2 0x1645 JUMPI DUP1 PUSH1 0x1F LT PUSH2 0x161C JUMPI PUSH2 0x100 DUP1 DUP4 SLOAD DIV MUL DUP4 MSTORE SWAP2 PUSH1 0x20 ADD SWAP2 PUSH2 0x1645 JUMP JUMPDEST DUP3 ADD SWAP2 SWAP1 PUSH0 MSTORE PUSH1 0x20 PUSH0 KECCAK256 SWAP1 JUMPDEST DUP2 SLOAD DUP2 MSTORE SWAP1 PUSH1 0x1 ADD SWAP1 PUSH1 0x20 ADD DUP1 DUP4 GT PUSH2 0x1628 JUMPI DUP3 SWAP1 SUB PUSH1 0x1F AND DUP3 ADD SWAP2 JUMPDEST POP POP POP POP POP SWAP1 DUP1 PUSH1 0x5 ADD DUP1 SLOAD PUSH2 0x165A SWAP1 PUSH2 0x25E9 JUMP JUMPDEST DUP1 PUSH1 0x1F ADD PUSH1 0x20 DUP1 SWAP2 DIV MUL PUSH1 0x20 ADD PUSH1 0x40 MLOAD SWAP1 DUP2 ADD PUSH1 0x40 MSTORE DUP1 SWAP3 SWAP2 SWAP1 DUP2 DUP2 MSTORE PUSH1 0x20 ADD DUP3 DUP1 SLOAD PUSH2 0x1686 SWAP1 PUSH2 0x25E9 JUMP JUMPDEST DUP1 ISZERO PUSH2 0x16D1 JUMPI DUP1 PUSH1 0x1F LT PUSH2 0x16A8 JUMPI PUSH2 0x100 DUP1 DUP4 SLOAD DIV MUL DUP4 MSTORE SWAP2 PUSH1 0x20 ADD SWAP2 PUSH2 0x16D1 JUMP JUMPDEST DUP3 ADD SWAP2 SWAP1 PUSH0 MSTORE PUSH1 0x20 PUSH0 KECCAK256 SWAP1 JUMPDEST DUP2 SLOAD DUP2 MSTORE SWAP1 PUSH1 0x1 ADD SWAP1 PUSH1 0x20 ADD DUP1 DUP4 GT PUSH2 0x16B4 JUMPI DUP3 SWAP1 SUB PUSH1 0x1F AND DUP3 ADD SWAP2 JUMPDEST POP POP POP POP POP SWAP1 DUP1 PUSH1 0x6 ADD DUP1 SLOAD PUSH2 0x16E6 SWAP1 PUSH2 0x25E9 JUMP JUMPDEST DUP1 PUSH1 0x1F ADD PUSH1 0x20 DUP1 SWAP2 DIV MUL PUSH1 0x20 ADD PUSH1 0x40 MLOAD SWAP1 DUP2 ADD PUSH1 0x40 MSTORE DUP1 SWAP3 SWAP2 SWAP1 DUP2 DUP2 MSTORE PUSH1 0x20 ADD DUP3 DUP1 SLOAD PUSH2 0x1712 SWAP1 PUSH2 0x25E9 JUMP JUMPDEST DUP1 ISZERO PUSH2 0x175D JUMPI DUP1 PUSH1 0x1F LT PUSH2 0x1734 JUMPI PUSH2 0x100 DUP1 DUP4 SLOAD DIV MUL DUP4 MSTORE SWAP2 PUSH1 0x20 ADD SWAP2 PUSH2 0x175D JUMP JUMPDEST DUP3 ADD SWAP2 SWAP1 PUSH0 MSTORE PUSH1 0x20 PUSH0 KECCAK256 SWAP1 JUMPDEST DUP2 SLOAD DUP2 MSTORE SWAP1 PUSH1 0x1 ADD SWAP1 PUSH1 0x20 ADD DUP1 DUP4 GT PUSH2 0x1740 JUMPI DUP3 SWAP1 SUB PUSH1 0x1F AND DUP3 ADD SWAP2 JUMPDEST POP POP POP POP POP SWAP1 DUP1 PUSH1 0x7 ADD DUP1 SLOAD PUSH2 0x1772 SWAP1 PUSH2 0x25E9 JUMP JUMPDEST DUP1 PUSH1 0x1F ADD PUSH1 0x20 DUP1 SWAP2 DIV MUL PUSH1 0x20 ADD PUSH1 0x40 MLOAD SWAP1 DUP2 ADD PUSH1 0x40 MSTORE DUP1 SWAP3 SWAP2 SWAP1 DUP2 DUP2 MSTORE PUSH1 0x20 ADD DUP3 DUP1 SLOAD PUSH2 0x179E SWAP1 PUSH2 0x25E9 JUMP JUMPDEST DUP1 ISZERO PUSH2 0x17E9 JUMPI DUP1 PUSH1 0x1F LT PUSH2 0x17C0 JUMPI PUSH2 0x100 DUP1 DUP4 SLOAD DIV MUL DUP4 MSTORE SWAP2 PUSH1 0x20 ADD SWAP2 PUSH2 0x17E9 JUMP JUMPDEST DUP3 ADD SWAP2 SWAP1 PUSH0 MSTORE PUSH1 0x20 PUSH0 KECCAK256 SWAP1 JUMPDEST DUP2 SLOAD DUP2 MSTORE SWAP1 PUSH1 0x1 ADD SWAP1 PUSH1 0x20 ADD DUP1 DUP4 GT PUSH2 0x17CC JUMPI DUP3 SWAP1 SUB PUSH1 0x1F AND DUP3 ADD SWAP2 JUMPDEST POP POP POP POP POP SWAP1 DUP1 PUSH1 0x8 ADD SLOAD SWAP1 POP DUP10 JUMP JUMPDEST PUSH1 0x5 PUSH0 CALLER PUSH20 0xFFFFFFFFFFFFFFFFFFFFFFFFFFFFFFFFFFFFFFFF AND PUSH20 0xFFFFFFFFFFFFFFFFFFFFFFFFFFFFFFFFFFFFFFFF AND DUP2 MSTORE PUSH1 0x20 ADD SWAP1 DUP2 MSTORE PUSH1 0x20 ADD PUSH0 KECCAK256 PUSH0 SWAP1 SLOAD SWAP1 PUSH2 0x100 EXP SWAP1 DIV PUSH1 0xFF AND PUSH2 0x1882 JUMPI PUSH1 0x40 MLOAD PUSH32 0x8C379A000000000000000000000000000000000000000000000000000000000 DUP2 MSTORE PUSH1 0x4 ADD PUSH2 0x1879 SWAP1 PUSH2 0x2689 JUMP JUMPDEST PUSH1 0x40 MLOAD DUP1 SWAP2 SUB SWAP1 REVERT JUMPDEST PUSH1 0x40 MLOAD DUP1 PUSH2 0x120 ADD PUSH1 0x40 MSTORE DUP1 DUP11 DUP2 MSTORE PUSH1 0x20 ADD DUP10 DUP2 MSTORE PUSH1 0x20 ADD DUP9 DUP2 MSTORE PUSH1 0x20 ADD DUP8 DUP2 MSTORE PUSH1 0x20 ADD DUP7 DUP2 MSTORE PUSH1 0x20 ADD DUP6 DUP2 MSTORE PUSH1 0x20 ADD DUP5 DUP2 MSTORE PUSH1 0x20 ADD DUP4 DUP2 MSTORE PUSH1 0x20 ADD DUP3 DUP2 MSTORE POP PUSH1 0x3 PUSH0 CALLER PUSH20 0xFFFFFFFFFFFFFFFFFFFFFFFFFFFFFFFFFFFFFFFF AND PUSH20 0xFFFFFFFFFFFFFFFFFFFFFFFFFFFFFFFFFFFFFFFF AND DUP2 MSTORE PUSH1 0x20 ADD SWAP1 DUP2 MSTORE PUSH1 0x20 ADD PUSH0 KECCAK256 PUSH0 DUP3 ADD MLOAD DUP2 PUSH0 ADD SSTORE PUSH1 0x20 DUP3 ADD MLOAD DUP2 PUSH1 0x1 ADD SSTORE PUSH1 0x40 DUP3 ADD MLOAD DUP2 PUSH1 0x2 ADD SWAP1 DUP2 PUSH2 0x1926 SWAP2 SWAP1 PUSH2 0x2844 JUMP JUMPDEST POP PUSH1 0x60 DUP3 ADD MLOAD DUP2 PUSH1 0x3 ADD SSTORE PUSH1 0x80 DUP3 ADD MLOAD DUP2 PUSH1 0x4 ADD SWAP1 DUP2 PUSH2 0x1946 SWAP2 SWAP1 PUSH2 0x2844 JUMP JUMPDEST POP PUSH1 0xA0 DUP3 ADD MLOAD DUP2 PUSH1 0x5 ADD SWAP1 DUP2 PUSH2 0x195C SWAP2 SWAP1 PUSH2 0x2844 JUMP JUMPDEST POP PUSH1 0xC0 DUP3 ADD MLOAD DUP2 PUSH1 0x6 ADD SWAP1 DUP2 PUSH2 0x1972 SWAP2 SWAP1 PUSH2 0x2844 JUMP JUMPDEST POP PUSH1 0xE0 DUP3 ADD MLOAD DUP2 PUSH1 0x7 ADD SWAP1 DUP2 PUSH2 0x1988 SWAP2 SWAP1 PUSH2 0x2844 JUMP JUMPDEST POP PUSH2 0x100 DUP3 ADD MLOAD DUP2 PUSH1 0x8 ADD SSTORE SWAP1 POP POP POP POP POP POP POP POP POP POP POP JUMP JUMPDEST PUSH1 0x5 PUSH1 0x20 MSTORE DUP1 PUSH0 MSTORE PUSH1 0x40 PUSH0 KECCAK256 PUSH0 SWAP2 POP SLOAD SWAP1 PUSH2 0x100 EXP SWAP1 DIV PUSH1 0xFF AND DUP2 JUMP JUMPDEST PUSH0 PUSH1 0x40 MLOAD SWAP1 POP SWAP1 JUMP JUMPDEST PUSH0 DUP1 REVERT JUMPDEST PUSH0 DUP1 REVERT JUMPDEST PUSH0 PUSH20 0xFFFFFFFFFFFFFFFFFFFFFFFFFFFFFFFFFFFFFFFF DUP3 AND SWAP1 POP SWAP2 SWAP1 POP JUMP JUMPDEST PUSH0 PUSH2 0x19F9 DUP3 PUSH2 0x19D0 JUMP JUMPDEST SWAP1 POP SWAP2 SWAP1 POP JUMP JUMPDEST PUSH2 0x1A09 DUP2 PUSH2 0x19EF JUMP JUMPDEST DUP2 EQ PUSH2 0x1A13 JUMPI PUSH0 DUP1 REVERT JUMPDEST POP JUMP JUMPDEST PUSH0 DUP2 CALLDATALOAD SWAP1 POP PUSH2 0x1A24 DUP2 PUSH2 0x1A00 JUMP JUMPDEST SWAP3 SWAP2 POP POP JUMP JUMPDEST PUSH0 PUSH1 0x20 DUP3 DUP5 SUB SLT ISZERO PUSH2 0x1A3F JUMPI PUSH2 0x1A3E PUSH2 0x19C8 JUMP JUMPDEST JUMPDEST PUSH0 PUSH2 0x1A4C DUP5 DUP3 DUP6 ADD PUSH2 0x1A16 JUMP JUMPDEST SWAP2 POP POP SWAP3 SWAP2 POP POP JUMP JUMPDEST PUSH0 DUP2 SWAP1 POP SWAP2 SWAP1 POP JUMP JUMPDEST PUSH2 0x1A67 DUP2 PUSH2 0x1A55 JUMP JUMPDEST DUP3 MSTORE POP POP JUMP JUMPDEST PUSH0 DUP2 MLOAD SWAP1 POP SWAP2 SWAP1 POP JUMP JUMPDEST PUSH0 DUP3 DUP3 MSTORE PUSH1 0x20 DUP3 ADD SWAP1 POP SWAP3 SWAP2 POP POP JUMP JUMPDEST PUSH0 JUMPDEST DUP4 DUP2 LT ISZERO PUSH2 0x1AA4 JUMPI DUP1 DUP3 ADD MLOAD DUP2 DUP5 ADD MSTORE PUSH1 0x20 DUP2 ADD SWAP1 POP PUSH2 0x1A89 JUMP JUMPDEST PUSH0 DUP5 DUP5 ADD MSTORE POP POP POP POP JUMP JUMPDEST PUSH0 PUSH1 0x1F NOT PUSH1 0x1F DUP4 ADD AND SWAP1 POP SWAP2 SWAP1 POP JUMP JUMPDEST PUSH0 PUSH2 0x1AC9 DUP3 PUSH2 0x1A6D JUMP JUMPDEST PUSH2 0x1AD3 DUP2 DUP6 PUSH2 0x1A77 JUMP JUMPDEST SWAP4 POP PUSH2 0x1AE3 DUP2 DUP6 PUSH1 0x20 DUP7 ADD PUSH2 0x1A87 JUMP JUMPDEST PUSH2 0x1AEC DUP2 PUSH2 0x1AAF JUMP JUMPDEST DUP5 ADD SWAP2 POP POP SWAP3 SWAP2 POP POP JUMP JUMPDEST PUSH0 PUSH2 0x140 DUP3 ADD SWAP1 POP PUSH2 0x1B0B PUSH0 DUP4 ADD DUP14 PUSH2 0x1A5E JUMP JUMPDEST DUP2 DUP2 SUB PUSH1 0x20 DUP4 ADD MSTORE PUSH2 0x1B1D DUP2 DUP13 PUSH2 0x1ABF JUMP JUMPDEST SWAP1 POP DUP2 DUP2 SUB PUSH1 0x40 DUP4 ADD MSTORE PUSH2 0x1B31 DUP2 DUP12 PUSH2 0x1ABF JUMP JUMPDEST SWAP1 POP DUP2 DUP2 SUB PUSH1 0x60 DUP4 ADD MSTORE PUSH2 0x1B45 DUP2 DUP11 PUSH2 0x1ABF JUMP JUMPDEST SWAP1 POP DUP2 DUP2 SUB PUSH1 0x80 DUP4 ADD MSTORE PUSH2 0x1B59 DUP2 DUP10 PUSH2 0x1ABF JUMP JUMPDEST SWAP1 POP DUP2 DUP2 SUB PUSH1 0xA0 DUP4 ADD MSTORE PUSH2 0x1B6D DUP2 DUP9 PUSH2 0x1ABF JUMP JUMPDEST SWAP1 POP DUP2 DUP2 SUB PUSH1 0xC0 DUP4 ADD MSTORE PUSH2 0x1B81 DUP2 DUP8 PUSH2 0x1ABF JUMP JUMPDEST SWAP1 POP DUP2 DUP2 SUB PUSH1 0xE0 DUP4 ADD MSTORE PUSH2 0x1B95 DUP2 DUP7 PUSH2 0x1ABF JUMP JUMPDEST SWAP1 POP DUP2 DUP2 SUB PUSH2 0x100 DUP4 ADD MSTORE PUSH2 0x1BAA DUP2 DUP6 PUSH2 0x1ABF JUMP JUMPDEST SWAP1 POP DUP2 DUP2 SUB PUSH2 0x120 DUP4 ADD MSTORE PUSH2 0x1BBF DUP2 DUP5 PUSH2 0x1ABF JUMP JUMPDEST SWAP1 POP SWAP12 SWAP11 POP POP POP POP POP POP POP POP POP POP POP JUMP JUMPDEST PUSH0 PUSH2 0x160 DUP3 ADD SWAP1 POP PUSH2 0x1BE4 PUSH0 DUP4 ADD DUP15 PUSH2 0x1A5E JUMP JUMPDEST DUP2 DUP2 SUB PUSH1 0x20 DUP4 ADD MSTORE PUSH2 0x1BF6 DUP2 DUP14 PUSH2 0x1ABF JUMP JUMPDEST SWAP1 POP DUP2 DUP2 SUB PUSH1 0x40 DUP4 ADD MSTORE PUSH2 0x1C0A DUP2 DUP13 PUSH2 0x1ABF JUMP JUMPDEST SWAP1 POP DUP2 DUP2 SUB PUSH1 0x60 DUP4 ADD MSTORE PUSH2 0x1C1E DUP2 DUP12 PUSH2 0x1ABF JUMP JUMPDEST SWAP1 POP DUP2 DUP2 SUB PUSH1 0x80 DUP4 ADD MSTORE PUSH2 0x1C32 DUP2 DUP11 PUSH2 0x1ABF JUMP JUMPDEST SWAP1 POP DUP2 DUP2 SUB PUSH1 0xA0 DUP4 ADD MSTORE PUSH2 0x1C46 DUP2 DUP10 PUSH2 0x1ABF JUMP JUMPDEST SWAP1 POP DUP2 DUP2 SUB PUSH1 0xC0 DUP4 ADD MSTORE PUSH2 0x1C5A DUP2 DUP9 PUSH2 0x1ABF JUMP JUMPDEST SWAP1 POP DUP2 DUP2 SUB PUSH1 0xE0 DUP4 ADD MSTORE PUSH2 0x1C6E DUP2 DUP8 PUSH2 0x1ABF JUMP JUMPDEST SWAP1 POP DUP2 DUP2 SUB PUSH2 0x100 DUP4 ADD MSTORE PUSH2 0x1C83 DUP2 DUP7 PUSH2 0x1ABF JUMP JUMPDEST SWAP1 POP DUP2 DUP2 SUB PUSH2 0x120 DUP4 ADD MSTORE PUSH2 0x1C98 DUP2 DUP6 PUSH2 0x1ABF JUMP JUMPDEST SWAP1 POP DUP2 DUP2 SUB PUSH2 0x140 DUP4 ADD MSTORE PUSH2 0x1CAD DUP2 DUP5 PUSH2 0x1ABF JUMP JUMPDEST SWAP1 POP SWAP13 SWAP12 POP POP POP POP POP POP POP POP POP POP POP POP JUMP JUMPDEST PUSH0 PUSH1 0xC0 DUP3 ADD SWAP1 POP PUSH2 0x1CD2 PUSH0 DUP4 ADD DUP10 PUSH2 0x1A5E JUMP JUMPDEST DUP2 DUP2 SUB PUSH1 0x20 DUP4 ADD MSTORE PUSH2 0x1CE4 DUP2 DUP9 PUSH2 0x1ABF JUMP JUMPDEST SWAP1 POP DUP2 DUP2 SUB PUSH1 0x40 DUP4 ADD MSTORE PUSH2 0x1CF8 DUP2 DUP8 PUSH2 0x1ABF JUMP JUMPDEST SWAP1 POP DUP2 DUP2 SUB PUSH1 0x60 DUP4 ADD MSTORE PUSH2 0x1D0C DUP2 DUP7 PUSH2 0x1ABF JUMP JUMPDEST SWAP1 POP DUP2 DUP2 SUB PUSH1 0x80 DUP4 ADD MSTORE PUSH2 0x1D20 DUP2 DUP6 PUSH2 0x1ABF JUMP JUMPDEST SWAP1 POP PUSH2 0x1D2F PUSH1 0xA0 DUP4 ADD DUP5 PUSH2 0x1A5E JUMP JUMPDEST SWAP8 SWAP7 POP POP POP POP POP POP POP JUMP JUMPDEST PUSH2 0x1D43 DUP2 PUSH2 0x1A55 JUMP JUMPDEST DUP2 EQ PUSH2 0x1D4D JUMPI PUSH0 DUP1 REVERT JUMPDEST POP JUMP JUMPDEST PUSH0 DUP2 CALLDATALOAD SWAP1 POP PUSH2 0x1D5E DUP2 PUSH2 0x1D3A JUMP JUMPDEST SWAP3 SWAP2 POP POP JUMP JUMPDEST PUSH0 DUP1 REVERT JUMPDEST PUSH0 DUP1 REVERT JUMPDEST PUSH32 0x4E487B7100000000000000000000000000000000000000000000000000000000 PUSH0 MSTORE PUSH1 0x41 PUSH1 0x4 MSTORE PUSH1 0x24 PUSH0 REVERT JUMPDEST PUSH2 0x1DA2 DUP3 PUSH2 0x1AAF JUMP JUMPDEST DUP2 ADD DUP2 DUP2 LT PUSH8 0xFFFFFFFFFFFFFFFF DUP3 GT OR ISZERO PUSH2 0x1DC1 JUMPI PUSH2 0x1DC0 PUSH2 0x1D6C JUMP JUMPDEST JUMPDEST DUP1 PUSH1 0x40 MSTORE POP POP POP JUMP JUMPDEST PUSH0 PUSH2 0x1DD3 PUSH2 0x19BF JUMP JUMPDEST SWAP1 POP PUSH2 0x1DDF DUP3 DUP3 PUSH2 0x1D99 JUMP JUMPDEST SWAP2 SWAP1 POP JUMP JUMPDEST PUSH0 PUSH8 0xFFFFFFFFFFFFFFFF DUP3 GT ISZERO PUSH2 0x1DFE JUMPI PUSH2 0x1DFD PUSH2 0x1D6C JUMP JUMPDEST JUMPDEST PUSH2 0x1E07 DUP3 PUSH2 0x1AAF JUMP JUMPDEST SWAP1 POP PUSH1 0x20 DUP2 ADD SWAP1 POP SWAP2 SWAP1 POP JUMP JUMPDEST DUP3 DUP2 DUP4 CALLDATACOPY PUSH0 DUP4 DUP4 ADD MSTORE POP POP POP JUMP JUMPDEST PUSH0 PUSH2 0x1E34 PUSH2 0x1E2F DUP5 PUSH2 0x1DE4 JUMP JUMPDEST PUSH2 0x1DCA JUMP JUMPDEST SWAP1 POP DUP3 DUP2 MSTORE PUSH1 0x20 DUP2 ADD DUP5 DUP5 DUP5 ADD GT ISZERO PUSH2 0x1E50 JUMPI PUSH2 0x1E4F PUSH2 0x1D68 JUMP JUMPDEST JUMPDEST PUSH2 0x1E5B DUP5 DUP3 DUP6 PUSH2 0x1E14 JUMP JUMPDEST POP SWAP4 SWAP3 POP POP POP JUMP JUMPDEST PUSH0 DUP3 PUSH1 0x1F DUP4 ADD SLT PUSH2 0x1E77 JUMPI PUSH2 0x1E76 PUSH2 0x1D64 JUMP JUMPDEST JUMPDEST DUP2 CALLDATALOAD PUSH2 0x1E87 DUP5 DUP3 PUSH1 0x20 DUP7 ADD PUSH2 0x1E22 JUMP JUMPDEST SWAP2 POP POP SWAP3 SWAP2 POP POP JUMP JUMPDEST PUSH0 DUP1 PUSH0 DUP1 PUSH0 DUP1 PUSH0 DUP1 PUSH0 DUP1 PUSH2 0x140 DUP12 DUP14 SUB SLT ISZERO PUSH2 0x1EAF JUMPI PUSH2 0x1EAE PUSH2 0x19C8 JUMP JUMPDEST JUMPDEST PUSH0 PUSH2 0x1EBC DUP14 DUP3 DUP15 ADD PUSH2 0x1D50 JUMP JUMPDEST SWAP11 POP POP PUSH1 0x20 DUP12 ADD CALLDATALOAD PUSH8 0xFFFFFFFFFFFFFFFF DUP2 GT ISZERO PUSH2 0x1EDD JUMPI PUSH2 0x1EDC PUSH2 0x19CC JUMP JUMPDEST JUMPDEST PUSH2 0x1EE9 DUP14 DUP3 DUP15 ADD PUSH2 0x1E63 JUMP JUMPDEST SWAP10 POP POP PUSH1 0x40 DUP12 ADD CALLDATALOAD PUSH8 0xFFFFFFFFFFFFFFFF DUP2 GT ISZERO PUSH2 0x1F0A JUMPI PUSH2 0x1F09 PUSH2 0x19CC JUMP JUMPDEST JUMPDEST PUSH2 0x1F16 DUP14 DUP3 DUP15 ADD PUSH2 0x1E63 JUMP JUMPDEST SWAP9 POP POP PUSH1 0x60 DUP12 ADD CALLDATALOAD PUSH8 0xFFFFFFFFFFFFFFFF DUP2 GT ISZERO PUSH2 0x1F37 JUMPI PUSH2 0x1F36 PUSH2 0x19CC JUMP JUMPDEST JUMPDEST PUSH2 0x1F43 DUP14 DUP3 DUP15 ADD PUSH2 0x1E63 JUMP JUMPDEST SWAP8 POP POP PUSH1 0x80 DUP12 ADD CALLDATALOAD PUSH8 0xFFFFFFFFFFFFFFFF DUP2 GT ISZERO PUSH2 0x1F64 JUMPI PUSH2 0x1F63 PUSH2 0x19CC JUMP JUMPDEST JUMPDEST PUSH2 0x1F70 DUP14 DUP3 DUP15 ADD PUSH2 0x1E63 JUMP JUMPDEST SWAP7 POP POP PUSH1 0xA0 DUP12 ADD CALLDATALOAD PUSH8 0xFFFFFFFFFFFFFFFF DUP2 GT ISZERO PUSH2 0x1F91 JUMPI PUSH2 0x1F90 PUSH2 0x19CC JUMP JUMPDEST JUMPDEST PUSH2 0x1F9D DUP14 DUP3 DUP15 ADD PUSH2 0x1E63 JUMP JUMPDEST SWAP6 POP POP PUSH1 0xC0 DUP12 ADD CALLDATALOAD PUSH8 0xFFFFFFFFFFFFFFFF DUP2 GT ISZERO PUSH2 0x1FBE JUMPI PUSH2 0x1FBD PUSH2 0x19CC JUMP JUMPDEST JUMPDEST PUSH2 0x1FCA DUP14 DUP3 DUP15 ADD PUSH2 0x1E63 JUMP JUMPDEST SWAP5 POP POP PUSH1 0xE0 DUP12 ADD CALLDATALOAD PUSH8 0xFFFFFFFFFFFFFFFF DUP2 GT ISZERO PUSH2 0x1FEB JUMPI PUSH2 0x1FEA PUSH2 0x19CC JUMP JUMPDEST JUMPDEST PUSH2 0x1FF7 DUP14 DUP3 DUP15 ADD PUSH2 0x1E63 JUMP JUMPDEST SWAP4 POP POP PUSH2 0x100 DUP12 ADD CALLDATALOAD PUSH8 0xFFFFFFFFFFFFFFFF DUP2 GT ISZERO PUSH2 0x2019 JUMPI PUSH2 0x2018 PUSH2 0x19CC JUMP JUMPDEST JUMPDEST PUSH2 0x2025 DUP14 DUP3 DUP15 ADD PUSH2 0x1E63 JUMP JUMPDEST SWAP3 POP POP PUSH2 0x120 DUP12 ADD CALLDATALOAD PUSH8 0xFFFFFFFFFFFFFFFF DUP2 GT ISZERO PUSH2 0x2047 JUMPI PUSH2 0x2046 PUSH2 0x19CC JUMP JUMPDEST JUMPDEST PUSH2 0x2053 DUP14 DUP3 DUP15 ADD PUSH2 0x1E63 JUMP JUMPDEST SWAP2 POP POP SWAP3 SWAP6 SWAP9 SWAP12 SWAP2 SWAP5 SWAP8 SWAP11 POP SWAP3 SWAP6 SWAP9 POP JUMP JUMPDEST PUSH2 0x206E DUP2 PUSH2 0x19EF JUMP JUMPDEST DUP3 MSTORE POP POP JUMP JUMPDEST PUSH0 PUSH1 0x20 DUP3 ADD SWAP1 POP PUSH2 0x2087 PUSH0 DUP4 ADD DUP5 PUSH2 0x2065 JUMP JUMPDEST SWAP3 SWAP2 POP POP JUMP JUMPDEST PUSH0 DUP1 PUSH0 DUP1 PUSH0 DUP1 PUSH1 0xC0 DUP8 DUP10 SUB SLT ISZERO PUSH2 0x20A7 JUMPI PUSH2 0x20A6 PUSH2 0x19C8 JUMP JUMPDEST JUMPDEST PUSH0 PUSH2 0x20B4 DUP10 DUP3 DUP11 ADD PUSH2 0x1D50 JUMP JUMPDEST SWAP7 POP POP PUSH1 0x20 DUP8 ADD CALLDATALOAD PUSH8 0xFFFFFFFFFFFFFFFF DUP2 GT ISZERO PUSH2 0x20D5 JUMPI PUSH2 0x20D4 PUSH2 0x19CC JUMP JUMPDEST JUMPDEST PUSH2 0x20E1 DUP10 DUP3 DUP11 ADD PUSH2 0x1E63 JUMP JUMPDEST SWAP6 POP POP PUSH1 0x40 DUP8 ADD CALLDATALOAD PUSH8 0xFFFFFFFFFFFFFFFF DUP2 GT ISZERO PUSH2 0x2102 JUMPI PUSH2 0x2101 PUSH2 0x19CC JUMP JUMPDEST JUMPDEST PUSH2 0x210E DUP10 DUP3 DUP11 ADD PUSH2 0x1E63 JUMP JUMPDEST SWAP5 POP POP PUSH1 0x60 DUP8 ADD CALLDATALOAD PUSH8 0xFFFFFFFFFFFFFFFF DUP2 GT ISZERO PUSH2 0x212F JUMPI PUSH2 0x212E PUSH2 0x19CC JUMP JUMPDEST JUMPDEST PUSH2 0x213B DUP10 DUP3 DUP11 ADD PUSH2 0x1E63 JUMP JUMPDEST SWAP4 POP POP PUSH1 0x80 DUP8 ADD CALLDATALOAD PUSH8 0xFFFFFFFFFFFFFFFF DUP2 GT ISZERO PUSH2 0x215C JUMPI PUSH2 0x215B PUSH2 0x19CC JUMP JUMPDEST JUMPDEST PUSH2 0x2168 DUP10 DUP3 DUP11 ADD PUSH2 0x1E63 JUMP JUMPDEST SWAP3 POP POP PUSH1 0xA0 PUSH2 0x2179 DUP10 DUP3 DUP11 ADD PUSH2 0x1D50 JUMP JUMPDEST SWAP2 POP POP SWAP3 SWAP6 POP SWAP3 SWAP6 POP SWAP3 SWAP6 JUMP JUMPDEST PUSH0 DUP1 PUSH0 DUP1 PUSH0 DUP1 PUSH0 DUP1 PUSH0 DUP1 PUSH0 PUSH2 0x160 DUP13 DUP15 SUB SLT ISZERO PUSH2 0x21A6 JUMPI PUSH2 0x21A5 PUSH2 0x19C8 JUMP JUMPDEST JUMPDEST PUSH0 PUSH2 0x21B3 DUP15 DUP3 DUP16 ADD PUSH2 0x1D50 JUMP JUMPDEST SWAP12 POP POP PUSH1 0x20 DUP13 ADD CALLDATALOAD PUSH8 0xFFFFFFFFFFFFFFFF DUP2 GT ISZERO PUSH2 0x21D4 JUMPI PUSH2 0x21D3 PUSH2 0x19CC JUMP JUMPDEST JUMPDEST PUSH2 0x21E0 DUP15 DUP3 DUP16 ADD PUSH2 0x1E63 JUMP JUMPDEST SWAP11 POP POP PUSH1 0x40 DUP13 ADD CALLDATALOAD PUSH8 0xFFFFFFFFFFFFFFFF DUP2 GT ISZERO PUSH2 0x2201 JUMPI PUSH2 0x2200 PUSH2 0x19CC JUMP JUMPDEST JUMPDEST PUSH2 0x220D DUP15 DUP3 DUP16 ADD PUSH2 0x1E63 JUMP JUMPDEST SWAP10 POP POP PUSH1 0x60 DUP13 ADD CALLDATALOAD PUSH8 0xFFFFFFFFFFFFFFFF DUP2 GT ISZERO PUSH2 0x222E JUMPI PUSH2 0x222D PUSH2 0x19CC JUMP JUMPDEST JUMPDEST PUSH2 0x223A DUP15 DUP3 DUP16 ADD PUSH2 0x1E63 JUMP JUMPDEST SWAP9 POP POP PUSH1 0x80 DUP13 ADD CALLDATALOAD PUSH8 0xFFFFFFFFFFFFFFFF DUP2 GT ISZERO PUSH2 0x225B JUMPI PUSH2 0x225A PUSH2 0x19CC JUMP JUMPDEST JUMPDEST PUSH2 0x2267 DUP15 DUP3 DUP16 ADD PUSH2 0x1E63 JUMP JUMPDEST SWAP8 POP POP PUSH1 0xA0 DUP13 ADD CALLDATALOAD PUSH8 0xFFFFFFFFFFFFFFFF DUP2 GT ISZERO PUSH2 0x2288 JUMPI PUSH2 0x2287 PUSH2 0x19CC JUMP JUMPDEST JUMPDEST PUSH2 0x2294 DUP15 DUP3 DUP16 ADD PUSH2 0x1E63 JUMP JUMPDEST SWAP7 POP POP PUSH1 0xC0 DUP13 ADD CALLDATALOAD PUSH8 0xFFFFFFFFFFFFFFFF DUP2 GT ISZERO PUSH2 0x22B5 JUMPI PUSH2 0x22B4 PUSH2 0x19CC JUMP JUMPDEST JUMPDEST PUSH2 0x22C1 DUP15 DUP3 DUP16 ADD PUSH2 0x1E63 JUMP JUMPDEST SWAP6 POP POP PUSH1 0xE0 DUP13 ADD CALLDATALOAD PUSH8 0xFFFFFFFFFFFFFFFF DUP2 GT ISZERO PUSH2 0x22E2 JUMPI PUSH2 0x22E1 PUSH2 0x19CC JUMP JUMPDEST JUMPDEST PUSH2 0x22EE DUP15 DUP3 DUP16 ADD PUSH2 0x1E63 JUMP JUMPDEST SWAP5 POP POP PUSH2 0x100 DUP13 ADD CALLDATALOAD PUSH8 0xFFFFFFFFFFFFFFFF DUP2 GT ISZERO PUSH2 0x2310 JUMPI PUSH2 0x230F PUSH2 0x19CC JUMP JUMPDEST JUMPDEST PUSH2 0x231C DUP15 DUP3 DUP16 ADD PUSH2 0x1E63 JUMP JUMPDEST SWAP4 POP POP PUSH2 0x120 DUP13 ADD CALLDATALOAD PUSH8 0xFFFFFFFFFFFFFFFF DUP2 GT ISZERO PUSH2 0x233E JUMPI PUSH2 0x233D PUSH2 0x19CC JUMP JUMPDEST JUMPDEST PUSH2 0x234A DUP15 DUP3 DUP16 ADD PUSH2 0x1E63 JUMP JUMPDEST SWAP3 POP POP PUSH2 0x140 DUP13 ADD CALLDATALOAD PUSH8 0xFFFFFFFFFFFFFFFF DUP2 GT ISZERO PUSH2 0x236C JUMPI PUSH2 0x236B PUSH2 0x19CC JUMP JUMPDEST JUMPDEST PUSH2 0x2378 DUP15 DUP3 DUP16 ADD PUSH2 0x1E63 JUMP JUMPDEST SWAP2 POP POP SWAP3 SWAP6 SWAP9 SWAP12 POP SWAP3 SWAP6 SWAP9 SWAP12 SWAP1 SWAP4 SWAP7 SWAP10 POP JUMP JUMPDEST PUSH0 PUSH2 0x120 DUP3 ADD SWAP1 POP PUSH2 0x239F PUSH0 DUP4 ADD DUP13 PUSH2 0x1A5E JUMP JUMPDEST PUSH2 0x23AC PUSH1 0x20 DUP4 ADD DUP12 PUSH2 0x1A5E JUMP JUMPDEST DUP2 DUP2 SUB PUSH1 0x40 DUP4 ADD MSTORE PUSH2 0x23BE DUP2 DUP11 PUSH2 0x1ABF JUMP JUMPDEST SWAP1 POP PUSH2 0x23CD PUSH1 0x60 DUP4 ADD DUP10 PUSH2 0x1A5E JUMP JUMPDEST DUP2 DUP2 SUB PUSH1 0x80 DUP4 ADD MSTORE PUSH2 0x23DF DUP2 DUP9 PUSH2 0x1ABF JUMP JUMPDEST SWAP1 POP DUP2 DUP2 SUB PUSH1 0xA0 DUP4 ADD MSTORE PUSH2 0x23F3 DUP2 DUP8 PUSH2 0x1ABF JUMP JUMPDEST SWAP1 POP DUP2 DUP2 SUB PUSH1 0xC0 DUP4 ADD MSTORE PUSH2 0x2407 DUP2 DUP7 PUSH2 0x1ABF JUMP JUMPDEST SWAP1 POP DUP2 DUP2 SUB PUSH1 0xE0 DUP4 ADD MSTORE PUSH2 0x241B DUP2 DUP6 PUSH2 0x1ABF JUMP JUMPDEST SWAP1 POP PUSH2 0x242B PUSH2 0x100 DUP4 ADD DUP5 PUSH2 0x1A5E JUMP JUMPDEST SWAP11 SWAP10 POP POP POP POP POP POP POP POP POP POP JUMP JUMPDEST PUSH0 DUP1 PUSH0 DUP1 PUSH0 DUP1 PUSH0 DUP1 PUSH0 PUSH2 0x120 DUP11 DUP13 SUB SLT ISZERO PUSH2 0x2457 JUMPI PUSH2 0x2456 PUSH2 0x19C8 JUMP JUMPDEST JUMPDEST PUSH0 PUSH2 0x2464 DUP13 DUP3 DUP14 ADD PUSH2 0x1D50 JUMP JUMPDEST SWAP10 POP POP PUSH1 0x20 PUSH2 0x2475 DUP13 DUP3 DUP14 ADD PUSH2 0x1D50 JUMP JUMPDEST SWAP9 POP POP PUSH1 0x40 DUP11 ADD CALLDATALOAD PUSH8 0xFFFFFFFFFFFFFFFF DUP2 GT ISZERO PUSH2 0x2496 JUMPI PUSH2 0x2495 PUSH2 0x19CC JUMP JUMPDEST JUMPDEST PUSH2 0x24A2 DUP13 DUP3 DUP14 ADD PUSH2 0x1E63 JUMP JUMPDEST SWAP8 POP POP PUSH1 0x60 PUSH2 0x24B3 DUP13 DUP3 DUP14 ADD PUSH2 0x1D50 JUMP JUMPDEST SWAP7 POP POP PUSH1 0x80 DUP11 ADD CALLDATALOAD PUSH8 0xFFFFFFFFFFFFFFFF DUP2 GT ISZERO PUSH2 0x24D4 JUMPI PUSH2 0x24D3 PUSH2 0x19CC JUMP JUMPDEST JUMPDEST PUSH2 0x24E0 DUP13 DUP3 DUP14 ADD PUSH2 0x1E63 JUMP JUMPDEST SWAP6 POP POP PUSH1 0xA0 DUP11 ADD CALLDATALOAD PUSH8 0xFFFFFFFFFFFFFFFF DUP2 GT ISZERO PUSH2 0x2501 JUMPI PUSH2 0x2500 PUSH2 0x19CC JUMP JUMPDEST JUMPDEST PUSH2 0x250D DUP13 DUP3 DUP14 ADD PUSH2 0x1E63 JUMP JUMPDEST SWAP5 POP POP PUSH1 0xC0 DUP11 ADD CALLDATALOAD PUSH8 0xFFFFFFFFFFFFFFFF DUP2 GT ISZERO PUSH2 0x252E JUMPI PUSH2 0x252D PUSH2 0x19CC JUMP JUMPDEST JUMPDEST PUSH2 0x253A DUP13 DUP3 DUP14 ADD PUSH2 0x1E63 JUMP JUMPDEST SWAP4 POP POP PUSH1 0xE0 DUP11 ADD CALLDATALOAD PUSH8 0xFFFFFFFFFFFFFFFF DUP2 GT ISZERO PUSH2 0x255B JUMPI PUSH2 0x255A PUSH2 0x19CC JUMP JUMPDEST JUMPDEST PUSH2 0x2567 DUP13 DUP3 DUP14 ADD PUSH2 0x1E63 JUMP JUMPDEST SWAP3 POP POP PUSH2 0x100 PUSH2 0x2579 DUP13 DUP3 DUP14 ADD PUSH2 0x1D50 JUMP JUMPDEST SWAP2 POP POP SWAP3 SWAP6 SWAP9 POP SWAP3 SWAP6 SWAP9 POP SWAP3 SWAP6 SWAP9 JUMP JUMPDEST PUSH0 DUP2 ISZERO ISZERO SWAP1 POP SWAP2 SWAP1 POP JUMP JUMPDEST PUSH2 0x259D DUP2 PUSH2 0x2589 JUMP JUMPDEST DUP3 MSTORE POP POP JUMP JUMPDEST PUSH0 PUSH1 0x20 DUP3 ADD SWAP1 POP PUSH2 0x25B6 PUSH0 DUP4 ADD DUP5 PUSH2 0x2594 JUMP JUMPDEST SWAP3 SWAP2 POP POP JUMP JUMPDEST PUSH32 0x4E487B7100000000000000000000000000000000000000000000000000000000 PUSH0 MSTORE PUSH1 0x22 PUSH1 0x4 MSTORE PUSH1 0x24 PUSH0 REVERT JUMPDEST PUSH0 PUSH1 0x2 DUP3 DIV SWAP1 POP PUSH1 0x1 DUP3 AND DUP1 PUSH2 0x2600 JUMPI PUSH1 0x7F DUP3 AND SWAP2 POP JUMPDEST PUSH1 0x20 DUP3 LT DUP2 SUB PUSH2 0x2613 JUMPI PUSH2 0x2612 PUSH2 0x25BC JUMP JUMPDEST JUMPDEST POP SWAP2 SWAP1 POP JUMP JUMPDEST PUSH32 0x566F7573206E206574657320706173206175746F726973652061206566666563 PUSH0 DUP3 ADD MSTORE PUSH32 0x74756572206365747465206F7065726174696F6E2E0000000000000000000000 PUSH1 0x20 DUP3 ADD MSTORE POP JUMP JUMPDEST PUSH0 PUSH2 0x2673 PUSH1 0x35 DUP4 PUSH2 0x1A77 JUMP JUMPDEST SWAP2 POP PUSH2 0x267E DUP3 PUSH2 0x2619 JUMP JUMPDEST PUSH1 0x40 DUP3 ADD SWAP1 POP SWAP2 SWAP1 POP JUMP JUMPDEST PUSH0 PUSH1 0x20 DUP3 ADD SWAP1 POP DUP2 DUP2 SUB PUSH0 DUP4 ADD MSTORE PUSH2 0x26A0 DUP2 PUSH2 0x2667 JUMP JUMPDEST SWAP1 POP SWAP2 SWAP1 POP JUMP JUMPDEST PUSH0 DUP2 SWAP1 POP DUP2 PUSH0 MSTORE PUSH1 0x20 PUSH0 KECCAK256 SWAP1 POP SWAP2 SWAP1 POP JUMP JUMPDEST PUSH0 PUSH1 0x20 PUSH1 0x1F DUP4 ADD DIV SWAP1 POP SWAP2 SWAP1 POP JUMP JUMPDEST PUSH0 DUP3 DUP3 SHL SWAP1 POP SWAP3 SWAP2 POP POP JUMP JUMPDEST PUSH0 PUSH1 0x8 DUP4 MUL PUSH2 0x2703 PUSH32 0xFFFFFFFFFFFFFFFFFFFFFFFFFFFFFFFFFFFFFFFFFFFFFFFFFFFFFFFFFFFFFFFF DUP3 PUSH2 0x26C8 JUMP JUMPDEST PUSH2 0x270D DUP7 DUP4 PUSH2 0x26C8 JUMP JUMPDEST SWAP6 POP DUP1 NOT DUP5 AND SWAP4 POP DUP1 DUP7 AND DUP5 OR SWAP3 POP POP POP SWAP4 SWAP3 POP POP POP JUMP JUMPDEST PUSH0 DUP2 SWAP1 POP SWAP2 SWAP1 POP JUMP JUMPDEST PUSH0 PUSH2 0x2748 PUSH2 0x2743 PUSH2 0x273E DUP5 PUSH2 0x1A55 JUMP JUMPDEST PUSH2 0x2725 JUMP JUMPDEST PUSH2 0x1A55 JUMP JUMPDEST SWAP1 POP SWAP2 SWAP1 POP JUMP JUMPDEST PUSH0 DUP2 SWAP1 POP SWAP2 SWAP1 POP JUMP JUMPDEST PUSH2 0x2761 DUP4 PUSH2 0x272E JUMP JUMPDEST PUSH2 0x2775 PUSH2 0x276D DUP3 PUSH2 0x274F JUMP JUMPDEST DUP5 DUP5 SLOAD PUSH2 0x26D4 JUMP JUMPDEST DUP3 SSTORE POP POP POP POP JUMP JUMPDEST PUSH0 SWAP1 JUMP JUMPDEST PUSH2 0x2789 PUSH2 0x277D JUMP JUMPDEST PUSH2 0x2794 DUP2 DUP5 DUP5 PUSH2 0x2758 JUMP JUMPDEST POP POP POP JUMP JUMPDEST JUMPDEST DUP2 DUP2 LT ISZERO PUSH2 0x27B7 JUMPI PUSH2 0x27AC PUSH0 DUP3 PUSH2 0x2781 JUMP JUMPDEST PUSH1 0x1 DUP2 ADD SWAP1 POP PUSH2 0x279A JUMP JUMPDEST POP POP JUMP JUMPDEST PUSH1 0x1F DUP3 GT ISZERO PUSH2 0x27FC JUMPI PUSH2 0x27CD DUP2 PUSH2 0x26A7 JUMP JUMPDEST PUSH2 0x27D6 DUP5 PUSH2 0x26B9 JUMP JUMPDEST DUP2 ADD PUSH1 0x20 DUP6 LT ISZERO PUSH2 0x27E5 JUMPI DUP2 SWAP1 POP JUMPDEST PUSH2 0x27F9 PUSH2 0x27F1 DUP6 PUSH2 0x26B9 JUMP JUMPDEST DUP4 ADD DUP3 PUSH2 0x2799 JUMP JUMPDEST POP POP JUMPDEST POP POP POP JUMP JUMPDEST PUSH0 DUP3 DUP3 SHR SWAP1 POP SWAP3 SWAP2 POP POP JUMP JUMPDEST PUSH0 PUSH2 0x281C PUSH0 NOT DUP5 PUSH1 0x8 MUL PUSH2 0x2801 JUMP JUMPDEST NOT DUP1 DUP4 AND SWAP2 POP POP SWAP3 SWAP2 POP POP JUMP JUMPDEST PUSH0 PUSH2 0x2834 DUP4 DUP4 PUSH2 0x280D JUMP JUMPDEST SWAP2 POP DUP3 PUSH1 0x2 MUL DUP3 OR SWAP1 POP SWAP3 SWAP2 POP POP JUMP JUMPDEST PUSH2 0x284D DUP3 PUSH2 0x1A6D JUMP JUMPDEST PUSH8 0xFFFFFFFFFFFFFFFF DUP2 GT ISZERO PUSH2 0x2866 JUMPI PUSH2 0x2865 PUSH2 0x1D6C JUMP JUMPDEST JUMPDEST PUSH2 0x2870 DUP3 SLOAD PUSH2 0x25E9 JUMP JUMPDEST PUSH2 0x287B DUP3 DUP3 DUP6 PUSH2 0x27BB JUMP JUMPDEST PUSH0 PUSH1 0x20 SWAP1 POP PUSH1 0x1F DUP4 GT PUSH1 0x1 DUP2 EQ PUSH2 0x28AC JUMPI PUSH0 DUP5 ISZERO PUSH2 0x289A JUMPI DUP3 DUP8 ADD MLOAD SWAP1 POP JUMPDEST PUSH2 0x28A4 DUP6 DUP3 PUSH2 0x2829 JUMP JUMPDEST DUP7 SSTORE POP PUSH2 0x290B JUMP JUMPDEST PUSH1 0x1F NOT DUP5 AND PUSH2 0x28BA DUP7 PUSH2 0x26A7 JUMP JUMPDEST PUSH0 JUMPDEST DUP3 DUP2 LT ISZERO PUSH2 0x28E1 JUMPI DUP5 DUP10 ADD MLOAD DUP3 SSTORE PUSH1 0x1 DUP3 ADD SWAP2 POP PUSH1 0x20 DUP6 ADD SWAP5 POP PUSH1 0x20 DUP2 ADD SWAP1 POP PUSH2 0x28BC JUMP JUMPDEST DUP7 DUP4 LT ISZERO PUSH2 0x28FE JUMPI DUP5 DUP10 ADD MLOAD PUSH2 0x28FA PUSH1 0x1F DUP10 AND DUP3 PUSH2 0x280D JUMP JUMPDEST DUP4 SSTORE POP JUMPDEST PUSH1 0x1 PUSH1 0x2 DUP9 MUL ADD DUP9 SSTORE POP POP POP JUMPDEST POP POP POP POP POP POP JUMP INVALID LOG2 PUSH5 0x6970667358 0x22 SLT KECCAK256 DUP3 DUP10 0xB4 0xA8 0xCC SWAP4 PUSH13 0x6BE66DD84055B591F337A11634 0x24 0xF9 SHR 0xB6 0xE DUP3 BASEFEE SWAP15 0xD6 SWAP7 0xEE 0x4D PUSH5 0x736F6C6343 STOP ADDMOD AND STOP CALLER "
				},
				"gasEstimates": {
					"creation": {
						"codeDepositCost": "2113800",
						"executionCost": "26513",
						"totalCost": "2140313"
					},
					"external": {
						"ajouterDiplome(uint256,uint256,string,uint256,string,string,string,string,uint256)": "infinite",
						"creerCompteEtablissement(uint256,string,string,string,string,uint256)": "infinite",
						"creerEntreprise(uint256,string,string,string,string,string,string,string,string,string)": "infinite",
						"creerProfilEtudiant(uint256,string,string,string,string,string,string,string,string,string,string)": "infinite",
						"devenirAgent()": "24519",
						"diplomes(address)": "infinite",
						"entreprises(address)": "infinite",
						"estAgent(address)": "2943",
						"etablissements(address)": "infinite",
						"etudiants(address)": "infinite",
						"owner()": "2505"
					}
				},
				"methodIdentifiers": {
					"ajouterDiplome(uint256,uint256,string,uint256,string,string,string,string,uint256)": "bef0bf4f",
					"creerCompteEtablissement(uint256,string,string,string,string,uint256)": "9c2df0d2",
					"creerEntreprise(uint256,string,string,string,string,string,string,string,string,string)": "8d26af78",
					"creerProfilEtudiant(uint256,string,string,string,string,string,string,string,string,string,string)": "9ef5c1e3",
					"devenirAgent()": "6c5aea72",
					"diplomes(address)": "ad3062e4",
					"entreprises(address)": "65eb3035",
					"estAgent(address)": "d86c73b4",
					"etablissements(address)": "8256d51c",
					"etudiants(address)": "77420711",
					"owner()": "8da5cb5b"
				}
			},
			"storageLayout": {
				"storage": [
					{
						"astId": 3,
						"contract": "contracts/ProjetYnov/GestionDesDiplomes.sol:GestionDesDiplomes",
						"label": "owner",
						"offset": 0,
						"slot": "0",
						"type": "t_address"
					},
					{
						"astId": 84,
						"contract": "contracts/ProjetYnov/GestionDesDiplomes.sol:GestionDesDiplomes",
						"label": "etablissements",
						"offset": 0,
						"slot": "1",
						"type": "t_mapping(t_address,t_struct(Etablissement)16_storage)"
					},
					{
						"astId": 89,
						"contract": "contracts/ProjetYnov/GestionDesDiplomes.sol:GestionDesDiplomes",
						"label": "etudiants",
						"offset": 0,
						"slot": "2",
						"type": "t_mapping(t_address,t_struct(Etudiant)39_storage)"
					},
					{
						"astId": 94,
						"contract": "contracts/ProjetYnov/GestionDesDiplomes.sol:GestionDesDiplomes",
						"label": "diplomes",
						"offset": 0,
						"slot": "3",
						"type": "t_mapping(t_address,t_struct(Diplome)58_storage)"
					},
					{
						"astId": 99,
						"contract": "contracts/ProjetYnov/GestionDesDiplomes.sol:GestionDesDiplomes",
						"label": "entreprises",
						"offset": 0,
						"slot": "4",
						"type": "t_mapping(t_address,t_struct(Entreprise)79_storage)"
					},
					{
						"astId": 103,
						"contract": "contracts/ProjetYnov/GestionDesDiplomes.sol:GestionDesDiplomes",
						"label": "estAgent",
						"offset": 0,
						"slot": "5",
						"type": "t_mapping(t_address,t_bool)"
					}
				],
				"types": {
					"t_address": {
						"encoding": "inplace",
						"label": "address",
						"numberOfBytes": "20"
					},
					"t_bool": {
						"encoding": "inplace",
						"label": "bool",
						"numberOfBytes": "1"
					},
					"t_mapping(t_address,t_bool)": {
						"encoding": "mapping",
						"key": "t_address",
						"label": "mapping(address => bool)",
						"numberOfBytes": "32",
						"value": "t_bool"
					},
					"t_mapping(t_address,t_struct(Diplome)58_storage)": {
						"encoding": "mapping",
						"key": "t_address",
						"label": "mapping(address => struct GestionDesDiplomes.Diplome)",
						"numberOfBytes": "32",
						"value": "t_struct(Diplome)58_storage"
					},
					"t_mapping(t_address,t_struct(Entreprise)79_storage)": {
						"encoding": "mapping",
						"key": "t_address",
						"label": "mapping(address => struct GestionDesDiplomes.Entreprise)",
						"numberOfBytes": "32",
						"value": "t_struct(Entreprise)79_storage"
					},
					"t_mapping(t_address,t_struct(Etablissement)16_storage)": {
						"encoding": "mapping",
						"key": "t_address",
						"label": "mapping(address => struct GestionDesDiplomes.Etablissement)",
						"numberOfBytes": "32",
						"value": "t_struct(Etablissement)16_storage"
					},
					"t_mapping(t_address,t_struct(Etudiant)39_storage)": {
						"encoding": "mapping",
						"key": "t_address",
						"label": "mapping(address => struct GestionDesDiplomes.Etudiant)",
						"numberOfBytes": "32",
						"value": "t_struct(Etudiant)39_storage"
					},
					"t_string_storage": {
						"encoding": "bytes",
						"label": "string",
						"numberOfBytes": "32"
					},
					"t_struct(Diplome)58_storage": {
						"encoding": "inplace",
						"label": "struct GestionDesDiplomes.Diplome",
						"members": [
							{
								"astId": 41,
								"contract": "contracts/ProjetYnov/GestionDesDiplomes.sol:GestionDesDiplomes",
								"label": "ID_Diplome",
								"offset": 0,
								"slot": "0",
								"type": "t_uint256"
							},
							{
								"astId": 43,
								"contract": "contracts/ProjetYnov/GestionDesDiplomes.sol:GestionDesDiplomes",
								"label": "ID_Titulaire",
								"offset": 0,
								"slot": "1",
								"type": "t_uint256"
							},
							{
								"astId": 45,
								"contract": "contracts/ProjetYnov/GestionDesDiplomes.sol:GestionDesDiplomes",
								"label": "Nom_Etablissement_enseignement_superieur",
								"offset": 0,
								"slot": "2",
								"type": "t_string_storage"
							},
							{
								"astId": 47,
								"contract": "contracts/ProjetYnov/GestionDesDiplomes.sol:GestionDesDiplomes",
								"label": "ID_EES",
								"offset": 0,
								"slot": "3",
								"type": "t_uint256"
							},
							{
								"astId": 49,
								"contract": "contracts/ProjetYnov/GestionDesDiplomes.sol:GestionDesDiplomes",
								"label": "Pays",
								"offset": 0,
								"slot": "4",
								"type": "t_string_storage"
							},
							{
								"astId": 51,
								"contract": "contracts/ProjetYnov/GestionDesDiplomes.sol:GestionDesDiplomes",
								"label": "Type_Diplome",
								"offset": 0,
								"slot": "5",
								"type": "t_string_storage"
							},
							{
								"astId": 53,
								"contract": "contracts/ProjetYnov/GestionDesDiplomes.sol:GestionDesDiplomes",
								"label": "Specialite",
								"offset": 0,
								"slot": "6",
								"type": "t_string_storage"
							},
							{
								"astId": 55,
								"contract": "contracts/ProjetYnov/GestionDesDiplomes.sol:GestionDesDiplomes",
								"label": "Mention",
								"offset": 0,
								"slot": "7",
								"type": "t_string_storage"
							},
							{
								"astId": 57,
								"contract": "contracts/ProjetYnov/GestionDesDiplomes.sol:GestionDesDiplomes",
								"label": "Date_obtention",
								"offset": 0,
								"slot": "8",
								"type": "t_uint256"
							}
						],
						"numberOfBytes": "288"
					},
					"t_struct(Entreprise)79_storage": {
						"encoding": "inplace",
						"label": "struct GestionDesDiplomes.Entreprise",
						"members": [
							{
								"astId": 60,
								"contract": "contracts/ProjetYnov/GestionDesDiplomes.sol:GestionDesDiplomes",
								"label": "ID_Entreprise",
								"offset": 0,
								"slot": "0",
								"type": "t_uint256"
							},
							{
								"astId": 62,
								"contract": "contracts/ProjetYnov/GestionDesDiplomes.sol:GestionDesDiplomes",
								"label": "Nom",
								"offset": 0,
								"slot": "1",
								"type": "t_string_storage"
							},
							{
								"astId": 64,
								"contract": "contracts/ProjetYnov/GestionDesDiplomes.sol:GestionDesDiplomes",
								"label": "Secteur",
								"offset": 0,
								"slot": "2",
								"type": "t_string_storage"
							},
							{
								"astId": 66,
								"contract": "contracts/ProjetYnov/GestionDesDiplomes.sol:GestionDesDiplomes",
								"label": "Date_Creation",
								"offset": 0,
								"slot": "3",
								"type": "t_string_storage"
							},
							{
								"astId": 68,
								"contract": "contracts/ProjetYnov/GestionDesDiplomes.sol:GestionDesDiplomes",
								"label": "Classification_Taille",
								"offset": 0,
								"slot": "4",
								"type": "t_string_storage"
							},
							{
								"astId": 70,
								"contract": "contracts/ProjetYnov/GestionDesDiplomes.sol:GestionDesDiplomes",
								"label": "Pays",
								"offset": 0,
								"slot": "5",
								"type": "t_string_storage"
							},
							{
								"astId": 72,
								"contract": "contracts/ProjetYnov/GestionDesDiplomes.sol:GestionDesDiplomes",
								"label": "Adresse",
								"offset": 0,
								"slot": "6",
								"type": "t_string_storage"
							},
							{
								"astId": 74,
								"contract": "contracts/ProjetYnov/GestionDesDiplomes.sol:GestionDesDiplomes",
								"label": "Courriel",
								"offset": 0,
								"slot": "7",
								"type": "t_string_storage"
							},
							{
								"astId": 76,
								"contract": "contracts/ProjetYnov/GestionDesDiplomes.sol:GestionDesDiplomes",
								"label": "Telephone",
								"offset": 0,
								"slot": "8",
								"type": "t_string_storage"
							},
							{
								"astId": 78,
								"contract": "contracts/ProjetYnov/GestionDesDiplomes.sol:GestionDesDiplomes",
								"label": "Site_Web",
								"offset": 0,
								"slot": "9",
								"type": "t_string_storage"
							}
						],
						"numberOfBytes": "320"
					},
					"t_struct(Etablissement)16_storage": {
						"encoding": "inplace",
						"label": "struct GestionDesDiplomes.Etablissement",
						"members": [
							{
								"astId": 5,
								"contract": "contracts/ProjetYnov/GestionDesDiplomes.sol:GestionDesDiplomes",
								"label": "ID_Etablissement",
								"offset": 0,
								"slot": "0",
								"type": "t_uint256"
							},
							{
								"astId": 7,
								"contract": "contracts/ProjetYnov/GestionDesDiplomes.sol:GestionDesDiplomes",
								"label": "Nom_Etablissement",
								"offset": 0,
								"slot": "1",
								"type": "t_string_storage"
							},
							{
								"astId": 9,
								"contract": "contracts/ProjetYnov/GestionDesDiplomes.sol:GestionDesDiplomes",
								"label": "Type",
								"offset": 0,
								"slot": "2",
								"type": "t_string_storage"
							},
							{
								"astId": 11,
								"contract": "contracts/ProjetYnov/GestionDesDiplomes.sol:GestionDesDiplomes",
								"label": "Adresse",
								"offset": 0,
								"slot": "3",
								"type": "t_string_storage"
							},
							{
								"astId": 13,
								"contract": "contracts/ProjetYnov/GestionDesDiplomes.sol:GestionDesDiplomes",
								"label": "Site_Web",
								"offset": 0,
								"slot": "4",
								"type": "t_string_storage"
							},
							{
								"astId": 15,
								"contract": "contracts/ProjetYnov/GestionDesDiplomes.sol:GestionDesDiplomes",
								"label": "ID_Agent",
								"offset": 0,
								"slot": "5",
								"type": "t_uint256"
							}
						],
						"numberOfBytes": "192"
					},
					"t_struct(Etudiant)39_storage": {
						"encoding": "inplace",
						"label": "struct GestionDesDiplomes.Etudiant",
						"members": [
							{
								"astId": 18,
								"contract": "contracts/ProjetYnov/GestionDesDiplomes.sol:GestionDesDiplomes",
								"label": "ID_Etudiant",
								"offset": 0,
								"slot": "0",
								"type": "t_uint256"
							},
							{
								"astId": 20,
								"contract": "contracts/ProjetYnov/GestionDesDiplomes.sol:GestionDesDiplomes",
								"label": "Nom",
								"offset": 0,
								"slot": "1",
								"type": "t_string_storage"
							},
							{
								"astId": 22,
								"contract": "contracts/ProjetYnov/GestionDesDiplomes.sol:GestionDesDiplomes",
								"label": "Prenom",
								"offset": 0,
								"slot": "2",
								"type": "t_string_storage"
							},
							{
								"astId": 24,
								"contract": "contracts/ProjetYnov/GestionDesDiplomes.sol:GestionDesDiplomes",
								"label": "Sexe",
								"offset": 0,
								"slot": "3",
								"type": "t_string_storage"
							},
							{
								"astId": 26,
								"contract": "contracts/ProjetYnov/GestionDesDiplomes.sol:GestionDesDiplomes",
								"label": "Nationalite",
								"offset": 0,
								"slot": "4",
								"type": "t_string_storage"
							},
							{
								"astId": 28,
								"contract": "contracts/ProjetYnov/GestionDesDiplomes.sol:GestionDesDiplomes",
								"label": "Statut_civil",
								"offset": 0,
								"slot": "5",
								"type": "t_string_storage"
							},
							{
								"astId": 30,
								"contract": "contracts/ProjetYnov/GestionDesDiplomes.sol:GestionDesDiplomes",
								"label": "Adresse",
								"offset": 0,
								"slot": "6",
								"type": "t_string_storage"
							},
							{
								"astId": 32,
								"contract": "contracts/ProjetYnov/GestionDesDiplomes.sol:GestionDesDiplomes",
								"label": "Courriel",
								"offset": 0,
								"slot": "7",
								"type": "t_string_storage"
							},
							{
								"astId": 34,
								"contract": "contracts/ProjetYnov/GestionDesDiplomes.sol:GestionDesDiplomes",
								"label": "Sujet_PFE",
								"offset": 0,
								"slot": "8",
								"type": "t_string_storage"
							},
							{
								"astId": 36,
								"contract": "contracts/ProjetYnov/GestionDesDiplomes.sol:GestionDesDiplomes",
								"label": "Entreprise_Stage_PFE",
								"offset": 0,
								"slot": "9",
								"type": "t_string_storage"
							},
							{
								"astId": 38,
								"contract": "contracts/ProjetYnov/GestionDesDiplomes.sol:GestionDesDiplomes",
								"label": "Evaluation",
								"offset": 0,
								"slot": "10",
								"type": "t_string_storage"
							}
						],
						"numberOfBytes": "352"
					},
					"t_uint256": {
						"encoding": "inplace",
						"label": "uint256",
						"numberOfBytes": "32"
					}
				}
			},
			"userdoc": {
				"kind": "user",
				"methods": {},
				"version": 1
			}
		}
	}
}