{
	"data": {
		"bytecode": {
			"linkReferences": {},
			"object": "608060405234801561000f575f80fd5b50335f806101000a81548173ffffffffffffffffffffffffffffffffffffffff021916908373ffffffffffffffffffffffffffffffffffffffff1602179055506111b28061005c5f395ff3fe608060405234801561000f575f80fd5b5060043610610055575f3560e01c806365eb3035146100595780636c5aea72146100925780638d26af781461009c5780638da5cb5b146100b8578063d86c73b4146100d6575b5f80fd5b610073600480360381019061006e91906108f9565b610106565b6040516100899a999897969594939291906109c6565b60405180910390f35b61009a61060c565b005b6100b660048036038101906100b19190610bf5565b610663565b005b6100c061084e565b6040516100cd9190610dd9565b60405180910390f35b6100f060048036038101906100eb91906108f9565b610871565b6040516100fd9190610e0c565b60405180910390f35b6001602052805f5260405f205f91509050805f01549080600101805461012b90610e52565b80601f016020809104026020016040519081016040528092919081815260200182805461015790610e52565b80156101a25780601f10610179576101008083540402835291602001916101a2565b820191905f5260205f20905b81548152906001019060200180831161018557829003601f168201915b5050505050908060020180546101b790610e52565b80601f01602080910402602001604051908101604052809291908181526020018280546101e390610e52565b801561022e5780601f106102055761010080835404028352916020019161022e565b820191905f5260205f20905b81548152906001019060200180831161021157829003601f168201915b50505050509080600301805461024390610e52565b80601f016020809104026020016040519081016040528092919081815260200182805461026f90610e52565b80156102ba5780601f10610291576101008083540402835291602001916102ba565b820191905f5260205f20905b81548152906001019060200180831161029d57829003601f168201915b5050505050908060040180546102cf90610e52565b80601f01602080910402602001604051908101604052809291908181526020018280546102fb90610e52565b80156103465780601f1061031d57610100808354040283529160200191610346565b820191905f5260205f20905b81548152906001019060200180831161032957829003601f168201915b50505050509080600501805461035b90610e52565b80601f016020809104026020016040519081016040528092919081815260200182805461038790610e52565b80156103d25780601f106103a9576101008083540402835291602001916103d2565b820191905f5260205f20905b8154815290600101906020018083116103b557829003601f168201915b5050505050908060060180546103e790610e52565b80601f016020809104026020016040519081016040528092919081815260200182805461041390610e52565b801561045e5780601f106104355761010080835404028352916020019161045e565b820191905f5260205f20905b81548152906001019060200180831161044157829003601f168201915b50505050509080600701805461047390610e52565b80601f016020809104026020016040519081016040528092919081815260200182805461049f90610e52565b80156104ea5780601f106104c1576101008083540402835291602001916104ea565b820191905f5260205f20905b8154815290600101906020018083116104cd57829003601f168201915b5050505050908060080180546104ff90610e52565b80601f016020809104026020016040519081016040528092919081815260200182805461052b90610e52565b80156105765780601f1061054d57610100808354040283529160200191610576565b820191905f5260205f20905b81548152906001019060200180831161055957829003601f168201915b50505050509080600901805461058b90610e52565b80601f01602080910402602001604051908101604052809291908181526020018280546105b790610e52565b80156106025780601f106105d957610100808354040283529160200191610602565b820191905f5260205f20905b8154815290600101906020018083116105e557829003601f168201915b505050505090508a565b600160025f3373ffffffffffffffffffffffffffffffffffffffff1673ffffffffffffffffffffffffffffffffffffffff1681526020019081526020015f205f6101000a81548160ff021916908315150217905550565b60025f3373ffffffffffffffffffffffffffffffffffffffff1673ffffffffffffffffffffffffffffffffffffffff1681526020019081526020015f205f9054906101000a900460ff166106ec576040517f08c379a00000000000000000000000000000000000000000000000000000000081526004016106e390610ef2565b60405180910390fd5b6040518061014001604052808b81526020018a81526020018981526020018881526020018781526020018681526020018581526020018481526020018381526020018281525060015f3373ffffffffffffffffffffffffffffffffffffffff1673ffffffffffffffffffffffffffffffffffffffff1681526020019081526020015f205f820151815f0155602082015181600101908161078c91906110ad565b5060408201518160020190816107a291906110ad565b5060608201518160030190816107b891906110ad565b5060808201518160040190816107ce91906110ad565b5060a08201518160050190816107e491906110ad565b5060c08201518160060190816107fa91906110ad565b5060e082015181600701908161081091906110ad565b5061010082015181600801908161082791906110ad565b5061012082015181600901908161083e91906110ad565b5090505050505050505050505050565b5f8054906101000a900473ffffffffffffffffffffffffffffffffffffffff1681565b6002602052805f5260405f205f915054906101000a900460ff1681565b5f604051905090565b5f80fd5b5f80fd5b5f73ffffffffffffffffffffffffffffffffffffffff82169050919050565b5f6108c88261089f565b9050919050565b6108d8816108be565b81146108e2575f80fd5b50565b5f813590506108f3816108cf565b92915050565b5f6020828403121561090e5761090d610897565b5b5f61091b848285016108e5565b91505092915050565b5f819050919050565b61093681610924565b82525050565b5f81519050919050565b5f82825260208201905092915050565b5f5b83811015610973578082015181840152602081019050610958565b5f8484015250505050565b5f601f19601f8301169050919050565b5f6109988261093c565b6109a28185610946565b93506109b2818560208601610956565b6109bb8161097e565b840191505092915050565b5f610140820190506109da5f83018d61092d565b81810360208301526109ec818c61098e565b90508181036040830152610a00818b61098e565b90508181036060830152610a14818a61098e565b90508181036080830152610a28818961098e565b905081810360a0830152610a3c818861098e565b905081810360c0830152610a50818761098e565b905081810360e0830152610a64818661098e565b9050818103610100830152610a79818561098e565b9050818103610120830152610a8e818461098e565b90509b9a5050505050505050505050565b610aa881610924565b8114610ab2575f80fd5b50565b5f81359050610ac381610a9f565b92915050565b5f80fd5b5f80fd5b7f4e487b71000000000000000000000000000000000000000000000000000000005f52604160045260245ffd5b610b078261097e565b810181811067ffffffffffffffff82111715610b2657610b25610ad1565b5b80604052505050565b5f610b3861088e565b9050610b448282610afe565b919050565b5f67ffffffffffffffff821115610b6357610b62610ad1565b5b610b6c8261097e565b9050602081019050919050565b828183375f83830152505050565b5f610b99610b9484610b49565b610b2f565b905082815260208101848484011115610bb557610bb4610acd565b5b610bc0848285610b79565b509392505050565b5f82601f830112610bdc57610bdb610ac9565b5b8135610bec848260208601610b87565b91505092915050565b5f805f805f805f805f806101408b8d031215610c1457610c13610897565b5b5f610c218d828e01610ab5565b9a505060208b013567ffffffffffffffff811115610c4257610c4161089b565b5b610c4e8d828e01610bc8565b99505060408b013567ffffffffffffffff811115610c6f57610c6e61089b565b5b610c7b8d828e01610bc8565b98505060608b013567ffffffffffffffff811115610c9c57610c9b61089b565b5b610ca88d828e01610bc8565b97505060808b013567ffffffffffffffff811115610cc957610cc861089b565b5b610cd58d828e01610bc8565b96505060a08b013567ffffffffffffffff811115610cf657610cf561089b565b5b610d028d828e01610bc8565b95505060c08b013567ffffffffffffffff811115610d2357610d2261089b565b5b610d2f8d828e01610bc8565b94505060e08b013567ffffffffffffffff811115610d5057610d4f61089b565b5b610d5c8d828e01610bc8565b9350506101008b013567ffffffffffffffff811115610d7e57610d7d61089b565b5b610d8a8d828e01610bc8565b9250506101208b013567ffffffffffffffff811115610dac57610dab61089b565b5b610db88d828e01610bc8565b9150509295989b9194979a5092959850565b610dd3816108be565b82525050565b5f602082019050610dec5f830184610dca565b92915050565b5f8115159050919050565b610e0681610df2565b82525050565b5f602082019050610e1f5f830184610dfd565b92915050565b7f4e487b71000000000000000000000000000000000000000000000000000000005f52602260045260245ffd5b5f6002820490506001821680610e6957607f821691505b602082108103610e7c57610e7b610e25565b5b50919050565b7f566f7573206e206574657320706173206175746f7269736520612065666665635f8201527f74756572206365747465206f7065726174696f6e2e0000000000000000000000602082015250565b5f610edc603583610946565b9150610ee782610e82565b604082019050919050565b5f6020820190508181035f830152610f0981610ed0565b9050919050565b5f819050815f5260205f209050919050565b5f6020601f8301049050919050565b5f82821b905092915050565b5f60088302610f6c7fffffffffffffffffffffffffffffffffffffffffffffffffffffffffffffffff82610f31565b610f768683610f31565b95508019841693508086168417925050509392505050565b5f819050919050565b5f610fb1610fac610fa784610924565b610f8e565b610924565b9050919050565b5f819050919050565b610fca83610f97565b610fde610fd682610fb8565b848454610f3d565b825550505050565b5f90565b610ff2610fe6565b610ffd818484610fc1565b505050565b5b81811015611020576110155f82610fea565b600181019050611003565b5050565b601f8211156110655761103681610f10565b61103f84610f22565b8101602085101561104e578190505b61106261105a85610f22565b830182611002565b50505b505050565b5f82821c905092915050565b5f6110855f198460080261106a565b1980831691505092915050565b5f61109d8383611076565b9150826002028217905092915050565b6110b68261093c565b67ffffffffffffffff8111156110cf576110ce610ad1565b5b6110d98254610e52565b6110e4828285611024565b5f60209050601f831160018114611115575f8415611103578287015190505b61110d8582611092565b865550611174565b601f19841661112386610f10565b5f5b8281101561114a57848901518255600182019150602085019450602081019050611125565b868310156111675784890151611163601f891682611076565b8355505b6001600288020188555050505b50505050505056fea2646970667358221220ab820a01562bf5ba94d9f8d9e5652f6aea2c41c6ffb9c9c684068ae7e956b40f64736f6c63430008160033",
			"opcodes": "PUSH1 0x80 PUSH1 0x40 MSTORE CALLVALUE DUP1 ISZERO PUSH2 0xF JUMPI PUSH0 DUP1 REVERT JUMPDEST POP CALLER PUSH0 DUP1 PUSH2 0x100 EXP DUP2 SLOAD DUP2 PUSH20 0xFFFFFFFFFFFFFFFFFFFFFFFFFFFFFFFFFFFFFFFF MUL NOT AND SWAP1 DUP4 PUSH20 0xFFFFFFFFFFFFFFFFFFFFFFFFFFFFFFFFFFFFFFFF AND MUL OR SWAP1 SSTORE POP PUSH2 0x11B2 DUP1 PUSH2 0x5C PUSH0 CODECOPY PUSH0 RETURN INVALID PUSH1 0x80 PUSH1 0x40 MSTORE CALLVALUE DUP1 ISZERO PUSH2 0xF JUMPI PUSH0 DUP1 REVERT JUMPDEST POP PUSH1 0x4 CALLDATASIZE LT PUSH2 0x55 JUMPI PUSH0 CALLDATALOAD PUSH1 0xE0 SHR DUP1 PUSH4 0x65EB3035 EQ PUSH2 0x59 JUMPI DUP1 PUSH4 0x6C5AEA72 EQ PUSH2 0x92 JUMPI DUP1 PUSH4 0x8D26AF78 EQ PUSH2 0x9C JUMPI DUP1 PUSH4 0x8DA5CB5B EQ PUSH2 0xB8 JUMPI DUP1 PUSH4 0xD86C73B4 EQ PUSH2 0xD6 JUMPI JUMPDEST PUSH0 DUP1 REVERT JUMPDEST PUSH2 0x73 PUSH1 0x4 DUP1 CALLDATASIZE SUB DUP2 ADD SWAP1 PUSH2 0x6E SWAP2 SWAP1 PUSH2 0x8F9 JUMP JUMPDEST PUSH2 0x106 JUMP JUMPDEST PUSH1 0x40 MLOAD PUSH2 0x89 SWAP11 SWAP10 SWAP9 SWAP8 SWAP7 SWAP6 SWAP5 SWAP4 SWAP3 SWAP2 SWAP1 PUSH2 0x9C6 JUMP JUMPDEST PUSH1 0x40 MLOAD DUP1 SWAP2 SUB SWAP1 RETURN JUMPDEST PUSH2 0x9A PUSH2 0x60C JUMP JUMPDEST STOP JUMPDEST PUSH2 0xB6 PUSH1 0x4 DUP1 CALLDATASIZE SUB DUP2 ADD SWAP1 PUSH2 0xB1 SWAP2 SWAP1 PUSH2 0xBF5 JUMP JUMPDEST PUSH2 0x663 JUMP JUMPDEST STOP JUMPDEST PUSH2 0xC0 PUSH2 0x84E JUMP JUMPDEST PUSH1 0x40 MLOAD PUSH2 0xCD SWAP2 SWAP1 PUSH2 0xDD9 JUMP JUMPDEST PUSH1 0x40 MLOAD DUP1 SWAP2 SUB SWAP1 RETURN JUMPDEST PUSH2 0xF0 PUSH1 0x4 DUP1 CALLDATASIZE SUB DUP2 ADD SWAP1 PUSH2 0xEB SWAP2 SWAP1 PUSH2 0x8F9 JUMP JUMPDEST PUSH2 0x871 JUMP JUMPDEST PUSH1 0x40 MLOAD PUSH2 0xFD SWAP2 SWAP1 PUSH2 0xE0C JUMP JUMPDEST PUSH1 0x40 MLOAD DUP1 SWAP2 SUB SWAP1 RETURN JUMPDEST PUSH1 0x1 PUSH1 0x20 MSTORE DUP1 PUSH0 MSTORE PUSH1 0x40 PUSH0 KECCAK256 PUSH0 SWAP2 POP SWAP1 POP DUP1 PUSH0 ADD SLOAD SWAP1 DUP1 PUSH1 0x1 ADD DUP1 SLOAD PUSH2 0x12B SWAP1 PUSH2 0xE52 JUMP JUMPDEST DUP1 PUSH1 0x1F ADD PUSH1 0x20 DUP1 SWAP2 DIV MUL PUSH1 0x20 ADD PUSH1 0x40 MLOAD SWAP1 DUP2 ADD PUSH1 0x40 MSTORE DUP1 SWAP3 SWAP2 SWAP1 DUP2 DUP2 MSTORE PUSH1 0x20 ADD DUP3 DUP1 SLOAD PUSH2 0x157 SWAP1 PUSH2 0xE52 JUMP JUMPDEST DUP1 ISZERO PUSH2 0x1A2 JUMPI DUP1 PUSH1 0x1F LT PUSH2 0x179 JUMPI PUSH2 0x100 DUP1 DUP4 SLOAD DIV MUL DUP4 MSTORE SWAP2 PUSH1 0x20 ADD SWAP2 PUSH2 0x1A2 JUMP JUMPDEST DUP3 ADD SWAP2 SWAP1 PUSH0 MSTORE PUSH1 0x20 PUSH0 KECCAK256 SWAP1 JUMPDEST DUP2 SLOAD DUP2 MSTORE SWAP1 PUSH1 0x1 ADD SWAP1 PUSH1 0x20 ADD DUP1 DUP4 GT PUSH2 0x185 JUMPI DUP3 SWAP1 SUB PUSH1 0x1F AND DUP3 ADD SWAP2 JUMPDEST POP POP POP POP POP SWAP1 DUP1 PUSH1 0x2 ADD DUP1 SLOAD PUSH2 0x1B7 SWAP1 PUSH2 0xE52 JUMP JUMPDEST DUP1 PUSH1 0x1F ADD PUSH1 0x20 DUP1 SWAP2 DIV MUL PUSH1 0x20 ADD PUSH1 0x40 MLOAD SWAP1 DUP2 ADD PUSH1 0x40 MSTORE DUP1 SWAP3 SWAP2 SWAP1 DUP2 DUP2 MSTORE PUSH1 0x20 ADD DUP3 DUP1 SLOAD PUSH2 0x1E3 SWAP1 PUSH2 0xE52 JUMP JUMPDEST DUP1 ISZERO PUSH2 0x22E JUMPI DUP1 PUSH1 0x1F LT PUSH2 0x205 JUMPI PUSH2 0x100 DUP1 DUP4 SLOAD DIV MUL DUP4 MSTORE SWAP2 PUSH1 0x20 ADD SWAP2 PUSH2 0x22E JUMP JUMPDEST DUP3 ADD SWAP2 SWAP1 PUSH0 MSTORE PUSH1 0x20 PUSH0 KECCAK256 SWAP1 JUMPDEST DUP2 SLOAD DUP2 MSTORE SWAP1 PUSH1 0x1 ADD SWAP1 PUSH1 0x20 ADD DUP1 DUP4 GT PUSH2 0x211 JUMPI DUP3 SWAP1 SUB PUSH1 0x1F AND DUP3 ADD SWAP2 JUMPDEST POP POP POP POP POP SWAP1 DUP1 PUSH1 0x3 ADD DUP1 SLOAD PUSH2 0x243 SWAP1 PUSH2 0xE52 JUMP JUMPDEST DUP1 PUSH1 0x1F ADD PUSH1 0x20 DUP1 SWAP2 DIV MUL PUSH1 0x20 ADD PUSH1 0x40 MLOAD SWAP1 DUP2 ADD PUSH1 0x40 MSTORE DUP1 SWAP3 SWAP2 SWAP1 DUP2 DUP2 MSTORE PUSH1 0x20 ADD DUP3 DUP1 SLOAD PUSH2 0x26F SWAP1 PUSH2 0xE52 JUMP JUMPDEST DUP1 ISZERO PUSH2 0x2BA JUMPI DUP1 PUSH1 0x1F LT PUSH2 0x291 JUMPI PUSH2 0x100 DUP1 DUP4 SLOAD DIV MUL DUP4 MSTORE SWAP2 PUSH1 0x20 ADD SWAP2 PUSH2 0x2BA JUMP JUMPDEST DUP3 ADD SWAP2 SWAP1 PUSH0 MSTORE PUSH1 0x20 PUSH0 KECCAK256 SWAP1 JUMPDEST DUP2 SLOAD DUP2 MSTORE SWAP1 PUSH1 0x1 ADD SWAP1 PUSH1 0x20 ADD DUP1 DUP4 GT PUSH2 0x29D JUMPI DUP3 SWAP1 SUB PUSH1 0x1F AND DUP3 ADD SWAP2 JUMPDEST POP POP POP POP POP SWAP1 DUP1 PUSH1 0x4 ADD DUP1 SLOAD PUSH2 0x2CF SWAP1 PUSH2 0xE52 JUMP JUMPDEST DUP1 PUSH1 0x1F ADD PUSH1 0x20 DUP1 SWAP2 DIV MUL PUSH1 0x20 ADD PUSH1 0x40 MLOAD SWAP1 DUP2 ADD PUSH1 0x40 MSTORE DUP1 SWAP3 SWAP2 SWAP1 DUP2 DUP2 MSTORE PUSH1 0x20 ADD DUP3 DUP1 SLOAD PUSH2 0x2FB SWAP1 PUSH2 0xE52 JUMP JUMPDEST DUP1 ISZERO PUSH2 0x346 JUMPI DUP1 PUSH1 0x1F LT PUSH2 0x31D JUMPI PUSH2 0x100 DUP1 DUP4 SLOAD DIV MUL DUP4 MSTORE SWAP2 PUSH1 0x20 ADD SWAP2 PUSH2 0x346 JUMP JUMPDEST DUP3 ADD SWAP2 SWAP1 PUSH0 MSTORE PUSH1 0x20 PUSH0 KECCAK256 SWAP1 JUMPDEST DUP2 SLOAD DUP2 MSTORE SWAP1 PUSH1 0x1 ADD SWAP1 PUSH1 0x20 ADD DUP1 DUP4 GT PUSH2 0x329 JUMPI DUP3 SWAP1 SUB PUSH1 0x1F AND DUP3 ADD SWAP2 JUMPDEST POP POP POP POP POP SWAP1 DUP1 PUSH1 0x5 ADD DUP1 SLOAD PUSH2 0x35B SWAP1 PUSH2 0xE52 JUMP JUMPDEST DUP1 PUSH1 0x1F ADD PUSH1 0x20 DUP1 SWAP2 DIV MUL PUSH1 0x20 ADD PUSH1 0x40 MLOAD SWAP1 DUP2 ADD PUSH1 0x40 MSTORE DUP1 SWAP3 SWAP2 SWAP1 DUP2 DUP2 MSTORE PUSH1 0x20 ADD DUP3 DUP1 SLOAD PUSH2 0x387 SWAP1 PUSH2 0xE52 JUMP JUMPDEST DUP1 ISZERO PUSH2 0x3D2 JUMPI DUP1 PUSH1 0x1F LT PUSH2 0x3A9 JUMPI PUSH2 0x100 DUP1 DUP4 SLOAD DIV MUL DUP4 MSTORE SWAP2 PUSH1 0x20 ADD SWAP2 PUSH2 0x3D2 JUMP JUMPDEST DUP3 ADD SWAP2 SWAP1 PUSH0 MSTORE PUSH1 0x20 PUSH0 KECCAK256 SWAP1 JUMPDEST DUP2 SLOAD DUP2 MSTORE SWAP1 PUSH1 0x1 ADD SWAP1 PUSH1 0x20 ADD DUP1 DUP4 GT PUSH2 0x3B5 JUMPI DUP3 SWAP1 SUB PUSH1 0x1F AND DUP3 ADD SWAP2 JUMPDEST POP POP POP POP POP SWAP1 DUP1 PUSH1 0x6 ADD DUP1 SLOAD PUSH2 0x3E7 SWAP1 PUSH2 0xE52 JUMP JUMPDEST DUP1 PUSH1 0x1F ADD PUSH1 0x20 DUP1 SWAP2 DIV MUL PUSH1 0x20 ADD PUSH1 0x40 MLOAD SWAP1 DUP2 ADD PUSH1 0x40 MSTORE DUP1 SWAP3 SWAP2 SWAP1 DUP2 DUP2 MSTORE PUSH1 0x20 ADD DUP3 DUP1 SLOAD PUSH2 0x413 SWAP1 PUSH2 0xE52 JUMP JUMPDEST DUP1 ISZERO PUSH2 0x45E JUMPI DUP1 PUSH1 0x1F LT PUSH2 0x435 JUMPI PUSH2 0x100 DUP1 DUP4 SLOAD DIV MUL DUP4 MSTORE SWAP2 PUSH1 0x20 ADD SWAP2 PUSH2 0x45E JUMP JUMPDEST DUP3 ADD SWAP2 SWAP1 PUSH0 MSTORE PUSH1 0x20 PUSH0 KECCAK256 SWAP1 JUMPDEST DUP2 SLOAD DUP2 MSTORE SWAP1 PUSH1 0x1 ADD SWAP1 PUSH1 0x20 ADD DUP1 DUP4 GT PUSH2 0x441 JUMPI DUP3 SWAP1 SUB PUSH1 0x1F AND DUP3 ADD SWAP2 JUMPDEST POP POP POP POP POP SWAP1 DUP1 PUSH1 0x7 ADD DUP1 SLOAD PUSH2 0x473 SWAP1 PUSH2 0xE52 JUMP JUMPDEST DUP1 PUSH1 0x1F ADD PUSH1 0x20 DUP1 SWAP2 DIV MUL PUSH1 0x20 ADD PUSH1 0x40 MLOAD SWAP1 DUP2 ADD PUSH1 0x40 MSTORE DUP1 SWAP3 SWAP2 SWAP1 DUP2 DUP2 MSTORE PUSH1 0x20 ADD DUP3 DUP1 SLOAD PUSH2 0x49F SWAP1 PUSH2 0xE52 JUMP JUMPDEST DUP1 ISZERO PUSH2 0x4EA JUMPI DUP1 PUSH1 0x1F LT PUSH2 0x4C1 JUMPI PUSH2 0x100 DUP1 DUP4 SLOAD DIV MUL DUP4 MSTORE SWAP2 PUSH1 0x20 ADD SWAP2 PUSH2 0x4EA JUMP JUMPDEST DUP3 ADD SWAP2 SWAP1 PUSH0 MSTORE PUSH1 0x20 PUSH0 KECCAK256 SWAP1 JUMPDEST DUP2 SLOAD DUP2 MSTORE SWAP1 PUSH1 0x1 ADD SWAP1 PUSH1 0x20 ADD DUP1 DUP4 GT PUSH2 0x4CD JUMPI DUP3 SWAP1 SUB PUSH1 0x1F AND DUP3 ADD SWAP2 JUMPDEST POP POP POP POP POP SWAP1 DUP1 PUSH1 0x8 ADD DUP1 SLOAD PUSH2 0x4FF SWAP1 PUSH2 0xE52 JUMP JUMPDEST DUP1 PUSH1 0x1F ADD PUSH1 0x20 DUP1 SWAP2 DIV MUL PUSH1 0x20 ADD PUSH1 0x40 MLOAD SWAP1 DUP2 ADD PUSH1 0x40 MSTORE DUP1 SWAP3 SWAP2 SWAP1 DUP2 DUP2 MSTORE PUSH1 0x20 ADD DUP3 DUP1 SLOAD PUSH2 0x52B SWAP1 PUSH2 0xE52 JUMP JUMPDEST DUP1 ISZERO PUSH2 0x576 JUMPI DUP1 PUSH1 0x1F LT PUSH2 0x54D JUMPI PUSH2 0x100 DUP1 DUP4 SLOAD DIV MUL DUP4 MSTORE SWAP2 PUSH1 0x20 ADD SWAP2 PUSH2 0x576 JUMP JUMPDEST DUP3 ADD SWAP2 SWAP1 PUSH0 MSTORE PUSH1 0x20 PUSH0 KECCAK256 SWAP1 JUMPDEST DUP2 SLOAD DUP2 MSTORE SWAP1 PUSH1 0x1 ADD SWAP1 PUSH1 0x20 ADD DUP1 DUP4 GT PUSH2 0x559 JUMPI DUP3 SWAP1 SUB PUSH1 0x1F AND DUP3 ADD SWAP2 JUMPDEST POP POP POP POP POP SWAP1 DUP1 PUSH1 0x9 ADD DUP1 SLOAD PUSH2 0x58B SWAP1 PUSH2 0xE52 JUMP JUMPDEST DUP1 PUSH1 0x1F ADD PUSH1 0x20 DUP1 SWAP2 DIV MUL PUSH1 0x20 ADD PUSH1 0x40 MLOAD SWAP1 DUP2 ADD PUSH1 0x40 MSTORE DUP1 SWAP3 SWAP2 SWAP1 DUP2 DUP2 MSTORE PUSH1 0x20 ADD DUP3 DUP1 SLOAD PUSH2 0x5B7 SWAP1 PUSH2 0xE52 JUMP JUMPDEST DUP1 ISZERO PUSH2 0x602 JUMPI DUP1 PUSH1 0x1F LT PUSH2 0x5D9 JUMPI PUSH2 0x100 DUP1 DUP4 SLOAD DIV MUL DUP4 MSTORE SWAP2 PUSH1 0x20 ADD SWAP2 PUSH2 0x602 JUMP JUMPDEST DUP3 ADD SWAP2 SWAP1 PUSH0 MSTORE PUSH1 0x20 PUSH0 KECCAK256 SWAP1 JUMPDEST DUP2 SLOAD DUP2 MSTORE SWAP1 PUSH1 0x1 ADD SWAP1 PUSH1 0x20 ADD DUP1 DUP4 GT PUSH2 0x5E5 JUMPI DUP3 SWAP1 SUB PUSH1 0x1F AND DUP3 ADD SWAP2 JUMPDEST POP POP POP POP POP SWAP1 POP DUP11 JUMP JUMPDEST PUSH1 0x1 PUSH1 0x2 PUSH0 CALLER PUSH20 0xFFFFFFFFFFFFFFFFFFFFFFFFFFFFFFFFFFFFFFFF AND PUSH20 0xFFFFFFFFFFFFFFFFFFFFFFFFFFFFFFFFFFFFFFFF AND DUP2 MSTORE PUSH1 0x20 ADD SWAP1 DUP2 MSTORE PUSH1 0x20 ADD PUSH0 KECCAK256 PUSH0 PUSH2 0x100 EXP DUP2 SLOAD DUP2 PUSH1 0xFF MUL NOT AND SWAP1 DUP4 ISZERO ISZERO MUL OR SWAP1 SSTORE POP JUMP JUMPDEST PUSH1 0x2 PUSH0 CALLER PUSH20 0xFFFFFFFFFFFFFFFFFFFFFFFFFFFFFFFFFFFFFFFF AND PUSH20 0xFFFFFFFFFFFFFFFFFFFFFFFFFFFFFFFFFFFFFFFF AND DUP2 MSTORE PUSH1 0x20 ADD SWAP1 DUP2 MSTORE PUSH1 0x20 ADD PUSH0 KECCAK256 PUSH0 SWAP1 SLOAD SWAP1 PUSH2 0x100 EXP SWAP1 DIV PUSH1 0xFF AND PUSH2 0x6EC JUMPI PUSH1 0x40 MLOAD PUSH32 0x8C379A000000000000000000000000000000000000000000000000000000000 DUP2 MSTORE PUSH1 0x4 ADD PUSH2 0x6E3 SWAP1 PUSH2 0xEF2 JUMP JUMPDEST PUSH1 0x40 MLOAD DUP1 SWAP2 SUB SWAP1 REVERT JUMPDEST PUSH1 0x40 MLOAD DUP1 PUSH2 0x140 ADD PUSH1 0x40 MSTORE DUP1 DUP12 DUP2 MSTORE PUSH1 0x20 ADD DUP11 DUP2 MSTORE PUSH1 0x20 ADD DUP10 DUP2 MSTORE PUSH1 0x20 ADD DUP9 DUP2 MSTORE PUSH1 0x20 ADD DUP8 DUP2 MSTORE PUSH1 0x20 ADD DUP7 DUP2 MSTORE PUSH1 0x20 ADD DUP6 DUP2 MSTORE PUSH1 0x20 ADD DUP5 DUP2 MSTORE PUSH1 0x20 ADD DUP4 DUP2 MSTORE PUSH1 0x20 ADD DUP3 DUP2 MSTORE POP PUSH1 0x1 PUSH0 CALLER PUSH20 0xFFFFFFFFFFFFFFFFFFFFFFFFFFFFFFFFFFFFFFFF AND PUSH20 0xFFFFFFFFFFFFFFFFFFFFFFFFFFFFFFFFFFFFFFFF AND DUP2 MSTORE PUSH1 0x20 ADD SWAP1 DUP2 MSTORE PUSH1 0x20 ADD PUSH0 KECCAK256 PUSH0 DUP3 ADD MLOAD DUP2 PUSH0 ADD SSTORE PUSH1 0x20 DUP3 ADD MLOAD DUP2 PUSH1 0x1 ADD SWAP1 DUP2 PUSH2 0x78C SWAP2 SWAP1 PUSH2 0x10AD JUMP JUMPDEST POP PUSH1 0x40 DUP3 ADD MLOAD DUP2 PUSH1 0x2 ADD SWAP1 DUP2 PUSH2 0x7A2 SWAP2 SWAP1 PUSH2 0x10AD JUMP JUMPDEST POP PUSH1 0x60 DUP3 ADD MLOAD DUP2 PUSH1 0x3 ADD SWAP1 DUP2 PUSH2 0x7B8 SWAP2 SWAP1 PUSH2 0x10AD JUMP JUMPDEST POP PUSH1 0x80 DUP3 ADD MLOAD DUP2 PUSH1 0x4 ADD SWAP1 DUP2 PUSH2 0x7CE SWAP2 SWAP1 PUSH2 0x10AD JUMP JUMPDEST POP PUSH1 0xA0 DUP3 ADD MLOAD DUP2 PUSH1 0x5 ADD SWAP1 DUP2 PUSH2 0x7E4 SWAP2 SWAP1 PUSH2 0x10AD JUMP JUMPDEST POP PUSH1 0xC0 DUP3 ADD MLOAD DUP2 PUSH1 0x6 ADD SWAP1 DUP2 PUSH2 0x7FA SWAP2 SWAP1 PUSH2 0x10AD JUMP JUMPDEST POP PUSH1 0xE0 DUP3 ADD MLOAD DUP2 PUSH1 0x7 ADD SWAP1 DUP2 PUSH2 0x810 SWAP2 SWAP1 PUSH2 0x10AD JUMP JUMPDEST POP PUSH2 0x100 DUP3 ADD MLOAD DUP2 PUSH1 0x8 ADD SWAP1 DUP2 PUSH2 0x827 SWAP2 SWAP1 PUSH2 0x10AD JUMP JUMPDEST POP PUSH2 0x120 DUP3 ADD MLOAD DUP2 PUSH1 0x9 ADD SWAP1 DUP2 PUSH2 0x83E SWAP2 SWAP1 PUSH2 0x10AD JUMP JUMPDEST POP SWAP1 POP POP POP POP POP POP POP POP POP POP POP POP JUMP JUMPDEST PUSH0 DUP1 SLOAD SWAP1 PUSH2 0x100 EXP SWAP1 DIV PUSH20 0xFFFFFFFFFFFFFFFFFFFFFFFFFFFFFFFFFFFFFFFF AND DUP2 JUMP JUMPDEST PUSH1 0x2 PUSH1 0x20 MSTORE DUP1 PUSH0 MSTORE PUSH1 0x40 PUSH0 KECCAK256 PUSH0 SWAP2 POP SLOAD SWAP1 PUSH2 0x100 EXP SWAP1 DIV PUSH1 0xFF AND DUP2 JUMP JUMPDEST PUSH0 PUSH1 0x40 MLOAD SWAP1 POP SWAP1 JUMP JUMPDEST PUSH0 DUP1 REVERT JUMPDEST PUSH0 DUP1 REVERT JUMPDEST PUSH0 PUSH20 0xFFFFFFFFFFFFFFFFFFFFFFFFFFFFFFFFFFFFFFFF DUP3 AND SWAP1 POP SWAP2 SWAP1 POP JUMP JUMPDEST PUSH0 PUSH2 0x8C8 DUP3 PUSH2 0x89F JUMP JUMPDEST SWAP1 POP SWAP2 SWAP1 POP JUMP JUMPDEST PUSH2 0x8D8 DUP2 PUSH2 0x8BE JUMP JUMPDEST DUP2 EQ PUSH2 0x8E2 JUMPI PUSH0 DUP1 REVERT JUMPDEST POP JUMP JUMPDEST PUSH0 DUP2 CALLDATALOAD SWAP1 POP PUSH2 0x8F3 DUP2 PUSH2 0x8CF JUMP JUMPDEST SWAP3 SWAP2 POP POP JUMP JUMPDEST PUSH0 PUSH1 0x20 DUP3 DUP5 SUB SLT ISZERO PUSH2 0x90E JUMPI PUSH2 0x90D PUSH2 0x897 JUMP JUMPDEST JUMPDEST PUSH0 PUSH2 0x91B DUP5 DUP3 DUP6 ADD PUSH2 0x8E5 JUMP JUMPDEST SWAP2 POP POP SWAP3 SWAP2 POP POP JUMP JUMPDEST PUSH0 DUP2 SWAP1 POP SWAP2 SWAP1 POP JUMP JUMPDEST PUSH2 0x936 DUP2 PUSH2 0x924 JUMP JUMPDEST DUP3 MSTORE POP POP JUMP JUMPDEST PUSH0 DUP2 MLOAD SWAP1 POP SWAP2 SWAP1 POP JUMP JUMPDEST PUSH0 DUP3 DUP3 MSTORE PUSH1 0x20 DUP3 ADD SWAP1 POP SWAP3 SWAP2 POP POP JUMP JUMPDEST PUSH0 JUMPDEST DUP4 DUP2 LT ISZERO PUSH2 0x973 JUMPI DUP1 DUP3 ADD MLOAD DUP2 DUP5 ADD MSTORE PUSH1 0x20 DUP2 ADD SWAP1 POP PUSH2 0x958 JUMP JUMPDEST PUSH0 DUP5 DUP5 ADD MSTORE POP POP POP POP JUMP JUMPDEST PUSH0 PUSH1 0x1F NOT PUSH1 0x1F DUP4 ADD AND SWAP1 POP SWAP2 SWAP1 POP JUMP JUMPDEST PUSH0 PUSH2 0x998 DUP3 PUSH2 0x93C JUMP JUMPDEST PUSH2 0x9A2 DUP2 DUP6 PUSH2 0x946 JUMP JUMPDEST SWAP4 POP PUSH2 0x9B2 DUP2 DUP6 PUSH1 0x20 DUP7 ADD PUSH2 0x956 JUMP JUMPDEST PUSH2 0x9BB DUP2 PUSH2 0x97E JUMP JUMPDEST DUP5 ADD SWAP2 POP POP SWAP3 SWAP2 POP POP JUMP JUMPDEST PUSH0 PUSH2 0x140 DUP3 ADD SWAP1 POP PUSH2 0x9DA PUSH0 DUP4 ADD DUP14 PUSH2 0x92D JUMP JUMPDEST DUP2 DUP2 SUB PUSH1 0x20 DUP4 ADD MSTORE PUSH2 0x9EC DUP2 DUP13 PUSH2 0x98E JUMP JUMPDEST SWAP1 POP DUP2 DUP2 SUB PUSH1 0x40 DUP4 ADD MSTORE PUSH2 0xA00 DUP2 DUP12 PUSH2 0x98E JUMP JUMPDEST SWAP1 POP DUP2 DUP2 SUB PUSH1 0x60 DUP4 ADD MSTORE PUSH2 0xA14 DUP2 DUP11 PUSH2 0x98E JUMP JUMPDEST SWAP1 POP DUP2 DUP2 SUB PUSH1 0x80 DUP4 ADD MSTORE PUSH2 0xA28 DUP2 DUP10 PUSH2 0x98E JUMP JUMPDEST SWAP1 POP DUP2 DUP2 SUB PUSH1 0xA0 DUP4 ADD MSTORE PUSH2 0xA3C DUP2 DUP9 PUSH2 0x98E JUMP JUMPDEST SWAP1 POP DUP2 DUP2 SUB PUSH1 0xC0 DUP4 ADD MSTORE PUSH2 0xA50 DUP2 DUP8 PUSH2 0x98E JUMP JUMPDEST SWAP1 POP DUP2 DUP2 SUB PUSH1 0xE0 DUP4 ADD MSTORE PUSH2 0xA64 DUP2 DUP7 PUSH2 0x98E JUMP JUMPDEST SWAP1 POP DUP2 DUP2 SUB PUSH2 0x100 DUP4 ADD MSTORE PUSH2 0xA79 DUP2 DUP6 PUSH2 0x98E JUMP JUMPDEST SWAP1 POP DUP2 DUP2 SUB PUSH2 0x120 DUP4 ADD MSTORE PUSH2 0xA8E DUP2 DUP5 PUSH2 0x98E JUMP JUMPDEST SWAP1 POP SWAP12 SWAP11 POP POP POP POP POP POP POP POP POP POP POP JUMP JUMPDEST PUSH2 0xAA8 DUP2 PUSH2 0x924 JUMP JUMPDEST DUP2 EQ PUSH2 0xAB2 JUMPI PUSH0 DUP1 REVERT JUMPDEST POP JUMP JUMPDEST PUSH0 DUP2 CALLDATALOAD SWAP1 POP PUSH2 0xAC3 DUP2 PUSH2 0xA9F JUMP JUMPDEST SWAP3 SWAP2 POP POP JUMP JUMPDEST PUSH0 DUP1 REVERT JUMPDEST PUSH0 DUP1 REVERT JUMPDEST PUSH32 0x4E487B7100000000000000000000000000000000000000000000000000000000 PUSH0 MSTORE PUSH1 0x41 PUSH1 0x4 MSTORE PUSH1 0x24 PUSH0 REVERT JUMPDEST PUSH2 0xB07 DUP3 PUSH2 0x97E JUMP JUMPDEST DUP2 ADD DUP2 DUP2 LT PUSH8 0xFFFFFFFFFFFFFFFF DUP3 GT OR ISZERO PUSH2 0xB26 JUMPI PUSH2 0xB25 PUSH2 0xAD1 JUMP JUMPDEST JUMPDEST DUP1 PUSH1 0x40 MSTORE POP POP POP JUMP JUMPDEST PUSH0 PUSH2 0xB38 PUSH2 0x88E JUMP JUMPDEST SWAP1 POP PUSH2 0xB44 DUP3 DUP3 PUSH2 0xAFE JUMP JUMPDEST SWAP2 SWAP1 POP JUMP JUMPDEST PUSH0 PUSH8 0xFFFFFFFFFFFFFFFF DUP3 GT ISZERO PUSH2 0xB63 JUMPI PUSH2 0xB62 PUSH2 0xAD1 JUMP JUMPDEST JUMPDEST PUSH2 0xB6C DUP3 PUSH2 0x97E JUMP JUMPDEST SWAP1 POP PUSH1 0x20 DUP2 ADD SWAP1 POP SWAP2 SWAP1 POP JUMP JUMPDEST DUP3 DUP2 DUP4 CALLDATACOPY PUSH0 DUP4 DUP4 ADD MSTORE POP POP POP JUMP JUMPDEST PUSH0 PUSH2 0xB99 PUSH2 0xB94 DUP5 PUSH2 0xB49 JUMP JUMPDEST PUSH2 0xB2F JUMP JUMPDEST SWAP1 POP DUP3 DUP2 MSTORE PUSH1 0x20 DUP2 ADD DUP5 DUP5 DUP5 ADD GT ISZERO PUSH2 0xBB5 JUMPI PUSH2 0xBB4 PUSH2 0xACD JUMP JUMPDEST JUMPDEST PUSH2 0xBC0 DUP5 DUP3 DUP6 PUSH2 0xB79 JUMP JUMPDEST POP SWAP4 SWAP3 POP POP POP JUMP JUMPDEST PUSH0 DUP3 PUSH1 0x1F DUP4 ADD SLT PUSH2 0xBDC JUMPI PUSH2 0xBDB PUSH2 0xAC9 JUMP JUMPDEST JUMPDEST DUP2 CALLDATALOAD PUSH2 0xBEC DUP5 DUP3 PUSH1 0x20 DUP7 ADD PUSH2 0xB87 JUMP JUMPDEST SWAP2 POP POP SWAP3 SWAP2 POP POP JUMP JUMPDEST PUSH0 DUP1 PUSH0 DUP1 PUSH0 DUP1 PUSH0 DUP1 PUSH0 DUP1 PUSH2 0x140 DUP12 DUP14 SUB SLT ISZERO PUSH2 0xC14 JUMPI PUSH2 0xC13 PUSH2 0x897 JUMP JUMPDEST JUMPDEST PUSH0 PUSH2 0xC21 DUP14 DUP3 DUP15 ADD PUSH2 0xAB5 JUMP JUMPDEST SWAP11 POP POP PUSH1 0x20 DUP12 ADD CALLDATALOAD PUSH8 0xFFFFFFFFFFFFFFFF DUP2 GT ISZERO PUSH2 0xC42 JUMPI PUSH2 0xC41 PUSH2 0x89B JUMP JUMPDEST JUMPDEST PUSH2 0xC4E DUP14 DUP3 DUP15 ADD PUSH2 0xBC8 JUMP JUMPDEST SWAP10 POP POP PUSH1 0x40 DUP12 ADD CALLDATALOAD PUSH8 0xFFFFFFFFFFFFFFFF DUP2 GT ISZERO PUSH2 0xC6F JUMPI PUSH2 0xC6E PUSH2 0x89B JUMP JUMPDEST JUMPDEST PUSH2 0xC7B DUP14 DUP3 DUP15 ADD PUSH2 0xBC8 JUMP JUMPDEST SWAP9 POP POP PUSH1 0x60 DUP12 ADD CALLDATALOAD PUSH8 0xFFFFFFFFFFFFFFFF DUP2 GT ISZERO PUSH2 0xC9C JUMPI PUSH2 0xC9B PUSH2 0x89B JUMP JUMPDEST JUMPDEST PUSH2 0xCA8 DUP14 DUP3 DUP15 ADD PUSH2 0xBC8 JUMP JUMPDEST SWAP8 POP POP PUSH1 0x80 DUP12 ADD CALLDATALOAD PUSH8 0xFFFFFFFFFFFFFFFF DUP2 GT ISZERO PUSH2 0xCC9 JUMPI PUSH2 0xCC8 PUSH2 0x89B JUMP JUMPDEST JUMPDEST PUSH2 0xCD5 DUP14 DUP3 DUP15 ADD PUSH2 0xBC8 JUMP JUMPDEST SWAP7 POP POP PUSH1 0xA0 DUP12 ADD CALLDATALOAD PUSH8 0xFFFFFFFFFFFFFFFF DUP2 GT ISZERO PUSH2 0xCF6 JUMPI PUSH2 0xCF5 PUSH2 0x89B JUMP JUMPDEST JUMPDEST PUSH2 0xD02 DUP14 DUP3 DUP15 ADD PUSH2 0xBC8 JUMP JUMPDEST SWAP6 POP POP PUSH1 0xC0 DUP12 ADD CALLDATALOAD PUSH8 0xFFFFFFFFFFFFFFFF DUP2 GT ISZERO PUSH2 0xD23 JUMPI PUSH2 0xD22 PUSH2 0x89B JUMP JUMPDEST JUMPDEST PUSH2 0xD2F DUP14 DUP3 DUP15 ADD PUSH2 0xBC8 JUMP JUMPDEST SWAP5 POP POP PUSH1 0xE0 DUP12 ADD CALLDATALOAD PUSH8 0xFFFFFFFFFFFFFFFF DUP2 GT ISZERO PUSH2 0xD50 JUMPI PUSH2 0xD4F PUSH2 0x89B JUMP JUMPDEST JUMPDEST PUSH2 0xD5C DUP14 DUP3 DUP15 ADD PUSH2 0xBC8 JUMP JUMPDEST SWAP4 POP POP PUSH2 0x100 DUP12 ADD CALLDATALOAD PUSH8 0xFFFFFFFFFFFFFFFF DUP2 GT ISZERO PUSH2 0xD7E JUMPI PUSH2 0xD7D PUSH2 0x89B JUMP JUMPDEST JUMPDEST PUSH2 0xD8A DUP14 DUP3 DUP15 ADD PUSH2 0xBC8 JUMP JUMPDEST SWAP3 POP POP PUSH2 0x120 DUP12 ADD CALLDATALOAD PUSH8 0xFFFFFFFFFFFFFFFF DUP2 GT ISZERO PUSH2 0xDAC JUMPI PUSH2 0xDAB PUSH2 0x89B JUMP JUMPDEST JUMPDEST PUSH2 0xDB8 DUP14 DUP3 DUP15 ADD PUSH2 0xBC8 JUMP JUMPDEST SWAP2 POP POP SWAP3 SWAP6 SWAP9 SWAP12 SWAP2 SWAP5 SWAP8 SWAP11 POP SWAP3 SWAP6 SWAP9 POP JUMP JUMPDEST PUSH2 0xDD3 DUP2 PUSH2 0x8BE JUMP JUMPDEST DUP3 MSTORE POP POP JUMP JUMPDEST PUSH0 PUSH1 0x20 DUP3 ADD SWAP1 POP PUSH2 0xDEC PUSH0 DUP4 ADD DUP5 PUSH2 0xDCA JUMP JUMPDEST SWAP3 SWAP2 POP POP JUMP JUMPDEST PUSH0 DUP2 ISZERO ISZERO SWAP1 POP SWAP2 SWAP1 POP JUMP JUMPDEST PUSH2 0xE06 DUP2 PUSH2 0xDF2 JUMP JUMPDEST DUP3 MSTORE POP POP JUMP JUMPDEST PUSH0 PUSH1 0x20 DUP3 ADD SWAP1 POP PUSH2 0xE1F PUSH0 DUP4 ADD DUP5 PUSH2 0xDFD JUMP JUMPDEST SWAP3 SWAP2 POP POP JUMP JUMPDEST PUSH32 0x4E487B7100000000000000000000000000000000000000000000000000000000 PUSH0 MSTORE PUSH1 0x22 PUSH1 0x4 MSTORE PUSH1 0x24 PUSH0 REVERT JUMPDEST PUSH0 PUSH1 0x2 DUP3 DIV SWAP1 POP PUSH1 0x1 DUP3 AND DUP1 PUSH2 0xE69 JUMPI PUSH1 0x7F DUP3 AND SWAP2 POP JUMPDEST PUSH1 0x20 DUP3 LT DUP2 SUB PUSH2 0xE7C JUMPI PUSH2 0xE7B PUSH2 0xE25 JUMP JUMPDEST JUMPDEST POP SWAP2 SWAP1 POP JUMP JUMPDEST PUSH32 0x566F7573206E206574657320706173206175746F726973652061206566666563 PUSH0 DUP3 ADD MSTORE PUSH32 0x74756572206365747465206F7065726174696F6E2E0000000000000000000000 PUSH1 0x20 DUP3 ADD MSTORE POP JUMP JUMPDEST PUSH0 PUSH2 0xEDC PUSH1 0x35 DUP4 PUSH2 0x946 JUMP JUMPDEST SWAP2 POP PUSH2 0xEE7 DUP3 PUSH2 0xE82 JUMP JUMPDEST PUSH1 0x40 DUP3 ADD SWAP1 POP SWAP2 SWAP1 POP JUMP JUMPDEST PUSH0 PUSH1 0x20 DUP3 ADD SWAP1 POP DUP2 DUP2 SUB PUSH0 DUP4 ADD MSTORE PUSH2 0xF09 DUP2 PUSH2 0xED0 JUMP JUMPDEST SWAP1 POP SWAP2 SWAP1 POP JUMP JUMPDEST PUSH0 DUP2 SWAP1 POP DUP2 PUSH0 MSTORE PUSH1 0x20 PUSH0 KECCAK256 SWAP1 POP SWAP2 SWAP1 POP JUMP JUMPDEST PUSH0 PUSH1 0x20 PUSH1 0x1F DUP4 ADD DIV SWAP1 POP SWAP2 SWAP1 POP JUMP JUMPDEST PUSH0 DUP3 DUP3 SHL SWAP1 POP SWAP3 SWAP2 POP POP JUMP JUMPDEST PUSH0 PUSH1 0x8 DUP4 MUL PUSH2 0xF6C PUSH32 0xFFFFFFFFFFFFFFFFFFFFFFFFFFFFFFFFFFFFFFFFFFFFFFFFFFFFFFFFFFFFFFFF DUP3 PUSH2 0xF31 JUMP JUMPDEST PUSH2 0xF76 DUP7 DUP4 PUSH2 0xF31 JUMP JUMPDEST SWAP6 POP DUP1 NOT DUP5 AND SWAP4 POP DUP1 DUP7 AND DUP5 OR SWAP3 POP POP POP SWAP4 SWAP3 POP POP POP JUMP JUMPDEST PUSH0 DUP2 SWAP1 POP SWAP2 SWAP1 POP JUMP JUMPDEST PUSH0 PUSH2 0xFB1 PUSH2 0xFAC PUSH2 0xFA7 DUP5 PUSH2 0x924 JUMP JUMPDEST PUSH2 0xF8E JUMP JUMPDEST PUSH2 0x924 JUMP JUMPDEST SWAP1 POP SWAP2 SWAP1 POP JUMP JUMPDEST PUSH0 DUP2 SWAP1 POP SWAP2 SWAP1 POP JUMP JUMPDEST PUSH2 0xFCA DUP4 PUSH2 0xF97 JUMP JUMPDEST PUSH2 0xFDE PUSH2 0xFD6 DUP3 PUSH2 0xFB8 JUMP JUMPDEST DUP5 DUP5 SLOAD PUSH2 0xF3D JUMP JUMPDEST DUP3 SSTORE POP POP POP POP JUMP JUMPDEST PUSH0 SWAP1 JUMP JUMPDEST PUSH2 0xFF2 PUSH2 0xFE6 JUMP JUMPDEST PUSH2 0xFFD DUP2 DUP5 DUP5 PUSH2 0xFC1 JUMP JUMPDEST POP POP POP JUMP JUMPDEST JUMPDEST DUP2 DUP2 LT ISZERO PUSH2 0x1020 JUMPI PUSH2 0x1015 PUSH0 DUP3 PUSH2 0xFEA JUMP JUMPDEST PUSH1 0x1 DUP2 ADD SWAP1 POP PUSH2 0x1003 JUMP JUMPDEST POP POP JUMP JUMPDEST PUSH1 0x1F DUP3 GT ISZERO PUSH2 0x1065 JUMPI PUSH2 0x1036 DUP2 PUSH2 0xF10 JUMP JUMPDEST PUSH2 0x103F DUP5 PUSH2 0xF22 JUMP JUMPDEST DUP2 ADD PUSH1 0x20 DUP6 LT ISZERO PUSH2 0x104E JUMPI DUP2 SWAP1 POP JUMPDEST PUSH2 0x1062 PUSH2 0x105A DUP6 PUSH2 0xF22 JUMP JUMPDEST DUP4 ADD DUP3 PUSH2 0x1002 JUMP JUMPDEST POP POP JUMPDEST POP POP POP JUMP JUMPDEST PUSH0 DUP3 DUP3 SHR SWAP1 POP SWAP3 SWAP2 POP POP JUMP JUMPDEST PUSH0 PUSH2 0x1085 PUSH0 NOT DUP5 PUSH1 0x8 MUL PUSH2 0x106A JUMP JUMPDEST NOT DUP1 DUP4 AND SWAP2 POP POP SWAP3 SWAP2 POP POP JUMP JUMPDEST PUSH0 PUSH2 0x109D DUP4 DUP4 PUSH2 0x1076 JUMP JUMPDEST SWAP2 POP DUP3 PUSH1 0x2 MUL DUP3 OR SWAP1 POP SWAP3 SWAP2 POP POP JUMP JUMPDEST PUSH2 0x10B6 DUP3 PUSH2 0x93C JUMP JUMPDEST PUSH8 0xFFFFFFFFFFFFFFFF DUP2 GT ISZERO PUSH2 0x10CF JUMPI PUSH2 0x10CE PUSH2 0xAD1 JUMP JUMPDEST JUMPDEST PUSH2 0x10D9 DUP3 SLOAD PUSH2 0xE52 JUMP JUMPDEST PUSH2 0x10E4 DUP3 DUP3 DUP6 PUSH2 0x1024 JUMP JUMPDEST PUSH0 PUSH1 0x20 SWAP1 POP PUSH1 0x1F DUP4 GT PUSH1 0x1 DUP2 EQ PUSH2 0x1115 JUMPI PUSH0 DUP5 ISZERO PUSH2 0x1103 JUMPI DUP3 DUP8 ADD MLOAD SWAP1 POP JUMPDEST PUSH2 0x110D DUP6 DUP3 PUSH2 0x1092 JUMP JUMPDEST DUP7 SSTORE POP PUSH2 0x1174 JUMP JUMPDEST PUSH1 0x1F NOT DUP5 AND PUSH2 0x1123 DUP7 PUSH2 0xF10 JUMP JUMPDEST PUSH0 JUMPDEST DUP3 DUP2 LT ISZERO PUSH2 0x114A JUMPI DUP5 DUP10 ADD MLOAD DUP3 SSTORE PUSH1 0x1 DUP3 ADD SWAP2 POP PUSH1 0x20 DUP6 ADD SWAP5 POP PUSH1 0x20 DUP2 ADD SWAP1 POP PUSH2 0x1125 JUMP JUMPDEST DUP7 DUP4 LT ISZERO PUSH2 0x1167 JUMPI DUP5 DUP10 ADD MLOAD PUSH2 0x1163 PUSH1 0x1F DUP10 AND DUP3 PUSH2 0x1076 JUMP JUMPDEST DUP4 SSTORE POP JUMPDEST PUSH1 0x1 PUSH1 0x2 DUP9 MUL ADD DUP9 SSTORE POP POP POP JUMPDEST POP POP POP POP POP POP JUMP INVALID LOG2 PUSH5 0x6970667358 0x22 SLT KECCAK256 0xAB DUP3 EXP ADD JUMP 0x2B CREATE2 0xBA SWAP5 0xD9 0xF8 0xD9 0xE5 PUSH6 0x2F6AEA2C41C6 SELFDESTRUCT 0xB9 0xC9 0xC6 DUP5 MOD DUP11 0xE7 0xE9 JUMP 0xB4 0xF PUSH5 0x736F6C6343 STOP ADDMOD AND STOP CALLER "
		},
		"gasEstimates": {
			"creation": {
				"codeDepositCost": "906000",
				"executionCost": "25205",
				"totalCost": "931205"
			},
			"external": {
				"creerEntreprise(uint256,string,string,string,string,string,string,string,string,string)": "infinite",
				"devenirAgent()": "24496",
				"entreprises(address)": "infinite",
				"estAgent(address)": "2899",
				"owner()": "2549"
			}
		},
		"methodIdentifiers": {
			"creerEntreprise(uint256,string,string,string,string,string,string,string,string,string)": "8d26af78",
			"devenirAgent()": "6c5aea72",
			"entreprises(address)": "65eb3035",
			"estAgent(address)": "d86c73b4",
			"owner()": "8da5cb5b"
		}
	},
	"abi": [
		{
			"inputs": [],
			"stateMutability": "nonpayable",
			"type": "constructor"
		},
		{
			"inputs": [
				{
					"internalType": "uint256",
					"name": "_ID_Entreprise",
					"type": "uint256"
				},
				{
					"internalType": "string",
					"name": "_Nom",
					"type": "string"
				},
				{
					"internalType": "string",
					"name": "_Secteur",
					"type": "string"
				},
				{
					"internalType": "string",
					"name": "_Date_Creation",
					"type": "string"
				},
				{
					"internalType": "string",
					"name": "_Classification_Taille",
					"type": "string"
				},
				{
					"internalType": "string",
					"name": "_Pays",
					"type": "string"
				},
				{
					"internalType": "string",
					"name": "_Adresse",
					"type": "string"
				},
				{
					"internalType": "string",
					"name": "_Courriel",
					"type": "string"
				},
				{
					"internalType": "string",
					"name": "_Telephone",
					"type": "string"
				},
				{
					"internalType": "string",
					"name": "_Site_Web",
					"type": "string"
				}
			],
			"name": "creerEntreprise",
			"outputs": [],
			"stateMutability": "nonpayable",
			"type": "function"
		},
		{
			"inputs": [],
			"name": "devenirAgent",
			"outputs": [],
			"stateMutability": "nonpayable",
			"type": "function"
		},
		{
			"inputs": [
				{
					"internalType": "address",
					"name": "",
					"type": "address"
				}
			],
			"name": "entreprises",
			"outputs": [
				{
					"internalType": "uint256",
					"name": "ID_Entreprise",
					"type": "uint256"
				},
				{
					"internalType": "string",
					"name": "Nom",
					"type": "string"
				},
				{
					"internalType": "string",
					"name": "Secteur",
					"type": "string"
				},
				{
					"internalType": "string",
					"name": "Date_Creation",
					"type": "string"
				},
				{
					"internalType": "string",
					"name": "Classification_Taille",
					"type": "string"
				},
				{
					"internalType": "string",
					"name": "Pays",
					"type": "string"
				},
				{
					"internalType": "string",
					"name": "Adresse",
					"type": "string"
				},
				{
					"internalType": "string",
					"name": "Courriel",
					"type": "string"
				},
				{
					"internalType": "string",
					"name": "Telephone",
					"type": "string"
				},
				{
					"internalType": "string",
					"name": "Site_Web",
					"type": "string"
				}
			],
			"stateMutability": "view",
			"type": "function"
		},
		{
			"inputs": [
				{
					"internalType": "address",
					"name": "",
					"type": "address"
				}
			],
			"name": "estAgent",
			"outputs": [
				{
					"internalType": "bool",
					"name": "",
					"type": "bool"
				}
			],
			"stateMutability": "view",
			"type": "function"
		},
		{
			"inputs": [],
			"name": "owner",
			"outputs": [
				{
					"internalType": "address",
					"name": "",
					"type": "address"
				}
			],
			"stateMutability": "view",
			"type": "function"
		}
	]
}